:020000040800F2
:10000000000002209D240008091F00080B1F0008A3
:100010000D1F00080F1F0008111F0008000000003E
:1000200000000000000000000000000091520008E5
:10003000131F00080000000031530008955300080A
:10004000ED240008ED240008ED240008ED2400084C
:10005000ED240008ED240008ED240008ED2400083C
:10006000ED240008ED240008ED240008ED2400082C
:10007000151F0008ED240008251F0008ED240008C6
:10008000ED240008ED240008ED240008ED2400080C
:10009000ED240008ED240008ED240008ED240008FC
:1000A000ED240008351F0008ED240008ED240008A9
:1000B000ED240008ED240008ED240008ED240008DC
:1000C000ED240008ED240008ED240008ED240008CC
:1000D000ED240008451F0008ED240008551F000806
:1000E000ED240008ED240008ED240008ED240008AC
:1000F000ED240008ED240008ED240008ED2400089C
:10010000ED240008ED240008ED240008ED2400088B
:10011000ED240008ED240008ED240008ED2400087B
:10012000ED240008ED240008ED240008DD1F000880
:10013000ED240008ED240008ED240008ED2400085B
:10014000ED240008ED240008ED240008ED1F000850
:10015000ED240008ED240008ED240008ED2400083B
:10016000ED240008ED240008ED240008ED2400082B
:10017000ED240008ED240008ED2400080000000034
:08018000ED240008ED24000845
:1001C00053B94AB9002908BF00281CBF4FF0FF31BE
:1001D0004FF0FF3000F00CB8ADF1080C6DE904CE23
:1001E00034F0C0F8DDF804E0DDE9022304B0704724
:1001F000704700BF00000000000000000000000089
:1002000002780B78012A28BF9A4240F0D8806DE925
:10021000044540EA0104CDE902676FF0000C4FEAA3
:1002200044721AB380EA010414F0070F6BD100F096
:10023000070420F0070004F0030521F007014FEA4E
:10024000C505F0E8042314F0040FF1E804670CFA84
:1002500005F462EA040266EA04060BD063EA0403CA
:10026000624667EA0407664604E000BFF0E804233C
:10027000F1E8046782FA4CF582EA0604A4FA8CF4E9
:100280006CBB83FA4CF583EA0705A5FA8CF595B9A2
:1002900050E9022351E9026782FA4CF582EA06042A
:1002A000A4FA8CF483FA4CF583EA0705A5FA8CF5D9
:1002B0002543DBD09CB92DBAB5FA85F424F00704A8
:1002C00027FA04F1DDE9026723FA04F303F0FF00E3
:1002D00001F0FF01FDE80445A0EB0100704724BADE
:1002E000B4FA84F424F0070426FA04F1DDE9026785
:1002F00022FA04F202F0FF0001F0FF01FDE80445DC
:10030000A0EB0100704714F0030F3CD110F0030480
:1003100028D150F8082B51F8083B82FA4CF582EAB4
:100320000305A5FA8CF55DB950F8042C51F8043C8E
:1003300082FA4CF582EA0305A5FA8CF5002DE8D087
:100340002DBAB5FA85F424F0070423FA04F122FA51
:1003500004F202F0FF0001F0FF01FDE80445A0EB0C
:10036000010070474FEAC40420F0030050F8082B46
:1003700021F0030151F8083B0CFA04F462EA04028C
:1003800063EA0403C9E710F003041DD0A1EB0401E4
:1003900020F00300E40750F8042B06D012D28B782B
:1003A0005FFAA2F4E41A06D12BB1CB785FFAB2F46B
:1003B000E41A00D133B920465DF8104B7047A2EB28
:1003C0000300704701F1040150F8042BCC0721F021
:1003D000030151F8043B48D824D222F07F4482FA2A
:1003E0004CF594EA1325A5FA8CF50AD165B951F8B4
:1003F000043B84EA0204B4EB036F0ED150F8042BE3
:10040000EBE74FEA132355E035F07F454DD10878EF
:10041000FDE80445C0F1000070474FEA126203F0A6
:10042000FF0347E002EA1C4482FA4CF594EA1345C4
:10043000A5FA8CF50AD165B951F8043B84EA0204A7
:10044000B4EB034F0CD150F8042BEBE74FEA134306
:1004500030E015EA1C4528D10B884FEA124229E00A
:100460004FEA124203EA1C4324E002F0FF0482FA3E
:100470004CF594EA1365A5FA8CF50AD165B951F8E3
:10048000043B84EA0204B4EB032F09D150F8042B97
:10049000EBE74FEA13630DE015F0FF0F05D10B6892
:1004A0004FEA122223F07F4304E04FF00000FDE802
:1004B0000445704712BA1BBA82FA4CF482EA03046C
:1004C000A4FA8CF5B5FA85F402FA04F203FA04F3FF
:1004D0004FEA1260FDE80445A0EB1360704700BFCF
:1004E000844641EA000313F003036DD1403A41D33F
:1004F00051F8043B40F8043B51F8043B40F8043BFE
:1005000051F8043B40F8043B51F8043B40F8043BED
:1005100051F8043B40F8043B51F8043B40F8043BDD
:1005200051F8043B40F8043B51F8043B40F8043BCD
:1005300051F8043B40F8043B51F8043B40F8043BBD
:1005400051F8043B40F8043B51F8043B40F8043BAD
:1005500051F8043B40F8043B51F8043B40F8043B9D
:1005600051F8043B40F8043B51F8043B40F8043B8D
:10057000403ABDD2303211D351F8043B40F8043B2D
:1005800051F8043B40F8043B51F8043B40F8043B6D
:1005900051F8043B40F8043B103AEDD20C3205D33D
:1005A00051F8043B40F8043B043AF9D2043208D035
:1005B000D2071CBF11F8013B00F8013B01D30B88A7
:1005C00003806046704700BF082A13D38B078DD085
:1005D00010F003038AD0C3F10403D21ADB071CBF57
:1005E00011F8013B00F8013B80D331F8023B20F8C1
:1005F000023B7BE7043AD9D3013A11F8013B00F8FA
:10060000013BF9D20B7803704B7843708B78837081
:10061000604670470000000000000000000000007D
:1006200000000000000000000000000000000000CA
:1006300000000000000000000000000000000000BA
:1006400030B490F800F020F007016FF0000C10F0CB
:10065000070491F820F040F048804FF000046FF05C
:100660000700D1E9002391F840F000F1080082FA78
:100670004CF2A4FA8CF283FA4CF3A2FA8CF34BBB43
:10068000D1E9022382FA4CF200F10800A4FA8CF2BC
:1006900083FA4CF3A2FA8CF3E3B9D1E9042382FA8A
:1006A0004CF200F10800A4FA8CF283FA4CF3A2FA9F
:1006B0008CF37BB9D1E9062301F1200182FA4CF2D7
:1006C00000F10800A4FA8CF283FA4CF3A2FA8CF33E
:1006D000002BC6D0002A04BF04301A4612BAB2FA60
:1006E00082F200EBD20030BC7047D1E9002304F065
:1006F0000305C4F100004FEAC50514F0040F91F89A
:1007000040F00CFA05F562EA05021CBF63EA050336
:1007100062464FF00004AAE700000000000000005D
:1007200001F0FF01102A2BDB10F0070F08D010F8A2
:10073000013B013A8B422DD010F0070F42B3F6D1A6
:10074000F0B441EA012141EA014122F007047FF0BF
:1007500000070023F0E80256083C85EA010586EA16
:10076000010685FA47F5A3FA87F586FA47F6A5FA52
:1007700087F68EB9EED1F0BC01F0FF0102F007025E
:1007800032B110F8013B013A83EA010313B1F8D109
:100790000020704701387047002D06BF35460338EA
:1007A000073815F0010F07D1013015F4807F02BF23
:1007B000013015F4C03F0130F0BC0138704700BF74
:1007C00081F0004102E000BF83F0004330B54FEA02
:1007D00041044FEA430594EA050F08BF90EA020F6F
:1007E0001FBF54EA000C55EA020C7FEA645C7FEA02
:1007F000655C00F0E2804FEA5454D4EB5555B8BF25
:100800006D420CDD2C4480EA020281EA030382EA95
:10081000000083EA010180EA020281EA0303362D27
:1008200088BF30BD11F0004F4FEA01314FF4801CFA
:100830004CEA113102D0404261EB410113F0004F0C
:100840004FEA03334CEA133302D0524263EB4303C3
:1008500094EA050F00F0A780A4F10104D5F1200E61
:100860000DDB02FA0EFC22FA05F2801841F10001BC
:1008700003FA0EF2801843FA05F359410EE0A5F190
:1008800020050EF1200E012A03FA0EFC28BF4CF0C1
:10089000020C43FA05F3C01851EBE37101F0004577
:1008A00007D54FF0000EDCF1000C7EEB00006EEB84
:1008B0000101B1F5801F1BD3B1F5001F0CD349080E
:1008C0005FEA30004FEA3C0C04F101044FEA445265
:1008D00012F5800F80F09A80BCF1004F08BF5FEAEC
:1008E000500C50F1000041EB045141EA050130BDCC
:1008F0005FEA4C0C404141EB0101013C28BFB1F5DE
:10090000801FE9D291F0000F04BF01460020B1FA28
:1009100081F308BF2033A3F10B03B3F120020CDAFB
:100920000C3208DD02F1140CC2F10C0201FA0CF0D9
:1009300021FA02F10CE002F11402D8BFC2F1200C3E
:1009400001FA02F120FA0CFCDCBF41EA0C019040F4
:10095000E41AA2BF01EB0451294330BD6FEA04043D
:100960001F3C1CDA0C340EDC04F11404C4F1200228
:1009700020FA04F001FA02F340EA030021FA04F33A
:1009800045EA030130BDC4F10C04C4F1200220FA91
:1009900002F001FA04F340EA0300294630BD21FACF
:1009A00004F0294630BD94F0000F83F4801306BF95
:1009B00081F480110134013D4EE77FEA645C18BF89
:1009C0007FEA655C29D094EA050F08BF90EA020F20
:1009D00005D054EA000C04BF1946104630BD91EA18
:1009E000030F1EBF0021002030BD5FEA545C05D11B
:1009F0004000494128BF41F0004130BD14F580045A
:100A00003CBF01F5801130BD01F0004545F0FE41CD
:100A100041F470014FF0000030BD7FEA645C1ABF02
:100A2000194610467FEA655C1CBF0B46024650EA39
:100A3000013406BF52EA033591EA030F41F4002165
:100A400030BD00BF90F0000F04BF0021704730B5EB
:100A50004FF4806404F132044FF000054FF00001C0
:100A600050E700BF90F0000F04BF0021704730B581
:100A70004FF4806404F1320410F0004548BF404256
:100A80004FF000013EE700BF42004FEAE2014FEAAB
:100A900031014FEA02701FBF12F07F4393F07F4F86
:100AA00081F06051704732F07F4208BF704793F089
:100AB0007F4F04BF41F40021704730B54FF460749C
:100AC00001F0004521F000411CE700BF50EA01029F
:100AD00008BF704730B54FF000050AE050EA010248
:100AE00008BF704730B511F0004502D5404261EBB8
:100AF00041014FF4806404F132045FEA915C3FF4F9
:100B0000D8AE4FF003025FEADC0C18BF03325FEA95
:100B1000DC0C18BF033202EBDC02C2F1200300FA46
:100B200003FC20FA02F001FA03FE40EA0E0021FA6B
:100B300002F11444BDE600BF70B54FF0FF0C4CF459
:100B4000E06C1CEA11541DBF1CEA135594EA0C0F0B
:100B500095EA0C0F00F0DEF82C4481EA030621EA46
:100B60004C5123EA4C5350EA013518BF52EA033581
:100B700041F4801143F4801338D0A0FB02CE4FF033
:100B80000005E1FB02E506F00042E0FB03E54FF063
:100B90000006E1FB03569CF0000F18BF4EF0010E5B
:100BA000A4F1FF04B6F5007F64F5407404D25FEA57
:100BB0004E0E6D4146EB060642EAC62141EA55510A
:100BC0004FEAC52040EA5E504FEACE2EB4F1FD0C4C
:100BD00088BFBCF5E06F1ED8BEF1004F08BF5FEACA
:100BE000500E50F1000041EB045170BD06F000467C
:100BF00046EA010140EA020081EA0301B4EB5C0429
:100C0000C2BFD4EB0C0541EA045170BD41F4801120
:100C10004FF0000E013C00F3AB8014F1360FDEBF45
:100C2000002001F0004170BDC4F10004203C35DA21
:100C30000C341BDC04F11404C4F1200500FA05F3A4
:100C400020FA04F001FA05F240EA020001F0004245
:100C500021F0004110EBD37021FA04F642EB0601BB
:100C60005EEA430E08BF20EAD37070BDC4F10C04E5
:100C7000C4F1200500FA04F320FA05F001FA04F2A9
:100C800040EA020001F0004110EBD37041F1000195
:100C90005EEA430E08BF20EAD37070BDC4F12005A0
:100CA00000FA05F24EEA020E20FA04F301FA05F208
:100CB00043EA020321FA04F001F0004121FA04F2B0
:100CC00020EA020000EBD3705EEA430E08BF20EA80
:100CD000D37070BD94F0000F0FD101F000464000BA
:100CE00041EB010111F4801F08BF013CF7D041EA3C
:100CF000060195F0000F18BF704703F00046520040
:100D000043EB030313F4801F08BF013DF7D043EA10
:100D10000603704794EA0C0F0CEA135518BF95EAC6
:100D20000C0F0CD050EA410618BF52EA4306D1D14D
:100D300081EA030101F000414FF0000070BD50EA6C
:100D4000410606BF1046194652EA430619D094EAF6
:100D50000C0F02D150EA013613D195EA0C0F05D1E0
:100D600052EA03361CBF104619460AD181EA030134
:100D700001F0004141F0FE4141F470014FF00000EC
:100D800070BD41F0FE4141F4780170BD70B54FF087
:100D9000FF0C4CF4E06C1CEA11541DBF1CEA135507
:100DA00094EA0C0F95EA0C0F00F0A7F8A4EB0504E9
:100DB00081EA030E52EA03354FEA013100F08880E0
:100DC0004FEA03334FF0805545EA131343EA1263A9
:100DD0004FEA022245EA111545EA10654FEA00265E
:100DE0000EF000419D4208BF964244F1FD0404F517
:100DF000407402D25B084FEA3202B61A65EB030573
:100E00005B084FEA32024FF480104FF4002CB6EB2F
:100E1000020E75EB030E22BFB61A754640EA0C00AF
:100E20005B084FEA3202B6EB020E75EB030E22BFEF
:100E3000B61A754640EA5C005B084FEA3202B6EB30
:100E4000020E75EB030E22BFB61A754640EA9C00EF
:100E50005B084FEA3202B6EB020E75EB030E22BFBF
:100E6000B61A754640EADC0055EA060E18D04FEA7D
:100E7000051545EA16754FEA06164FEAC30343EA1D
:100E800052734FEAC2025FEA1C1CC0D111F4801FEA
:100E90000BD141EA00014FF000004FF0004CB6E7E3
:100EA00011F4801F04BF01430020B4F1FD0C88BF82
:100EB000BCF5E06F3FF6AFAEB5EB030C04BFB6EB8D
:100EC000020C5FEA500C50F1000041EB045170BD80
:100ED0000EF0004E4EEA113114EB5C04C2BFD4EBAD
:100EE0000C0541EA045170BD41F480114FF0000E31
:100EF000013C90E645EA060E8DE60CEA135594EAAD
:100F00000C0F08BF95EA0C0F3FF43BAF94EA0C0FAF
:100F10000AD150EA01347FF434AF95EA0C0F7FF424
:100F200025AF104619462CE795EA0C0F06D152EA78
:100F300003353FF4FDAE1046194622E750EA41065C
:100F400018BF52EA43067FF4C5AE50EA41047FF46D
:100F50000DAF52EA43057FF4EBAE12E74FF0FF3CD2
:100F600006E000BF4FF0010C02E000BF4FF0010CA3
:100F70004DF804CD4FEA410C7FEA6C5C4FEA430C1C
:100F800018BF7FEA6C5C1BD001B050EA410C0CBF6B
:100F900052EA430C91EA030F02BF90EA020F0020CD
:100FA000704710F1000F91EA030F58BF994208BF34
:100FB00090422CBFD8176FEAE37040F001007047F1
:100FC0004FEA410C7FEA6C5C02D150EA013C07D148
:100FD0004FEA430C7FEA6C5CD6D152EA033CD3D093
:100FE0005DF8040B704700BF8446104662468C468D
:100FF0001946634600E000BF01B5FFF7B7FF0028C0
:1010000048BF10F1000F01BD4DF808EDFFF7F4FFE8
:101010000CBF012000205DF808FB00BF4DF808ED73
:10102000FFF7EAFF34BF012000205DF808FB00BF96
:101030004DF808EDFFF7E0FF94BF012000205DF8B8
:1010400008FB00BF4DF808EDFFF7CEFF94BF01206D
:1010500000205DF808FB00BF4DF808EDFFF7C4FF66
:1010600034BF012000205DF808FB00BF4FEA410CAF
:101070007FEA6C5C02D150EA013C0AD14FEA430C92
:101080007FEA6C5C02D152EA033C02D14FF00000CF
:1010900070474FF0010070474FEA410212F500120D
:1010A00015D211D56FF47873B3EB625212D94FEAAF
:1010B000C12343F0004343EA505311F0004F23FA99
:1010C00002F018BF404270474FF00000704750EAEE
:1010D000013005D111F0004008BF6FF000407047AB
:1010E0004FF00000704700BF0348044B834202D01A
:1010F000034B03B118477047B4070020B407002022
:10110000000000000548064B1B1AD90F01EBA30194
:10111000491002D0034B03B118477047B4070020B1
:10112000B40700200000000010B5064C237843B936
:10113000FFF7DAFF044B13B10448AFF3008001233B
:10114000237010BD8033002000000000F4A70308C6
:1011500008B5054B1BB105490548AFF30080BDE854
:101160000840FFF7CFBF00BF00000000843300201D
:10117000F4A7030800230B4A13800B4A13800B4A81
:1011800013800B4A138001220A490A700A490B8016
:101190000A490B800A490B800A490B800A4B1A70D6
:1011A000704700BF16340020143400201234002091
:1011B000103400200E3400200C3400200A340020AB
:1011C00008340020063400200434002008B51C4BED
:1011D0001B889BB29B011B4AD35C072B1DD0184A6E
:1011E00013889BB201339BB2138013889BB2082BE8
:1011F00017D0154A13889BB201339BB21380124B50
:101200001B889BB2114A128892B29B1A9BB2082B80
:101210000BD10F4B01221A7008BD0E4B01221A7020
:10122000EDE7134600221A80E3E7054B1A8892B2D5
:101230004023044901EB8212012106F0EFFBEBE7AA
:1012400016340020C01D002012340020103400206D
:101250000E34002031980020012912D010B5044628
:1012600007290DD10B4B00221A7040230A4A012195
:1012700006F0D4FB4023094A0221204606F0CEFBAB
:1012800010BD0023064A1370064A1370064A1370F5
:10129000704700BFF0330020C01D0020C01F002099
:1012A000464400204544002044440020164B1A8840
:1012B00092B2164B1B889BB29A4203D1144B012267
:1012C0001A70704710B5134C228892B223889BB2D3
:1012D000114931F81330114901EB8212812106F0D6
:1012E000CDFA23889BB201339BB2238023889BB223
:1012F000082B06D0054A13889BB201339BB213809A
:1013000010BD00222280F5E70834002006340020BA
:10131000043400200A340020F4330020C01B0020D5
:1013200038B504460A4D0B49284604F037FE2846D6
:1013300004F02DFE3F2803D8074B01221A7038BD58
:101340004023044A0221204606F068FBF7E700BF6D
:1013500024340020C01F00204644002070B582B015
:10136000054614461146144804F061FE14F03F0F80
:1013700000D144B9104804F006FE58B90F4B0122C1
:101380001A7002B070BD00231A468221284606F06A
:1013900075FAF6E701A9084804F031FE0146019EFE
:1013A000074C32462046FFF79BF8334622468221FF
:1013B000284606F063FAE4E7343400204544002070
:1013C0004434002038B504460D464FF4805222497B
:1013D000224804F0BBFD4FF480622149214804F00B
:1013E000B5FD09F01BFDFFF7C5FE1F49204605F0BE
:1013F00063FC1E49204605F08BFC1D49204605F084
:101400007DFC1C49204605F08DFC1B49204605F05B
:10141000A3FC1A49204605F09FFC1949204604F018
:101420000BFE0146204605F07DFC1649204604F0DF
:1014300003FE0146204605F075FC1349204605F0E1
:101440008BFC1249204605F087FC114A29462046AC
:1014500005F0BAFC38BD00BFB407002034340020CA
:10146000C0170020243400207CA8030800000020BE
:1014700008000020D4330020280000202000002095
:10148000B83300209C3300201800002010000020FA
:101490005912000838B573E04C4A12889A014C4939
:1014A0008A5C7E2A08D19A0149497F2088540133F9
:1014B000082BF1D10023EFE7464C23889BB2464D21
:1014C0002A8892B2454901EB8211414800EB831012
:1014D00008F037F82B889BB2414A22F81300238882
:1014E0009BB201339BB2238023889BB2082B53D03D
:1014F0003C4A13889BB201339BB213803A4B1B7852
:1015000043B13A4B1B889BB2128892B29B1A9BB292
:10151000082B44D1304A13889BB201339BB213800D
:1015200013889BB2082B48D0314A13889BB20133F1
:101530009BB213802F4B1B7813B3128892B22E4BA1
:101540001B889BB29A421BD02C4B1A8892B2511C1A
:1015500089B219801B889BB2082B32D026490B8890
:101560009BB201339BB20B800020224B18701C4BA6
:1015700033F81230194901EB8212812106F07EF90D
:101580001A4B1A8892B2174B1B889BB29A421CD0F6
:10159000104B1B889BB281E700222280A8E7002025
:1015A000114B1870094B1A8892B24023084901EB7D
:1015B0008212012106F032FAACE7134600221A80AB
:1015C000B2E70E4B00211980C8E738BD1634002061
:1015D000C01D0020143400200C340020C01B00204B
:1015E000F4330020103400200E3400201234002088
:1015F0000834002004340020063400200A3400207F
:10160000064B106818609188927999809A71044B02
:1016100001221A70034B00221A7070471C340020FC
:101620001934002018340020034B18681060998882
:101630009B799180937170471C34002070470000A3
:1016400010B582B0019001460A4C204604F0EFFC30
:10165000204604F098FC20B9074B01221A7002B012
:1016600010BD01A9204604F0CAFCBDF80410FFF724
:10167000E5FFF4E7243400204444002070B582B034
:101680002C4B1B7873B92C4B1B784BB12B4B1B7815
:10169000B3B92B4B1B786BBB2A4B1B78002B3AD171
:1016A00002B070BD234B00221A70274800F092FE52
:1016B0000123224A1370224A13701F4A1370E2E773
:1016C000224804F060FC0028E3D000241B4B1C706F
:1016D00001A91E4804F093FC0146019E1C4D3246B0
:1016E0002846FEF7FDFE33462A468221204606F0B4
:1016F000C5F8CEE7174804F046FC0028CCD0104BC4
:1017000000221A7001A9134804F079FCBDF80410F6
:1017100000F0A6FEC0E70F4804F039FC3F28BFD90F
:101720000020084B187040230B4A022106F076F97E
:10173000B6E700BF193400201834002045440020CB
:1017400044440020464400201C340020343400204F
:101750004434002024340020C01F002010B582B083
:1017600000240094164B1A6B42F400121A631A6B91
:1017700002F400120092009A01941A6B42F4800263
:101780001A631B6B03F480030193019B224605211E
:101790000C2001F0D1FA0C2001F0DEFA22460521DE
:1017A0000E2001F0C9FA0E2001F0D6FA22460521DA
:1017B0003B2001F0C1FA3B2001F0CEFA02B010BD8F
:1017C0000038024008B50D4B1B78DBB2012B00D06E
:1017D00008BD0B4809F0DAFB0028F9D1084B1B685B
:1017E000084A1268934202D0064A1360F0E7054B9C
:1017F00000221A6009F008FCEAE700BFF447002065
:1018000048440020F847002008B5FFF743FEFFF7E3
:1018100035FF04F015FA064BA3FB00235B094FF4D8
:10182000967202FB1303002BEFD1FFF7CBFFECE71F
:10183000B5814E1B08B54FF40051044801F0F7FD87
:101840004FF4FA6003F07FFCF5E700BF00080240A8
:1018500008B525F045FD09F0D5FC08BD08B50B4BD2
:101860001B78DBB2012B00D008BD0949094809F0FB
:1018700065FB0028F8D0064B1B6803F4E0630649BB
:101880001943044809F06EFBEEE700BFF44700205F
:101890004C4400200CED00E00400FA05034B03600B
:1018A000034B0B6080231360704700BF504600203D
:1018B0005044002010B596B04FF0A0410020FFF733
:1018C00081FDA82000F09CF91B4C0DF13C0CA646B4
:1018D000BEE80F00ACE80F009EE807008CE80700A8
:1018E00000210FA803F0FCFB144B18600DF1200C35
:1018F00004F11C0EBEE80F00ACE80F009EE80700E4
:101900008CE80700002108A803F0EAFB0C4B1860E4
:101910000DF1040E04F1380CBCE80F00AEE80F0026
:101920009CE807008EE80700002101A803F0D8FB1F
:10193000044B186016B010BD10A80308F047002033
:10194000EC470020E847002038B5FFF781FF0CF096
:1019500019FC054623F0C2FD04464FF49672FA21A5
:1019600028460DF0CDFC00231A46092128460DF02B
:1019700032FD28460EF0A6FE092120460DF026FD78
:101980001D49204623F0BAFDC822114620460DF01D
:10199000B7FC1A4A1A49204623F0CAFD0023072241
:1019A000194609F0A3FD174A1749204623F0C0FD48
:1019B00000230722194609F099FD144A14492046CC
:1019C00023F0B6FD00230722194609F08FFD114AC6
:1019D0001149204623F0ACFD00230722194609F0E7
:1019E00085FD0E4A0E49204623F0A2FD0023072262
:1019F000194609F07BFD38BD5CAA030864AA0308F8
:101A00006CAA030870AA03087CAA030880AA03082A
:101A100088AA03088CAA030898AA03089CAA0308AA
:101A2000A8AA030808B500F063FD00F07BFD0CF0E8
:101A30007DFB09F071FB09F0CFFBFFF785FF28F074
:101A4000A3FA012003F07FFBF9E700002DE9F04342
:101A50008BB000240594069407940894099400948C
:101A6000444B1A6B42F010021A631A6B02F0100218
:101A70000092009A01941A6B42F004021A631A6BE6
:101A800002F004020192019A02941A6B42F0800261
:101A90001A631A6B02F080020292029A03941A6B84
:101AA00042F001021A631A6B02F001020392039AD8
:101AB00004941A6B42F002021A631B6B03F00203D8
:101AC0000493049BDFF8B89001220421484601F0FA
:101AD000A8FCDFF8B08001224FF40051404601F02D
:101AE000A0FC254F01224FF44071384601F099FCCB
:101AF00022464FF48061384601F093FC1F4E0122CC
:101B00002021304601F08DFC042305930125069524
:101B10000795089405A9484601F086FB4FF4005349
:101B2000059306950795089405A9404601F07CFBAE
:101B30004FF4E063059306950794089405A9384689
:101B400001F072FB2023059306950794089405A9DC
:101B5000304601F069FB4FF4807305934FF488130E
:101B60000693079405A9304601F05EFB0BB0BDE873
:101B7000F08300BF00380240000002400004024031
:101B8000001002400008024030B589B000240394E0
:101B900004940594069407940194174D2B6B43F01D
:101BA00001032B632B6B03F001030193019B4FF4A3
:101BB000C053039302230493032306930A2307933A
:101BC00003A90E4801F030FB6B6B43F080036B639D
:101BD00002946B6C43F480436B646B6C03F480433E
:101BE0000293029B22462146432001F0A5F84320A0
:101BF00001F0B2F809B030BD0038024000000240E8
:101C0000014B1860704700BFFC47002010B44FF034
:101C1000E02254690C4B1B6800FB03FC9369002114
:101C200004E0E01A02441144614509D21A464FF01B
:101C3000E0239B699A42FAD0F3D9D21A1144F3E710
:101C40005DF8044B704700BFFC47002008B50268F0
:101C5000034B9A4200D008BD00F0F4FFFBE700BF41
:101C60000000014072B6FEE700B595B030220021B9
:101C700008A832F0F7FE002303930493059306931C
:101C800007930193204A116C41F080511164126C4A
:101C900002F080520192019A02931C4B1A6842F49E
:101CA00080421A601B6803F480430293029B012365
:101CB00008934FF48033099302230E934FF480026C
:101CC0000F9204221092A8221192129307231393C9
:101CD00008A801F0B5FB98B90F23039302230493DE
:101CE000002305934FF4A05306934FF480530793BA
:101CF000052103A801F00EFE20B915B05DF804FB24
:101D0000FFF7B0FFFFF7AEFF003802400070004061
:101D100008B500F07DFFFFF7A7FFFFF797FEFFF77D
:101D20001DFD00F057FA00F06FFA00F007F800F020
:101D30000FFAFFF7BFFD03F0CEF9FEE708B50E4836
:101D40000E4B03604FF48273436000238360C360D3
:101D5000036143614FF4007282610822C261036231
:101D6000436283620A23C36201F06CFF00B908BDBD
:101D7000FFF778FFFBE700BF60480020003001401C
:101D800030B589B00023039304930593069307931A
:101D90000268224B9A4201D009B030BD04460025AA
:101DA000019503F584335A6C42F480525A645A6C9C
:101DB00002F480520192019A02951A6B42F00102DC
:101DC0001A631B6B03F001030293029BE02303934E
:101DD00002230493032306930523079303A91048C2
:101DE00001F022FA0F48104B03604FF0C0634360CC
:101DF00040238360C5604FF4806303614561856162
:101E0000C5610562456201F027F818B9054BA36466
:101E10009C63C1E7FFF726FFF8E700BF00300140F1
:101E200000000240004800205864024000B583B022
:101E3000002200920D4B596C41F480415964596C59
:101E400001F48041009100990192196C41F0805198
:101E500019641B6C03F080530193019B0F216FF0F9
:101E6000010000F069FF03B05DF804FB0038024098
:101E700030B589B00546002401941E4B5A6C42F0DF
:101E800001025A645B6C03F001030193019B02A9F8
:101E900003A801F015FE01F003FE4300164AA2FB61
:101EA00003239B0C013B1548154A026040F2E732C0
:101EB000C260436004618460846102F0E1F9044619
:101EC00010B1204609B030BD0C4802F075F8044648
:101ED0000028F6D1192000F03FFF0F2D01D9012471
:101EE000EFE700222946192000F026FF054B1D6070
:101EF000E7E700BF0038024083DE1B43B8480020FC
:101F00000000014044000020FEE7FEE7FEE7FEE798
:101F1000FEE7704708B5024801F096F808BD00BF1B
:101F2000CC51002008B5024801F08EF808BD00BF72
:101F30006C51002008B5024802F086F808BD00BFC9
:101F4000B848002008B5024802F0BCFE08BD00BF3A
:101F50007452002030B583B01B4C204602F0B2FE14
:101F600023681A6812F0100F0DD1174C204602F0AA
:101F7000A9FE0023019323681A6801925B6801930C
:101F8000019B03B030BD002200921A6800925B688A
:101F90000093009B204602F05DFD0C4B1A685368CD
:101FA000C3F500630A490B6052680A4DC2F500622E
:101FB0002946094803F0F2FF4FF400622946204603
:101FC00003F070F8D1E700BF2C520020CC51002064
:101FD00000490020204900203434002008B5024880
:101FE00001F032F808BD00BF0048002008B500200D
:101FF00005F0CEFD08BD0120704708B532F00EFE99
:10200000162303604FF0FF3008BD08B54FF0FF31D5
:10201000FFF7F3FFFEE770B50C461646002506E015
:10202000AFF30080214601F8010B01350C46B542A3
:10203000F6DB304670BD70B50C461646002504E050
:1020400014F8010B00F0B6F90135B542F8DB304663
:1020500070BD4FF0FF3070474FF400534B600020CD
:1020600070470120704700207047000010B50346FC
:102070000C4A0D490D48006840B10C480068034403
:10208000521A934206D8094A136010BD0748084CFB
:102090000460F2E732F0C2FD0C2303604FF0FF3022
:1020A000F3E700BF000002200008000020510020DC
:1020B000F0850120034AD2F8883043F47003C2F857
:1020C0008830704700ED00E00268094B9A4200D06A
:1020D000704782B000230193064B1A6C42F0020253
:1020E0001A641B6C03F002030193019B02B070475A
:1020F000000400400038024000B587B0002301937F
:10210000029303930493059302680E4B9A4202D004
:1021100007B05DF804FB002300930B4B1A6B42F0F1
:1021200004021A631B6B03F004030093009B8023DB
:10213000019302230293059301A9044801F074F866
:10214000E6E700BF000400400038024000080240FB
:1021500000B58BB000230893099301930293039376
:1021600004930593069307931848194A026040F2B6
:10217000E73242608360C2600361836102F0ACF8C1
:10218000D0B900230893099308A9104802F008FA6F
:10219000A8B96023019300230293039305930422BB
:1021A0000DEB0201094802F0FBF858B90748FFF7A8
:1021B000A3FF0BB05DF804FBFFF754FDE1E7FFF769
:1021C00051FDE6E7FFF74EFDF0E700BF2451002088
:1021D0000004004008B50A480A4B03604FF4E1339D
:1021E000436000238360C36003610C22426183610A
:1021F000C36102F056FB00B908BDFFF733FDFBE7F2
:10220000745200200010014008B51048104B0360C4
:102210004FF4E133436000238360C36003610C2209
:1022200042618361C36102F03CFB58B90748026810
:10223000D36843F01003D3604FF40062054902F005
:1022400031FF08BDFFF70EFDF0E700BF2C52002064
:1022500000480040C052002030B58BB000230593E9
:10226000069307930893099303684A4A934205D05B
:102270000446494A93422CD00BB030BD002401944F
:10228000464B5A6C42F010025A645A6C02F010022B
:102290000192019A02941A6B42F002021A631B6BBC
:1022A00003F002030293029BC023059302230693CB
:1022B000032308930723099305A9394800F0B4FFC5
:1022C00022460521252000F037FD252000F044FDA1
:1022D000D2E700250395314B1A6C42F480221A6430
:1022E0001A6C02F480220392039A04951A6B42F04E
:1022F00002021A631B6B03F002030493049B4FF466
:10230000406305930223069303230893072309934D
:1023100005A9234800F088FF2248234B03604FF0B3
:10232000006343608560C5604FF48063036145616D
:102330008561C5610562456200F08EFD18BB194BD1
:10234000E3639C6319481A4B03604FF000634360DA
:10235000402383600023C3604FF4806202614361C5
:102360008361C3610362436200F076FD70B90F4B75
:10237000A3639C6300220521272000F0DDFC2720B9
:1023800000F0EAFC78E7FFF76DFCD8E7FFF76AFC9E
:10239000EDE700BF00100140004800400038024057
:1023A00000040240CC510020286002406C51002003
:1023B0005860024000B583B001904FF6FF730122D0
:1023C00001A9034802F09DFA019803B05DF804FBEF
:1023D0007452002008B51F4B1F4A1A6002685A60E9
:1023E0004379012B1FD0022B22D01A4B00221A61F5
:1023F0008279184B9A600379012B1ED0022B20D0D2
:10240000144B0022DA60134800238361C3610C235C
:10241000436102F046FAC8B94FF400620F490D4813
:1024200002F040FE08BD0B4B4FF4C0621A61DFE7BB
:10243000084B4FF480621A61DAE7064B0022DA603B
:10244000E1E7044B4FF40052DA60DCE7FFF70AFCE7
:10245000E2E700BF2C52002000480040C05200209C
:1024600010B50C460A460146024802F0B1FA024B8A
:102470001C6010BD2C520020C05A002008B5026814
:10248000044B9A4200D008BD034B1868FFF7D8F8F8
:10249000F9E700BF00480040C05A0020DFF834D000
:1024A000FFF708FE0C480D490D4A002302E0D458FE
:1024B000C4500433C4188C42F9D30A4A0A4C00238E
:1024C00001E013600432A242FBD332F0ADFBFFF710
:1024D0001FFC70470000022000000020B40700200D
:1024E000D0F9030880330020EC850120FEE70000CE
:1024F00008B501224FF48061034800F092FF0348C1
:1025000000F0FFF908BD00BF0000024034000020C9
:1025100008B502461521024800F080F908BD00BF49
:102520003400002010B50A4C00224FF48061204690
:1025300000F077FF0A2000F097FB01224FF4806142
:10254000204600F06EFF642000F08EFB10BD00BF3F
:102550000000024000B585B003AB009304230322C2
:1025600015210F4800F087F99DF80C301B0203F489
:1025700070639DF80D201343C3F1F00309490B600C
:102580009DF80E301B0203F470639DF80F200F328C
:102590001343C3F58C734B6005B05DF804FB00BFBB
:1025A00034000020C45A002008B50220FFF7B0FF15
:1025B00008BD00B587B000230193029303930493F1
:1025C000059303890193012303930223049301A933
:1025D000006800F029FE07B05DF804FB00B587B085
:1025E00000230193029303930493059303890193BA
:1025F000112302930223049301A9006800F014FE42
:1026000007B05DF804FB29B10268936901890B43A7
:1026100093617047038902681B049361704729B175
:102620004268936941890B439361704743894268CB
:102630001B049361704708B50189006800F0EAFE49
:10264000012800D0002008BD10B504460121FFF785
:10265000DAFF0220FFF7DAFA01212046FFF7DFFF59
:102660000120FFF7D3FA00212046FFF7CCFF01201D
:10267000FFF7CCFA00212046FFF7D1FF0120FFF73A
:10268000C5FA10BD10B504460021FFF7C8FF0220AF
:10269000FFF7BCFA00212046FFF7B5FF0120FFF746
:1026A000B5FA01212046FFF7BAFF0120FFF7AEFA85
:1026B00001212046FFF7A7FF0120FFF7A7FA10BD71
:1026C00070B50546FFF775FF01212846FFF7A7FF04
:1026D00005242846FFF7AFFF064678B1013CA4B2B7
:1026E0000120FFF793FA002CF3D12846FFF776FF7D
:1026F0002846FFF7C7FF0126304670BD2846FFF782
:102700006DFF00212846FFF78AFF0220FFF77EFABF
:10271000F2E710B504460021FFF775FF0120FFF72F
:1027200075FA01212046FFF77AFF0120FFF76EFAC4
:1027300000212046FFF773FF0120FFF767FA10BD65
:1027400010B504460121FFF75EFF0120FFF75EFA96
:1027500001212046FFF763FF0120FFF757FA002110
:102760002046FFF75CFF0220FFF750FA10BD70B55E
:1027700006460C4608221BE000213046FFF74FFFBB
:102780000220FFF743FA04F080013046FFF73BFFD9
:102790000120FFF73BFA6400E4B20120FFF736FAAC
:1027A00001213046FFF73BFF0120FFF72FFA2A46B1
:1027B000531EDDB2002ADFD100213046FFF72FFF84
:1027C0000220FFF723FA70BD70B50646FFF7F1FE51
:1027D0000024082215E06400E4B200213046FFF72F
:1027E0001EFF0220FFF712FA01213046FFF717FF04
:1027F0000120FFF70BFA3046FFF71DFF0443E4B258
:102800002A46531EDDB2002AE5D100213046FFF7EB
:1028100006FF3046FFF7E2FE204670BD70B5044665
:102820000D461646FFF710FF6D00EDB22946204613
:10283000FFF79DFF2046FFF743FF31462046FFF795
:1028400096FF2046FFF73CFF2046FFF7FDFE691C80
:10285000C9B22046FFF78BFF2046FFF731FF204625
:10286000FFF7B2FF05462046FFF76AFF2046FFF755
:1028700009FF284670BD2DE9F84305460C469146F0
:102880001E46089FFFF7E0FE6400E4B2214628469A
:10289000FFF76DFF2846FFF713FFA0B980464946B2
:1028A0002846FFF764FF2846FFF70AFF2846FFF790
:1028B000CBFE611CC9B22846FFF759FF2846FFF737
:1028C000FFFE444607E02846FFF7DCFE4FF0010814
:1028D00014E00134E4B2B4420AD22846FFF774FF90
:1028E0003855731E9C42F4DA2846FFF712FFF0E7D2
:1028F0002846FFF725FF2846FFF7C4FE4046BDE8FF
:10290000F88310B586B00446002301930293039325
:1029100004930593038901930123029303930223F4
:10292000049301A9006800F07FFC6389019301A969
:10293000606800F079FC06B010BD10B5141AA3EB66
:10294000010C0CF1010C04FB0CC400F067F86100F1
:1029500089B2029800F00EF810BD0000034B8342CC
:1029600000D07047024B01221A70FAE7604800203D
:10297000CC5A002038B504460D46002220210A48D2
:1029800000F04FFD094B00221A702A4621460848E4
:1029900001F0B8F9054B1B78002BFBD00122202158
:1029A000014800F03EFD38BD00040240CC5A002032
:1029B0006048002000B583B08DF8070001210DF1BB
:1029C0000700FFF7D7FF03B05DF804FB00B583B045
:1029D000030A8DF804308DF80500022101A8FFF7E5
:1029E000C9FF03B05DF804FB10B582B08DF8070095
:1029F000094C00224FF48071204600F012FD0121A5
:102A00000DF10700FFF7B6FF01224FF48071204659
:102A100000F007FD02B010BD00000240F8B5074607
:102A20000D4616461C462A20FFF7DEFF3846FFF704
:102A3000CDFF3046FFF7CAFF2B20FFF7D5FF05F18A
:102A4000140080B2FFF7C2FF04F1140080B2FFF758
:102A5000BDFF2C20FFF7C8FFF8BD0000014B9863B5
:102A6000704700BF0004004010B5674C00224FF4CF
:102A70000071204600F0D5FC642000F0F5F801223A
:102A80004FF40071204600F0CCFC642000F0ECF81C
:102A900004215E4801F002FD5020FFF7DFFF6420B3
:102AA00000F0E2F81120FFF79FFF782000F0DCF83B
:102AB0003620FFF799FFC020FFF77CFF3A20FFF791
:102AC00093FF0520FFF776FFB220FFF78DFF0C2064
:102AD000FFF770FF0C20FFF76DFF0020FFF76AFF84
:102AE0003320FFF767FF3320FFF764FFB720FFF7BE
:102AF0007BFF3520FFF75EFFBB20FFF775FF32201D
:102B0000FFF758FFC220FFF76FFF0120FFF752FFCA
:102B1000C320FFF769FF1520FFF74CFFC420FFF724
:102B200063FF2020FFF746FFC620FFF75DFF0F2061
:102B3000FFF740FFD020FFF757FFA420FFF73AFF31
:102B4000A120FFF737FFE020FFF74EFFD020FFF76F
:102B500031FF0820FFF72EFF0E20FFF72BFF092083
:102B6000FFF728FF0920FFF725FF0520FFF722FFC9
:102B70003120FFF71FFF3320FFF71CFF4820FFF72E
:102B800019FF1720FFF716FF1420FFF713FF15207A
:102B9000FFF710FF3120FFF70DFF3420FFF70AFF8A
:102BA000E120FFF721FFD020FFF704FF0820FFF707
:102BB00001FF0E20FFF7FEFE0920FFF7FBFE0920B4
:102BC000FFF7F8FE1520FFF7F5FE3120FFF7F2FEC4
:102BD0003320FFF7EFFE4820FFF7ECFE1720FFF74A
:102BE000E9FE1420FFF7E6FE1520FFF7E3FE312093
:102BF000FFF7E0FE3420FFF7DDFE2120FFF7F4FEB3
:102C00002920FFF7F1FE10BD0000024024510020F2
:102C100008B50B4B1A6842F400721A601A6842F445
:102C200080621A601A6842F480721A60032000F011
:102C300071F80F20FFF71CF9FFF7F8F8002008BD26
:102C4000003C0240034A1168034B1B780B4413609D
:102C5000704700BFD05A002040000020014B186888
:102C6000704700BFD05A002038B50446FFF7F6FF82
:102C70000546B4F1FF3F02D0044B1B781C44FFF71C
:102C8000EDFF401BA042FAD338BD00BF400000203A
:102C9000002807DB00F01F02400901239340024A8D
:102CA00042F82030704700BF00E100E0002808DB58
:102CB0000901C9B200F1604000F5614080F80013DD
:102CC000704700F00F000901C9B2014B1954704759
:102CD00014ED00E000B500F00700C0F1070CBCF1F6
:102CE000040F28BF4FF0040C031D062B0FD9C31E81
:102CF0004FF0FF3E0EFA0CF021EA000199400EFA67
:102D000003FE22EA0E0241EA02005DF804FB002302
:102D1000EEE70000074AD36823F4E0631B041B0CB2
:102D2000000200F4E060034343F0BF6343F4003368
:102D3000D360704700ED00E010B50446054BD8683D
:102D4000C0F30220FFF7C6FF01462046FFF7AEFFA3
:102D500010BD00BF00ED00E008B5FFF799FF08BD0A
:102D600030B405682C6824F480242C600468636007
:102D70008368402B05D0036899600368DA6030BC33
:102D8000704703689A600368D960F8E710B4036875
:102D9000D9B210390A4AA2FB01421209094CA25CBD
:102DA000C2655F2907D96FF3090304338365806D1A
:102DB0005DF8044B70476FF309038365F7E700BFC5
:102DC000ABAAAAAA78B50308836A826992B9012BD3
:102DD0000AD0022B02D00BB100207047C36A13F057
:102DE000807F28D100207047C36AB3F1C07F24D010
:102DF00000207047B2F5005F09D0022B25D9032BC4
:102E000025D1C36A13F0807F23D100207047032BA4
:102E100003D8DFE803F01404140A00207047C36AE3
:102E200013F0807F0DD100207047C36AB3F1C07FDB
:102E300009D0002070470120704701207047012011
:102E40007047012070470120704701207047002023
:102E5000704701207047000070B50446FFF7FEFE82
:102E6000002C5BD00546022384F83530002384F81B
:102E700034302268136823F00103136023681A6852
:102E800012F0010F0AD0FFF7E9FE431B052BF5D91D
:102E900020236365032084F8350070BD1A6820493B
:102EA00011406268A0680243E0680243206902435F
:102EB00060690243A0690243E0690243206A024359
:102EC0000A43616A04291ED01A602668756925F0D4
:102ED0000705636A1D43042B07D1A36A1D43E36AF8
:102EE0001BB12046FFF770FF90B975612046FFF7D0
:102EF0004DFFE26D3F239340836000206065012316
:102F000084F83530C9E7E16A206B01430A43DBE707
:102F100040236365012084F83500BEE70120BCE74B
:102F20003F8010F038B50446856D90F834000128D4
:102F30002BD0012084F8340094F83500C0B2012869
:102F400004D0002384F83430022038BD022084F8F5
:102F50003500002060652046FFF702FFE26D3F2349
:102F60009340AB602268136843F016031360236C30
:102F700023B12268136843F00803136022681368C2
:102F800043F0010313600020DFE70220DDE770B5A6
:102F90000446866DFFF762FE94F83530DBB2022BF3
:102FA00006D080236365002384F83430012070BD8F
:102FB00005462268136823F01603136022685369DC
:102FC00023F080035361236CE3B12268136823F07C
:102FD000080313602268136823F001031360236859
:102FE0001B6813F0010F11D0FFF738FE431B052BB0
:102FF000F5D920236365032084F83500002384F885
:103000003430D4E7A36C002BDFD1E3E7E26D3F233C
:103010009340B360012384F83530002084F83400F5
:10302000C5E790F83530DBB2022B03D0802343652F
:1030300001207047052380F835300268136823F0BB
:103040000103136000207047F0B583B004460023ED
:103050000193724B1D68724BA3FB0535AD0A876D5A
:103060003E68C26D08239340334210D003681A684B
:1030700012F0040F0BD01A6822F004021A60C26D1D
:1030800008239340BB60436D43F001034365E26D49
:1030900001239340334209D02268526912F0800F15
:1030A00004D0BB60636D43F002036365E26D0423EB
:1030B0009340334209D02268126812F0020F04D004
:1030C000BB60636D43F004036365E26D10239340BE
:1030D000334224D02268126812F0080F1FD0BB6060
:1030E00023681A6812F4802F0DD01B6813F4002F88
:1030F00004D1236C9BB12046984710E0A36C73B1B8
:10310000204698470BE01A6812F4807F03D11A68B2
:1031100022F008021A60236C0BB120469847E26D3A
:1031200020239340334255D02268126812F0100FCA
:1031300050D0BB6094F83530DBB2052B0ED023683D
:103140001A6812F4802F33D01B6813F4002F2AD191
:10315000636C002B3ED0204698473BE02268136802
:1031600023F0160313602268536923F08003536130
:10317000236CA3B12268136823F008031360E26D87
:103180003F239340BB60012384F83530002384F84B
:103190003430236D002B3FD0204698473CE0A36C91
:1031A000002BE7D1EBE7E36BA3B12046984711E092
:1031B0001A6812F4807F09D11A6822F010021A608E
:1031C000012384F83530002384F83430E36B0BB1ED
:1031D00020469847636DFBB1636D13F0010F17D064
:1031E000052384F835302268136823F00103136047
:1031F000019B01330193AB4204D823681B6813F091
:10320000010FF5D1012384F83530002384F83430E0
:10321000E36C0BB12046984703B0F0BD30000020AE
:10322000B5814E1B406D704700230F2B00F2E980E3
:1032300070B582B065E085684FEA430E032404FA56
:103240000EF425EA0405CC6804FA0EF42C438460DD
:10325000446824EA02044A68C2F300129A402243F6
:1032600042605CE0DC08083450F8242003F00705D5
:10327000AD004FF00F0E0EFA05FE22EA0E0E0A699F
:10328000AA4042EA0E0240F824205CE0072200E057
:10329000002202FA0EF22A4302345A4D45F8242045
:1032A000594A94686FEA0C0224EA0C054E6816F439
:1032B000801F01D04CEA0405534CA560E46802EA83
:1032C00004054E6816F4001F01D04CEA04054E4C6C
:1032D000E560646802EA04054E6816F4003F01D018
:1032E0004CEA0405484C6560246822404D6815F49A
:1032F000803F01D04CEA0402434C226001330F2B83
:103300007DD801229A400C6804EA020C32EA0404D7
:10331000F4D14C6804F00304013C012C8BD94A68B9
:1033200002F00302032A09D0C4685D000322AA4008
:1033300024EA02048A68AA402243C2604A6802F072
:103340000302022A8ED004684FEA430E032202FAD7
:103350000EF224EA02044A6802F0030202FA0EF2B4
:10336000224302604A6812F4403FC7D00022019213
:10337000264A546C44F480445464526C02F48042F3
:103380000192019A9C08A51C1E4A52F8255003F090
:10339000030E4FEA8E0E0F2202FA0EF225EA020504
:1033A0001B4A90423FF474AF02F5806290421AD0FB
:1033B00002F58062904218D002F58062904216D0E9
:1033C00002F58062904214D002F58062904212D0E1
:1033D00002F58062904210D002F5806290423FF484
:1033E00055AF082255E7012253E7022251E7032295
:1033F0004FE704224DE705224BE7062249E702B0DA
:1034000070BD704700380140003C01400038024068
:10341000000002400369194201D0012070470020DA
:1034200070470AB18161704709048161704743693F
:1034300001EA030221EA030141EA02418161704786
:10344000002800F0E08170B582B00446036813F0F4
:10345000010F3BD09F4B9B6803F00C03042B2CD037
:103460009C4B9B6803F00C03082B21D06368B3F5D9
:10347000803F4FD0B3F5A02F52D0964B1A6822F45C
:1034800080321A601A6822F480221A606368002B66
:1034900050D0FFF7E3FB05468E4B1B6813F4003F4B
:1034A00014D1FFF7DBFB401B6428F5D90320B1E101
:1034B000884B5B6813F4800FD8D0864B1B6813F4DD
:1034C000003F03D06368002B00F09F81236813F056
:1034D000020F54D07F4B9B6813F00C0F3ED07D4BF6
:1034E0009B6803F00C03082B33D0E368002B68D0F3
:1034F000794B01221A60FFF7B1FB0546754B1B683B
:1035000013F0020F54D1FFF7A9FB401B0228F5D995
:1035100003207FE16F4A136843F480331360B5E7FB
:103520006C4B1A6842F480221A601A6842F48032A6
:103530001A60ABE7FFF792FB0546664B1B6813F476
:10354000003FC3D0FFF78AFB401B6428F5D9032056
:1035500060E1604B5B6813F4800FC6D15D4B1B6864
:1035600013F0020F03D0E368012B40F05081594A59
:10357000136823F0F803216943EAC1031360236849
:1035800013F0080F42D063696BB3534B0122C3F8A9
:10359000802EFFF763FB05464E4B5B6F13F0020F67
:1035A00034D1FFF75BFB401B0228F5D9032031E142
:1035B000484A136823F0F803216943EAC103136002
:1035C000DDE7454B00221A60FFF748FB0546414BFB
:1035D0001B6813F0020FD2D0FFF740FB401B0228FC
:1035E000F5D9032016E13C4B0022C3F8802EFFF7EB
:1035F00035FB0546374B5B6F13F0020F06D0FFF724
:103600002DFB401B0228F5D9032003E1236813F0AA
:10361000040F77D02F4B1B6C13F0805F33D1002346
:1036200001932C4B1A6C42F080521A641B6C03F00D
:1036300080530193019B0125284B1B6813F4807F65
:1036400023D0A368012B34D0052B38D0214B1A6F1F
:1036500022F001021A671A6F22F004021A67A368A7
:10366000002B3DD0FFF7FAFA06461A4B1B6F13F0FA
:10367000020F46D1FFF7F2FA801B41F288339842DD
:10368000F3D90320C6E00025D6E7144A136843F4B3
:1036900080731360FFF7E2FA0646104B1B6813F4C1
:1036A000807FCED1FFF7DAFA801B0228F5D90320FC
:1036B000B0E0084A136F43F001031367CFE7054BEF
:1036C0001A6F42F004021A671A6F42F001021A6779
:1036D000C5E700BF003802400000474200700040CC
:1036E000FFF7BCFA0646524B1B6F13F0020F08D0CF
:1036F000FFF7B4FA801B41F288339842F3D90320D4
:1037000088E0EDB9A369002B00F08380484A9268F5
:1037100002F00C02082A51D0022B17D0454B002290
:103720001A66FFF79BFA0446414B1B6813F0007FB3
:1037300042D0FFF793FA001B0228F5D9032069E075
:103740003B4A136C23F080531364DBE7394B0022B0
:103750001A66FFF783FA0546354B1B6813F0007FA6
:1037600006D0FFF77BFA401B0228F5D9032051E071
:10377000E369226A1343626A43EA8213A26A520827
:10378000013A43EA0243E26A43EA0263284A536089
:10379000284B01221A66FFF761FA0446244B1B6886
:1037A00013F0007F06D1FFF759FA001B0228F5D964
:1037B00003202FE000202DE000202BE0012B2BD058
:1037C0001B4B5B6803F48001E269914226D103F050
:1037D0003F02216A8A4223D1616A47F6C0721A40C9
:1037E000B2EB811F1ED103F44031A26A5208013AA4
:1037F000B1EB024F18D103F07063E26AB3EB026FD2
:1038000014D1002006E001207047012002E00120D1
:1038100000E0002002B070BD0120FBE70120F9E7C5
:103820000120F7E70120F5E70120F3E70120F1E7A8
:10383000003802400000474208B5334B9B6803F054
:103840000C03042B5BD0082B5BD12F4B5A6802F082
:103850003F025B6813F4800F2CD02B4B5868C0F3E9
:1038600088104FEA401CBCEB000C6EEB0E0E4FEACA
:103870008E1343EA9C634FEA8C11B1EB0C0163EBAE
:103880000E03DB0043EA5173C90011EB000C43F156
:103890000003590200234FEA4C2041EADC51FCF7B7
:1038A0008FFC194B5B68C3F3014301335B00B0FB32
:1038B000F3F008BD144B5868C0F388104FEA401C61
:1038C000BCEB000C6EEB0E0E4FEA8E1343EA9C63CA
:1038D0004FEA8C11B1EB0C0163EB0E03DB0043EA02
:1038E0005173C90011EB000C43F10003990200234E
:1038F0004FEA8C2041EA9C51FCF762FCD1E7034877
:10390000D7E70348D5E700BF0038024000127A002D
:103910000024F400002800F09B8070B50D4604469A
:103920004F4B1B6803F007038B4208D2CBB24C4AC3
:103930001370136803F007038B4240F08B802368F9
:1039400013F0020F17D013F0040F04D0454A936808
:1039500043F4E0539360236813F0080F04D0414A06
:10396000936843F4604393603E4A936823F0F00306
:10397000A1680B439360236813F0010F32D0636892
:10398000012B21D09A1E012A25D9364A126812F03D
:10399000020F61D033498A6822F0030213438B601F
:1039A000FFF75CF906462F4B9B6803F00C03626837
:1039B000B3EB820F16D0FFF751F9801B41F2883329
:1039C0009842F0D9032042E0264A126812F4003FE0
:1039D000E0D101203BE0234A126812F0007FD9D1E8
:1039E000012034E01E4B1B6803F00703AB4207D9EC
:1039F000EAB21B4B1A701B6803F00703AB422DD1D0
:103A0000236813F0040F06D0164A936823F4E0539A
:103A1000E1680B439360236813F0080F07D0114A45
:103A2000936823F46043216943EAC1039360FFF77D
:103A300003FF0C4B9B68C3F303130B4AD35CD840C2
:103A40000A4B18600A4B1868FEF712FA002070BD86
:103A5000012070470120FAE70120F8E70120F6E78E
:103A6000003C02400038024068B5030830000020E6
:103A700044000020014B1868704700BF3000002050
:103A800008B5FFF7F7FF044B9B68C3F38223034A93
:103A9000D35CD84008BD00BF0038024060B50308C1
:103AA00008B5FFF7E7FF044B9B68C3F34233034AB3
:103AB000D35CD84008BD00BF0038024060B50308A1
:103AC0000F2303600B4B9A6802F0030242609A686E
:103AD00002F0F00282609A6802F4E052C2609B68D1
:103AE000DB0803F4E0530361034B1B6803F0070397
:103AF0000B60704700380240003C02402DE9F0475F
:103B000082B00546884617461E46FFF7A7F80A9B6F
:103B10001B1A03EB0609FFF7A1F88246284B1B6826
:103B2000C3F3CB3309FB03F301932B689C6838EA9A
:103B300004040CBF01230023BB423DD0B6F1FF3F7C
:103B4000F3D0FFF78BF8A0EB0A00484507D2019AA3
:103B500002B14A46019B013B01939146E5E72A6881
:103B6000536823F0E00353606B68B3F5827F0BD09A
:103B7000AB6AB3F5005F14D0012385F85130002300
:103B800085F85030032018E0AB68B3F5004F02D041
:103B9000B3F5806FECD12A68136823F040031360FB
:103BA000E6E72A68136823F4005313602A68136851
:103BB00043F400531360DFE7002002B0BDE8F08754
:103BC0003000002070B584B004460D4616460092C1
:103BD0000B4601220221FFF791FFD0B9174B1B685A
:103BE000174AA2FB03235B0D4FF47A7202FB03F327
:103BF00003936368B3F5827F11D0039B3BB1039BB2
:103C0000013B039323689B6813F0800FF5D104B048
:103C100070BD636D43F0200363650320F7E70096F2
:103C20002B46002280212046FFF768FF0028EED0B7
:103C3000636D43F0200363650320E8E73000002054
:103C4000819F5E1600285AD010B50446436A33B9E6
:103C50004368B3F5827F05D00023C36102E00023EF
:103C6000036143610023A36294F85130002B40D0DC
:103C7000022384F851302268136823F04003136054
:103C8000636803F48273A26802F404421343E26897
:103C900002F400621343226902F0020213436269D4
:103CA00002F001021343A26902F400721343E269B5
:103CB00002F038021343226A02F080021343A26A20
:103CC00002F40052216813430B60638B03F004037A
:103CD000626A02F01002216813434B602268D369C4
:103CE00023F40063D36100206065012384F8513020
:103CF00010BD84F850302046FEF742F8B8E70120A6
:103D00007047000038B590F85150EDB2012D5DD1EB
:103D1000044600295BD0002A59D090F85030012B7E
:103D200057D0012380F85030032380F8513000230E
:103D3000436501638286C286836343640364838729
:103D4000C3878368B3F5004F2DD0A36C224A1A6451
:103D5000A36C224ADA63A36C214ADA64A36C0022C2
:103D60001A652268E38E9BB20C32216BA06CFFF7C0
:103D7000D9F8014610BB23681A6812F0400F03D12E
:103D80001A6842F040021A60002384F8503022681A
:103D9000536843F0200353602268536843F00203E2
:103DA00053600D4613E00268136823F0400313606C
:103DB0000268136843F480431360C6E7636D43F001
:103DC00010036365002384F8503000E00225284684
:103DD00038BD0225FBE700BFE73D0008153E00089F
:103DE000F33D0008704708B5806BFFF7FBFF08BD87
:103DF000704708B5806B0268536823F00303536073
:103E0000436D43F010034365012380F85130FFF701
:103E1000EFFF08BD30B583B00546846BFEF71EFF8B
:103E20002B681B6813F4807F23D1024621684B68FE
:103E300023F020034B6021684B6823F002034B60A2
:103E400064212046FFF7BEFE18B1636D43F02003E6
:103E50006365A36833B901932368DA6801929B68AC
:103E60000193019B0023E386012384F85130636DA5
:103E700023B92046FEF772FD03B030BD2046FFF7A0
:103E8000B7FFF9E730B4036A026A22F00102026266
:103E90004268846924F0730C0C6844EA0C0423F033
:103EA000020C8B6843EA0C03114DA84203D005F5C0
:103EB0008065A84205D123F00803CD682B4323F089
:103EC00004030B4DA84203D005F58065A84207D135
:103ED00022F440724D6945EA020C8A6942EA0C02FA
:103EE000426084614A684263036230BC704700BF2D
:103EF0000000014030B4036A026A22F48072026258
:103F00004268C46924F0730C0C6844EA0C0523F47D
:103F100000738C6843EA0423114CA04203D004F5DB
:103F20008064A04206D123F40063CC6843EA0423F2
:103F300023F480630A4CA04203D004F58064A042BD
:103F400007D122F440524C6942EA04128C6942EAD9
:103F500004124260C5614A68C263036230BC7047A4
:103F60000000014030B4036A026A22F48052026207
:103F70004468C26922F4E6420D6842EA052223F44D
:103F800000538D6843EA0533094DA84203D005F577
:103F90008065A84204D124F480444D6944EA851424
:103FA0004460C2614A680264036230BC704700BF6B
:103FB000000001407047000090F83D30DBB2012B5B
:103FC00037D1022380F83D300268D36843F0010303
:103FD000D3600368194A934220D0B3F1804F1DD0BB
:103FE000A2F57C42934219D002F58062934215D02B
:103FF00002F58062934211D002F5784293420DD0CF
:1040000002F57052934209D0A2F59432934205D042
:104010001A6842F001021A60002070479A6802F0A4
:104020000702062A07D01A6842F001021A6000202F
:104030007047012070470020704700BF000001401A
:10404000704770477047704770B504460368DE6874
:104050001D6915F0020F10D016F0020F0DD06FF091
:1040600002021A610123037703689B6913F0030FAF
:104070005ED0FFF7E6FF0023237715F0040F12D080
:1040800016F0040F0FD023686FF004021A610223A8
:10409000237723689B6913F4407F4FD02046FFF7B6
:1040A000D0FF0023237715F0080F12D016F0080F69
:1040B0000FD023686FF008021A6104232377236866
:1040C000DB6913F0030F40D02046FFF7BAFF00234F
:1040D000237715F0100F12D016F0100F0FD02368B1
:1040E0006FF010021A61082323772368DB6913F449
:1040F000407F31D02046FFF7A4FF0023237715F03F
:10410000010F02D016F0010F2DD115F0800F02D053
:1041100016F0800F2FD115F0400F02D016F0400F8F
:1041200031D115F0200F02D016F0200F33D170BD21
:10413000FFF786FF2046FFF785FF9CE72046FFF745
:104140007FFF2046FFF77EFFABE72046FFF778FFB3
:104150002046FFF777FFBAE72046FFF771FF2046BA
:10416000FFF770FFC9E723686FF001021A6120466C
:10417000FDF76CFDC9E723686FF080021A612046E5
:1041800000F055FAC7E723686FF040021A61204635
:10419000FFF759FFC5E723686FF020021A61204638
:1041A00000F044FAC3E700000368344A904212D09A
:1041B000B0F1804F0FD0A2F57C4290420BD002F5B7
:1041C0008062904207D002F58062904203D002F5EF
:1041D0007842904203D123F070034A681343274A80
:1041E00090422AD0B0F1804F27D0A2F57C42904275
:1041F00023D002F5806290421FD002F58062904287
:104200001BD002F57842904217D002F570529042CE
:1042100013D002F5806290420FD002F58062904286
:104220000BD0A2F59832904207D002F580629042FE
:1042300003D002F58062904203D123F44073CA6830
:10424000134323F080034A69134303608B68C362FE
:104250000B688362094B984203D003F58063984250
:1042600001D10B69036301234361036913F0010F5B
:1042700003D0036923F0010303617047000001408C
:1042800040B310B5044690F83D30F3B1022384F8F2
:104290003D30214651F8040BFFF786FF012384F8D7
:1042A000463084F83E3084F83F3084F8403084F85B
:1042B000413084F8423084F8433084F8443084F844
:1042C000453084F83D30002010BD80F83C30FFF7C9
:1042D00071FEDBE70120704740B310B5044690F84B
:1042E0003D30F3B1022384F83D30214651F8040BF0
:1042F000FFF75AFF012384F8463084F83E3084F8F3
:104300003F3084F8403084F8413084F8423084F8FB
:10431000433084F8443084F8453084F83D30002040
:1043200010BD80F83C30FDF7CFFEDBE70120704781
:1043300030B4036A026A22F01002026244688269A1
:1043400022F4E6420D6842EA052223F020038D683C
:1043500043EA0513114DA84203D005F58065A84234
:1043600006D123F08003CD6843EA051323F0400310
:104370000A4DA84203D005F58065A84207D124F470
:1043800040644D6944EA85048D6944EA85044460CB
:1043900082614A688263036230BC7047000001405A
:1043A00038B590F83C30012B66D004460D46012309
:1043B00080F83C300C2A5AD8DFE802F007595959E6
:1043C0001B5959593059595944000068FFF75AFD93
:1043D0002268936943F0080393612268936923F08C
:1043E000040393612268936929690B439361002058
:1043F0003EE00068FFF79CFF2268936943F4006386
:1044000093612268936923F48063936122689369BE
:10441000296943EA01239361002029E00068FFF73E
:1044200069FD2268D36943F00803D3612268D36928
:1044300023F00403D3612268D36929690B43D36154
:10444000002015E00068FFF78DFD2268D36943F472
:104450000063D3612268D36923F48063D361226847
:10446000D369296943EA0123D361002000E00120D8
:10447000002384F83C3038BD0220FCE701F01F0126
:104480004FF0010C0CFA01FC036A23EA0C030362EF
:10449000036A8A40134303627047000010B5044664
:1044A0000846002942D194F83E30DBB2013B18BFE8
:1044B0000123002B6ED1002851D1022384F83E3015
:1044C000012201462068FFF7D9FF2368334A93424F
:1044D00003D002F58062934203D15A6C42F4004249
:1044E0005A6423682D4A934249D0B3F1804F46D095
:1044F000A2F57C42934242D002F5806293423ED0C4
:1045000002F5806293423AD002F57842934236D067
:1045100002F57052934232D0A2F5943293422ED0DB
:104520001A6842F001021A60002032E0042908D023
:1045300008290DD094F84130DBB2013B18BF0123AC
:10454000B7E794F83F30DBB2013B18BF0123B0E777
:1045500094F84030DBB2013B18BF0123A9E70428DF
:1045600005D0082807D0022384F84130A8E70223A9
:1045700084F83F30A4E7022384F84030A0E79A682B
:1045800002F00702062A07D01A6842F001021A60F8
:10459000002010BD0120FCE70020FAE700000140E8
:1045A00090F83C20012A3DD010B40346012280F847
:1045B0003C20022280F83D2002685068946820F078
:1045C000700C086840EA0C0050601A681648824275
:1045D0001AD0B2F1804F17D0A0F57C40824213D0A0
:1045E00000F5806082420FD000F5806082420BD0DF
:1045F00000F57840824207D000F57050824203D027
:10460000A0F59430824204D124F08004496821430B
:104610009160012283F83D20002083F83C005DF882
:10462000044B7047022070470000014070477047FC
:10463000026802F10C0353E8003F23F0C0030C3280
:1046400042E800310029F3D1202380F8413070473F
:10465000026802F10C0353E8003F23F490730C321C
:1046600042E800310029F3D1026802F1140353E853
:10467000003F23F00103143242E800310029F3D156
:10468000036B012B05D0202380F842300023036305
:104690007047026802F10C0353E8003F23F0100357
:1046A0000C3242E800310029F3D1ECE790F84130B8
:1046B000DBB2212B01D0022070478368B3F5805F05
:1046C00017D0036A5A1C02621A7803685A60C38CB6
:1046D0009BB2013B9BB2C3844BB90268D36823F001
:1046E0008003D3600268D36843F04003D3600020A6
:1046F00070470369002BE4D1036A1B880268C3F387
:1047000008035360036A02330362E0E710B504460E
:104710000268136923F44053C1680B431361836833
:1047200002691A4343691A43C3691A430168CB6893
:1047300023F4164323F00C031343CB600268536940
:1047400023F4407381690B4353610368314A9342F8
:1047500006D002F58062934202D0FFF791F901E0A2
:10476000FFF79EF9E369B3F5004F29D00021031844
:1047700049411B1841F10001C90041EA5371DB00B6
:10478000181863684FEA83024FEA937341F10001FE
:10479000FBF716FD204AA2FB00314909642303FB05
:1047A00011031B013233A2FB03235B0903F0F00268
:1047B00002EB011203F00F03216813448B6010BD5C
:1047C0000023021843EB0301121841F10001C90054
:1047D00041EA5271D200101841F10001626892184A
:1047E0005B41FBF7EDFC0C4AA2FB00314909642355
:1047F00003FB1103DB003233A2FB03235B095A00E6
:1048000002F4F87202EB011203F00703216813446B
:104810008B60D4E7001001401F85EB512DE9F04378
:1048200083B005460E4617469946DDF828802B686A
:104830001C6836EA04040CBF01240024BC4228D1C1
:10484000B8F1FF3FF3D0FEF709FAA0EB09004045AD
:1048500023D8B8F1000F22D02B68DA6812F0040FC9
:10486000E5D0802EE3D0402EE1D01A6812F0080F78
:10487000DDD0002401941A6801925B680193019BCA
:104880002846FFF7E5FE08236B6485F840400120C9
:1048900000E0002003B0BDE8F0830320FAE7032026
:1048A000F8E760B310B5044690F8413013B3242301
:1048B00084F841302268D36823F40053D360204643
:1048C000FFF724FF2268136923F4904313612268E1
:1048D000536923F02A0353612268D36843F40053D9
:1048E000D36000206064202384F8413084F8423093
:1048F000606310BD80F84030FDF7AEFCD7E70120C3
:1049000070472DE9F04182B01E4690F84130DBB28D
:10491000202B56D104460D469046002955D00AB9A1
:1049200001204FE000234364212380F84130FEF74B
:1049300095F90746A4F82480A4F82680A368B3F567
:10494000805F02D04FF0000814E023692BB34FF0D2
:1049500000080FE0202384F84130032032E038F8CB
:10496000023B2268C3F308035360E28C92B2013A1F
:1049700092B2E284E38C9BB293B100963B46002254
:1049800080212046FFF74AFF0028E3D1002DE6D022
:1049900015F8012B23685A60E7E7A8460025E9E7E8
:1049A00000963B46002240212046FFF737FF18B90A
:1049B000202384F8413005E0202384F8413003208F
:1049C00000E0022002B0BDE8F0810120FAE700001B
:1049D00038B5134690F84120D2B2202A2FD1044690
:1049E00000292ED00BB9012038BD01628384C38415
:1049F00000224264212084F84100A06B124DC5635F
:104A0000A06B124D0564A06B114DC564A06B0265CF
:104A100022680432A06BFEF785FA23686FF040022B
:104A20001A60226802F1140353E8003F43F0800348
:104A3000143242E800310029F3D10020D4E70220EB
:104A4000D2E70120D0E700BFFB4A0008634B000813
:104A5000734B000810B50446226802F10C0353E8BA
:104A6000003F23F490730C3242E800310029F3D167
:104A7000226802F1140353E8003F23F001031432CB
:104A800042E800310029F3D1236B012B1FD02368AA
:104A90005B6913F0400F13D0226802F1140353E84E
:104AA000003F23F04003143242E800310029F3D1E3
:104AB000E36B2BB100221A65E06BFEF768FA98B938
:104AC0000020E085202384F84230206310BD226856
:104AD00002F10C0353E8003F23F010030C3242E8CC
:104AE00000310029F3D1D2E7E06BFEF79BFB2028D1
:104AF000E6D1102363640320E8E708B50346806B22
:104B00001B681B6813F4807F1AD10023C3840268DA
:104B100002F1140353E8003F23F08003143242E80B
:104B200000310029F3D1026802F10C0353E8003F81
:104B300043F040030C3242E800310029F3D108BDB4
:104B4000FDF79CFCFBE708B50168CA6822F040024B
:104B5000CA60202280F84120FDF790FC002008BDAB
:104B6000704708B5806BFFF7FBFF08BD70477047C3
:104B7000704710B5846B23685A6994F84130DBB2F2
:104B8000212B10D023685A6902F0400294F8423079
:104B9000DBB2222B11D0636C43F010036364204618
:104BA000FFF7E6FF10BD02F08002002AEAD00023E2
:104BB000E3842046FFF73CFDE4E7002AEBD0002326
:104BC000E3852046FFF744FDE5E708B5806B002349
:104BD000C385C384FFF7CCFF08BD704790F842300F
:104BE000DBB2222B69D18368B3F5805F4FD0826A34
:104BF000B3F5805F04D0002B56D10369002B53D14D
:104C000003685B681370836A01338362C38D9BB250
:104C1000013B9BB2C385002B51D100B583B0026824
:104C2000D36823F02003D3600268D36823F4807331
:104C3000D3600268536923F001035361202380F895
:104C4000423000234363036B012B33D10023036302
:104C5000026802F10C0353E8003F23F010030C320A
:104C600042E800310029F3D103681A6812F0100FEE
:104C700006D0002201921A6801925B680193019BA1
:104C8000818DFFF7AAFF002003B05DF804FB0269E5
:104C9000002AACD1826A03685B68C3F308031380FF
:104CA000836A02338362B1E703685B6803F07F03C2
:104CB0001370A8E7FFF75AFFE5E7022070470020CE
:104CC0007047000010B582B0044602681368D068CF
:104CD000516913F00F0F09D113F0200F0CD010F011
:104CE000200F09D02046FFF779FF16E011F00101EF
:104CF00015D110F4907F12D1216B012979D013F0D6
:104D0000800F03D010F0800F40F0148113F0400F9B
:104D100003D010F0400F40F0118102B010BD13F02D
:104D2000010F06D010F4807F03D0626C42F00102C4
:104D3000626413F0040F04D019B1626C42F00202F5
:104D4000626413F0020F04D019B1626C42F00402E5
:104D5000626413F0080F07D010F0200F00D119B1D2
:104D6000626C42F008026264626C002AD5D013F0D3
:104D7000200F02D010F0200F29D123685B6903F0C7
:104D80004003626C12F0080F00D163B32046FFF7B6
:104D90005FFC23685B6913F0400F20D0226802F1AA
:104DA000140353E8003F23F04003143242E800317B
:104DB0000029F3D1E36B73B1624A1A65E06BFEF729
:104DC00030F90028A9D0E06B036D9847A5E720468D
:104DD000FFF704FFD1E72046FFF7CAFE9DE7204614
:104DE000FFF7C6FE99E72046FFF7C2FE0023636483
:104DF00093E713F0100F82D010F0100F3FF47FAF45
:104E0000002301931368019353680193019B536935
:104E100013F0400F52D0E26B13685B689BB2002B1B
:104E20003FF47BAFA18D99427FF677AFE385D369DD
:104E3000B3F5807F37D0226802F10C0353E8003FBE
:104E400023F480730C3242E800310029F3D1226848
:104E500002F1140353E8003F23F00103143242E847
:104E600000310029F3D1226802F1140353E8003F16
:104E700023F04003143242E800310029F3D120230B
:104E800084F8423000232363226802F10C0353E8C4
:104E9000003F23F010030C3242E800310029F3D127
:104EA000E06BFEF774F802236363A18DE38D9BB280
:104EB000C91A89B22046FFF790FE2EE7A18DE38D37
:104EC0009BB2C91A89B2E38D9BB2002B3FF425AF88
:104ED00000293FF422AF226802F10C0353E8003F9F
:104EE00023F490730C3242E800300028F3D122689A
:104EF00002F1140353E8003F23F00103143242E8A7
:104F000000300028F3D1202384F8423000232363AB
:104F1000226802F10C0353E8003F23F010030C3227
:104F200042E800300028F3D1022363632046FFF7F4
:104F300054FEF2E62046FFF7B9FBEEE62046FFF707
:104F400002FEEAE6CB4B000808B5806B0123436301
:104F5000036B012B02D0FFF70AFE08BD818D4908C3
:104F6000FFF73BFEF9E708B50346806B1B681B683B
:104F700013F4807F2BD10023C385026802F10C0358
:104F800053E8003F23F480730C3242E800310029DB
:104F9000F3D1026802F1140353E8003F23F0010348
:104FA000143242E800310029F3D1026802F11403FF
:104FB00053E8003F23F04003143242E80031002957
:104FC000F3D1202380F84230036B012B07D000235C
:104FD0004363036B012B0FD0FFF7C8FD08BD0268C8
:104FE00002F10C0353E8003F23F010030C3242E8B7
:104FF00000310029F3D1EAE7818DFFF7EEFDEDE7FF
:1050000030B583B00446134681628285002545642D
:10501000222280F84220C26B1F48D063E26B1F48F7
:105020001064E26B1E48D064E26B156520680A4686
:10503000011DE06BFDF776FF019523681A68019268
:105040005B680193019B23695BB1226802F10C0349
:1050500053E8003F43F480730C3242E800310029EA
:10506000F3D1226802F1140353E8003F43F0010337
:10507000143242E800310029F3D1226802F114030E
:1050800053E8003F43F04003143242E80031002966
:10509000F3D1002003B030BD674F0008494F00082E
:1050A000734B000808B590F84230DBB2202B08D1D2
:1050B00049B10AB9012008BD00230363FFF7A0FF2F
:1050C000F9E70220F7E70120F5E7842801D0033053
:1050D00070470020704708B500F068FD002008BD4B
:1050E0002DE9F04387B00E464469C4B18569B5B176
:1050F0004768D0F80080D0F81090B0F90800FFF7AA
:10510000E4FF02950194009033464A4641463846F2
:1051100000F0DCFC0590059807B0BDE8F08344681A
:1051200005680769B0F90800FFF7CFFF05AB0193E9
:1051300000903346BAB22946204600F004FD01280B
:10514000E9D00020E8E708B500B9012000F086FEAC
:10515000002008BD00F1080343604FF0FF32826079
:10516000C36003610023036070470023036170473D
:1051700043684B609A688A6051609960086103686F
:1051800001330360704730B40D68B5F1FF3F11D0B3
:1051900000F108031C465B681A68AA42FAD96368E2
:1051A0004B6099608C606160086103680133036043
:1051B00030BC70470469F2E70369416882688A601D
:1051C000416851605A68824206D0002202611A6822
:1051D000013A1A601868704782685A60F5E7000063
:1051E00082B0002301930D4B1B68B3F1FF3F08D041
:1051F0004FF0500383F31188BFF36F8FBFF34F8FCE
:10520000FEE74FF0500383F31188BFF36F8FBFF3B6
:105210004F8F019B002BFCD002B07047480000204C
:1052200008480068006880F308884FF0000080F3A9
:10523000148862B661B6BFF34F8FBFF36F8F00DF84
:1052400000BF000008ED00E0DFF80C00016841F449
:10525000700101607047000088ED00E04FF080733E
:1052600040F8043C21F0010140F8081C054B40F8CF
:105270000C3C40F8202C6FF0020340F8243C4438EA
:10528000704700BFE151000800000000000000006E
:10529000074B19680868B0E8F04F80F30988BFF33E
:1052A0006F8F4FF0000080F311887047AFF30080DC
:1052B000249800204FF0500383F31188BFF36F8FC1
:1052C000BFF34F8F0B4A136801331360012B00D0DB
:1052D00070474FF0E023D3F8043D13F0FF0FF7D0F1
:1052E0004FF0500383F31188BFF36F8FBFF34F8FDD
:1052F000FEE700BF48000020094B1B6843B94FF090
:10530000500383F31188BFF36F8FBFF34F8FFEE716
:10531000013B034A13600BB983F31188704700BF48
:105320004800002000000000000000000000000015
:10533000EFF30980BFF36F8F154B1A681EF0100F43
:1053400008BF20ED108A20E9F04F10602DE9090018
:105350004FF0500080F31188BFF34F8FBFF36F8F72
:1053600000F0A2FD4FF0000080F3118809BC19681D
:105370000868B0E8F04F1EF0100F08BFB0EC108ABC
:1053800080F30988BFF36F8F704700BFAFF30080D1
:105390002498002008B54FF0500383F31188BFF321
:1053A0006F8FBFF34F8F00F051FC28B14FF0E02317
:1053B0004FF08052C3F8042D002383F3118808BDF9
:1053C0004FF0E022002313619361054B1B680549F0
:1053D000A1FB03139B09013B536107231361704732
:1053E00030000020D34D62104FF0E023D3F8002DA1
:1053F0003D4B9A421CD04FF0E023D3F8002D3B4B9D
:105400009A421ED030B583B0394B1A78D2B201928D
:10541000FF221A701B78DBB28DF803309DF8033041
:1054200003F05003334A1370334B07221A601BE01A
:105430004FF0500383F31188BFF36F8FBFF34F8F8B
:10544000FEE74FF0500383F31188BFF36F8FBFF374
:105450004F8FFEE7284A1368013B13609DF8033025
:105460005B00DBB28DF803309DF8033013F0800F42
:10547000F0D1214B1B68032B08D04FF0500383F36E
:105480001188BFF36F8FBFF34F8FFEE71B021A4ADD
:10549000136003F4E0631360019BDBB2144A1370E2
:1054A0004FF0E024D4F8203D43F47003C4F8203DCD
:1054B000D4F8203D43F07043C4F8203DFFF780FF4F
:1054C00000250E4B1D60FFF7BFFED4F8343F43F0BC
:1054D0004043C4F8343FFFF7A3FE00F0E5FCFFF7BC
:1054E0007FFE284603B030BD71C20F4170C20F412C
:1054F00000E400E0D85A0020D45A002048000020E0
:10550000124A12F0070F1ED0D11D21F00701C1F57C
:10551000705313440A460E48026000214160134450
:10552000083B23F007030B48036059601960991A80
:1055300051601360084B1960084B1960084B4FF01D
:1055400000421A6070474FF47053E4E7FC5A0020A1
:10555000F45A0020F05A0020E85A0020EC5A0020AB
:10556000DC5A0020164B1A461B688342FBD3516855
:1055700002EB010C844509D0416800EB010C634546
:1055800009D00360904219D0106070474068014410
:1055900051601046F0E710B40A4C2468A3420BD0C7
:1055A0005B681944416013681B680360904200D037
:1055B00010605DF8044B70470460F7E7704700BF68
:1055C000F45A0020F05A002038B5044600F030FBB1
:1055D000384B1B68B3B1384B1B681C4250D1002CB0
:1055E00050D004F1080214F0070F02D022F0070295
:1055F0000832002A55D0314B1B68934253D33049AF
:105600000C6804E0FFF77CFFE5E721461C46636871
:10561000934202D22368002BF7D1264B1B68A3428A
:1056200043D00D68083523680B6063689B1A102B04
:1056300010D9A01810F0070F08D04FF0500383F3D3
:105640001188BFF36F8FBFF34F8FFEE74360626037
:10565000FFF788FF626819490B689B1A0B601949AC
:1056600009688B4201D217490B60134B1B68134327
:10567000636000232360144A13680133136002E05F
:10568000002500E0002500F06DFB15F0070F0ED09F
:105690004FF0500383F31188BFF36F8FBFF34F8F29
:1056A000FEE70025EFE70025EDE70025EBE72846BC
:1056B00038BD00BFF05A0020DC5A0020EC5A002010
:1056C000F45A0020E85A0020E45A0020002834D080
:1056D00038B50446A0F1080550F8043C174A126892
:1056E000134208D14FF0500383F31188BFF36F8F3B
:1056F000BFF34F8FFEE750F8081C41B14FF0500345
:1057000083F31188BFF36F8FBFF34F8FFEE723EA58
:10571000020340F8043C00F08BFA54F8041C084AD9
:1057200013680B4413602846FFF71CFF054A1368F3
:105730000133136000F016FB38BD7047DC5A0020BF
:10574000EC5A0020E05A0020084B1B681B6823B964
:10575000074B4FF0FF321A607047044B1B68DB6841
:10576000DB685A68024B1A60704700BF6C970020D4
:10577000049700202DE9F04707469846089DDDF87C
:1057800024900A9C266B02F18042013A06EB8206C5
:1057900026F00706002964D008464FF0000CBCF143
:1057A0000F0F09D810F80C2004EB0C0383F83420F9
:1057B00012B10CF1010CF2E7002384F84330062DFE
:1057C00000D90625E56265644FF0000AC4F848A0D8
:1057D000201DFFF7CAFC04F11800FFF7C6FC246186
:1057E000C5F10705A5616462C4F890A184F894A18D
:1057F0004FF4A072514604F150002FF033F91B4BC7
:10580000636503F16802A265D033E36501220023DA
:10581000C4E93A2343F20E33A4F8F0304AF6CD330C
:10582000A4F8F23041F23423A4F8F4304EF26D6360
:10583000A4F8F6304DF6EC63A4F8F8300523A4F88C
:10584000FA300B23A4F8FC30424639463046FFF7C5
:1058500005FD2060B9F1000F01D0C9F80040BDE896
:10586000F087002384F83430A9E700BFD8820120F4
:1058700038B5002407E004EB840293000E48184476
:10588000FFF768FC0134062CF5D90C4D2846FFF7CC
:1058900061FC0B4C2046FFF75DFC0A48FFF75AFC01
:1058A0000948FFF757FC0948FFF754FC084B1D60F7
:1058B000084B1C6038BD00BF9897002084970020DB
:1058C00070970020549700204097002028970020D0
:1058D0006C9700206897002010B50446FFF7EAFC9B
:1058E000214A136801331360204B1B685BB1204BC6
:1058F0001B686BB91D4B1B68DA6AE36A9A4207D8CA
:105900001A4B1C6004E0194B1C601368012B28D053
:10591000184A136801331360E06A01238340164A72
:1059200011680B43136000EB8000211D134B03EB48
:105930008000FFF71DFCFFF7DFFC0D4B1B687BB100
:105940000A4B1B68DA6AE36A9A4209D24FF0E023F5
:105950004FF08052C3F8042DBFF34F8FBFF36F8F0A
:1059600010BDFFF785FFD3E724970020249800207F
:1059700018970020089700201C9700209897002077
:1059800010B5044650302FF0D1F894F8953163B13A
:10599000012B11D0022B0ED04FF0500383F311884E
:1059A000BFF36F8FBFF34F8FFEE7206BFFF78EFEC5
:1059B0002046FFF78BFE10BD2046FFF787FEFAE773
:1059C0000F4B1B68D3B110B5FFF774FC0D4BDB68B0
:1059D000DC68201DFFF7F0FB0B4A1368013B1360E6
:1059E000074A1368013B1360FFF786FC2046FFF768
:1059F000C7FF034B1B68002BE6D110BD704700BFEB
:105A00003C970020409700202497002008B5FFF71E
:105A1000D7FF074B1B68012BF9D94FF0E0234FF05C
:105A20008052C3F8042DBFF34F8FBFF36F8FEEE7A3
:105A30009897002070B504460D461D4B1E681D4BFF
:105A400018680430FFF7B8FB48B91A4B1B68DB6ACB
:105A500001229A4018490B6823EA02030B60B4F153
:105A6000FF3F0DD03444134B1B685C60A64210D935
:105A7000124B18680F4B19680431FFF784FB70BD97
:105A8000002DEFD00B4B196804310D48FFF770FB68
:105A9000F5E70C4B1868074B19680431FFF773FBE7
:105AA000094B1B68A342EAD9074B1C60E7E700BF1C
:105AB00020970020249800201C9700206897002041
:105AC000289700206C9700200497002030B587B0FD
:105AD0000B9C8CB10C9DC5B14FF4CC750495049D05
:105AE000B5F5CC7F1AD04FF0500383F31188BFF384
:105AF0006F8FBFF34F8FFEE74FF0500383F3118892
:105B0000BFF36F8FBFF34F8FFEE74FF0500383F368
