:020000040800F2
:1000000000000220E9130008E1110008E3110008D4
:10001000E5110008E7110008E911000800000000E0
:10002000000000000000000000000000E12A0008BD
:10003000EB11000800000000812B0008E52B0008F0
:10004000391400083914000839140008391400085C
:10005000391400083914000839140008391400084C
:10006000391400083914000839140008391400083C
:10007000391400083914000839140008391400082C
:10008000391400083914000839140008391400081C
:10009000391400083914000839140008391400080C
:1000A00039140008ED11000839140008391400084B
:1000B00039140008391400083914000839140008EC
:1000C00039140008391400083914000839140008DC
:1000D00039140008FD11000839140008391400080B
:1000E00039140008391400083914000839140008BC
:1000F00039140008391400083914000839140008AC
:10010000391400083914000839140008391400089B
:10011000391400083914000839140008391400088B
:10012000391400083914000839140008391400087B
:10013000391400083914000839140008391400086B
:100140003914000839140008391400080D12000889
:10015000391400083914000839140008391400084B
:10016000391400083914000839140008391400083B
:100170003914000839140008391400080000000080
:080180003914000839140008CD
:1001C00053B94AB9002908BF00281CBF4FF0FF31BE
:1001D0004FF0FF3000F00CB8ADF1080C6DE904CE23
:1001E00005F0B4FBDDF804E0DDE9022304B070475C
:1001F000704700BF844641EA000313F003036DD14A
:10020000403A41D351F8043B40F8043B51F8043BD9
:1002100040F8043B51F8043B40F8043B51F8043BE0
:1002200040F8043B51F8043B40F8043B51F8043BD0
:1002300040F8043B51F8043B40F8043B51F8043BC0
:1002400040F8043B51F8043B40F8043B51F8043BB0
:1002500040F8043B51F8043B40F8043B51F8043BA0
:1002600040F8043B51F8043B40F8043B51F8043B90
:1002700040F8043B51F8043B40F8043B51F8043B80
:1002800040F8043B403ABDD2303211D351F8043B20
:1002900040F8043B51F8043B40F8043B51F8043B60
:1002A00040F8043B51F8043B40F8043B103AEDD2CF
:1002B0000C3205D351F8043B40F8043B043AF9D220
:1002C000043208D0D2071CBF11F8013B00F8013BF3
:1002D00001D30B8803806046704700BF082A13D300
:1002E0008B078DD010F003038AD0C3F10403D21A18
:1002F000DB071CBF11F8013B00F8013B80D331F84C
:10030000023B20F8023B7BE7043AD9D3013A11F8CB
:10031000013B00F8013BF9D20B7803704B78437036
:100320008B7883706046704700000000000000007A
:1003300000000000000000000000000000000000BD
:1003400030B490F800F020F007016FF0000C10F0CE
:10035000070491F820F040F048804FF000046FF05F
:100360000700D1E9002391F840F000F1080082FA7B
:100370004CF2A4FA8CF283FA4CF3A2FA8CF34BBB46
:10038000D1E9022382FA4CF200F10800A4FA8CF2BF
:1003900083FA4CF3A2FA8CF3E3B9D1E9042382FA8D
:1003A0004CF200F10800A4FA8CF283FA4CF3A2FAA2
:1003B0008CF37BB9D1E9062301F1200182FA4CF2DA
:1003C00000F10800A4FA8CF283FA4CF3A2FA8CF341
:1003D000002BC6D0002A04BF04301A4612BAB2FA63
:1003E00082F200EBD20030BC7047D1E9002304F068
:1003F0000305C4F100004FEAC50514F0040F91F89D
:1004000040F00CFA05F562EA05021CBF63EA050339
:1004100062464FF00004AAE7000000000000000060
:1004200001F0FF01102A2BDB10F0070F08D010F8A5
:10043000013B013A8B422DD010F0070F42B3F6D1A9
:10044000F0B441EA012141EA014122F007047FF0C2
:1004500000070023F0E80256083C85EA010586EA19
:10046000010685FA47F5A3FA87F586FA47F6A5FA55
:1004700087F68EB9EED1F0BC01F0FF0102F0070261
:1004800032B110F8013B013A83EA010313B1F8D10C
:100490000020704701387047002D06BF35460338ED
:1004A000073815F0010F07D1013015F4807F02BF26
:1004B000013015F4C03F0130F0BC0138704700BF77
:1004C00081F0004102E000BF83F0004330B54FEA05
:1004D00041044FEA430594EA050F08BF90EA020F72
:1004E0001FBF54EA000C55EA020C7FEA645C7FEA05
:1004F000655C00F0E2804FEA5454D4EB5555B8BF28
:100500006D420CDD2C4480EA020281EA030382EA98
:10051000000083EA010180EA020281EA0303362D2A
:1005200088BF30BD11F0004F4FEA01314FF4801CFD
:100530004CEA113102D0404261EB410113F0004F0F
:100540004FEA03334CEA133302D0524263EB4303C6
:1005500094EA050F00F0A780A4F10104D5F1200E64
:100560000DDB02FA0EFC22FA05F2801841F10001BF
:1005700003FA0EF2801843FA05F359410EE0A5F193
:1005800020050EF1200E012A03FA0EFC28BF4CF0C4
:10059000020C43FA05F3C01851EBE37101F000457A
:1005A00007D54FF0000EDCF1000C7EEB00006EEB87
:1005B0000101B1F5801F1BD3B1F5001F0CD3490811
:1005C0005FEA30004FEA3C0C04F101044FEA445268
:1005D00012F5800F80F09A80BCF1004F08BF5FEAEF
:1005E000500C50F1000041EB045141EA050130BDCF
:1005F0005FEA4C0C404141EB0101013C28BFB1F5E1
:10060000801FE9D291F0000F04BF01460020B1FA2B
:1006100081F308BF2033A3F10B03B3F120020CDAFE
:100620000C3208DD02F1140CC2F10C0201FA0CF0DC
:1006300021FA02F10CE002F11402D8BFC2F1200C41
:1006400001FA02F120FA0CFCDCBF41EA0C019040F7
:10065000E41AA2BF01EB0451294330BD6FEA040440
:100660001F3C1CDA0C340EDC04F11404C4F120022B
:1006700020FA04F001FA02F340EA030021FA04F33D
:1006800045EA030130BDC4F10C04C4F1200220FA94
:1006900002F001FA04F340EA0300294630BD21FAD2
:1006A00004F0294630BD94F0000F83F4801306BF98
:1006B00081F480110134013D4EE77FEA645C18BF8C
:1006C0007FEA655C29D094EA050F08BF90EA020F23
:1006D00005D054EA000C04BF1946104630BD91EA1B
:1006E000030F1EBF0021002030BD5FEA545C05D11E
:1006F0004000494128BF41F0004130BD14F580045D
:100700003CBF01F5801130BD01F0004545F0FE41D0
:1007100041F470014FF0000030BD7FEA645C1ABF05
:10072000194610467FEA655C1CBF0B46024650EA3C
:10073000013406BF52EA033591EA030F41F4002168
:1007400030BD00BF90F0000F04BF0021704730B5EE
:100750004FF4806404F132044FF000054FF00001C3
:1007600050E700BF90F0000F04BF0021704730B584
:100770004FF4806404F1320410F0004548BF404259
:100780004FF000013EE700BF42004FEAE2014FEAAE
:1007900031014FEA02701FBF12F07F4393F07F4F89
:1007A00081F06051704732F07F4208BF704793F08C
:1007B0007F4F04BF41F40021704730B54FF460749F
:1007C00001F0004521F000411CE700BF50EA0102A2
:1007D00008BF704730B54FF000050AE050EA01024B
:1007E00008BF704730B511F0004502D5404261EBBB
:1007F00041014FF4806404F132045FEA915C3FF4FC
:10080000D8AE4FF003025FEADC0C18BF03325FEA98
:10081000DC0C18BF033202EBDC02C2F1200300FA49
:1008200003FC20FA02F001FA03FE40EA0E0021FA6E
:1008300002F11444BDE600BF70B54FF0FF0C4CF45C
:10084000E06C1CEA11541DBF1CEA135594EA0C0F0E
:1008500095EA0C0F00F0DEF82C4481EA030621EA49
:100860004C5123EA4C5350EA013518BF52EA033584
:1008700041F4801143F4801338D0A0FB02CE4FF036
:100880000005E1FB02E506F00042E0FB03E54FF066
:100890000006E1FB03569CF0000F18BF4EF0010E5E
:1008A000A4F1FF04B6F5007F64F5407404D25FEA5A
:1008B0004E0E6D4146EB060642EAC62141EA55510D
:1008C0004FEAC52040EA5E504FEACE2EB4F1FD0C4F
:1008D00088BFBCF5E06F1ED8BEF1004F08BF5FEACD
:1008E000500E50F1000041EB045170BD06F000467F
:1008F00046EA010140EA020081EA0301B4EB5C042C
:10090000C2BFD4EB0C0541EA045170BD41F4801123
:100910004FF0000E013C00F3AB8014F1360FDEBF48
:10092000002001F0004170BDC4F10004203C35DA24
:100930000C341BDC04F11404C4F1200500FA05F3A7
:1009400020FA04F001FA05F240EA020001F0004248
:1009500021F0004110EBD37021FA04F642EB0601BE
:100960005EEA430E08BF20EAD37070BDC4F10C04E8
:10097000C4F1200500FA04F320FA05F001FA04F2AC
:1009800040EA020001F0004110EBD37041F1000198
:100990005EEA430E08BF20EAD37070BDC4F12005A3
:1009A00000FA05F24EEA020E20FA04F301FA05F20B
:1009B00043EA020321FA04F001F0004121FA04F2B3
:1009C00020EA020000EBD3705EEA430E08BF20EA83
:1009D000D37070BD94F0000F0FD101F000464000BD
:1009E00041EB010111F4801F08BF013CF7D041EA3F
:1009F000060195F0000F18BF704703F00046520043
:100A000043EB030313F4801F08BF013DF7D043EA13
:100A10000603704794EA0C0F0CEA135518BF95EAC9
:100A20000C0F0CD050EA410618BF52EA4306D1D150
:100A300081EA030101F000414FF0000070BD50EA6F
:100A4000410606BF1046194652EA430619D094EAF9
:100A50000C0F02D150EA013613D195EA0C0F05D1E3
:100A600052EA03361CBF104619460AD181EA030137
:100A700001F0004141F0FE4141F470014FF00000EF
:100A800070BD41F0FE4141F4780170BD70B54FF08A
:100A9000FF0C4CF4E06C1CEA11541DBF1CEA13550A
:100AA00094EA0C0F95EA0C0F00F0A7F8A4EB0504EC
:100AB00081EA030E52EA03354FEA013100F08880E3
:100AC0004FEA03334FF0805545EA131343EA1263AC
:100AD0004FEA022245EA111545EA10654FEA002661
:100AE0000EF000419D4208BF964244F1FD0404F51A
:100AF000407402D25B084FEA3202B61A65EB030576
:100B00005B084FEA32024FF480104FF4002CB6EB32
:100B1000020E75EB030E22BFB61A754640EA0C00B2
:100B20005B084FEA3202B6EB020E75EB030E22BFF2
:100B3000B61A754640EA5C005B084FEA3202B6EB33
:100B4000020E75EB030E22BFB61A754640EA9C00F2
:100B50005B084FEA3202B6EB020E75EB030E22BFC2
:100B6000B61A754640EADC0055EA060E18D04FEA80
:100B7000051545EA16754FEA06164FEAC30343EA20
:100B800052734FEAC2025FEA1C1CC0D111F4801FED
:100B90000BD141EA00014FF000004FF0004CB6E7E6
:100BA00011F4801F04BF01430020B4F1FD0C88BF85
:100BB000BCF5E06F3FF6AFAEB5EB030C04BFB6EB90
:100BC000020C5FEA500C50F1000041EB045170BD83
:100BD0000EF0004E4EEA113114EB5C04C2BFD4EBB0
:100BE0000C0541EA045170BD41F480114FF0000E34
:100BF000013C90E645EA060E8DE60CEA135594EAB0
:100C00000C0F08BF95EA0C0F3FF43BAF94EA0C0FB2
:100C10000AD150EA01347FF434AF95EA0C0F7FF427
:100C200025AF104619462CE795EA0C0F06D152EA7B
:100C300003353FF4FDAE1046194622E750EA41065F
:100C400018BF52EA43067FF4C5AE50EA41047FF470
:100C50000DAF52EA43057FF4EBAE12E74FF0FF3CD5
:100C600006E000BF4FF0010C02E000BF4FF0010CA6
:100C70004DF804CD4FEA410C7FEA6C5C4FEA430C1F
:100C800018BF7FEA6C5C1BD001B050EA410C0CBF6E
:100C900052EA430C91EA030F02BF90EA020F0020D0
:100CA000704710F1000F91EA030F58BF994208BF37
:100CB00090422CBFD8176FEAE37040F001007047F4
:100CC0004FEA410C7FEA6C5C02D150EA013C07D14B
:100CD0004FEA430C7FEA6C5CD6D152EA033CD3D096
:100CE0005DF8040B704700BF8446104662468C4690
:100CF0001946634600E000BF01B5FFF7B7FF0028C3
:100D000048BF10F1000F01BD4DF808EDFFF7F4FFEB
:100D10000CBF012000205DF808FB00BF4DF808ED76
:100D2000FFF7EAFF34BF012000205DF808FB00BF99
:100D30004DF808EDFFF7E0FF94BF012000205DF8BB
:100D400008FB00BF4DF808EDFFF7CEFF94BF012070
:100D500000205DF808FB00BF4DF808EDFFF7C4FF69
:100D600034BF012000205DF808FB00BF4FEA410CB2
:100D70007FEA6C5C02D150EA013C0AD14FEA430C95
:100D80007FEA6C5C02D152EA033C02D14FF00000D2
:100D900070474FF0010070474FEA410212F5001210
:100DA00015D211D56FF47873B3EB625212D94FEAB2
:100DB000C12343F0004343EA505311F0004F23FA9C
:100DC00002F018BF404270474FF00000704750EAF1
:100DD000013005D111F0004008BF6FF000407047AE
:100DE0004FF00000704700BF0348044B834202D01D
:100DF000034B03B118477047140700201407002065
:100E0000000000000548064B1B1AD90F01EBA30197
:100E1000491002D0034B03B1184770471407002054
:100E2000140700200000000010B5064C237843B9D9
:100E3000FFF7DAFF044B13B10448AFF3008001233E
:100E4000237010BDA01A00200000000024BD00087F
:100E500008B5054B1BB105490548AFF30080BDE857
:100E60000840FFF7CFBF00BF00000000A41A002019
:100E700024BD000808B5012001F08CFDFBE708B592
:100E8000012001F087FDFBE7034B0360034B0B6080
:100E900080231360704700BFC01C0020BC1A0020D4
:100EA00010B58EB0124C0DF11C0CA646BEE80F001A
:100EB000ACE80F009EE807008CE80700002107A8B7
:100EC00001F035FD0B4B1860EE4604F11C0CBCE83C
:100ED0000F00AEE80F009CE807008EE80700002135
:100EE000684601F024FD044B18600EB010BD00BF31
:100EF00040BD00085C1E0020581E002030B58BB09D
:100F00000024059406940794089409940094224BB5
:100F10001A6B42F010021A631A6B02F01002009270
:100F2000009A01941A6B42F004021A631A6B02F0E1
:100F300004020192019A02941A6B42F080021A6331
:100F40001A6B02F080020292029A03941A6B42F02A
:100F500001021A631A6B02F001020392039A0494CD
:100F60001A6B42F002021A631B6B03F00203049334
:100F7000049B0A4D01220421284600F047FC04236B
:100F80000593012306930793089405A9284600F0CA
:100F900047FB0BB030BD00BF0038024000100240DC
:100FA00030B589B000240394049405940694079402
:100FB0000194174D2B6B43F001032B632B6B03F054
:100FC00001030193019B4FF4C05303930223049345
:100FD000032306930A23079303A90E4800F020FB7E
:100FE0006B6B43F080036B6302946B6C43F4804340
:100FF0006B646B6C03F480430293029B2246214690
:10100000432000F09BFA432000F0A8FA09B030BD5D
:10101000003802400000024008B50268034B9A42C3
:1010200000D008BD00F024FAFBE700BF000001403B
:1010300072B6FEE700B595B03022002108A804F092
:1010400085FF00230393049305930693079301936D
:10105000204A116C41F080511164126C02F08052F0
:101060000192019A02931C4B1A6842F480421A6062
:101070001B6803F480430293029B012308934FF4FF
:101080008033099302230E934FF480020F920422BF
:101090001092A822119212930723139308A800F02C
:1010A000BBFB98B90F2303930223049300230593FA
:1010B0004FF4A05306934FF480530793052103A8E0
:1010C00000F014FE20B915B05DF804FBFFF7B0FF87
:1010D000FFF7AEFF003802400070004008B500F096
:1010E000ADF9FFF7A7FFFFF709FF00F0FDF84FF09C
:1010F000A041002003F0C6FAFFF7D2FE01F012FC77
:10110000FEE7000000B583B0002200920D4B596C41
:1011100041F480415964596C01F480410091009977
:101120000192196C41F0805119641B6C03F08053DB
:101130000193019B0F216FF0010000F0FFF903B054
:101140005DF804FB0038024030B589B00546002444
:1011500001941E4B5A6C42F001025A645B6C03F01E
:1011600001030193019B02A903A800F095FE00F082
:1011700083FE4300164AA2FB03239B0C013B154848
:10118000154A026040F2E732C26043600461846045
:10119000846101F005F8044610B1204609B030BD65
:1011A0000C4800F099FE04460028F6D1192000F002
:1011B000D5F90F2D01D90124EFE700222946192086
:1011C00000F0BCF9054B1D60E7E700BF00380240A6
:1011D00083DE1B43601E0020000001400800002049
:1011E000FEE7FEE7FEE7FEE7FEE7704708B50248C8
:1011F00000F0BAFE08BD00BF601E002008B502481E
:1012000001F048FA08BD00BFAC1E002008B5002060
:1012100004F038F908BD0120704708B504F072FFEA
:10122000162303604FF0FF3008BD08B54FF0FF31C3
:10123000FFF7F3FFFEE770B50C461646002506E003
:10124000AFF30080214601F8010B01350C46B54291
:10125000F6DB304670BD70B50C461646002504E03E
:1012600014F8010B00F0B0F80135B542F8DB304658
:1012700070BD4FF0FF3070474FF400534B600020BB
:1012800070470120704700207047000010B50346EA
:101290000C4A0D490D48006840B10C4800680344F1
:1012A000521A934206D8094A136010BD0748084CE9
:1012B0000460F2E704F026FF0C2303604FF0FF30D8
:1012C000F3E700BF0000022000080000A81E002075
:1012D000C05F0020034AD2F8883043F47003C2F89C
:1012E0008830704700ED00E008B50A480A4B0360FB
:1012F0004FF4E133436000238360C36003610C2239
:1013000042618361C36101F0A2F800B908BDFFF733
:101310008FFEFBE7AC1E002000100140F0B589B045
:10132000002303930493059306930793026803F144
:10133000804303F588339A4201D009B0F0BD002400
:10134000009403F594335A6C42F010025A645A6CBC
:1013500002F010020092009A01941A6B42F001020E
:101360001A631A6B02F001020192019A02941A6B3D
:1013700042F002021A631B6B03F002030293029B0A
:101380004FF400730393022704970326069607255C
:10139000079503A90A4800F043F9802303930497B3
:1013A00005940696079503A9064800F039F92246E8
:1013B0000521252000F0C2F8252000F0CFF8BCE779
:1013C000000002400004024000B583B001904FF6D7
:1013D000FF73012201A9034801F069F8019803B0E5
:1013E0005DF804FBAC1E0020DFF834D0FFF772FF7D
:1013F0000C480D490D4A002302E0D458C450043370
:10140000C4188C42F9D30A4A0A4C002301E0136045
:101410000432A242FBD304F07BFEFFF75FFE70476D
:1014200000000220000000201407002010C7000860
:10143000A01A0020C05F0020FEE7000008B50B4B9B
:101440001A6842F400721A601A6842F480621A60E4
:101450001A6842F480721A60032000F05DF80F20D1
:10146000FFF772FEFFF74EFE002008BD003C024071
:10147000034A1168034B1B780B441360704700BF8D
:10148000F41E002004000020014B1868704700BFC4
:10149000F41E0020002807DB00F01F024009012392
:1014A0009340024A42F82030704700BF00E100E05C
:1014B000002808DB0901C9B200F1604000F5614075
:1014C00080F80013704700F00F000901C9B2014B0A
:1014D0001954704714ED00E000B500F00700C0F1AA
:1014E000070CBCF1040F28BF4FF0040C031D062BA2
:1014F0000FD9C31E4FF0FF3E0EFA0CF021EA000197
:1015000099400EFA03FE22EA0E0241EA02005DF85B
:1015100004FB0023EEE70000074AD36823F4E063EE
:101520001B041B0C000200F4E060034343F0BF63A4
:1015300043F40033D360704700ED00E010B504467B
:10154000054BD868C0F30220FFF7C6FF01462046CE
:10155000FFF7AEFF10BD00BF00ED00E008B5FFF7DC
:1015600099FF08BD70B50446866DFFF78DFF94F8AE
:101570003530DBB2022B06D080236365002384F86C
:101580003430012070BD05462268136823F016032D
:1015900013602268536923F080035361236CE3B125
:1015A0002268136823F0080313602268136823F08D
:1015B0000103136023681B6813F0010F11D0FFF7BC
:1015C00063FF431B052BF5D920236365032084F8B3
:1015D0003500002384F83430D4E7A36C002BDFD12E
:1015E000E3E7E26D3F239340B360012384F8353095
:1015F000002084F83400C5E790F83530DBB2022BC8
:1016000003D08023436501207047052380F83530DF
:101610000268136823F00103136000207047000084
:1016200000230F2B00F2E98070B582B065E0856879
:101630004FEA430E032404FA0EF425EA0405CC68AD
:1016400004FA0EF42C438460446824EA02044A68D5
:10165000C2F300129A40224342605CE0DC08083486
:1016600050F8242003F00705AD004FF00F0E0EFADE
:1016700005FE22EA0E0E0A69AA4042EA0E0240F86E
:1016800024205CE0072200E0002202FA0EF22A4346
:1016900002345A4D45F82420594A94686FEA0C02E6
:1016A00024EA0C054E6816F4801F01D04CEA0405AC
:1016B000534CA560E46802EA04054E6816F4001F66
:1016C00001D04CEA04054E4CE560646802EA04056A
:1016D0004E6816F4003F01D04CEA0405484C6560A2
:1016E000246822404D6815F4803F01D04CEA040282
:1016F000434C226001330F2B7DD801229A400C68A5
:1017000004EA020C32EA0404F4D14C6804F0030445
:10171000013C012C8BD94A6802F00302032A09D04C
:10172000C4685D000322AA4024EA02048A68AA4031
:101730002243C2604A6802F00302022A8ED0046883
:101740004FEA430E032202FA0EF224EA02044A6828
:1017500002F0030202FA0EF2224302604A6812F417
:10176000403FC7D000220192264A546C44F4804482
:101770005464526C02F480420192019A9C08A51CA8
:101780001E4A52F8255003F0030E4FEA8E0E0F2228
:1017900002FA0EF225EA02051B4A90423FF474AFAA
:1017A00002F5806290421AD002F58062904218D011
:1017B00002F58062904216D002F58062904214D009
:1017C00002F58062904212D002F58062904210D001
:1017D00002F5806290423FF455AF082255E701229E
:1017E00053E7022251E703224FE704224DE7052287
:1017F0004BE7062249E702B070BD70470038014050
:10180000003C014000380240000002400AB1816102
:101810007047090481617047002800F0E08170B5CD
:1018200082B00446036813F0010F3BD09F4B9B68C6
:1018300003F00C03042B2CD09C4B9B6803F00C038F
:10184000082B21D06368B3F5803F4FD0B3F5A02FAC
:1018500052D0964B1A6822F480321A601A6822F429
:1018600080221A606368002B50D0FFF70DFE0546FA
:101870008E4B1B6813F4003F14D1FFF705FE401B8D
:101880006428F5D90320B1E1884B5B6813F4800F1D
:10189000D8D0864B1B6813F4003F03D06368002B3D
:1018A00000F09F81236813F0020F54D07F4B9B6898
:1018B00013F00C0F3ED07D4B9B6803F00C03082BFC
:1018C00033D0E368002B68D0794B01221A60FFF710
:1018D000DBFD0546754B1B6813F0020F54D1FFF773
:1018E000D3FD401B0228F5D903207FE16F4A13681E
:1018F00043F480331360B5E76C4B1A6842F48022DE
:101900001A601A6842F480321A60ABE7FFF7BCFD38
:101910000546664B1B6813F4003FC3D0FFF7B4FDC8
:10192000401B6428F5D9032060E1604B5B6813F429
:10193000800FC6D15D4B1B6813F0020F03D0E36824
:10194000012B40F05081594A136823F0F8032169B4
:1019500043EAC1031360236813F0080F42D06369A0
:101960006BB3534B0122C3F8802EFFF78DFD054664
:101970004E4B5B6F13F0020F34D1FFF785FD401B18
:101980000228F5D9032031E1484A136823F0F8030F
:10199000216943EAC1031360DDE7454B00221A6069
:1019A000FFF772FD0546414B1B6813F0020FD2D0C2
:1019B000FFF76AFD401B0228F5D9032016E13C4BD6
:1019C0000022C3F8802EFFF75FFD0546374B5B6FA3
:1019D00013F0020F06D0FFF757FD401B0228F5D980
:1019E000032003E1236813F0040F77D02F4B1B6C07
:1019F00013F0805F33D1002301932C4B1A6C42F01B
:101A000080521A641B6C03F080530193019B0125E3
:101A1000284B1B6813F4807F23D0A368012B34D09C
:101A2000052B38D0214B1A6F22F001021A671A6F6A
:101A300022F004021A67A368002B3DD0FFF724FDB3
:101A400006461A4B1B6F13F0020F46D1FFF71CFD21
:101A5000801B41F288339842F3D90320C6E0002569
:101A6000D6E7144A136843F480731360FFF70CFD44
:101A70000646104B1B6813F4807FCED1FFF704FDA0
:101A8000801B0228F5D90320B0E0084A136F43F009
:101A900001031367CFE7054B1A6F42F004021A6780
:101AA0001A6F42F001021A67C5E700BF0038024012
:101AB0000000474200700040FFF7E6FC0646524B2C
:101AC0001B6F13F0020F08D0FFF7DEFC801B41F202
:101AD00088339842F3D9032088E0EDB9A369002B3D
:101AE00000F08380484A926802F00C02082A51D024
:101AF000022B17D0454B00221A66FFF7C5FC04469F
:101B0000414B1B6813F0007F42D0FFF7BDFC001B68
:101B10000228F5D9032069E03B4A136C23F0805377
:101B20001364DBE7394B00221A66FFF7ADFC05466C
:101B3000354B1B6813F0007F06D0FFF7A5FC401B58
:101B40000228F5D9032051E0E369226A1343626A4F
:101B500043EA8213A26A5208013A43EA0243E26A64
:101B600043EA0263284A5360284B01221A66FFF7B2
:101B70008BFC0446244B1B6813F0007F06D1FFF753
:101B800083FC001B0228F5D903202FE000202DE064
:101B900000202BE0012B2BD01B4B5B6803F4800152
:101BA000E269914226D103F03F02216A8A4223D1A1
:101BB000616A47F6C0721A40B2EB811F1ED103F46E
:101BC0004031A26A5208013AB1EB024F18D103F03A
:101BD0007063E26AB3EB026F14D1002006E00120CB
:101BE0007047012002E0012000E0002002B070BD3B
:101BF0000120FBE70120F9E70120F7E70120F5E7E5
:101C00000120F3E70120F1E70038024000004742DD
:101C100008B5334B9B6803F00C03042B5BD0082BF7
:101C20005BD12F4B5A6802F03F025B6813F4800FC0
:101C30002CD02B4B5868C0F388104FEA401CBCEBEB
:101C4000000C6EEB0E0E4FEA8E1343EA9C634FEAD4
:101C50008C11B1EB0C0163EB0E03DB0043EA517313
:101C6000C90011EB000C43F10003590200234FEAB5
:101C70004C2041EADC51FEF7A3FA194B5B68C3F331
:101C8000014301335B00B0FBF3F008BD144B58680F
:101C9000C0F388104FEA401CBCEB000C6EEB0E0E3C
:101CA0004FEA8E1343EA9C634FEA8C11B1EB0C01AF
:101CB00063EB0E03DB0043EA5173C90011EB000C28
:101CC00043F10003990200234FEA8C2041EA9C5122
:101CD000FEF776FAD1E70348D7E70348D5E700BF18
:101CE0000038024000127A000024F400002800F0BE
:101CF0009B8070B50D4604464F4B1B6803F00703ED
:101D00008B4208D2CBB24C4A1370136803F007031E
:101D10008B4240F08B80236813F0020F17D013F032
:101D2000040F04D0454A936843F4E053936023685A
:101D300013F0080F04D0414A936843F46043936062
:101D40003E4A936823F0F003A1680B439360236835
:101D500013F0010F32D06368012B21D09A1E012AA3
:101D600025D9364A126812F0020F61D033498A68C9
:101D700022F0030213438B60FFF786FB06462F4BCE
:101D80009B6803F00C036268B3EB820F16D0FFF779
:101D90007BFB801B41F288339842F0D9032042E05C
:101DA000264A126812F4003FE0D101203BE0234AAA
:101DB000126812F0007FD9D1012034E01E4B1B685D
:101DC00003F00703AB4207D9EAB21B4B1A701B683A
:101DD00003F00703AB422DD1236813F0040F06D0A4
:101DE000164A936823F4E053E1680B439360236839
:101DF00013F0080F07D0114A936823F46043216958
:101E000043EAC1039360FFF703FF0C4B9B68C3F3E6
:101E100003130B4AD35CD8400A4B18600A4B18686E
:101E2000FFF792F9002070BD012070470120FAE70A
:101E30000120F8E70120F6E7003C024000380240AC
:101E400008C300080000002008000020014B1868AB
:101E5000704700BF0000002008B5FFF7F7FF044BF4
:101E60009B68C3F38223034AD35CD84008BD00BFFC
:101E70000038024000C3000808B5FFF7E7FF044B35
:101E80009B68C3F34233034AD35CD84008BD00BF0C
:101E90000038024000C300080F2303600B4B9A6810
:101EA00002F0030242609A6802F0F00282609A68CF
:101EB00002F4E052C2609B68DB0803F4E053036164
:101EC000034B1B6803F007030B60704700380240A8
:101ED000003C02407047000090F83D30DBB2012B1F
:101EE00037D1022380F83D300268D36843F0010304
:101EF000D3600368194A934220D0B3F1804F1DD0BC
:101F0000A2F57C42934219D002F58062934215D02B
:101F100002F58062934211D002F5784293420DD0CF
:101F200002F57052934209D0A2F59432934205D043
:101F30001A6842F001021A60002070479A6802F0A5
:101F40000702062A07D01A6842F001021A60002030
:101F50007047012070470020704700BF000001401B
:101F6000704770477047704770B504460368DE6875
:101F70001D6915F0020F10D016F0020F0DD06FF092
:101F800002021A610123037703689B6913F0030FB0
:101F90005ED0FFF7E6FF0023237715F0040F12D081
:101FA00016F0040F0FD023686FF004021A610223A9
:101FB000237723689B6913F4407F4FD02046FFF7B7
:101FC000D0FF0023237715F0080F12D016F0080F6A
:101FD0000FD023686FF008021A6104232377236867
:101FE000DB6913F0030F40D02046FFF7BAFF002350
:101FF000237715F0100F12D016F0100F0FD02368B2
:102000006FF010021A61082323772368DB6913F449
:10201000407F31D02046FFF7A4FF0023237715F03F
:10202000010F02D016F0010F2DD115F0800F02D054
:1020300016F0800F2FD115F0400F02D016F0400F90
:1020400031D115F0200F02D016F0200F33D170BD22
:10205000FFF786FF2046FFF785FF9CE72046FFF746
:102060007FFF2046FFF77EFFABE72046FFF778FFB4
:102070002046FFF777FFBAE72046FFF771FF2046BB
:10208000FFF770FFC9E723686FF001021A6120466D
:10209000FEF7C2FFC9E723686FF080021A6120468D
:1020A00000F0ABF8C7E723686FF040021A612046E2
:1020B000FFF759FFC5E723686FF020021A61204639
:1020C00000F09AF8C3E700000368344A904212D047
:1020D000B0F1804F0FD0A2F57C4290420BD002F5B8
:1020E0008062904207D002F58062904203D002F5F0
:1020F0007842904203D123F070034A681343274A81
:1021000090422AD0B0F1804F27D0A2F57C42904275
:1021100023D002F5806290421FD002F58062904287
:102120001BD002F57842904217D002F570529042CF
:1021300013D002F5806290420FD002F58062904287
:102140000BD0A2F59832904207D002F580629042FF
:1021500003D002F58062904203D123F44073CA6831
:10216000134323F080034A69134303608B68C362FF
:102170000B688362094B984203D003F58063984251
:1021800001D10B69036301234361036913F0010F5C
:1021900003D0036923F0010303617047000001408D
:1021A00040B310B5044690F83D30F3B1022384F8F3
:1021B0003D30214651F8040BFFF786FF012384F8D8
:1021C000463084F83E3084F83F3084F8403084F85C
:1021D000413084F8423084F8433084F8443084F845
:1021E000453084F83D30002010BD80F83C30FFF7CA
:1021F00071FEDBE70120704770477047026802F10B
:102200000C0353E8003F23F490730C3242E8003192
:102210000029F3D1026802F1140353E8003F23F0D0
:102220000103143242E800310029F3D1036B012B82
:1022300005D0202380F842300023036370470268F2
:1022400002F10C0353E8003F23F010030C3242E884
:1022500000310029F3D1ECE790F84130DBB2212BBB
:1022600001D0022070478368B3F5805F17D0036AFE
:102270005A1C02621A7803685A60C38C9BB2013BF5
:102280009BB2C3844BB90268D36823F08003D36048
:102290000268D36843F04003D360002070470369AD
:1022A000002BE4D1036A1B880268C3F30803536060
:1022B000036A02330362E0E710B50446026813695B
:1022C00023F44053C1680B431361836802691A43C6
:1022D00043691A43C3691A430168CB6823F4164360
:1022E00023F00C031343CB600268536923F440735B
:1022F00081690B4353610368314A934206D002F56A
:102300008062934202D0FFF7A7FD01E0FFF7B4FD22
:10231000E369B3F5004F29D00021031849411B1888
:1023200041F10001C90041EA5371DB0018186368EC
:102330004FEA83024FEA937341F10001FDF740FF3A
:10234000204AA2FB00314909642303FB11031B014E
:102350003233A2FB03235B0903F0F00202EB01120C
:1023600003F00F03216813448B6010BD0023021893
:1023700043EB0301121841F10001C90041EA527117
:10238000D200101841F10001626892185B41FDF71C
:1023900017FF0C4AA2FB00314909642303FB110318
:1023A000DB003233A2FB03235B095A0002F4F8720C
:1023B00002EB011203F00703216813448B60D4E79A
:1023C000001001401F85EB512DE9F04383B0054615
:1023D0000E4617469946DDF828802B681C6836EAB9
:1023E00004040CBF01240024BC4228D1B8F1FF3FF3
:1023F000F3D0FFF749F8A0EB0900404523D8B8F126
:10240000000F22D02B68DA6812F0040FE5D0802E7E
:10241000E3D0402EE1D01A6812F0080FDDD000247E
:1024200001941A6801925B680193019B2846FFF7AB
:10243000E5FE08236B6485F84040012000E00020A1
:1024400003B0BDE8F0830320FAE70320F8E760B3A8
:1024500010B5044690F8413013B3242384F841307A
:102460002268D36823F40053D3602046FFF724FF8B
:102470002268136923F4904313612268536923F09F
:102480002A0353612268D36843F40053D3600020C9
:102490006064202384F8413084F84230606310BDCA
:1024A00080F84030FEF73AFFD7E7012070472DE96A
:1024B000F04182B01E4690F84130DBB2202B56D15D
:1024C00004460D469046002955D00AB901204FE038
:1024D00000234364212380F84130FEF7D5FF0746EF
:1024E000A4F82480A4F82680A368B3F5805F02D006
:1024F0004FF0000814E023692BB34FF000080FE001
:10250000202384F84130032032E038F8023B22686F
:10251000C3F308035360E28C92B2013A92B2E284B0
:10252000E38C9BB293B100963B460022802120466B
:10253000FFF74AFF0028E3D1002DE6D015F8012B64
:1025400023685A60E7E7A8460025E9E700963B467E
:10255000002240212046FFF737FF18B9202384F8D6
:10256000413005E0202384F84130032000E00220C0
:1025700002B0BDE8F0810120FAE7704708B50168B4
:10258000CA6822F04002CA60202280F84120FFF78A
:10259000F4FF002008BD7047704708B5806B00232A
:1025A000C385C384FFF7F8FF08BD704790F8423039
:1025B000DBB2222B69D18368B3F5805F4FD0826A8A
:1025C000B3F5805F04D0002B56D10369002B53D1A3
:1025D00003685B681370836A01338362C38D9BB2A7
:1025E000013B9BB2C385002B51D100B583B002687B
:1025F000D36823F02003D3600268D36823F4807388
:10260000D3600268536923F001035361202380F8EB
:10261000423000234363036B012B33D10023036358
:10262000026802F10C0353E8003F23F010030C3260
:1026300042E800310029F3D103681A6812F0100F44
:1026400006D0002201921A6801925B680193019BF7
:10265000818DFFF7AAFF002003B05DF804FB02693B
:10266000002AACD1826A03685B68C3F30803138055
:10267000836A02338362B1E703685B6803F07F0318
:102680001370A8E7FFF787FFE5E7022070470020F7
:102690007047000010B582B0044602681368D06825
:1026A000516913F00F0F09D113F0200F0CD010F067
:1026B000200F09D02046FFF779FF16E011F0010145
:1026C00015D110F4907F12D1216B012979D013F02C
:1026D000800F03D010F0800F40F0148113F0400FF2
:1026E00003D010F0400F40F0118102B010BD13F084
:1026F000010F06D010F4807F03D0626C42F001021B
:10270000626413F0040F04D019B1626C42F002024B
:10271000626413F0020F04D019B1626C42F004023B
:10272000626413F0080F07D010F0200F00D119B128
:10273000626C42F008026264626C002AD5D013F029
:10274000200F02D010F0200F29D123685B6903F01D
:102750004003626C12F0080F00D163B32046FFF70C
:102760004DFD23685B6913F0400F20D0226802F111
:10277000140353E8003F23F04003143242E80031D1
:102780000029F3D1E36B73B1624A1A65E06BFEF77F
:1027900033FF0028A9D0E06B036D9847A5E72046DA
:1027A000FFF704FFD1E72046FFF7F6FE9DE720463E
:1027B000FFF7F2FE99E72046FFF7EEFE0023636481
:1027C00093E713F0100F82D010F0100F3FF47FAF9B
:1027D000002301931368019353680193019B53698C
:1027E00013F0400F52D0E26B13685B689BB2002B72
:1027F0003FF47BAFA18D99427FF677AFE385D36934
:10280000B3F5807F37D0226802F10C0353E8003F14
:1028100023F480730C3242E800310029F3D122689E
:1028200002F1140353E8003F23F00103143242E89D
:1028300000310029F3D1226802F1140353E8003F6C
:1028400023F04003143242E800310029F3D1202361
:1028500084F8423000232363226802F10C0353E81A
:10286000003F23F010030C3242E800310029F3D17D
:10287000E06BFEF777FE02236363A18DE38D9BB2CD
:10288000C91A89B22046FFF790FE2EE7A18DE38D8D
:102890009BB2C91A89B2E38D9BB2002B3FF425AFDE
:1028A00000293FF422AF226802F10C0353E8003FF5
:1028B00023F490730C3242E800300028F3D12268F0
:1028C00002F1140353E8003F23F00103143242E8FD
:1028D00000300028F3D1202384F842300023236302
:1028E000226802F10C0353E8003F23F010030C327E
:1028F00042E800300028F3D1022363632046FFF74B
:1029000054FEF2E62046FFF7A7FCEEE62046FFF76E
:1029100035FEEAE69B250008842801D00330704785
:102920000020704708B500F069FD002008BD2DE9C2
:10293000F04387B00E464469C4B18569B5B14768B4
:10294000D0F80080D0F81090B0F90800FFF7E4FF4D
:1029500002950194009033464A464146384600F0BD
:10296000DDFC0590059807B0BDE8F0834468056874
:102970000769B0F90800FFF7CFFF05AB019300909E
:102980003346BAB22946204600F005FD0128E9D0B9
:102990000020E8E708B500B9012000F081FE002022
:1029A00008BD00F1080343604FF0FF328260C3604E
:1029B000036100230360704700230361704743688D
:1029C0004B609A688A6051609960086103680133BE
:1029D0000360704730B40D68B5F1FF3F11D000F1CE
:1029E00008031C465B681A68AA42FAD963684B6000
:1029F00099608C606160086103680133036030BCDA
:102A000070470469F2E70369416882688A60416837
:102A100051605A68824206D0002202611A68013A67
:102A20001A601868704782685A60F5E782B0002320
:102A300001930D4B1B68B3F1FF3F08D04FF05003DB
:102A400083F31188BFF36F8FBFF34F8FFEE74FF013
:102A5000500383F31188BFF36F8FBFF34F8F019B38
:102A6000002BFCD002B070470C0000200848006822
:102A7000006880F308884FF0000080F3148862B685
:102A800061B6BFF34F8FBFF36F8F00DF00BF000051
:102A900008ED00E0DFF80C00016841F4700101600E
:102AA0007047000088ED00E04FF0807340F8043C70
:102AB00021F0010140F8081C054B40F80C3C40F89F
:102AC000202C6FF0020340F8243C4438704700BFCC
:102AD0002D2A000800000000000000000000000097
:102AE000074B19680868B0E8F04F80F30988BFF316
:102AF0006F8F4FF0000080F311887047AFF30080B4
:102B0000485C00204FF0500383F31188BFF36F8FB0
:102B1000BFF34F8F0B4A136801331360012B00D0B2
:102B200070474FF0E023D3F8043D13F0FF0FF7D0C8
:102B30004FF0500383F31188BFF36F8FBFF34F8FB4
:102B4000FEE700BF0C000020094B1B6843B94FF0A3
:102B5000500383F31188BFF36F8FBFF34F8FFEE7EE
:102B6000013B034A13600BB983F31188704700BF20
:102B70000C00002000000000000000000000000029
:102B8000EFF30980BFF36F8F154B1A681EF0100F1B
:102B900008BF20ED108A20E9F04F10602DE90900F0
:102BA0004FF0500080F31188BFF34F8FBFF36F8F4A
:102BB00000F09CFD4FF0000080F3118809BC1968FB
:102BC0000868B0E8F04F1EF0100F08BFB0EC108A94
:102BD00080F30988BFF36F8F704700BFAFF30080A9
:102BE000485C002008B54FF0500383F31188BFF311
:102BF0006F8FBFF34F8F00F04BFC28B14FF0E023F5
:102C00004FF08052C3F8042D002383F3118808BDD0
:102C10004FF0E022002313619361054B1B680549C7
:102C2000A1FB03139B09013B536107231361704709
:102C300000000020D34D62104FF0E023D3F8002DA8
:102C40003D4B9A421CD04FF0E023D3F8002D3B4B74
:102C50009A421ED030B583B0394B1A78D2B2019265
:102C6000FF221A701B78DBB28DF803309DF8033019
:102C700003F05003334A1370334B07221A601BE0F2
:102C80004FF0500383F31188BFF36F8FBFF34F8F63
:102C9000FEE74FF0500383F31188BFF36F8FBFF34C
:102CA0004F8FFEE7284A1368013B13609DF80330FD
:102CB0005B00DBB28DF803309DF8033013F0800F1A
:102CC000F0D1214B1B68032B08D04FF0500383F346
:102CD0001188BFF36F8FBFF34F8FFEE71B021A4AB5
:102CE000136003F4E0631360019BDBB2144A1370BA
:102CF0004FF0E024D4F8203D43F47003C4F8203DA5
:102D0000D4F8203D43F07043C4F8203DFFF780FF26
:102D100000250E4B1D60FFF7BDFED4F8343F43F095
:102D20004043C4F8343FFFF7A1FE00F0DFFCFFF79B
:102D30007DFE284603B030BD71C20F4170C20F4105
:102D400000E400E0FC1E0020F81E00200C00002023
:102D5000124A12F0070F1ED0D11D21F00701C1F554
:102D6000705313440A460E48026000214160134428
:102D7000083B23F007030B48036059601960991A58
:102D800051601360084B1960084B1960084B4FF0F5
:102D900000421A6070474FF47053E4E7201F002090
:102DA000181F0020141F00200C1F0020101F0020DF
:102DB000001F0020164B1A461B688342FBD3516844
:102DC00002EB010C844509D0416800EB010C63451E
:102DD00009D00360904219D01060704740680144E8
:102DE00051601046F0E710B40A4C2468A3420BD09F
:102DF0005B681944416013681B680360904200D00F
:102E000010605DF8044B70470460F7E7704700BF3F
:102E1000181F0020141F002038B5044600F030FBB6
:102E2000384B1B68B3B1384B1B681C4250D1002C87
:102E300050D004F1080214F0070F02D022F007026C
:102E40000832002A55D0314B1B68934253D3304986
:102E50000C6804E0FFF77CFFE5E721461C46636849
:102E6000934202D22368002BF7D1264B1B68A34262
:102E700043D00D68083523680B6063689B1A102BDC
:102E800010D9A01810F0070F08D04FF0500383F3AB
:102E90001188BFF36F8FBFF34F8FFEE7436062600F
:102EA000FFF788FF626819490B689B1A0B60194984
:102EB00009688B4201D217490B60134B1B681343FF
:102EC000636000232360144A13680133136002E037
:102ED000002500E0002500F067FB15F0070F0ED07D
:102EE0004FF0500383F31188BFF36F8FBFF34F8F01
:102EF000FEE70025EFE70025EDE70025EBE7284694
:102F000038BD00BF141F0020001F0020101F00202C
:102F1000181F00200C1F0020081F0020002834D09C
:102F200038B50446A0F1080550F8043C174A126869
:102F3000134208D14FF0500383F31188BFF36F8F12
:102F4000BFF34F8FFEE750F8081C41B14FF050031C
:102F500083F31188BFF36F8FBFF34F8FFEE723EA30
:102F6000020340F8043C00F08BFA54F8041C084AB1
:102F700013680B4413602846FFF71CFF054A1368CB
:102F80000133136000F010FB38BD7047001F0020B4
:102F9000101F0020041F0020084B1B681B6823B96A
:102FA000074B4FF0FF321A607047044B1B68DB6819
:102FB000DB685A68024B1A60704700BF905B0020C4
:102FC000285B00202DE9F04707469846089DDDF86C
:102FD00024900A9C266B02F18042013A06EB82069D
:102FE00026F00706002964D008464FF0000CBCF11B
:102FF0000F0F09D810F80C2004EB0C0383F83420D1
:1030000012B10CF1010CF2E7002384F84330062DD5
:1030100000D90625E56265644FF0000AC4F848A0AF
:10302000201DFFF7C9FC04F11800FFF7C5FC24615F
:10303000C5F10705A5616462C4F890A184F894A164
:103040004FF4A072514604F1500002F07FFF1B4B79
:10305000636503F16802A265D033E36501220023B2
:10306000C4E93A2343F20E33A4F8F0304AF6CD33E4
:10307000A4F8F23041F23423A4F8F4304EF26D6338
:10308000A4F8F6304DF6EC63A4F8F8300523A4F864
:10309000FA300B23A4F8FC30424639463046FFF79D
:1030A00003FD2060B9F1000F01D0C9F80040BDE870
:1030B000F087002384F83430A9E700BFAC5C00201F
:1030C00038B5002407E004EB840293000E4818444E
:1030D000FFF767FC0134062CF5D90C4D2846FFF7A5
:1030E00060FC0B4C2046FFF75CFC0A48FFF759FCDC
:1030F0000948FFF756FC0948FFF753FC084B1D60D1
:10310000084B1C6038BD00BFBC5B0020A85B0020E2
:10311000945B0020785B0020645B00204C5B002007
:10312000905B00208C5B002010B50446FFF7EAFCA2
:10313000214A136801331360204B1B685BB1204B9D
:103140001B686BB91D4B1B68DA6AE36A9A4207D8A1
:103150001A4B1C6004E0194B1C601368012B28D02B
:10316000184A136801331360E06A01238340164A4A
:1031700011680B43136000EB8000211D134B03EB20
:103180008000FFF71CFCFFF7DFFC0D4B1B687BB1D9
:103190000A4B1B68DA6AE36A9A4209D24FF0E023CD
:1031A0004FF08052C3F8042DBFF34F8FBFF36F8FE2
:1031B00010BDFFF785FFD3E7485B0020485C002087
:1031C0003C5B00202C5B0020405B0020BC5B0020AF
:1031D00010B50446503002F01DFF94F8953163B1EC
:1031E000012B11D0022B0ED04FF0500383F3118826
:1031F000BFF36F8FBFF34F8FFEE7206BFFF78EFE9D
:103200002046FFF78BFE10BD2046FFF787FEFAE74A
:103210000F4B1B68D3B110B5FFF774FC0D4BDB6887
:10322000DC68201DFFF7EFFB0B4A1368013B1360BE
:10323000074A1368013B1360FFF786FC2046FFF73F
:10324000C7FF034B1B68002BE6D110BD704700BFC2
:10325000605B0020645B0020485B002008B5FFF73E
:10326000D7FF074B1B68012BF9D94FF0E0234FF034
:103270008052C3F8042DBFF34F8FBFF36F8FEEE77B
:10328000BC5B002070B504460D461D4B1E681D4BEF
:1032900018680430FFF7B7FB48B91A4B1B68DB6AA4
:1032A00001229A4018490B6823EA02030B60B4F12B
:1032B000FF3F0DD03444134B1B685C60A64210D90D
:1032C000124B18680F4B19680431FFF783FB70BD70
:1032D000002DEFD00B4B196804310D48FFF76FFB41
:1032E000F5E70C4B1868074B19680431FFF772FBC0
:1032F000094B1B68A342EAD9074B1C60E7E700BFF4
:10330000445B0020485C0020405B00208C5B002078
:103310004C5B0020905B0020285B002030B587B01C
:103320000B9C8CB10C9DC5B14FF4CC750495049DDC
:10333000B5F5CC7F1AD04FF0500383F31188BFF35B
:103340006F8FBFF34F8FFEE74FF0500383F3118869
:10335000BFF36F8FBFF34F8FFEE74FF0500383F340
:103360001188BFF36F8FBFF34F8FFEE7049D0C9D55
:103370002C63022485F8954100240394029505AC42
:1033800001940A9C0094FFF71DFE0C98FFF7CCFEF9
:10339000059807B030BD2DE9F04385B00746884653
:1033A00014461E469000FFF737FD10B381464FF4D8
:1033B000CC70FFF731FD0546A8B1C0F8309000236E
:1033C00080F89531039302900D9B01930C9B009321
:1033D0003346224641463846FFF7F4FD2846FFF7BC
:1033E000A3FE012007E04846FFF798FD4FF0FF30AD
:1033F00001E04FF0FF3005B0BDE8F08310B588B0B4
:1034000000240594069407AA06A905A8FDF73CFD2B
:10341000059B0293069B019300942346079A10494B
:103420001048FFF77BFF104B1860B8B14FF0500306
:1034300083F31188BFF36F8FBFF34F8F0B4B1B6864
:1034400050330B4A13600B4B4FF0FF321A600A4B9C
:1034500001221A60094B1C60FFF7EEFB08B010BD9B
:103460008CBD00085D320008245B0020485C002011
:103470004C000020285B00203C5B0020445B0020C7
:10348000024A136801331360704700BF205B0020BD
:10349000F8B53A4B1B68002B69D1394B1D680135D3
:1034A0001D60C5B9374B1B681B6843B14FF0500313
:1034B00083F31188BFF36F8FBFF34F8FFEE7314A5D
:1034C0001168314B186810601960304A1368013375
:1034D0001360FFF761FD2E4B1B68AB423DD90027FF
:1034E0002C4B1B68DB6A03EB83039A002A4B9B5827
:1034F000012B00D90127294B1B68002B3CD0012749
:103500003AE001271F4B1B681B6843B31D4B1B6828
:10351000DB68DC6863689D4226D3261D3046FFF7D2
:1035200072FAA36A1BB104F11800FFF76CFAE36AA0
:1035300001229A401A49086802430A6003EB830398
:103540009A00314614481044FFF739FAE26A114BE9
:103550001B68DB6A9A42D4D2D4E70027D2E70C4B2F
:103560004FF0FF321A60BBE7094A1360B8E70D4A13
:1035700013680133136000273846F8BD205B002034
:10358000445B0020905B00208C5B0020305B0020BF
:10359000285B0020485C0020BC5B0020345B0020DE
:1035A000405B0020385B002038B5354B1B6843B9C1
:1035B0004FF0500383F31188BFF36F8FBFF34F8F2A
:1035C000FEE7FFF79FFA2E4B1A68013A1A601B6854
:1035D000002B4FD12B4B1B680BB900244BE0002470
:1035E000294B1B681BB3284BDB68DC6804F118000F
:1035F000FFF709FA251D2846FFF705FAE06A0123BF
:103600008340224A11680B43136000EB8000294677
:103610001F4B03EB8000FFF7D2F9E26A1D4B1B68DA
:10362000DB6A9A42DCD31C4B01221A60D8E70CB14A
:10363000FFF7B2FC194B1C6884B9174B1C68D4B156
:103640004FF0E0234FF08052C3F8042DBFF34F8FAB
:10365000BFF36F8F01240EE0013C07D0FFF718FF86
:103660000028F9D00C4B01221A60F5E70B4B002221
:103670001A60E2E70024FFF767FA204638BD00BF72
:10368000205B0020485B0020785B0020405B00202E
:10369000BC5B0020485C0020345B0020385B0020CD
:1036A00010B5A8B10446104B1B6843B14FF050034E
:1036B00083F31188BFF36F8FBFF34F8FFEE7FFF7E0
:1036C000DFFE00212046FFF7DDFDFFF76DFF48B963
:1036D0004FF0E0234FF08052C3F8042DBFF34F8F1B
:1036E000BFF36F8F10BD00BF205B0020224B1B6813
:1036F0001BB1224B01221A607047204B00221A6036
:103700001F4B1B68B3FA83F3DBB2C3F11F0303EB58
:1037100083018A001B498A5842B94FF0500383F352
:103720001188BFF36F8FBFF34F8FFEE7154803EB90
:1037300083018A00024451684968516003EB830C9D
:103740004FEA8C020832024491420DD003EB83030E
:103750009A000C4B13445B68DA680B4B1A601B68C9
:1037600050330A4A13607047486862469100054A20
:103770000A445060EAE700BF205B0020345B002071
:10378000405B0020BC5B0020485C00204C00002017
:103790000846034B0B6000234B608B60CB60704787
:1037A000CD370008704700236FF07F0111706FF074
:1037B0007B0151701E219170D3700821917153715A
:1037C0001371704770477047704700002DE9F04152
:1037D00082B005460C46174698468E88F6B291F898
:1037E00001C0ACF1200CBCF1030F37D8DFE80CF0BE
:1037F000021F1031CA8839686846FCF7FBFC6A462C
:1038000031462846FFF7CEFF002002B0BDE8F08128
:103810004A88C2F3400402F001023146FFF7D2FFAA
:10382000224631462846FFF7CEFF0020EDE76A46E4
:103830003146FFF7B8FF3B6800981860BDF80410E8
:103840009DF8062099809A710723C8F8003000205F
:10385000DBE73146FFF7B8FF0020D6E7064802F065
:10386000C3FA6178054802F0BFFA054802F0BCFAD5
:103870004FF0FF30C9E700BF94BD0008A4BD0008A9
:10388000CCBD0008054B4FF4357202FB003393F8B2
:103890002802003818BF0120704700BF2007002011
:1038A00070B50C7804F00304012C26D0022C29D129
:1038B0004FF0000E2DE00134E4B2244D4FF4357C7E
:1038C0000CFB005C9CF86C52A54218D94FF0B50C6B
:1038D0000CFB004C0CF18A0C1C4D05EB8C056D6843
:1038E000002DE8D02E68002EE5D095F818C08D8800
:1038F000EDB2AC45DFD1B04727E00024DDE74FF063
:10390000FF3022E04FF0FF301FE00EF1010E5FFAB2
:103910008EFE0E4C4FF4357505FB004C9CF86C4246
:10392000744510D94FF0B50C0CFB00EC0CF18A0C6F
:10393000064C04EB8C046468002CE6D06468002C10
:10394000E3D0A04701E04FF0FF3070BD200700201A
:103950002DE9F04105460F461646002408E02BB13C
:10396000DB681BB132463946284698470134E4B239
:10397000124B4FF4357202FB053393F86C32A342BD
:1039800019D9B52303FB05438A330C4A02EB8303A1
:103990005B68002EE3D0002BE8D0D3F80C80B8F1A0
:1039A000000FE3D0B2781B7E9A42DFD1324639460F
:1039B0002846C047DAE7BDE8F08100BF20070020B5
:1039C00010B58B7891F90220002A25DBB1F804C0EC
:1039D00003F07F03CCF30A0C204C03EB43034FF4BA
:1039E000357200FB02F202EB83032344A3F8A2C268
:1039F000B1F804C08B7803F07F03CCF3C12C03EB48
:103A0000430302EB8302144484F8A1C201F0DAF903
:103A1000B0FA80F0400910BDB1F804C003F07F0394
:103A2000CCF30A0C0D4C03EB43034FF4357200FB4F
:103A300002F202EB83032344A3F872C2B1F804C07C
:103A40008B7803F07F03CCF3C12C03EB430302EB31
:103A50008302144484F871C2D8E700BF2007002015
:103A60002DE9F84F824688469346194B4FF435723C
:103A700002FB00339C6900252E462846FF27B946E5
:103A800008E094F8039023781C4423781D44AE4248
:103A900000D8DEB92378CBB16378042BF1D0052BA5
:103AA0000BD0022BEFD16779B845ECD1A678E3783B
:103AB00046EA032600250120E5E74745E3D1D9453D
:103AC000E1D121465046FFF77BFFDCE7BDE8F88FE8
:103AD0002007002070B50C0ACDB2032C0CD00F2C9F
:103AE0001FD0032C5DD830494FF4357606FB00110A
:103AF00089694FF0000E27E0EE2DF0D12A494FF4EE
:103B0000357404FB0011C969002946D009681160A9
:103B1000254A04FB0022D269126812781A60012635
:103B20002DE021494FF4357404FB0011496A002946
:103B300035D0096811601C4A04FB0022526A5268A1
:103B40001A6001261BE00144087840B191F801C0D9
:103B5000A445F8D175450AD00EF1010EF3E7002611
:103B60007EB1022C05D0072C03D0186006E0012698
:103B7000F6E78878CC7840EA042018601160304677
:103B800070BD0A4802F030F92A462146084802F082
:103B90002BF9084802F028F9F1E70026EFE70026A4
:103BA000EDE70026EBE700BF20070020D4BD0008AA
:103BB000E4BD0008CCBD00082DE9F04106461D46D5
:103BC0004F8891F801C0BCF1090F61D8DFE80CF013
:103BD000050E600E602B32603844116800230B70B4
:103BE0001268537002232B60012452E0012F03D08E
:103BF00000232B6001244CE0BCF1030F09D0264BBD
:103C00004FF4357202FB0033D3F8D0320A219847C3
:103C1000EEE7214B4FF4357202FB0033D3F8D0327C
:103C200009219847E4E7F9B201F0B6F800232B60C8
:103C300001242EE02B463946FFF74CFF044628E0CE
:103C40004FF4357300FB03F303F50A7312490B4479
:103C5000136001242C601CE0FFB200223946FFF7FC
:103C6000FFFE044610B900232B6012E00A4B4FF40C
:103C7000357202FB063888F8287200220721304688
:103C8000FFF766FED8F8D032072130469847EAE7BA
:103C900000242046BDE8F0812007002010B582B046
:103CA0000446094802F0A0F8A388E2880192009334
:103CB000638862782178054802F096F8044802F09B
:103CC00093F802B010BD00BF18BE000828BE00085F
:103CD000CCBD00082DE9F84305460E461746984628
:103CE000544B4FF4357202FB0033DB69002B4AD092
:103CF00049781A79914201D0002470E0B288042AF0
:103D00000DD0052A22D04C4802F06EF84B4802F044
:103D1000CDF84B4802F068F84FF0FF3386E09B681F
:103D20003B60444B4FF4357202FB0033DB699A6809
:103D30001378517803EB0123917803EB0143D27898
:103D400003EB0263C8F8003000236FE0DB68728881
:103D500053F822303B60374B4FF4357202FB00338F
:103D6000DB69DB68728853F822201378517803EB03
:103D70000123917803EB0143D27803EB0263C8F887
:103D80000030002352E02B4B4FF4357202FB00331E
:103D90001B6A002B46D049789A79914201D00024C1
:103DA0001DE0B288072A0CD11B683B60214B4FF401
:103DB000357202FB00331B6A9B88C8F80030002371
:103DC00034E01D4802F010F81C4802F06FF81C485F
:103DD00002F00AF84FF0FF3328E00134E4B2154B4B
:103DE0004FF4357202FB053393F86C32A3421BD9B2
:103DF0004FF0B50C0CFB054C0CF18A0C0D4B03EB92
:103E00008C035B68002BE8D0D3F80890B9F1000F61
:103E1000E3D043463A4631462846C8470346002881
:103E2000DBD103E00024DAE74FF0FF331846BDE8AA
:103E3000F88300BF20070020D4BD000888BE00081A
:103E4000CCBD000808B594461A494FF4357303FBFE
:103E500000118A6862448A60CB68A3EB0C03CB60D4
:103E6000D3B9144B4FF4357202FB00331B7DBBB941
:103E7000104B4FF4357202FB0033DB887BB11346E5
:103E800000FB03F30B4AD356002B08DA00231A4633
:103E9000194601F03DFA02E0802101F069F908BD00
:103EA000044B02FB003300221A751346802101F0F7
:103EB0005FF9F4E72007002008B5897801F030F8B1
:103EC000B0FA80F0400908BD2DE9F04F83B081467B
:103ED00088469346224B4FF4357202FB00339C69AF
:103EE00000252E460095FF27BA4601950BE094F871
:103EF00003A0A778B84515D023781C4423781D4427
:103F0000AE4200D816BB237803B36378042BEED0FF
:103F1000052B0BD0022BEFD1A678E37846EA0326D7
:103F20000025E9E7D345E7D10194E5E74745E3D12B
:103F3000DA4505D021464846FFF7BEFF0090DBE793
:103F400021464846FFF73CFD0090D5E7019A08213D
:103F50004846FFF7FDFC009803B0BDE8F08F00BFB6
:103F6000200700202DE9F84F05460C4690461F46D5
:103F7000B1F802A08E88FFF785FC8146002852D058
:103F80004FEA1A2BF6B263780B2B4AD8DFE803F01E
:103F9000064949494949104949493940D8F800205A
:103FA00000231370D8F80020537002233B603AE0DE
:103FB000BBF1220F20D04FF0000934E00132D2B221
:103FC0001A4B4FF4357101FB053393F86C32934271
:103FD00014D9B52303FB05238A33144901EB83036A
:103FE0005B68002BEAD0197EB142E7D11A69C8F8A4
:103FF00000205B693B6016E00022E1E74FF000091A
:1040000011E0D8F8003000221A7001233B600AE06A
:104010005FFA8AF231462846FFF756FF00233B60DD
:1040200001E04FF000094846BDE8F88F2007002066
:104030002DE9F84380460C4616461D468988CFB2C6
:10404000FFF720FC814658B16378012B0BD0032B7E
:104050001ED09BBB326813703268537002232B60F2
:104060004846BDE8F88363881BB100232B6099465E
:10407000F6E7144801F0B8FE3946134801F0B4FEE3
:10408000124801F0B1FE3946404601F02BF8E7E74F
:10409000638823B14FF0000900232B60E0E7094853
:1040A00001F0A2FE39460A4801F09EFE074801F0E1
:1040B0009BFE3946404600F0D9FFEDE74FF000097E
:1040C000CEE700BFD4BD0008A0BE0008CCBD0008EC
:1040D000B8BE000810B50C7804F00304012C07D01A
:1040E000022C0AD074B9FFF767FD70B100200BE015
:1040F000FFF738FF60B1002006E0FFF799FF50B1ED
:10410000002001E04FF0FF3010BD4FF0FF30FBE723
:104110004FF0FF30F8E74FF0FF30F5E738B50D46C8
:104120000C7804F06004202C1ED0402C30D0002CE1
:1041300042D1FFF7CFFF002801DB01203DE06B7883
:10414000062B03D16B88B3F5C06F37D01C4801F044
:104150004BFE1C4801F0AAFE1B4801F045FE284614
:10416000FFF79CFD002028E0FFF79AFB002801DB09
:10417000012022E0124801F037FE144801F096FEBB
:10418000114801F031FE2846FFF788FD002014E0B9
:10419000FFF7A0FD002801DB01200EE0084801F038
:1041A00023FE0B4801F082FE074801F01DFE284661
:1041B000FFF774FD002000E0002038BD0020FCE780
:1041C000D4BD0008CCBE0008CCBD0008E4BE000889
:1041D000FCBE00084FF43573194903FB00116AB3A4
:1041E00010B5044694468A6862448A60CB68A3EBA3
:1041F0000C03CB60EBB94FF4357004FB00F000F119
:1042000028030F4A13448B6000F110030830134455
:1042100002442046FFF782FF30B100231A46802176
:10422000204600F0A5FF08E08021204600F01EFF98
:1042300003E00021204601F06BF810BD704700BF7D
:104240002007002070B582B00446002100F0A4FDD4
:10425000164E4FF4357303FB0466002586F828528A
:1042600007238DF8003005238DF801304023ADF889
:1042700004308DF8035080238DF802308DF80650FD
:104280006946204600F09EFD8DF8025069462046A2
:1042900000F098FD2A4601212046FFF759FBD6F889
:1042A000D03201212046984702B070BD200700207F
:1042B00030B583B004460A464FF4357300FB03F370
:1042C0004348191815685268C5504A60CB88B3F541
:1042D000007F06D94FF4357204FB02F28256002AA1
:1042E0004FDA4FF4357C0CFB04FC0CF12802384803
:1042F000024460448260C360036100250575019239
:1043000023B1334D15F90C00002848DA4FF435730A
:1043100004FB03F310332E4A134401AA2046FFF78F
:10432000FDFE002841D02A4B4FF4357202FB0433C6
:10433000DA8819698A4228BF0A46DA60B2F5007F36
:1043400038D8234B4FF4357101FB04339868019939
:10435000884201D0FBF74EFF1D4D4FF4357303FB30
:104360000455EB68AA688021204600F001FFEA8826
:104370002B699A4217D913F03F0F14D101222A75E5
:1043800011E0144801F030FD134801F08FFD13488F
:1043900001F02AFD8021204600F068FE03E00021A4
:1043A000204600F0B5FF03B030BD8021204600F06C
:1043B0005DFEF8E7074801F017FD074801F076FDBC
:1043C000064801F011FD8021204600F04FFEEAE78B
:1043D00020070020D4BD000814BF0008CCBD000891
:1043E00010B501F07F0303EB430C4FF4357300FB72
:1043F00003F303EB8C03034C2344D3F8783203B16B
:10440000984710BD2007002010B501F07F0303EB93
:10441000430C4FF4357300FB03F303EB8C03034CA5
:104420002344D3F8A83203B1984710BD20070020D9
:1044300038B50D464FF435720B4C02FB0044002199
:10444000204601F083FDA561002384F86C328022B0
:1044500084F87022054AC4F8782284F8A032044B0C
:10446000C4F8A83238BD00BF20070020453E000830
:10447000D5410008034B4FF4357202FB003319623B
:10448000704700BF20070020034B4FF4357202FB3A
:1044900000335962704700BF2007002010B40B4C56
:1044A0004FF4357202FB004292F86C320B764FF0FB
:1044B000B50C0CFB00308A3004EB800461600133E2
:1044C00082F86C325DF8044B704700BF2007002073
:1044D00010B591F800C091F90030002B16DB0CF0FC
:1044E0007F03164C03EB43024FF4357E0EFB00F0C6
:1044F00000EB8202224482F8A0C24A6803EB430325
:1045000000EB83000444C4F8A82210BD0CF07F0324
:104510000A4C03EB43024FF4357E0EFB00F000EB38
:104520008202224482F870C24A6803EB430300EB24
:1045300083000444C4F87822E7E700BF2007002086
:1045400011F0800F0ED101F07F0101EB41014FF41A
:10455000357303FB00F000EB81000A4B0344B3F812
:10456000A202704701F07F0101EB41014FF4357366
:1045700003FB00F000EB8100024B0344B3F872022E
:10458000704700BF2007002070B548B1124801F005
:104590002BFC124801F08AFC114801F025FCFEE7D3
:1045A0000446104B03EBC00359600F4D4FF43573B5
:1045B00003FB0055C5F8D02200F0A6FA06460022FB
:1045C0000B212046FFF7C4F9D5F8D0320B21204645
:1045D0009847304670BD00BFD4BD000830BF00080A
:1045E000CCBD00084C5C00202007002070B50446BC
:1045F00015461146084801F0F7FB084E2B46324697
:104600008121204600F0B4FD4FF4006332460121C1
:10461000204600F07DFE70BD40BF0008F411002070
:10462000072900D0704708B5044B00221A704FF4D8
:104630000063034A012100F06BFE08BDA85C002066
:10464000F411002070B505460E46144611460B487D
:1046500001F0CAFB31462846FFF772FFB4FBF0F3C6
:1046600000FB134303B91CB9054B00221A7070BD3F
:104670001A468121284600F07BFDF8E754BF000868
:10468000A85C002038B504460D461A49FFF7D0FE55
:1046900019492046FFF7F8FE18492046FFF7EAFEC1
:1046A00017492046FFF7FAFE16492046FFF710FF8C
:1046B00015492046FFF70CFF14492046FFF768F81C
:1046C00001462046FFF7EAFE11492046FFF760F851
:1046D00001462046FFF7E2FE0E492046FFF7F8FEAE
:1046E0000D492046FFF7F4FE0C4A29462046FFF705
:1046F0004BFF38BD18C30008100000201800002030
:104700008C5C00203800002030000020705C00200D
:10471000545C0020280000202000002021460008D2
:1047200082B000230193019B01330193104A93420D
:1047300016D8104B5B681A69002AF4DA002201923D
:104740001A6942F001021A61019A01320192084984
:104750008A4209D81A6912F0010FF5D1002001E050
:104760004FF0FF3002B070474FF0FF30FAE700BF64
:10477000400D03004C5C002008B5044B5A68D36818
:1047800043F04003D360FFF7CBFF08BD4C5C002033
:1047900082B0002301930A4B596810230B61019BDF
:1047A00001330193074A934205D80B6913F0100FA8
:1047B000F5D1002001E04FF0FF3002B0704700BF9C
:1047C0004C5C0020400D030082B000230193800167
:1047D0000A4B596840F020000861019B01330193A6
:1047E000074A934205D80B6913F0200FF5D100203A
:1047F00001E04FF0FF3002B0704700BF4C5C00207A
:10480000400D030003290FD009212B4B5B68DA68A8
:1048100042F00702DA60DA6822F47052DA60DA688D
:1048200042EA8122DA607047244B0344244A9342CF
:104830002FD9244B0344244A93422CD9A0F5740366
:10484000A3F51053214A934227D9A0F18373A3F50E
:10485000E7431F4A934222D31E4B03441E4A93420E
:104860001FD91E4B03441E4A93421CD31D4B0344C5
:104870001D4A934219D3A0F1B773A3F558531B4AAD
:10488000934214D31A4B03441A4A934211D207217C
:10489000BBE70F21B9E70E21B7E70D21B5E70C21E2
:1048A000B3E70B21B1E70A21AFE70921ADE7082102
:1048B000ABE70621A9E700BF4C5C0020405327FF6F
:1048C000FF340C00401E1BFF3F420F007F4F1200C1
:1048D00020D6130060B6E5FE5FE3160000D3CEFEDF
:1048E00040771B00C05BB3FEC091210020753800EB
:1048F000E05459FEE09C4100094B5B6803F50063FE
:104900009B6803F00603022B04D0062B04D02BB9BE
:104910000020704703207047032070470F20704726
:104920004C5C00200B4B5B680022C3F8102BD3F8C3
:10493000102B42F40022C3F8102BD3F8102B42F0B6
:104940001802C3F8102BD3F8102B42F0C042C3F862
:10495000102B70474C5C0020094B5A68D2F8101895
:10496000D2F8343800F0070C23FA0CF3DB01DBB289
:104970000B4302EB4012D2F808091840704700BF01
:104980004C5C002070B50E46164B5A68546A0546BA
:1049900078B944EA01439362134801F025FA2346AB
:1049A00032462946114801F01FFA114801F01CFA5D
:1049B00070BD936A04EB1344002308E003F1400048
:1049C00002EB8000416804EB11440133DBB2681E46
:1049D0008342F3D344EA064305F13F0002EB800231
:1049E0005360D9E74C5C002018BE000868BF00087F
:1049F000CCBD000800B502F1030E4FEA9E0E4FF049
:104A0000000C0AE0074B5B6803EB003303F58053AF
:104A100051F8042B1A600CF1010CF445F2D35DF847
:104A200004FB00BF4C5C00202DE9F04104462B4BF9
:104A3000421C110103EB0212595852688A1A03EB07
:104A400000131F89974200D317460337BF0813E0AE
:104A5000224D05EB0418B2B2D8F80C102046FFF72F
:104A6000C9FFD8F80C303344C8F80C30631C05EB90
:104A700003156B6833446B60194B586800EB4413A3
:104A800003F510639B699BB2BB4212D3134A631CAC
:104A90001D0102EB031359685359994209D243B1DE
:104AA0005B1A0E4A02EB041216899E42D0D31E46B0
:104AB000CEE70A4A631C190102EB031352585B68E4
:104AC0009A4209D804F00F040122A240D0F83438E9
:104AD00023EA0203C0F83438BDE8F081001A002050
:104AE0004C5C002003318908002207E0054B5B681D
:104AF00003F580531B6840F8043B01328A42F5D32A
:104B0000704700BF4C5C00202DE9F047A022002137
:104B10008F4801F01BFAFCF743FA8E4F7A68936CCA
:104B2000C3F30129966CC6F38116936CC3F3C10AD3
:104B3000936CC3F3832808F10108874D284601F0E0
:104B400053F9864801F0B2F9854C204601F04CF942
:104B5000284601F049F97B68D96B824801F044F995
:104B6000204601F041F9284601F03EF97B68196CB6
:104B70007D4801F039F9204601F036F9284601F068
:104B800033F97B68596C794801F02EF9204601F021
:104B90002BF9284601F028F97B68996C744801F0DC
:104BA00023F9204601F020F9284601F01DF97B6821
:104BB000D96C704801F018F9204601F015F9284623
:104BC00001F012F97B68196D6B4801F00DF9204670
:104BD00001F00AF9284601F007F9534632464946E2
:104BE000664801F001F9204601F0FEF8284601F080
:104BF000FBF87B68DA6C0423120C4146604801F034
:104C0000F3F8204601F0F0F8284601F0EDF85D4891
:104C100001F04CF9204601F0E7F8B8F1030F09D88C
:104C2000594801F0E1F8594801F040F9204601F0F7
:104C3000DBF8FEE7474D6B68D3F8042842F0020228
:104C4000C3F804286C68A36823F00103A36020461E
:104C500000F078FEA063FFF78FFD6868C36823F05B
:104C6000C043C360C36843F08043C360002307E0D0
:104C700003F1400200EB8202002151600133DBB2FC
:104C80000E2BF5D90023C0F8003E324B5A68D2F8FB
:104C9000003823F00303C2F80038002E3BD12D4B1F
:104CA0005A68D2F8003843F00303C2F80038294CA0
:104CB00063680020C3F81008C3F81408C3F81C0880
:104CC00098616FF080425A61314A9A619A6942F064
:104CD00010029A614FF480725A621021FFF752FE5F
:104CE00010210120FFF74EFE10210220FFF74AFE9F
:104CF00010210320FFF746FE6368DB6CB3F1A07F51
:104D000012D2214801F070F8224801F0CFF814487F
:104D100001F06AF8FEE70F4B5A68D2F8003843F00A
:104D20000103C2F80038C2E71020FFF74DFDFFF77E
:104D30002FFD084B5B689A6842F001029A60D3F835
:104D4000042822F00202C3F80428BDE8F08700BF5F
:104D5000001A00204C5C002018BE000888BF000824
:104D6000CCBD0008B0BF0008BCBF0008CCBF000825
:104D7000DCBF0008ECBF0008FCBF00080CC0000846
:104D800040C000089CC00008D4BD0008C0C0000896
:104D900000303C00F4C00008094A5068D0F80038E0
:104DA00023F4FE63C0F800385268D2F800380901D5
:104DB00001F4FE610B43C2F800380020704700BFC9
:104DC0004C5C002010B50C468B7813F07C0F39D169
:104DD00003F07F0013F0800F41D18A88C2F30A02EA
:104DE000494B03EB0013A3F84820CA7802F00302F2
:104DF00083F84A20454B5B68D3F81C1800F1100E6D
:104E0000012202FA0EF26FF30F020A43C3F81C28C4
:104E100003EB4013D3F8002B12F4004F71D1D3F8F9
:104E2000002BA188C1F30A01E078800400F440203F
:104E300001430A4342F0805242F40042C3F8002B7F
:104E4000002047E0324800F0CFFFA178314800F061
:104E5000CBFF314800F0C8FF4FF0FF303AE00028A8
:104E600039D12A4B5B689A6A120CA388C3F30A03F0
:104E7000B3EB820F38DC244A02EB00121381E37893
:104E800003F003039372214B5A68D2F81C180123D4
:104E900083409BB20B43C2F81C3802EB4012D2F89D
:104EA000003913F4004F12D1D2F80039A188C1F3B0
:104EB0000A01E478A40404F44024214341EA805127
:104EC0000B4343F0805343F40043C2F80039FFF72B
:104ED0007BFC002010BD0D4B5B6800F13F0203EB33
:104EE00082035A68120CC0E7094800F07DFFA178E0
:104EF0000A4800F079FF084800F076FF6FF00100E3
:104F0000E8E70020E6E700BF001A00204C5C002024
:104F1000D4BD000820C10008CCBD000838C100087D
:104F200030B482B001F07F030022019211F0800FB3
:104F30004DD14D4A50685A0100EB4313D3F8000B92
:104F4000002819DB484B5C68D4F83C0801F00705E1
:104F50000121A94020EA0140C4F83C08D4F81C080B
:104F600020EA0141C4F81C1822440023C2F8003B87
:104F7000002002B030BC7047D3F8000B40F0006056
:104F8000C3F8000B384B5B681344D3F8000B40F0B8
:104F90008040C3F8000B00230193019B0133019370
:104FA0004CF25030834208D82F4B5B68134403F512
:104FB00030639B6813F0020FEFD02B4B5B681344F8
:104FC000D3F8080B40F00200C3F8080BBAE7264AF2
:104FD00050685A0100EB4313D3F80009002817DB8F
:104FE000214B5D68D5F83C4801F0070101238B4057
:104FF0009BB224EA0304C5F83C48D5F81C1821EA02
:105000000303C5F81C382A440023C2F80039AFE76F
:10501000D3F8000940F00060C3F80009124B5B6848
:105020001344D3F8000940F08040C3F8000900237E
:105030000193019B013301934CF25030834208D815
:10504000094B5B68134403F510639B6813F0020F70
:10505000EFD0054B5B681344D3F8080940F0020019
:10506000C3F80809BCE700BF4C5C002001F07F03D7
:1050700011F0800F1AD11A4A51685A0101EB4311FD
:10508000D1F8000B002806DB2BB1D1F8003B23F050
:105090008043C1F8003B124B5B681344D3F8002BEC
:1050A00042F40012C3F8002B002070470C4A5168EC
:1050B0005A0101EB4311D1F80009002806DB2BB19E
:1050C000D1F8003923F08043C1F80039044B5B6804
:1050D0001344D3F8002942F40012C3F80029E3E78F
:1050E0004C5C002001F07F0311F0800F1FD11E4A9D
:1050F0005268580102EB4312D2F8001B21F4001150
:10510000C2F8001B194A02EB031393F84A30023B22
:10511000DBB2012B01D900207047134B5B681844A8
:10512000D0F8003B43F08053C0F8003BF3E70E4A51
:105130005268580102EB4312D2F8001921F4001111
:10514000C2F80019094A02EB03139B7A023BDBB257
:10515000012BE0D8044B5B681844D0F8003943F0C9
:105160008053C0F80039D6E74C5C0020001A0020BC
:10517000F0B501F07F001546002A61D050B1614AB8
:10518000526802EB4012D2F80029C2F30A02002A48
:1051900000F0AF8015F0030F40F0AE805A4C04EBE6
:1051A0000012D560421C150104EB02126351002469
:1051B0005460544A55684FEA401C05EB401E0EF5FA
:1051C000106214696FF3DC44146114696FF3120404
:1051D0001461002B39D0002843D14B4C04EB001450
:1051E00024899C4200D22346441C2401464E33515C
:1051F000146944F4002414611469C3F3120634439F
:105200001461414A02EB0012927A012A3DD03D4AD4
:1052100052689444DCF8002942F00442CCF800299A
:10522000002B6CD0374B5B68D3F8342801F00F01AA
:10523000012000FA01F10A43C3F8342800200FE0EE
:10524000002B9BD04FF0FF300AE0136943F400239A
:105250001361DEF8003943F00443CEF80039002032
:10526000F0BD294C04EB00142689F418013CB4FB72
:10527000F6F41669254F07EAC444344314611469EF
:10528000C3F3120634431461BBE7D5F8082812F4BF
:10529000807F1ED1DEF8002922F08052CEF800294E
:1052A000184A52686244D2F8000940F00050C2F82F
:1052B0000009144A52686244D2F8100920F0C04034
:1052C000C2F81009D2F8100940F00050C2F81009D5
:1052D0009DE7DEF8002922F00052CEF80029094AA5
:1052E00052686244D2F8000940F08050C2F80009C8
:1052F000DFE76FF00200B3E76FF00300B0E70020D4
:10530000AEE700BF4C5C0020001A00200000F81F30
:1053100070B501F07F011446002A54D051B1564AAD
:10532000526802EB4112D2F8002BC2F30A02002AA3
:1053300000F09C8014F0030F40F09B804F4800EB7E
:105340000112D4644A1D140100EB02120351002023
:105350005060494A54684FEA411C04EB411E0EF567
:10536000306210696FF3DC40106110696FF3120056
:1053700010616BB300293FD1404800EB0110B0F839
:105380004800984200D318464B1D1B013B4DE85086
:10539000136943F4002313611369C0F3120003433C
:1053A0001361364B03EB011393F84A30012B38D0CD
:1053B000314B5B686344D3F8002B42F00442C3F8DE
:1053C000002B002070BD002BA8D04FF0FF30F9E774
:1053D000136943F4002313611369284800EB01119A
:1053E000B1F848100B431361DEF8003B43F004436F
:1053F000CEF8003B0020E5E7204800EB0110B0F8B4
:105400004850E8180138B0FBF5F015691C4E06EA63
:10541000C040284310611069C3F3120303431361B2
:10542000BFE7D4F8083813F4807F0FD1DEF8003BD3
:1054300023F08053CEF8003B0F4B5B686344D3F8F6
:10544000002B42F00052C3F8002BB1E7DEF8003B1E
:1054500023F00053CEF8003B074B5B686344D3F85E
:10546000002B42F08052C3F8002BA1E76FF002003E
:10547000A8E76FF00300A5E74C5C0020001A0020AD
:105480000000F81F2DE9F843B54B5B685C699A6929
:1054900014405D6915F0010540F04582002C00F0D4
:1054A000428214F0100F14D09A6922F010029A610F
:1054B0001E6A06F00F0206F4F013B3F5802F16D023
:1054C000B3F5402F22D0A64B5A68936943F01003DE
:1054D000936114F4002F73D0A14B5B68D3F8186864
:1054E00003F50063DB691E40360C2F462AE0C6F345
:1054F0000A16002EE7D09B4F07EB02173146F86CD7
:10550000FFF7F0FAFB6C3344FB64DCE7C6F30A11E7
:105510009448FFF7E7FAD6E71B69C3F31203D21AE0
:1055200090497B1D4FEA031C01EB03135A600020D6
:1055300041F80C000146FEF767FF18F0080F3AD15A
:1055400076080137002E3BD016F0010FF8D0844BBF
:105550005B68FAB203EB4212D2F8081BD3F81428A6
:1055600001EA020803EB471303F530639A689A6077
:1055700018F0010FE1D04FB97A1D120179498A580C
:10558000002AC9D10846FFF7CDF9D6E7DFF8D4C124
:105590007A1D4FEA021E0CEB02115CF80E201B690B
:1055A000C3F31203D21A4A6000204CF80E00F9B27D
:1055B000FEF72AFFC1E76B490020FEF779FEBFE73F
:1055C00014F4802F64D0664B5B68D3F8186803F539
:1055D0000063DB691E40B6B21DE04846FFF7A2F942
:1055E00014E0DFF880C16A1C4FEA021E0CEB0211C6
:1055F0005CF80E201B69C3F31203D21A4A60002024
:105600004CF80E0048F08001FEF7EAFE17F0800F1C
:105610003AD176080135002E3AD016F0010FF8D0B5
:105620005FFA85F84046FFF797F907464C4B5B68F1
:1056300003EB451303F510639A689A6010F0010FAD
:10564000E4D0002DCDD1DFF81C916A1C4FEA021C7A
:1056500009EB021159F80C201B69C3F31203D21A8B
:105660004A60002049F80C008021FEF7B9FEB9F825
:1056700006301BB199F90020002AAEDA002BC5D103
:105680003848FFF74FF9C1E74046FFF7CDF9C0E7CB
:1056900014F4805F0ED114F4005F40F0808014F4A5
:1056A000001F00F0D6802E4B5B68D3F81C18090C45
:1056B00001229AE02A4B5B685A6942F480525A618F
:1056C000D3F8042822F00102C3F804281020FFF7C1
:1056D0007BF8FFF75DF800231DE02148426802EBEC
:1056E00043124FF00061C2F80019426802EB431206
:1056F000C2F8001B1A4A526802EB43120020C2F89B
:1057000010094FF6FF31C2F80819C2F8100BC2F8A1
:10571000081B0133DBB2032B26D8002BDDD0104A47
:1057200051685A0101EB4311D1F8000900280DDB43
:105730000020C1F800090A4949680A44D2F8001B50
:10574000002908DB0021C2F8001BD3E74FF090408E
:10575000C1F80009EFE74FF09041C2F8001BC9E71C
:105760004C5C0020001A0020734B5B68D3F81C28A7
:1057700042F00112C3F81C280922C3F814280122A0
:10578000C3F810286D4DA0220021284600F0DEFB52
:105790000020FEF757FD2846FFF7C4F87BE7664D6B
:1057A0006A68536943F400535361654B1E68FFF701
:1057B000A3F801463046FFF725F86B68D3F80428B4
:1057C00042F48072C3F8042869E7D0F8003B23F064
:1057D0008053C0F8003B584B5B681D44D5F8003B34
:1057E00043F00053C5F8003B0132032A2BD8CB43CA
:1057F000D34013F0010FF7D1504B03EB021393F892
:105800004A30012BF0D14C4B5B68550103EB421041
:10581000D0F8006B16F4004FE6D003F500639B68E8
:1058200013F4807FD1D0D0F8003B43F08053C0F810
:10583000003B414B5B682B44D3F8000B20F0005039
:10584000C3F8000BD0E73C4B5A68536943F400138C
:10585000536114F4801F49D0374B5B68D3F81C1890
:10586000090C01220FE0D0F8003923F08053C0F872
:105870000039314B5B681D44D5F8003943F00053C3
:10588000C5F800390132032A2AD8CB43D34013F09C
:10589000010FF7D1294B03EB02139B7A012BF1D1B6
:1058A000254B5B68550103EB4210D0F8006916F4F4
:1058B000004FE7D003F500639B6813F4807FD2D0DC
:1058C000D0F8003943F08053C0F800391A4B5B68B8
:1058D0002B44D3F8000920F00050C3F80009D1E7A9
:1058E000154B5A68536943F48013536114F0080F41
:1058F00005D0114B5A68536943F00803536114F4FF
:10590000006F05D00C4B5A68536943F40063536130
:10591000002C0ADB14F0040F05D0074B5B685968B4
:105920005A680A435A60BDE8F883034B5A685369C2
:1059300043F000435361EDE74C5C0020001A002067
:10594000000000204FF40410704700002DE9F047DC
:10595000089D0E4604460F46002B4AD194468C45BE
:10596000B2FA82F260D942B1C2F12003974020FA24
:1059700003F30CFA02FC1F4394404FEA1C4E1FFA3B
:105980008CF6B7FBFEF1230C0EFB117743EA0743BD
:1059900001FB06F098420AD91CEB030301F1FF3723
:1059A00080F01581984240F21281023963441B1A3B
:1059B000A4B2B3FBFEF00EFB103344EA034400FB39
:1059C00006F6A6420AD91CEB040400F1FF3380F06E
:1059D0000081A64240F2FD806444023840EA014062
:1059E000A41B00211DB1D4400023C5E90043BDE83C
:1059F000F0878B4205D90DB1C5E9000100210846A9
:105A0000F5E7B3FA83F1002946D1B34202D38242CB
:105A100000F2F580841A66EB030201201746002D80
:105A2000E5D0C5E90047E2E7002A40F09380A1EB0A
:105A30000C034FEA1C471FFA8CFE0121B3FBF7F65B
:105A400007FB1630230C43EA00430EFB06F0984296
:105A500008D91CEB030306F1FF3802D2984200F28A
:105A6000D08046461B1AA4B2B3FBF7F007FB1033F5
:105A700044EA03440EFB00FEA64508D91CEB0404CF
:105A800000F1FF3302D2A64500F2B6801846A4EB1F
:105A90000E0440EA0640A5E7C1F120078B4022FA38
:105AA00007FC4CEA030C06FA01FE20FA07F426FA7A
:105AB00007F344EA0E0400FA01F84FEA1C404FEAEB
:105AC0001449B3FBF0FE1FFA8CF600FB1E3349EAC3
:105AD00003430EFB06F9994502FA01F20BD91CEBC0
:105AE00003030EF1FF3A80F08580994540F28280F1
:105AF000AEF1020E6344A3EB0909A4B2B9FBF0F3C3
:105B000000FB139944EA094403FB06F6A64208D9B0
