:020000040800F2
:1000000000000220D51D000801190008031900088E
:100010000519000807190008091900080000000068
:10002000000000000000000000000000613C00082B
:100030000B19000800000000013D0008653D0008A4
:10004000251E0008251E0008251E0008251E000884
:10005000251E0008251E0008251E0008251E000874
:10006000251E0008251E0008251E0008251E000864
:100070000D190008251E00081D190008251E00087E
:10008000251E0008251E0008251E0008251E000844
:10009000251E0008251E0008251E0008251E000834
:1000A000251E00082D190008251E0008251E000821
:1000B000251E0008251E0008251E0008251E000814
:1000C000251E0008251E0008251E0008251E000804
:1000D000251E00083D190008251E00084D190008BE
:1000E000251E0008251E0008251E0008251E0008E4
:1000F000251E0008251E0008251E0008251E0008D4
:10010000251E0008251E0008251E0008251E0008C3
:10011000251E0008251E0008251E0008251E0008B3
:10012000251E0008251E0008251E0008251E0008A3
:10013000251E0008251E0008251E0008251E000893
:10014000251E0008251E0008251E0008D5190008D8
:10015000251E0008251E0008251E0008251E000873
:10016000251E0008251E0008251E0008251E000863
:10017000251E0008251E0008251E0008000000009E
:08018000251E0008251E0008E1
:1001C00053B94AB9002908BF00281CBF4FF0FF31BE
:1001D0004FF0FF3000F00CB8ADF1080C6DE904CE23
:1001E00009F086FCDDF804E0DDE9022304B0704785
:1001F000704700BF844641EA000313F003036DD14A
:10020000403A41D351F8043B40F8043B51F8043BD9
:1002100040F8043B51F8043B40F8043B51F8043BE0
:1002200040F8043B51F8043B40F8043B51F8043BD0
:1002300040F8043B51F8043B40F8043B51F8043BC0
:1002400040F8043B51F8043B40F8043B51F8043BB0
:1002500040F8043B51F8043B40F8043B51F8043BA0
:1002600040F8043B51F8043B40F8043B51F8043B90
:1002700040F8043B51F8043B40F8043B51F8043B80
:1002800040F8043B403ABDD2303211D351F8043B20
:1002900040F8043B51F8043B40F8043B51F8043B60
:1002A00040F8043B51F8043B40F8043B103AEDD2CF
:1002B0000C3205D351F8043B40F8043B043AF9D220
:1002C000043208D0D2071CBF11F8013B00F8013BF3
:1002D00001D30B8803806046704700BF082A13D300
:1002E0008B078DD010F003038AD0C3F10403D21A18
:1002F000DB071CBF11F8013B00F8013B80D331F84C
:10030000023B20F8023B7BE7043AD9D3013A11F8CB
:10031000013B00F8013BF9D20B7803704B78437036
:100320008B7883706046704700000000000000007A
:1003300000000000000000000000000000000000BD
:1003400030B490F800F020F007016FF0000C10F0CE
:10035000070491F820F040F048804FF000046FF05F
:100360000700D1E9002391F840F000F1080082FA7B
:100370004CF2A4FA8CF283FA4CF3A2FA8CF34BBB46
:10038000D1E9022382FA4CF200F10800A4FA8CF2BF
:1003900083FA4CF3A2FA8CF3E3B9D1E9042382FA8D
:1003A0004CF200F10800A4FA8CF283FA4CF3A2FAA2
:1003B0008CF37BB9D1E9062301F1200182FA4CF2DA
:1003C00000F10800A4FA8CF283FA4CF3A2FA8CF341
:1003D000002BC6D0002A04BF04301A4612BAB2FA63
:1003E00082F200EBD20030BC7047D1E9002304F068
:1003F0000305C4F100004FEAC50514F0040F91F89D
:1004000040F00CFA05F562EA05021CBF63EA050339
:1004100062464FF00004AAE7000000000000000060
:1004200001F0FF01102A2BDB10F0070F08D010F8A5
:10043000013B013A8B422DD010F0070F42B3F6D1A9
:10044000F0B441EA012141EA014122F007047FF0C2
:1004500000070023F0E80256083C85EA010586EA19
:10046000010685FA47F5A3FA87F586FA47F6A5FA55
:1004700087F68EB9EED1F0BC01F0FF0102F0070261
:1004800032B110F8013B013A83EA010313B1F8D10C
:100490000020704701387047002D06BF35460338ED
:1004A000073815F0010F07D1013015F4807F02BF26
:1004B000013015F4C03F0130F0BC0138704700BF77
:1004C00081F0004102E000BF83F0004330B54FEA05
:1004D00041044FEA430594EA050F08BF90EA020F72
:1004E0001FBF54EA000C55EA020C7FEA645C7FEA05
:1004F000655C00F0E2804FEA5454D4EB5555B8BF28
:100500006D420CDD2C4480EA020281EA030382EA98
:10051000000083EA010180EA020281EA0303362D2A
:1005200088BF30BD11F0004F4FEA01314FF4801CFD
:100530004CEA113102D0404261EB410113F0004F0F
:100540004FEA03334CEA133302D0524263EB4303C6
:1005500094EA050F00F0A780A4F10104D5F1200E64
:100560000DDB02FA0EFC22FA05F2801841F10001BF
:1005700003FA0EF2801843FA05F359410EE0A5F193
:1005800020050EF1200E012A03FA0EFC28BF4CF0C4
:10059000020C43FA05F3C01851EBE37101F000457A
:1005A00007D54FF0000EDCF1000C7EEB00006EEB87
:1005B0000101B1F5801F1BD3B1F5001F0CD3490811
:1005C0005FEA30004FEA3C0C04F101044FEA445268
:1005D00012F5800F80F09A80BCF1004F08BF5FEAEF
:1005E000500C50F1000041EB045141EA050130BDCF
:1005F0005FEA4C0C404141EB0101013C28BFB1F5E1
:10060000801FE9D291F0000F04BF01460020B1FA2B
:1006100081F308BF2033A3F10B03B3F120020CDAFE
:100620000C3208DD02F1140CC2F10C0201FA0CF0DC
:1006300021FA02F10CE002F11402D8BFC2F1200C41
:1006400001FA02F120FA0CFCDCBF41EA0C019040F7
:10065000E41AA2BF01EB0451294330BD6FEA040440
:100660001F3C1CDA0C340EDC04F11404C4F120022B
:1006700020FA04F001FA02F340EA030021FA04F33D
:1006800045EA030130BDC4F10C04C4F1200220FA94
:1006900002F001FA04F340EA0300294630BD21FAD2
:1006A00004F0294630BD94F0000F83F4801306BF98
:1006B00081F480110134013D4EE77FEA645C18BF8C
:1006C0007FEA655C29D094EA050F08BF90EA020F23
:1006D00005D054EA000C04BF1946104630BD91EA1B
:1006E000030F1EBF0021002030BD5FEA545C05D11E
:1006F0004000494128BF41F0004130BD14F580045D
:100700003CBF01F5801130BD01F0004545F0FE41D0
:1007100041F470014FF0000030BD7FEA645C1ABF05
:10072000194610467FEA655C1CBF0B46024650EA3C
:10073000013406BF52EA033591EA030F41F4002168
:1007400030BD00BF90F0000F04BF0021704730B5EE
:100750004FF4806404F132044FF000054FF00001C3
:1007600050E700BF90F0000F04BF0021704730B584
:100770004FF4806404F1320410F0004548BF404259
:100780004FF000013EE700BF42004FEAE2014FEAAE
:1007900031014FEA02701FBF12F07F4393F07F4F89
:1007A00081F06051704732F07F4208BF704793F08C
:1007B0007F4F04BF41F40021704730B54FF460749F
:1007C00001F0004521F000411CE700BF50EA0102A2
:1007D00008BF704730B54FF000050AE050EA01024B
:1007E00008BF704730B511F0004502D5404261EBBB
:1007F00041014FF4806404F132045FEA915C3FF4FC
:10080000D8AE4FF003025FEADC0C18BF03325FEA98
:10081000DC0C18BF033202EBDC02C2F1200300FA49
:1008200003FC20FA02F001FA03FE40EA0E0021FA6E
:1008300002F11444BDE600BF70B54FF0FF0C4CF45C
:10084000E06C1CEA11541DBF1CEA135594EA0C0F0E
:1008500095EA0C0F00F0DEF82C4481EA030621EA49
:100860004C5123EA4C5350EA013518BF52EA033584
:1008700041F4801143F4801338D0A0FB02CE4FF036
:100880000005E1FB02E506F00042E0FB03E54FF066
:100890000006E1FB03569CF0000F18BF4EF0010E5E
:1008A000A4F1FF04B6F5007F64F5407404D25FEA5A
:1008B0004E0E6D4146EB060642EAC62141EA55510D
:1008C0004FEAC52040EA5E504FEACE2EB4F1FD0C4F
:1008D00088BFBCF5E06F1ED8BEF1004F08BF5FEACD
:1008E000500E50F1000041EB045170BD06F000467F
:1008F00046EA010140EA020081EA0301B4EB5C042C
:10090000C2BFD4EB0C0541EA045170BD41F4801123
:100910004FF0000E013C00F3AB8014F1360FDEBF48
:10092000002001F0004170BDC4F10004203C35DA24
:100930000C341BDC04F11404C4F1200500FA05F3A7
:1009400020FA04F001FA05F240EA020001F0004248
:1009500021F0004110EBD37021FA04F642EB0601BE
:100960005EEA430E08BF20EAD37070BDC4F10C04E8
:10097000C4F1200500FA04F320FA05F001FA04F2AC
:1009800040EA020001F0004110EBD37041F1000198
:100990005EEA430E08BF20EAD37070BDC4F12005A3
:1009A00000FA05F24EEA020E20FA04F301FA05F20B
:1009B00043EA020321FA04F001F0004121FA04F2B3
:1009C00020EA020000EBD3705EEA430E08BF20EA83
:1009D000D37070BD94F0000F0FD101F000464000BD
:1009E00041EB010111F4801F08BF013CF7D041EA3F
:1009F000060195F0000F18BF704703F00046520043
:100A000043EB030313F4801F08BF013DF7D043EA13
:100A10000603704794EA0C0F0CEA135518BF95EAC9
:100A20000C0F0CD050EA410618BF52EA4306D1D150
:100A300081EA030101F000414FF0000070BD50EA6F
:100A4000410606BF1046194652EA430619D094EAF9
:100A50000C0F02D150EA013613D195EA0C0F05D1E3
:100A600052EA03361CBF104619460AD181EA030137
:100A700001F0004141F0FE4141F470014FF00000EF
:100A800070BD41F0FE4141F4780170BD70B54FF08A
:100A9000FF0C4CF4E06C1CEA11541DBF1CEA13550A
:100AA00094EA0C0F95EA0C0F00F0A7F8A4EB0504EC
:100AB00081EA030E52EA03354FEA013100F08880E3
:100AC0004FEA03334FF0805545EA131343EA1263AC
:100AD0004FEA022245EA111545EA10654FEA002661
:100AE0000EF000419D4208BF964244F1FD0404F51A
:100AF000407402D25B084FEA3202B61A65EB030576
:100B00005B084FEA32024FF480104FF4002CB6EB32
:100B1000020E75EB030E22BFB61A754640EA0C00B2
:100B20005B084FEA3202B6EB020E75EB030E22BFF2
:100B3000B61A754640EA5C005B084FEA3202B6EB33
:100B4000020E75EB030E22BFB61A754640EA9C00F2
:100B50005B084FEA3202B6EB020E75EB030E22BFC2
:100B6000B61A754640EADC0055EA060E18D04FEA80
:100B7000051545EA16754FEA06164FEAC30343EA20
:100B800052734FEAC2025FEA1C1CC0D111F4801FED
:100B90000BD141EA00014FF000004FF0004CB6E7E6
:100BA00011F4801F04BF01430020B4F1FD0C88BF85
:100BB000BCF5E06F3FF6AFAEB5EB030C04BFB6EB90
:100BC000020C5FEA500C50F1000041EB045170BD83
:100BD0000EF0004E4EEA113114EB5C04C2BFD4EBB0
:100BE0000C0541EA045170BD41F480114FF0000E34
:100BF000013C90E645EA060E8DE60CEA135594EAB0
:100C00000C0F08BF95EA0C0F3FF43BAF94EA0C0FB2
:100C10000AD150EA01347FF434AF95EA0C0F7FF427
:100C200025AF104619462CE795EA0C0F06D152EA7B
:100C300003353FF4FDAE1046194622E750EA41065F
:100C400018BF52EA43067FF4C5AE50EA41047FF470
:100C50000DAF52EA43057FF4EBAE12E74FF0FF3CD5
:100C600006E000BF4FF0010C02E000BF4FF0010CA6
:100C70004DF804CD4FEA410C7FEA6C5C4FEA430C1F
:100C800018BF7FEA6C5C1BD001B050EA410C0CBF6E
:100C900052EA430C91EA030F02BF90EA020F0020D0
:100CA000704710F1000F91EA030F58BF994208BF37
:100CB00090422CBFD8176FEAE37040F001007047F4
:100CC0004FEA410C7FEA6C5C02D150EA013C07D14B
:100CD0004FEA430C7FEA6C5CD6D152EA033CD3D096
:100CE0005DF8040B704700BF8446104662468C4690
:100CF0001946634600E000BF01B5FFF7B7FF0028C3
:100D000048BF10F1000F01BD4DF808EDFFF7F4FFEB
:100D10000CBF012000205DF808FB00BF4DF808ED76
:100D2000FFF7EAFF34BF012000205DF808FB00BF99
:100D30004DF808EDFFF7E0FF94BF012000205DF8BB
:100D400008FB00BF4DF808EDFFF7CEFF94BF012070
:100D500000205DF808FB00BF4DF808EDFFF7C4FF69
:100D600034BF012000205DF808FB00BF4FEA410CB2
:100D70007FEA6C5C02D150EA013C0AD14FEA430C95
:100D80007FEA6C5C02D152EA033C02D14FF00000D2
:100D900070474FF0010070474FEA410212F5001210
:100DA00015D211D56FF47873B3EB625212D94FEAB2
:100DB000C12343F0004343EA505311F0004F23FA9C
:100DC00002F018BF404270474FF00000704750EAF1
:100DD000013005D111F0004008BF6FF000407047AE
:100DE0004FF00000704700BF0348044B834202D01D
:100DF000034B03B118477047340700203407002025
:100E0000000000000548064B1B1AD90F01EBA30197
:100E1000491002D0034B03B1184770473407002034
:100E2000340700200000000010B5064C237843B9B9
:100E3000FFF7DAFF044B13B10448AFF3008001233E
:100E4000237010BD0033002000000000C4FE000825
:100E500008B5054B1BB105490548AFF30080BDE857
:100E60000840FFF7CFBF00BF0000000004330020A0
:100E7000C4FE000800230B4A13800B4A13800B4A60
:100E800013800B4A138001220A490A700A490B8019
:100E90000A490B800A490B800A490B800A4B1A70D9
:100EA000704700BF96330020943300209233002017
:100EB000903300208E3300208C3300208A330020B2
:100EC00088330020863300208433002008B51C4B73
:100ED0001B889BB29B011B4AD35C072B1DD0184A71
:100EE00013889BB201339BB2138013889BB2082BEB
:100EF00017D0154A13889BB201339BB21380124B53
:100F00001B889BB2114A128892B29B1A9BB2082B83
:100F10000BD10F4B01221A7008BD0E4B01221A7023
:100F2000EDE7134600221A80E3E7054B1A8892B2D8
:100F30004023044901EB8212012105F07FFAEBE71F
:100F400096330020401D0020923300209033002073
:100F50008E330020A5960020012912D010B504463A
:100F600007290DD10B4B00221A7040230A4A012198
:100F700005F064FA4023094A0221204605F05EFA92
:100F800010BD0023064A1370064A1370064A1370F8
:100F9000704700BF70330020401D0020401F00201C
:100FA000C6430020C5430020C4430020164B1A88C6
:100FB00092B2164B1B889BB29A4203D1144B01226A
:100FC0001A70704710B5134C228892B223889BB2D6
:100FD000114931F81330114901EB8212812105F0DA
:100FE0005DF923889BB201339BB2238023889BB297
:100FF000082B06D0054A13889BB201339BB213809D
:1010000010BD00222280F5E78833002086330020BF
:10101000843300208A33002074330020401B0020DA
:1010200038B504460A4D0B49284603F09FFC284674
:1010300003F095FC3F2803D8074B01221A7038BDF6
:101040004023044A0221204605F0F8F9F7E700BFE3
:10105000A4330020401F0020C643002070B582B09A
:10106000054614461146144803F0C9FC14F03F0F1E
:1010700000D144B9104803F06EFC58B90F4B01225F
:101080001A7002B070BD00231A468221284605F06E
:1010900005F9F6E701A9084803F099FC0146019E0D
:1010A000074C32462046FFF7A5F8334622468221F8
:1010B000284605F0F3F8E4E7B4330020C5430020E8
:1010C000C433002038B504460D464FF480522249FF
:1010D000224803F023FC4FF480622149214803F0A9
:1010E0001DFC08F0ABFBFFF7C5FE1F49204604F0CE
:1010F000F3FA1E49204604F01BFB1D49204604F06C
:101100000DFB1C49204604F01DFB1B49204604F042
:1011100033FB1A49204604F02FFB1949204603F0FF
:1011200073FC0146204604F00DFB1649204603F0EF
:101130006BFC0146204604F005FB1349204604F0F1
:101140001BFB1249204604F017FB114A2946204692
:1011500004F04AFB38BD00BF34070020B433002040
:1011600040170020A433002064050108000000207F
:101170000800002054330020280000202000002018
:10118000383300201C3300201800002010000020FD
:10119000590F000838B573E04C4A12889A014C493F
:1011A0008A5C7E2A08D19A0149497F2088540133FC
:1011B000082BF1D10023EFE7464C23889BB2464D24
:1011C0002A8892B2454901EB8211414800EB831015
:1011D00006F0C7FE2B889BB2414A22F813002388F1
:1011E0009BB201339BB2238023889BB2082B53D040
:1011F0003C4A13889BB201339BB213803A4B1B7855
:1012000043B13A4B1B889BB2128892B29B1A9BB295
:10121000082B44D1304A13889BB201339BB2138010
:1012200013889BB2082B48D0314A13889BB20133F4
:101230009BB213802F4B1B7813B3128892B22E4BA4
:101240001B889BB29A421BD02C4B1A8892B2511C1D
:1012500089B219801B889BB2082B32D026490B8893
:101260009BB201339BB20B800020224B18701C4BA9
:1012700033F81230194901EB8212812105F00EF882
:101280001A4B1A8892B2174B1B889BB29A421CD0F9
:10129000104B1B889BB281E700222280A8E7002028
:1012A000114B1870094B1A8892B24023084901EB80
:1012B0008212012105F0C2F8ACE7134600221A8021
:1012C000B2E70E4B00211980C8E738BD96330020E5
:1012D000401D0020943300208C330020401B002050
:1012E00074330020903300208E330020923300208E
:1012F0008833002084330020863300208A33002086
:1013000010B51446094808F0A3FE094808F0A0FEED
:10131000084B20681860A188A27999809A71064BC1
:1013200001221A70054B00221A7010BD18FF000828
:101330002CFF00089C3300209933002098330020B4
:1013400010B51446054808F083FE054B1868206068
:101350009A889B79A280A37110BD00BF40FF00084E
:101360009C3300207047000010B582B00190014608
:101370000A4C204603F043FB204603F0ECFA20B968
:10138000074B01221A7002B010BD01A9204603F0DC
:101390001EFBBDF80410FFF7E5FFF4E7A4330020BF
:1013A000C443002070B582B02C4B1B7873B92C4B12
:1013B0001B784BB12B4B1B78B3B92B4B1B786BBBFA
:1013C0002A4B1B78002B3AD102B070BD234B002270
:1013D0001A70274800F082FC0123224A1370224A27
:1013E00013701F4A1370E2E7224803F0B4FA002892
:1013F000E3D000241B4B1C7001A91E4803F0E7FA40
:101400000146019E1C4D32462846FEF7F3FE334648
:101410002A468221204604F041FFCEE7174803F018
:101420009AFA0028CCD0104B00221A7001A9134858
:1014300003F0CDFABDF8041000F0AEFCC0E70F4891
:1014400003F08DFA3F28BFD90020084B18704023C5
:101450000B4A022104F0F2FFB6E700BF99330020E7
:1014600098330020C5430020C4430020C643002019
:101470009C330020B4330020C4330020A433002068
:10148000401F002010B582B0002401940D4B1A6B50
:1014900042F400121A631B6B03F400130193019BC7
:1014A000224605210C2000F03FFD0C2000F04CFDF1
:1014B000224605210E2000F037FD0E2000F044FDED
:1014C00002B010BD0038024008B50D4B1B78DBB2EE
:1014D000012B00D008BD0B4808F068FA0028F9D1AC
:1014E000084B1B68084A1268934202D0064A1360F0
:1014F000F0E7054B00221A6008F096FAEAE700BF11
:1015000070470020C84300207447002008B5FFF74B
:1015100041FEFFF747FF03F07BF8064BA3FB0023D8
:101520005B094FF4967202FB1303002BEFD1FFF718
:10153000CBFFECE7B5814E1B08B50421034801F051
:1015400067F841F2883002F0EAFAF6E7001002404C
:1015500008B50B4B1B78DBB2012B00D008BD094945
:10156000094808F0FBF90028F8D0064B1B6803F483
:10157000E06306491943044808F004FAEEE700BFA7
:1015800070470020CC4300200CED00E00400FA0579
:10159000034B0360034B0B6080231360704700BF55
:1015A000D0450020D043002010B58EB04FF0A041B0
:1015B0000020FFF787FD124C0DF11C0CA646BEE87B
:1015C0000F00ACE80F009EE807008CE80700002140
:1015D00007A802F071FA0B4B1860EE4604F11C0CE0
:1015E000BCE80F00AEE80F009CE807008EE807009B
:1015F0000021684602F060FA034B18600EB010BD7F
:10160000E0FE00086C4700206847002070B58AB0F3
:101610000024059406940794089409940094264B9A
:101620001A6B42F010021A631A6B02F01002009259
:10163000009A01941A6B42F004021A631A6B02F0CA
:1016400004020192019A02941A6B42F080021A631A
:101650001A6B02F080020292029A03941A6B42F013
:1016600001021A631A6B02F001020392039A0494B6
:101670001A6B42F002021A631B6B03F0020304931D
:10168000049B0E4E01220421304600F0BBFF0423D0
:101690000593012506950795089405A9304600F0A5
:1016A000BBFE402305930694079505A9044800F066
:1016B000B3FE0AB070BD00BF003802400010024007
:1016C0000000024030B589B00024039404940594CE
:1016D000069407940194174D2B6B43F001032B6381
:1016E0002B6B03F001030193019B4FF4C053039351
:1016F00002230493032306930A23079303A90E48A6
:1017000000F08AFE6B6B43F080036B6302946B6C9A
:1017100043F480436B646B6C03F480430293029B3D
:1017200022462146432000F0FFFB432000F00CFC42
:1017300009B030BD003802400000024008B5026820
:10174000034B9A4200D008BD00F088FBFBE700BFC6
:101750000000014072B6FEE700B595B030220021CE
:1017600008A808F0C5FC002303930493059306938F
:1017700007930193204A116C41F080511164126C5F
:1017800002F080520192019A02931C4B1A6842F4B3
:1017900080421A601B6803F480430293029B01237A
:1017A00008934FF48033099302230E934FF4800281
:1017B0000F9204221092A8221192129307231393DE
:1017C00008A800F02FFF98B90F2303930223049376
:1017D000002305934FF4A05306934FF480530793CF
:1017E000052103A801F088F920B915B05DF804FBC4
:1017F000FFF7B0FFFFF7AEFF003802400070004077
:1018000008B500F011FBFFF7A7FFFFF7FFFEFFF79A
:1018100039FE00F04DF900F065F9FFF7C5FE02F062
:1018200046F9FEE700B583B0002200920D4B596CDB
:1018300041F480415964596C01F480410091009950
:101840000192196C41F0805119641B6C03F08053B4
:101850000193019B0F216FF0010000F065FB03B0C5
:101860005DF804FB0038024030B589B0054600241D
:1018700001941E4B5A6C42F001025A645B6C03F0F7
:1018800001030193019B02A903A801F00BFA01F0E7
:10189000F9F94300164AA2FB03239B0C013B1548B0
:1018A000154A026040F2E732C2604360046184601E
:1018B000846101F07BFB044610B1204609B030BDC5
:1018C0000C4801F00FFA04460028F6D1192000F068
:1018D0003BFB0F2D01D90124EFE7002229461920F7
:1018E00000F022FB054B1D60E7E700BF0038024017
:1018F00083DE1B43784700200000014038000020B1
:10190000FEE7FEE7FEE7FEE7FEE7704708B50248A0
:1019100000F092FC08BD00BF4450002008B502480A
:1019200000F08AFC08BD00BFE44F002008B5024863
:1019300001F020FA08BD00BF7847002008B5024832
:1019400001F0ACFE08BD00BFEC50002030B583B004
:101950001B4C204601F0A2FE23681A6812F0100FFB
:101960000DD1174C204601F099FE00230193236806
:101970001A6801925B680193019B03B030BD00229D
:1019800000921A6800925B680093009B204601F069
:101990004DFD0C4B1A685368C3F500630A490B6090
:1019A00052680A4DC2F500622946094802F0DEFF7E
:1019B0004FF400622946204602F060F8D1E700BFEC
:1019C000A450002044500020C0470020E0470020E1
:1019D000B433002008B5002004F0EAFD08BD012062
:1019E000704708B508F060FC162303604FF0FF3025
:1019F00008BD08B54FF0FF31FFF7F3FFFEE770B504
:101A00000C461646002506E0AFF30080214601F89B
:101A1000010B01350C46B542F6DB304670BD70B5A2
:101A20000C461646002504E014F8010B00F046F9B8
:101A30000135B542F8DB304670BD4FF0FF307047DE
:101A40004FF400534B600020704701207047002086
:101A50007047000010B503460C4A0D490D48006858
:101A600040B10C4800680344521A934206D8094A10
:101A7000136010BD0748084C0460F2E708F014FC3E
:101A80000C2303604FF0FF30F3E700BF000002209B
:101A900000080000E04F0020089A0020034AD2F816
:101AA000883043F47003C2F88830704700ED00E0DE
:101AB00008B50A480A4B03604FF4E1334360002342
:101AC0008360C36003610C2242618361C36101F0E2
:101AD000D4FB00B908BDFFF73DFEFBE7EC5000204A
:101AE0000010014008B51048104B03604FF4E1337B
:101AF000436000238360C36003610C224261836101
:101B0000C36101F0BAFB58B907480268D36843F0D3
:101B10001003D3604FF40062054901F0AFFF08BD28
:101B2000FFF718FEF0E700BFA45000200048004077
:101B300040510020F0B58BB0002305930693079326
:101B4000089309930368544A934205D00446534AC4
:101B5000934241D00BB0F0BD00240094504B5A6C1E
:101B600042F010025A645A6C02F010020092009A7D
:101B700001941A6B42F001021A631A6B02F001021F
:101B80000192019A02941A6B42F002021A631B6BD3
:101B900003F002030293029B4FF4007305930227A4
:101BA0000697032608960725099505A93D4800F0E4
:101BB00033FC80230593069707940896099505A999
:101BC000394800F029FC22460521252000F0ACF917
:101BD000252000F0B9F9BDE700250395304B1A6CBC
:101BE00042F480221A641A6C02F480220392039A4F
:101BF00004951A6B42F002021A631B6B03F0020396
:101C00000493049B4FF4406305930223069303233C
:101C100008930723099305A9234800F0FDFB2348F7
:101C2000234B03604FF0006343608560C5604FF451
:101C30008063036145618561C5610562456200F0AD
:101C400003FA18BB194BE3639C631A481A4B0360F1
:101C50004FF000634360402383600023C3604FF470
:101C60008062026143618361C3610362436200F089
:101C7000EBF970B90F4BA3639C6300220521272069
:101C800000F052F9272000F05FF963E7FFF762FDEB
:101C9000D8E7FFF75FFDEDE7001001400048004086
:101CA000003802400000024000040240445000207E
:101CB00028600240E44F00205860024000B583B025
:101CC00001904FF6FF73012201A9034801F005FBC3
:101CD000019803B05DF804FBEC50002010B50446F9
:101CE000264B274A1A6002685A600168254808F0A6
:101CF0004DF96379012B2BD0022B2ED01F4B0022E4
:101D00001A616179204808F041F9A2791B4B9A6069
:101D1000A1791E4808F03AF92379012B22D0022B31
:101D200024D0164B0022DA602179194808F02EF9E8
:101D3000124800238361C3610C23436101F09DFAC3
:101D4000C8B94FF4006213490C4801F097FE10BD6A
:101D50000A4B4FF4C0621A61D3E7084B4FF480621C
:101D60001A61CEE7054B0022DA60DDE7034B4FF442
:101D70000052DA60D8E7FFF7EDFCE2E7A45000205C
:101D80000048004068FF000878FF000884FF000852
:101D900094FF00084051002010B50C460A46014649
:101DA000024801F001FB024B1C6010BDA450002052
:101DB0004059002008B50268044B9A4200D008BD83
:101DC000034B1868FFF7D0FAF9E700BF004800405E
:101DD00040590020DFF834D0FFF760FE0C480D4971
:101DE0000D4A002302E0D458C4500433C4188C4276
:101DF000F9D30A4A0A4C002301E013600432A242DC
:101E0000FBD308F057FAFFF7FBFC704700000220F5
:101E10000000002034070020B8090108003300202A
:101E2000089A0020FEE7000008B50B4B1A6842F440
:101E300000721A601A6842F480621A601A6842F4EA
:101E400080721A60032000F05DF80F20FFF70CFD90
:101E5000FFF7E8FC002008BD003C0240034A11687F
:101E6000034B1B780B441360704700BF445900209C
:101E700034000020014B1868704700BF445900200F
:101E8000002807DB00F01F02400901239340024AAB
:101E900042F82030704700BF00E100E0002808DB76
:101EA0000901C9B200F1604000F5614080F80013FB
:101EB000704700F00F000901C9B2014B1954704777
:101EC00014ED00E000B500F00700C0F1070CBCF114
:101ED000040F28BF4FF0040C031D062B0FD9C31E9F
:101EE0004FF0FF3E0EFA0CF021EA000199400EFA85
:101EF00003FE22EA0E0241EA02005DF804FB002321
:101F0000EEE70000074AD36823F4E0631B041B0CD0
:101F1000000200F4E060034343F0BF6343F4003386
:101F2000D360704700ED00E010B50446054BD8685B
:101F3000C0F30220FFF7C6FF01462046FFF7AEFFC1
:101F400010BD00BF00ED00E008B5FFF799FF08BD28
:101F500030B405682C6824F480242C600468636025
:101F60008368402B05D0036899600368DA6030BC51
:101F7000704703689A600368D960F8E710B4036893
:101F8000D9B210390A4AA2FB01421209094CA25CDB
:101F9000C2655F2907D96FF3090304338365806D38
:101FA0005DF8044B70476FF309038365F7E700BFE3
:101FB000ABAAAAAA5C070108836A826992B9012BBD
:101FC0000AD0022B02D00BB100207047C36A13F075
:101FD000807F28D100207047C36AB3F1C07F24D02E
:101FE00000207047B2F5005F09D0022B25D9032BE2
:101FF00025D1C36A13F0807F23D100207047032BC3
:1020000003D8DFE803F01404140A00207047C36A01
:1020100013F0807F0DD100207047C36AB3F1C07FF9
:1020200009D000207047012070470120704701202F
:102030007047012070470120704701207047002041
:10204000704701207047000070B50446FFF712FF8B
:10205000002C5BD00546022384F83530002384F839
:1020600034302268136823F00103136023681A6870
:1020700012F0010F0AD0FFF7FDFE431B052BF5D927
:1020800020236365032084F8350070BD1A68204959
:1020900011406268A0680243E0680243206902437D
:1020A00060690243A0690243E0690243206A024377
:1020B0000A43616A04291ED01A602668756925F0F2
:1020C0000705636A1D43042B07D1A36A1D43E36A16
:1020D0001BB12046FFF770FF90B975612046FFF7EE
:1020E0004DFFE26D3F239340836000206065012334
:1020F00084F83530C9E7E16A206B01430A43DBE726
:1021000040236365012084F83500BEE70120BCE769
:102110003F8010F038B50446856D90F834000128F2
:102120002BD0012084F8340094F83500C0B2012887
:1021300004D0002384F83430022038BD022084F813
:102140003500002060652046FFF702FFE26D3F2367
:102150009340AB602268136843F016031360236C4E
:1021600023B12268136843F00803136022681368E0
:1021700043F0010313600020DFE70220DDE770B5C4
:102180000446866DFFF776FE94F83530DBB2022BFD
:1021900006D080236365002384F83430012070BDAD
:1021A00005462268136823F01603136022685369FA
:1021B00023F080035361236CE3B12268136823F09A
:1021C000080313602268136823F001031360236877
:1021D0001B6813F0010F11D0FFF74CFE431B052BBA
:1021E000F5D920236365032084F83500002384F8A3
:1021F0003430D4E7A36C002BDFD1E3E7E26D3F235B
:102200009340B360012384F83530002084F8340013
:10221000C5E790F83530DBB2022B03D0802343654D
:1022200001207047052380F835300268136823F0D9
:102230000103136000207047F0B583B0044600230B
:102240000193724B1D68724BA3FB0535AD0A876D78
:102250003E68C26D08239340334210D003681A6869
:1022600012F0040F0BD01A6822F004021A60C26D3B
:1022700008239340BB60436D43F001034365E26D67
:1022800001239340334209D02268526912F0800F33
:1022900004D0BB60636D43F002036365E26D042309
:1022A0009340334209D02268126812F0020F04D022
:1022B000BB60636D43F004036365E26D10239340DC
:1022C000334224D02268126812F0080F1FD0BB607E
:1022D00023681A6812F4802F0DD01B6813F4002FA6
:1022E00004D1236C9BB12046984710E0A36C73B1D6
:1022F000204698470BE01A6812F4807F03D11A68D1
:1023000022F008021A60236C0BB120469847E26D58
:1023100020239340334255D02268126812F0100FE8
:1023200050D0BB6094F83530DBB2052B0ED023685B
:102330001A6812F4802F33D01B6813F4002F2AD1AF
:10234000636C002B3ED0204698473BE02268136820
:1023500023F0160313602268536923F0800353614E
:10236000236CA3B12268136823F008031360E26DA5
:102370003F239340BB60012384F83530002384F869
:102380003430236D002B3FD0204698473CE0A36CAF
:10239000002BE7D1EBE7E36BA3B12046984711E0B0
:1023A0001A6812F4807F09D11A6822F010021A60AC
:1023B000012384F83530002384F83430E36B0BB10B
:1023C00020469847636DFBB1636D13F0010F17D082
:1023D000052384F835302268136823F00103136065
:1023E000019B01330193AB4204D823681B6813F0AF
:1023F000010FF5D1012384F83530002384F83430FF
:10240000E36C0BB12046984703B0F0BD30000020CC
:10241000B5814E1B406D704700230F2B00F2E98001
:1024200070B582B065E085684FEA430E032404FA74
:102430000EF425EA0405CC6804FA0EF42C438460FB
:10244000446824EA02044A68C2F300129A40224314
:1024500042605CE0DC08083450F8242003F00705F3
:10246000AD004FF00F0E0EFA05FE22EA0E0E0A69BD
:10247000AA4042EA0E0240F824205CE0072200E075
:10248000002202FA0EF22A4302345A4D45F8242063
:10249000594A94686FEA0C0224EA0C054E6816F457
:1024A000801F01D04CEA0405534CA560E46802EAA1
:1024B00004054E6816F4001F01D04CEA04054E4C8A
:1024C000E560646802EA04054E6816F4003F01D036
:1024D0004CEA0405484C6560246822404D6815F4B8
:1024E000803F01D04CEA0402434C226001330F2BA1
:1024F0007DD801229A400C6804EA020C32EA0404F6
:10250000F4D14C6804F00304013C012C8BD94A68D7
:1025100002F00302032A09D0C4685D000322AA4026
:1025200024EA02048A68AA402243C2604A6802F090
:102530000302022A8ED004684FEA430E032202FAF5
:102540000EF224EA02044A6802F0030202FA0EF2D2
:10255000224302604A6812F4403FC7D00022019231
:10256000264A546C44F480445464526C02F4804211
:102570000192019A9C08A51C1E4A52F8255003F0AE
:10258000030E4FEA8E0E0F2202FA0EF225EA020522
:102590001B4A90423FF474AF02F5806290421AD019
:1025A00002F58062904218D002F58062904216D007
:1025B00002F58062904214D002F58062904212D0FF
:1025C00002F58062904210D002F5806290423FF4A2
:1025D00055AF082255E7012253E7022251E70322B3
:1025E0004FE704224DE705224BE7062249E702B0F8
:1025F00070BD704700380140003C01400038024087
:10260000000002400AB1816170470904816170478E
:10261000436901EA030221EA030141EA02418161BF
:1026200070470000002800F0E08170B582B00446D9
:10263000036813F0010F3BD09F4B9B6803F00C0322
:10264000042B2CD09C4B9B6803F00C03082B21D04F
:102650006368B3F5803F4FD0B3F5A02F52D0964BAF
:102660001A6822F480321A601A6822F480221A60F2
:102670006368002B50D0FFF7FDFB05468E4B1B68AF
:1026800013F4003F14D1FFF7F5FB401B6428F5D984
:102690000320B1E1884B5B6813F4800FD8D0864BE0
:1026A0001B6813F4003F03D06368002B00F09F8188
:1026B000236813F0020F54D07F4B9B6813F00C0F6C
:1026C0003ED07D4B9B6803F00C03082B33D0E368AE
:1026D000002B68D0794B01221A60FFF7CBFB05462F
:1026E000754B1B6813F0020F54D1FFF7C3FB401B5F
:1026F0000228F5D903207FE16F4A136843F4803341
:102700001360B5E76C4B1A6842F480221A601A68AD
:1027100042F480321A60ABE7FFF7ACFB0546664B2C
:102720001B6813F4003FC3D0FFF7A4FB401B6428D1
:10273000F5D9032060E1604B5B6813F4800FC6D1CC
:102740005D4B1B6813F0020F03D0E368012B40F0D0
:102750005081594A136823F0F803216943EAC10301
:102760001360236813F0080F42D063696BB3534BB7
:102770000122C3F8802EFFF77DFB05464E4B5B6FB1
:1027800013F0020F34D1FFF775FB401B0228F5D977
:10279000032031E1484A136823F0F803216943EA32
:1027A000C1031360DDE7454B00221A60FFF762FBAF
:1027B0000546414B1B6813F0020FD2D0FFF75AFBBE
:1027C000401B0228F5D9032016E13C4B0022C3F838
:1027D000802EFFF74FFB0546374B5B6F13F0020F60
:1027E00006D0FFF747FB401B0228F5D9032003E181
:1027F000236813F0040F77D02F4B1B6C13F0805F0E
:1028000033D1002301932C4B1A6C42F080521A648E
:102810001B6C03F080530193019B0125284B1B681F
:1028200013F4807F23D0A368012B34D0052B38D03C
:10283000214B1A6F22F001021A671A6F22F004026C
:102840001A67A368002B3DD0FFF714FB06461A4B0E
:102850001B6F13F0020F46D1FFF70CFB801B41F2F8
:1028600088339842F3D90320C6E00025D6E7144AFE
:10287000136843F480731360FFF7FCFA0646104BAD
:102880001B6813F4807FCED1FFF7F4FA801B022877
:10289000F5D90320B0E0084A136F43F00103136732
:1028A000CFE7054B1A6F42F004021A671A6F42F025
:1028B00001021A67C5E700BF003802400000474226
:1028C00000700040FFF7D6FA0646524B1B6F13F01C
:1028D000020F08D0FFF7CEFA801B41F288339842EE
:1028E000F3D9032088E0EDB9A369002B00F08380C1
:1028F000484A926802F00C02082A51D0022B17D0E5
:10290000454B00221A66FFF7B5FA0446414B1B6897
:1029100013F0007F42D0FFF7ADFA001B0228F5D973
:10292000032069E03B4A136C23F080531364DBE718
:10293000394B00221A66FFF79DFA0546354B1B6896
:1029400013F0007F06D0FFF795FA401B0228F5D957
:10295000032051E0E369226A1343626A43EA821367
:10296000A26A5208013A43EA0243E26A43EA026376
:10297000284A5360284B01221A66FFF77BFA044667
:10298000244B1B6813F0007F06D1FFF773FA001B7E
:102990000228F5D903202FE000202DE000202BE0B5
:1029A000012B2BD01B4B5B6803F48001E269914241
:1029B00026D103F03F02216A8A4223D1616A47F699
:1029C000C0721A40B2EB811F1ED103F44031A26ADB
:1029D0005208013AB1EB024F18D103F07063E26A7A
:1029E000B3EB026F14D1002006E0012070470120F4
:1029F00002E0012000E0002002B070BD0120FBE7F2
:102A00000120F9E70120F7E70120F5E70120F3E7CE
:102A10000120F1E7003802400000474208B5334B7F
:102A20009B6803F00C03042B5BD0082B5BD12F4B6E
:102A30005A6802F03F025B6813F4800F2CD02B4BD6
:102A40005868C0F388104FEA401CBCEB000C6EEBDA
:102A50000E0E4FEA8E1343EA9C634FEA8C11B1EBE2
:102A60000C0163EB0E03DB0043EA5173C90011EB69
:102A7000000C43F10003590200234FEA4C2041EAC5
:102A8000DC51FDF79DFB194B5B68C3F30143013338
:102A90005B00B0FBF3F008BD144B5868C0F388101E
:102AA0004FEA401CBCEB000C6EEB0E0E4FEA8E138F
:102AB00043EA9C634FEA8C11B1EB0C0163EB0E030C
:102AC000DB0043EA5173C90011EB000C43F1000332
:102AD000990200234FEA8C2041EA9C51FDF770FBDC
:102AE000D1E70348D7E70348D5E700BF00380240E5
:102AF00000127A000024F400002800F09B8070B5DA
:102B00000D4604464F4B1B6803F007038B4208D267
:102B1000CBB24C4A1370136803F007038B4240F0AA
:102B20008B80236813F0020F17D013F0040F04D02A
:102B3000454A936843F4E0539360236813F0080F09
:102B400004D0414A936843F4604393603E4A9368DB
:102B500023F0F003A1680B439360236813F0010F87
:102B600032D06368012B21D09A1E012A25D9364A1A
:102B7000126812F0020F61D033498A6822F0030212
:102B800013438B60FFF776F906462F4B9B6803F0E3
:102B90000C036268B3EB820F16D0FFF76BF9801B52
:102BA00041F288339842F0D9032042E0264A126865
:102BB00012F4003FE0D101203BE0234A126812F0FA
:102BC000007FD9D1012034E01E4B1B6803F00703BE
:102BD000AB4207D9EAB21B4B1A701B6803F007031C
:102BE000AB422DD1236813F0040F06D0164A936828
:102BF00023F4E053E1680B439360236813F0080F5C
:102C000007D0114A936823F46043216943EAC10362
:102C10009360FFF703FF0C4B9B68C3F303130B4A4E
:102C2000D35CD8400A4B18600A4B1868FEF71CFEAC
:102C3000002070BD012070470120FAE70120F8E76D
:102C40000120F6E7003C0240003802404C07010832
:102C50003000002038000020014B1868704700BF8A
:102C60003000002008B5FFF7F7FF044B9B68C3F363
:102C70008223034AD35CD84008BD00BF003802401D
:102C80004407010808B5FFF7E7FF044B9B68C3F34F
:102C90004233034AD35CD84008BD00BF003802402D
:102CA000440701080F2303600B4B9A6802F00302EC
:102CB00042609A6802F0F00282609A6802F4E05280
:102CC000C2609B68DB0803F4E0530361034B1B689D
:102CD00003F007030B60704700380240003C0240DD
:102CE0007047000090F83D30DBB2012B37D1022352
:102CF00080F83D300268D36843F00103D360036875
:102D0000194A934220D0B3F1804F1DD0A2F57C42E6
:102D1000934219D002F58062934215D002F5806289
:102D2000934211D002F5784293420DD002F57052D1
:102D3000934209D0A2F59432934205D01A6842F02A
:102D400001021A60002070479A6802F00702062A02
:102D500007D01A6842F001021A6000207047012073
:102D600070470020704700BF000001407047704767
:102D70007047704770B504460368DE681D6915F03A
:102D8000020F10D016F0020F0DD06FF002021A6180
:102D90000123037703689B6913F0030F5ED0FFF7ED
:102DA000E6FF0023237715F0040F12D016F0040F6E
:102DB0000FD023686FF004021A610223237723687F
:102DC0009B6913F4407F4FD02046FFF7D0FF0023CC
:102DD000237715F0080F12D016F0080F0FD02368D4
:102DE0006FF008021A61042323772368DB6913F06C
:102DF000030F40D02046FFF7BAFF0023237715F0DA
:102E0000100F12D016F0100F0FD023686FF01002C1
:102E10001A61082323772368DB6913F4407F31D0DC
:102E20002046FFF7A4FF0023237715F0010F02D0FF
:102E300016F0010F2DD115F0800F02D016F0800F83
:102E40002FD115F0400F02D016F0400F31D115F000
:102E5000200F02D016F0200F33D170BDFFF786FF90
:102E60002046FFF785FF9CE72046FFF77FFF2046BF
:102E7000FFF77EFFABE72046FFF778FF2046FFF71E
:102E800077FFBAE72046FFF771FF2046FFF770FF94
:102E9000C9E723686FF001021A612046FEF74EFC75
:102EA000C9E723686FF080021A61204600F0ABF892
:102EB000C7E723686FF040021A612046FFF759FF09
:102EC000C5E723686FF020021A61204600F09AF8E7
:102ED000C3E700000368344A904212D0B0F1804F3B
:102EE0000FD0A2F57C4290420BD002F58062904256
:102EF00007D002F58062904203D002F578429042FA
:102F000003D123F070034A681343274A90422AD022
:102F1000B0F1804F27D0A2F57C42904223D002F539
:102F2000806290421FD002F5806290421BD002F571
:102F30007842904217D002F57052904213D002F5B9
:102F4000806290420FD002F5806290420BD0A2F5D1
:102F50009832904207D002F58062904203D002F589
:102F60008062904203D123F44073CA68134323F074
:102F700080034A69134303608B68C3620B688362F2
:102F8000094B984203D003F58063984201D10B6945
:102F9000036301234361036913F0010F03D0036945
:102FA00023F00103036170470000014040B310B5F6
:102FB000044690F83D30F3B1022384F83D302146B9
:102FC00051F8040BFFF786FF012384F8463084F89C
:102FD0003E3084F83F3084F8403084F8413084F843
:102FE000423084F8433084F8443084F8453084F823
:102FF0003D30002010BD80F83C30FFF771FEDBE76C
:103000000120704770477047026802F10C0353E8D3
:10301000003F23F0C0030C3242E800310029F3D115
:10302000202380F841307047026802F10C0353E816
:10303000003F23F490730C3242E800310029F3D1B1
:10304000026802F1140353E8003F23F00103143235
:1030500042E800310029F3D1036B012B05D0202376
:1030600080F84230002303637047026802F10C03CA
:1030700053E8003F23F010030C3242E800310029EE
:10308000F3D1ECE790F84130DBB2212B01D00220E4
:1030900070478368B3F5805F17D0036A5A1C0262D9
:1030A0001A7803685A60C38C9BB2013B9BB2C384FD
:1030B0004BB90268D36823F08003D3600268D368F9
:1030C00043F04003D360002070470369002BE4D134
:1030D000036A1B880268C3F308035360036A023360
:1030E0000362E0E710B504460268136923F4405315
:1030F000C1680B431361836802691A4343691A4329
:10310000C3691A430168CB6823F4164323F00C0308
:103110001343CB600268536923F4407381690B4306
:1031200053610368314A934206D002F580629342AC
:1031300002D0FFF797FD01E0FFF7A4FDE369B3F5C7
:10314000004F29D00021031849411B1841F100010B
:10315000C90041EA5371DB00181863684FEA830223
:103160004FEA937341F10001FDF72AF8204AA2FBD0
:1031700000314909642303FB11031B013233A2FB15
:1031800003235B0903F0F00202EB011203F00F03CB
:10319000216813448B6010BD0023021843EB030128
:1031A000121841F10001C90041EA5271D200101811
:1031B00041F10001626892185B41FDF701F80C4A89
:1031C000A2FB00314909642303FB1103DB00323306
:1031D000A2FB03235B095A0002F4F87202EB01120E
:1031E00003F00703216813448B60D4E7001001400B
:1031F0001F85EB512DE9F04383B005460E46174677
:103200009946DDF828802B681C6836EA04040CBF58
:1032100001240024BC4228D1B8F1FF3FF3D0FEF7CF
:1032200029FEA0EB0900404523D8B8F1000F22D0B9
:103230002B68DA6812F0040FE5D0802EE3D0402E20
:10324000E1D01A6812F0080FDDD0002401941A684A
:1032500001925B680193019B2846FFF7E5FE082376
:103260006B6485F84040012000E0002003B0BDE819
:10327000F0830320FAE70320F8E760B310B50446B3
:1032800090F8413013B3242384F841302268D36886
:1032900023F40053D3602046FFF724FF226813690C
:1032A00023F4904313612268536923F02A03536186
:1032B0002268D36843F40053D36000206064202365
:1032C00084F8413084F84230606310BD80F84030AB
:1032D000FEF730FCD7E7012070472DE9F04182B0BE
:1032E0001E4690F84130DBB2202B56D104460D46E5
:1032F0009046002955D00AB901204FE000234364CD
:10330000212380F84130FEF7B5FD0746A4F824805C
:10331000A4F82680A368B3F5805F02D04FF00008C0
:1033200014E023692BB34FF000080FE0202384F84A
:103330004130032032E038F8023B2268C3F308032F
:103340005360E28C92B2013A92B2E284E38C9BB277
:1033500093B100963B46002280212046FFF74AFFAA
:103360000028E3D1002DE6D015F8012B23685A6020
:10337000E7E7A8460025E9E700963B460022402102
:103380002046FFF737FF18B9202384F8413005E0C5
:10339000202384F84130032000E0022002B0BDE881
:1033A000F0810120FAE7000038B5134690F841207B
:1033B000D2B2202A2FD1044600292ED00BB90120E9
:1033C00038BD01628384C38400224264212084F8D2
:1033D0004100A06B124DC563A06B124D0564A06B3C
:1033E000114DC564A06B026522680432A06BFEF724
:1033F00091FE23686FF040021A60226802F1140304
:1034000053E8003F43F08003143242E800310029C2
:10341000F3D10020D4E70220D2E70120D0E700BF9B
:10342000D33400083B3500084B35000810B504467E
:10343000226802F10C0353E8003F23F490730C322E
:1034400042E800310029F3D1226802F1140353E865
:10345000003F23F00103143242E800310029F3D188
:10346000236B012B1FD023685B6913F0400F13D02F
:10347000226802F1140353E8003F23F040031432A2
:1034800042E800310029F3D1E36B2BB100221A6529
:10349000E06BFEF774FE98B90020E085202384F8E5
:1034A0004230206310BD226802F10C0353E8003F54
:1034B00023F010030C3242E800310029F3D1D2E7A7
:1034C000E06BFEF7A7FF2028E6D1102363640320FA
:1034D000E8E708B50346806B1B681B6813F4807F20
:1034E0001AD10023C384026802F1140353E8003F99
:1034F00023F08003143242E800310029F3D102683E
:1035000002F10C0353E8003F43F040030C3242E861
:1035100000310029F3D108BDFEF74CFCFBE708B5EC
:103520000168CA6822F04002CA60202280F8412067
:10353000FEF740FC002008BD704708B5806BFFF720
:10354000FBFF08BD70477047704710B5846B236858
:103550005A6994F84130DBB2212B10D023685A69A4
:1035600002F0400294F84230DBB2222B11D0636C9F
:1035700043F0100363642046FFF7E6FF10BD02F03E
:103580008002002AEAD00023E3842046FFF73CFDB6
:10359000E4E7002AEBD00023E3852046FFF744FD53
:1035A000E5E708B5806B0023C385C384FFF7CCFF34
:1035B00008BD704790F84230DBB2222B69D1836896
:1035C000B3F5805F4FD0826AB3F5805F04D0002BE3
:1035D00056D10369002B53D103685B681370836A6B
:1035E00001338362C38D9BB2013B9BB2C385002B29
:1035F00051D100B583B00268D36823F02003D360B3
:103600000268D36823F48073D3600268536923F09F
:1036100001035361202380F8423000234363036B8E
:10362000012B33D100230363026802F10C0353E83A
:10363000003F23F010030C3242E800310029F3D19F
:1036400003681A6812F0100F06D0002201921A685F
:1036500001925B680193019B818DFFF7AAFF002017
:1036600003B05DF804FB0269002AACD1826A0368EA
:103670005B68C3F308031380836A02338362B1E794
:1036800003685B6803F07F031370A8E7FFF75AFF36
:10369000E5E70220704700207047000010B582B0B7
:1036A000044602681368D068516913F00F0F09D1FE
:1036B00013F0200F0CD010F0200F09D02046FFF798
:1036C00079FF16E011F0010115D110F4907F12D1AD
:1036D000216B012979D013F0800F03D010F0800FF7
:1036E00040F0148113F0400F03D010F0400F40F071
:1036F000118102B010BD13F0010F06D010F4807FCD
:1037000003D0626C42F00102626413F0040F04D033
:1037100019B1626C42F00202626413F0020F04D02D
:1037200019B1626C42F00402626413F0080F07D012
:1037300010F0200F00D119B1626C42F008026264EF
:10374000626C002AD5D013F0200F02D010F0200FA9
:1037500029D123685B6903F04003626C12F0080F03
:1037600000D163B32046FFF75FFC23685B6913F069
:10377000400F20D0226802F1140353E8003F23F0E9
:103780004003143242E800310029F3D1E36B73B1F6
:10379000624A1A65E06BFEF73CFD0028A9D0E06B99
:1037A000036D9847A5E72046FFF704FFD1E72046C1
:1037B000FFF7CAFE9DE72046FFF7C6FE99E72046C1
:1037C000FFF7C2FE0023636493E713F0100F82D06B
:1037D00010F0100F3FF47FAF0023019313680193A3
:1037E00053680193019B536913F0400F52D0E26B71
:1037F00013685B689BB2002B3FF47BAFA18D9942AD
:103800007FF677AFE385D369B3F5807F37D0226841
:1038100002F10C0353E8003F23F480730C3242E8BA
:1038200000310029F3D1226802F1140353E8003F6C
:1038300023F00103143242E800310029F3D1226859
:1038400002F1140353E8003F23F04003143242E82E
:1038500000310029F3D1202384F842300023236370
:10386000226802F10C0353E8003F23F010030C32EE
:1038700042E800310029F3D1E06BFEF780FC02231F
:103880006363A18DE38D9BB2C91A89B22046FFF70D
:1038900090FE2EE7A18DE38D9BB2C91A89B2E38D0C
:1038A0009BB2002B3FF425AF00293FF422AF2268E2
:1038B00002F10C0353E8003F23F490730C3242E80A
:1038C00000300028F3D1226802F1140353E8003FCE
:1038D00023F00103143242E800300028F3D1202302
:1038E00084F8423000232363226802F10C0353E87A
:1038F000003F23F010030C3242E800300028F3D1DF
:10390000022363632046FFF754FEF2E62046FFF7EA
:10391000B9FBEEE62046FFF702FEEAE6A335000813
:1039200008B5806B01234363036B012B02D0FFF7C3
:103930000AFE08BD818D4908FFF73BFEF9E708B58F
:103940000346806B1B681B6813F4807F2BD1002318
:10395000C385026802F10C0353E8003F23F480732F
:103960000C3242E800310029F3D1026802F114035D
:1039700053E8003F23F00103143242E800310029EC
:10398000F3D1026802F1140353E8003F23F040032F
:10399000143242E800310029F3D1202380F842306C
:1039A000036B012B07D000234363036B012B0FD064
:1039B000FFF7C8FD08BD026802F10C0353E8003FA1
:1039C00023F010030C3242E800310029F3D1EAE77A
:1039D000818DFFF7EEFDEDE730B583B00446134669
:1039E0008162828500254564222280F84220C26BD4
:1039F0001F48D063E26B1F481064E26B1E48D0641E
:103A0000E26B156520680A46011DE06BFEF782FB3C
:103A1000019523681A6801925B680193019B2369F1
:103A20005BB1226802F10C0353E8003F43F480735A
:103A30000C3242E800310029F3D1226802F114036C
:103A400053E8003F43F00103143242E800310029FB
:103A5000F3D1226802F1140353E8003F43F040031E
:103A6000143242E800310029F3D1002003B030BD08
:103A70003F390008213900084B35000808B590F897
:103A80004230DBB2202B08D149B10AB9012008BD70
:103A900000230363FFF7A0FFF9E70220F7E7012007
:103AA000F5E7842801D0033070470020704708B53F
:103AB00000F064FD002008BD2DE9F04387B00E46FC
:103AC0004469C4B18569B5B14768D0F80080D0F8C1
:103AD0001090B0F90800FFF7E4FF02950194009000
:103AE00033464A464146384600F0D8FC05900598D2
:103AF00007B0BDE8F083446805680769B0F90800BD
:103B0000FFF7CFFF05AB019300903346BAB22946C9
:103B1000204600F000FD0128E9D00020E8E708B5C4
:103B200000B9012000F082FE002008BD00F108036A
:103B300043604FF0FF328260C36003610023036083
:103B4000704700230361704743684B609A688A603E
:103B5000516099600861036801330360704730B4B5
:103B60000D68B5F1FF3F11D000F108031C465B68FA
:103B70001A68AA42FAD963684B6099608C606160E8
:103B8000086103680133036030BC70470469F2E7E1
:103B90000369416882688A60416851605A6882425C
:103BA00006D0002202611A68013A1A60186870474C
:103BB00082685A60F5E7000082B0002301930D4B44
:103BC0001B68B3F1FF3F08D04FF0500383F3118817
:103BD000BFF36F8FBFF34F8FFEE74FF0500383F3B8
:103BE0001188BFF36F8FBFF34F8F019B002BFCD069
:103BF00002B070473C00002008480068006880F36D
:103C000008884FF0000080F3148862B661B6BFF3F5
:103C10004F8FBFF36F8F00DF00BF000008ED00E0A3
:103C2000DFF80C00016841F470010160704700008A
:103C300088ED00E04FF0807340F8043C21F0010172
:103C400040F8081C054B40F80C3C40F8202C6FF065
:103C5000020340F8243C4438704700BFB93B0008D9
:103C6000074B19680868B0E8F04F80F30988BFF384
:103C70006F8F4FF0000080F311887047AFF3008022
:103C8000989600204FF0500383F31188BFF36F8F95
:103C9000BFF34F8F0B4A136801331360012B00D021
:103CA00070474FF0E023D3F8043D13F0FF0FF7D037
:103CB0004FF0500383F31188BFF36F8FBFF34F8F23
:103CC000FEE700BF3C000020094B1B6843B94FF0E2
:103CD000500383F31188BFF36F8FBFF34F8FFEE75D
:103CE000013B034A13600BB983F31188704700BF8F
:103CF0003C00002000000000000000000000000068
:103D0000EFF30980BFF36F8F154B1A681EF0100F89
:103D100008BF20ED108A20E9F04F10602DE909005E
:103D20004FF0500080F31188BFF34F8FBFF36F8FB8
:103D300000F0A2FD4FF0000080F3118809BC196863
:103D40000868B0E8F04F1EF0100F08BFB0EC108A02
:103D500080F30988BFF36F8F704700BFAFF3008017
:103D60009896002008B54FF0500383F31188BFF3F5
:103D70006F8FBFF34F8F00F051FC28B14FF0E0235D
:103D80004FF08052C3F8042D002383F3118808BD3F
:103D90004FF0E022002313619361054B1B68054936
:103DA000A1FB03139B09013B536107231361704778
:103DB00030000020D34D62104FF0E023D3F8002DE7
:103DC0003D4B9A421CD04FF0E023D3F8002D3B4BE3
:103DD0009A421ED030B583B0394B1A78D2B20192D4
:103DE000FF221A701B78DBB28DF803309DF8033088
:103DF00003F05003334A1370334B07221A601BE061
:103E00004FF0500383F31188BFF36F8FBFF34F8FD1
:103E1000FEE74FF0500383F31188BFF36F8FBFF3BA
:103E20004F8FFEE7284A1368013B13609DF803306B
:103E30005B00DBB28DF803309DF8033013F0800F88
:103E4000F0D1214B1B68032B08D04FF0500383F3B4
:103E50001188BFF36F8FBFF34F8FFEE71B021A4A23
:103E6000136003F4E0631360019BDBB2144A137028
:103E70004FF0E024D4F8203D43F47003C4F8203D13
:103E8000D4F8203D43F07043C4F8203DFFF780FF95
:103E900000250E4B1D60FFF7C3FED4F8343F43F0FE
:103EA0004043C4F8343FFFF7A7FE00F0E5FCFFF7FE
:103EB00083FE284603B030BD71C20F4170C20F416E
:103EC00000E400E04C590020485900203C0000204C
:103ED000124A12F0070F1ED0D11D21F00701C1F5C3
:103EE000705313440A460E48026000214160134497
:103EF000083B23F007030B48036059601960991AC7
:103F000051601360084B1960084B1960084B4FF063
:103F100000421A6070474FF47053E4E77059002074
:103F200068590020645900205C5900206059002025
:103F300050590020164B1A461B688342FBD3516828
:103F400002EB010C844509D0416800EB010C63458C
:103F500009D00360904219D0106070474068014456
:103F600051601046F0E710B40A4C2468A3420BD00D
:103F70005B681944416013681B680360904200D07D
:103F800010605DF8044B70470460F7E7704700BFAE
:103F9000685900206459002038B5044600F030FB11
:103FA000384B1B68B3B1384B1B681C4250D1002CF6
:103FB00050D004F1080214F0070F02D022F00702DB
:103FC0000832002A55D0314B1B68934253D33049F5
:103FD0000C6804E0FFF77CFFE5E721461C466368B8
:103FE000934202D22368002BF7D1264B1B68A342D1
:103FF00043D00D68083523680B6063689B1A102B4B
:1040000010D9A01810F0070F08D04FF0500383F319
:104010001188BFF36F8FBFF34F8FFEE7436062607D
:10402000FFF788FF626819490B689B1A0B601949F2
:1040300009688B4201D217490B60134B1B6813436D
:10404000636000232360144A13680133136002E0A5
:10405000002500E0002500F06DFB15F0070F0ED0E5
:104060004FF0500383F31188BFF36F8FBFF34F8F6F
:10407000FEE70025EFE70025EDE70025EBE7284602
:1040800038BD00BF645900205059002060590020FD
:10409000685900205C59002058590020002834D06D
:1040A00038B50446A0F1080550F8043C174A1268D8
:1040B000134208D14FF0500383F31188BFF36F8F81
:1040C000BFF34F8FFEE750F8081C41B14FF050038B
:1040D00083F31188BFF36F8FBFF34F8FFEE723EA9F
:1040E000020340F8043C00F08BFA54F8041C084A20
:1040F00013680B4413602846FFF71CFF054A13683A
:104100000133136000F016FB38BD70475059002092
:104110006059002054590020084B1B681B6823B9C4
:10412000074B4FF0FF321A607047044B1B68DB6887
:10413000DB685A68024B1A60704700BFE0950020A8
:10414000789500202DE9F04707469846089DDDF850
:1041500024900A9C266B02F18042013A06EB82060B
:1041600026F00706002964D008464FF0000CBCF189
:104170000F0F09D810F80C2004EB0C0383F834203F
:1041800012B10CF1010CF2E7002384F84330062D44
:1041900000D90625E56265644FF0000AC4F848A01E
:1041A000201DFFF7CEFC04F11800FFF7CAFC2461C4
:1041B000C5F10705A5616462C4F890A184F894A1D3
:1041C0004FF4A072514604F1500005F091FF1B4BD3
:1041D000636503F16802A265D033E3650122002321
:1041E000C4E93A2343F20E33A4F8F0304AF6CD3353
:1041F000A4F8F23041F23423A4F8F4304EF26D63A7
:10420000A4F8F6304DF6EC63A4F8F8300523A4F8D2
:10421000FA300B23A4F8FC30424639463046FFF70B
:1042200009FD2060B9F1000F01D0C9F80040BDE8D8
:10423000F087002384F83430A9E700BFF49600200B
:1042400038B5002407E004EB840293000E481844BC
:10425000FFF76CFC0134062CF5D90C4D2846FFF70E
:1042600065FC0B4C2046FFF761FC0A48FFF75EFC3B
:104270000948FFF75BFC0948FFF758FC084B1D6035
:10428000084B1C6038BD00BF0C960020F89500203C
:10429000E4950020C8950020B49500209C9500204E
:1042A000E0950020DC95002010B50446FFF7EAFCFD
:1042B000214A136801331360204B1B685BB1204B0C
:1042C0001B686BB91D4B1B68DA6AE36A9A4207D810
:1042D0001A4B1C6004E0194B1C601368012B28D09A
:1042E000184A136801331360E06A01238340164AB9
:1042F00011680B43136000EB8000211D134B03EB8F
:104300008000FFF721FCFFF7DFFC0D4B1B687BB142
:104310000A4B1B68DA6AE36A9A4209D24FF0E0233B
:104320004FF08052C3F8042DBFF34F8FBFF36F8F50
:1043300010BDFFF785FFD3E79895002098960020E1
:104340008C9500207C950020909500200C960020F4
:1043500010B50446503005F02FFF94F8953163B145
:10436000012B11D0022B0ED04FF0500383F3118894
:10437000BFF36F8FBFF34F8FFEE7206BFFF78EFE0B
:104380002046FFF78BFE10BD2046FFF787FEFAE7B9
:104390000F4B1B68D3B110B5FFF774FC0D4BDB68F6
:1043A000DC68201DFFF7F4FB0B4A1368013B136028
:1043B000074A1368013B1360FFF786FC2046FFF7AE
:1043C000C7FF034B1B68002BE6D110BD704700BF31
:1043D000B0950020B49500209895002008B5FFF70F
:1043E000D7FF074B1B68012BF9D94FF0E0234FF0A3
:1043F0008052C3F8042DBFF34F8FBFF36F8FEEE7EA
:104400000C96002070B504460D461D4B1E681D4BD2
:1044100018680430FFF7BCFB48B91A4B1B68DB6A0D
:1044200001229A4018490B6823EA02030B60B4F199
:10443000FF3F0DD03444134B1B685C60A64210D97B
:10444000124B18680F4B19680431FFF788FB70BDD9
:10445000002DEFD00B4B196804310D48FFF774FBAA
:10446000F5E70C4B1868074B19680431FFF777FB29
:10447000094B1B68A342EAD9074B1C60E7E700BF62
:10448000949500209896002090950020DC950020BF
:104490009C950020E09500207895002030B587B0ED
:1044A0000B9C8CB10C9DC5B14FF4CC750495049D4B
:1044B000B5F5CC7F1AD04FF0500383F31188BFF3CA
:1044C0006F8FBFF34F8FFEE74FF0500383F31188D8
:1044D000BFF36F8FBFF34F8FFEE74FF0500383F3AF
:1044E0001188BFF36F8FBFF34F8FFEE7049D0C9DC4
:1044F0002C63022485F8954100240394029505ACB1
:1045000001940A9C0094FFF71DFE0C98FFF7CCFE67
:10451000059807B030BD2DE9F04385B007468846C1
:1045200014461E469000FFF737FD10B381464FF446
:10453000CC70FFF731FD0546A8B1C0F830900023DC
:1045400080F89531039302900D9B01930C9B00938F
:104550003346224641463846FFF7F4FD2846FFF72A
:10456000A3FE012007E04846FFF798FD4FF0FF301B
:1045700001E04FF0FF3005B0BDE8F08310B588B022
:1045800000240594069407AA06A905A8FDF700F8DB
:10459000059B0293069B019300942346079A1049BA
:1045A0001048FFF77BFF104B1860B8B14FF0500375
:1045B00083F31188BFF36F8FBFF34F8F0B4B1B68D3
:1045C00050330B4A13600B4B4FF0FF321A600A4B0B
:1045D00001221A60094B1C60FFF7EEFB08B010BD0A
:1045E000A4FF0008DD430008749500209896002081
:1045F0006C000020789500208C9500209495002078
:10460000024A136801331360704700BF70950020A1
:10461000014B1868704700BF94950020F8B53A4BDD
:104620001B68002B69D1394B1D6801351D60C5B968
:10463000374B1B681B6843B14FF0500383F311885D
:10464000BFF36F8FBFF34F8FFEE7314A1168314BD5
:10465000186810601960304A136801331360FFF75F
:104660005BFD2E4B1B68AB423DD900272C4B1B68D2
:10467000DB6A03EB83039A002A4B9B58012B00D97A
:104680000127294B1B68002B3CD001273AE001276A
:104690001F4B1B681B6843B31D4B1B68DB68DC6842
:1046A00063689D4226D3261D3046FFF771FAA36A40
:1046B0001BB104F11800FFF76BFAE36A01229A407C
:1046C0001A49086802430A6003EB83039A003146E3
:1046D00014481044FFF738FAE26A114B1B68DB6A92
:1046E0009A42D4D2D4E70027D2E70C4B4FF0FF32E6
:1046F0001A60BBE7094A1360B8E70D4A1368013333
:10470000136000273846F8BD70950020949500206E
:10471000E0950020DC950020809500207895002011
:10472000989600200C9600208495002090950020FB
:104730008895002038B5354B1B6843B94FF05003BE
:1047400083F31188BFF36F8FBFF34F8FFEE7FFF73F
:1047500099FA2E4B1A68013A1A601B68002B4FD148
:104760002B4B1B680BB900244BE00024294B1B6822
:104770001BB3284BDB68DC6804F11800FFF708FA6C
:10478000251D2846FFF704FAE06A01238340224AE8
:1047900011680B43136000EB800029461F4B03EBAD
:1047A0008000FFF7D1F9E26A1D4B1B68DB6A9A4271
:1047B000DCD31C4B01221A60D8E70CB1FFF7ACFC2C
:1047C000194B1C6884B9174B1C68D4B14FF0E02317
:1047D0004FF08052C3F8042DBFF34F8FBFF36F8F9C
:1047E00001240EE0013C07D0FFF718FF0028F9D0A4
:1047F0000C4B01221A60F5E70B4B00221A60E2E72E
:104800000024FFF761FA204638BD00BF70950020F4
:1048100098950020C8950020909500200C960020C7
:1048200098960020849500208895002010B5A8B1A6
:104830000446104B1B6843B14FF0500383F31188BB
:10484000BFF36F8FBFF34F8FFEE7FFF7D9FE002155
:104850002046FFF7D7FDFFF76DFF48B94FF0E02383
:104860004FF08052C3F8042DBFF34F8FBFF36F8F0B
:1048700010BD00BF70950020224B1B681BB1224B5E
:1048800001221A607047204B00221A601F4B1B68E0
:10489000B3FA83F3DBB2C3F11F0303EB83018A0096
:1048A0001B498A5842B94FF0500383F31188BFF374
:1048B0006F8FBFF34F8FFEE7154803EB83018A002C
:1048C000024451684968516003EB830C4FEA8C0243
:1048D0000832024491420DD003EB83039A000C4B43
:1048E00013445B68DA680B4B1A601B6850330A4A42
:1048F00013607047486862469100054A0A44506058
:10490000EAE700BF70950020849500209095002074
:104910000C960020989600206C00002078B1034689
:1049200081B1012A11D910B4541E144210D10020B3
:10493000186058609C60D9605DF8044B70474FF078
:10494000FF3070474FF0FF3070474FF0FF30704737
:104950004FF0FF30F0E702684068101A7047836834
:1049600042680168521A981801307047F8B5064637
:104970000F46856844680368E41A2C440134944265
:1049800000D3144605EA030025EA03050135A542D4
:1049900028BF2546F3682A4639461844FBF72AFC07
:1049A000621B7919F068FBF725FC336823443360F8
:1049B0002046F8BD10B4024603684468181B8842BC
:1049C00000D30846044454605DF8044B704710B4AB
:1049D00002684468121B836804EA030C23EA040398
:1049E0000133934228BF13462BB10B60C06860446B
:1049F0005DF8044B7047D21A0A60C068F8E708B542
:104A0000FFF7D8FF08BD00000846034B0B600023EA
:104A10004B608B60CB607047254A00087047704739
:104A2000704700002DE9F04184B006460C46174659
:104A300098468D88EDB291F801C0ACF1200CBCF124
:104A4000030F58D8DFE80CF002322352CA883968C5
:104A500002A8FBF7CFFB9DF80D209DF80C102C4B06
:104A600053F8213001932B4B53F8223000939DF8DB
:104A70000E30029A2946284805F088FA02AA2946EB
:104A80003046FCF73DFC002004B0BDE8F0814A88C8
:104A9000C2F3400402F001022946FFF7BFFF22469D
:104AA00029463046FFF7BBFF0020EDE79DF80D30AB
:104AB0009DF80E20019200939DF80C30029A294631
:104AC000164805F063FA02AA29463046FCF738FC7E
:104AD0003B6802981860BDF80C109DF80E20998074
:104AE0009A710723C8F800300020CDE72946FFF768
:104AF00097FF0020C8E70A4805F048FA617809489E
:104B000005F044FA084805F041FA4FF0FF30BBE7E2
:104B10005400002040000020ACFF0008D4FF000833
:104B2000FCFF00080C00010834000108054B4FF49D
:104B3000357202FB003393F82802003818BF0120B9
:104B4000704700BF802F002070B50C7804F003047C
:104B5000012C26D0022C29D14FF0000E2DE001347B
:104B6000E4B2244D4FF4357C0CFB005C9CF86C5295
:104B7000A54218D94FF0B50C0CFB004C0CF18A0C77
:104B80001C4D05EB8C056D68002DE8D02E68002EBD
:104B9000E5D095F818C08D88EDB2AC45DFD1B047AF
:104BA00027E00024DDE74FF0FF3022E04FF0FF3038
:104BB0001FE00EF1010E5FFA8EFE0E4C4FF43575BC
:104BC00005FB004C9CF86C42744510D94FF0B50CB5
:104BD0000CFB00EC0CF18A0C064C04EB8C046468B2
:104BE000002CE6D06468002CE3D0A04701E04FF031
:104BF000FF3070BD802F00202DE9F04105460F46A3
:104C00001646002408E02BB1DB681BB1324639465A
:104C1000284698470134E4B2124B4FF4357202FB38
:104C2000053393F86C32A34219D9B52303FB05432E
:104C30008A330C4A02EB83035B68002EE3D0002B1F
:104C4000E8D0D3F80C80B8F1000FE3D0B2781B7E27
:104C50009A42DFD1324639462846C047DAE7BDE8F6
:104C6000F08100BF802F002010B58B7891F90220D1
:104C7000002A25DBB1F804C003F07F03CCF30A0C53
:104C8000204C03EB43034FF4357200FB02F202EBBE
:104C900083032344A3F8A2C2B1F804C08B7803F0C5
:104CA0007F03CCF3C12C03EB430302EB83021444D8
:104CB00084F8A1C201F01CF9B0FA80F0400910BDDF
:104CC000B1F804C003F07F03CCF30A0C0D4C03EBE6
:104CD00043034FF4357200FB02F202EB83032344DB
:104CE000A3F872C2B1F804C08B7803F07F03CCF351
:104CF000C12C03EB430302EB8302144484F871C21A
:104D0000D8E700BF802F00202DE9F84F8246884663
:104D10009346194B4FF4357202FB00339C69002512
:104D20002E462846FF27B94608E094F803902378DA
:104D30001C4423781D44AE4200D8DEB92378CBB1A1
:104D40006378042BF1D0052B0BD0022BEFD16779C0
:104D5000B845ECD1A678E37846EA03260025012081
:104D6000E5E74745E3D1D945E1D121465046FFF774
:104D70007BFFDCE7BDE8F88F802F002070B50C0AC0
:104D8000CDB2032C0CD00F2C1FD0032C5DD8304992
:104D90004FF4357606FB001189694FF0000E27E0CD
:104DA000EE2DF0D12A494FF4357404FB0011C96986
:104DB000002946D009681160254A04FB0022D26907
:104DC000126812781A6001262DE021494FF43574DB
:104DD00004FB0011496A002935D0096811601C4A9A
:104DE00004FB0022526A52681A6001261BE001444B
:104DF000087840B191F801C0A445F8D175450AD0B2
:104E00000EF1010EF3E700267EB1022C05D0072C2F
:104E100003D0186006E00126F6E78878CC7840EAEF
:104E2000042018601160304670BD0A4805F0AEF8E5
:104E30002A462146084805F0A9F8084805F0A6F8D2
:104E4000F1E70026EFE70026EDE70026EBE700BFDD
:104E5000802F002058000108680001083400010874
:104E60002DE9F04106461D464F8891F801C0BCF17E
:104E7000090F61D8DFE80CF0050E600E602B326080
:104E80003844116800230B701268537002232B60A2
:104E9000012452E0012F03D000232B6001244CE0B9
:104EA000BCF1030F09D0264B4FF4357202FB0033DF
:104EB000D3F8D0320A219847EEE7214B4FF43572F0
:104EC00002FB0033D3F8D03209219847E4E7F9B266
:104ED00000F0F8FF00232B6001242EE02B4639461A
:104EE000FFF74CFF044628E04FF4357300FB03F353
:104EF00003F50A7312490B44136001242C601CE073
:104F0000FFB200223946FFF7FFFE044610B9002326
:104F10002B6012E00A4B4FF4357202FB063888F81A
:104F20002872002207213046FFF766FED8F8D032FB
:104F3000072130469847EAE700242046BDE8F08183
:104F4000802F002010B582B00446094805F01EF8F5
:104F5000A388E288019200936388627821780548EB
:104F600005F014F8044805F011F802B010BD00BFB8
:104F70009C000108AC000108340001082DE9F84349
:104F800005460E4617469846544B4FF4357202FBC1
:104F90000033DB69002B4AD049781A79914201D05D
:104FA000002470E0B288042A0DD0052A22D04C4893
:104FB00004F0ECFF4B4805F04BF84B4804F0E6FFDB
:104FC0004FF0FF3386E09B683B60444B4FF43572F3
:104FD00002FB0033DB699A681378517803EB0123F5
:104FE000917803EB0143D27803EB0263C8F80030F9
:104FF00000236FE0DB68728853F822303B60374B48
:105000004FF4357202FB0033DB69DB68728853F8BA
:1050100022201378517803EB0123917803EB0143AD
:10502000D27803EB0263C8F80030002352E02B4B28
:105030004FF4357202FB00331B6A002B46D04978CF
:105040009A79914201D000241DE0B288072A0CD140
:105050001B683B60214B4FF4357202FB00331B6A27
:105060009B88C8F80030002334E01D4804F08EFF10
:105070001C4804F0EDFF1C4804F088FF4FF0FF339C
:1050800028E00134E4B2154B4FF4357202FB0533CE
:1050900093F86C32A3421BD94FF0B50C0CFB054CB6
:1050A0000CF18A0C0D4B03EB8C035B68002BE8D0F2
:1050B000D3F80890B9F1000FE3D043463A463146A1
:1050C0002846C84703460028DBD103E00024DAE77E
:1050D0004FF0FF331846BDE8F88300BF802F002053
:1050E000580001080C0101083400010808B5944675
:1050F0001A494FF4357303FB00118A6862448A60D1
:10510000CB68A3EB0C03CB60D3B9144B4FF43572CF
:1051100002FB00331B7DBBB9104B4FF4357202FB11
:105120000033DB887BB1134600FB03F30B4AD356F5
:10513000002B08DA00231A46194601F07FF902E035
:10514000802101F0ABF808BD044B02FB00330022C4
:105150001A751346802101F0A1F8F4E7802F002092
:1051600008B5897800F072FFB0FA80F0400908BDF8
:105170002DE9F04F83B0814688469346224B4FF489
:10518000357202FB00339C6900252E460095FF27EF
:10519000BA4601950BE094F803A0A778B84515D05E
:1051A00023781C4423781D44AE4200D816BB2378D4
:1051B00003B36378042BEED0052B0BD0022BEFD179
:1051C000A678E37846EA03260025E9E7D345E7D148
:1051D0000194E5E74745E3D1DA4505D02146484645
:1051E000FFF7BEFF0090DBE721464846FFF73CFD96
:1051F0000090D5E7019A08214846FFF7FDFC00988A
:1052000003B0BDE8F08F00BF802F00202DE9F84FDC
:1052100005460C4690461F46B1F802A08E88FFF75F
:1052200085FC8146002852D04FEA1A2BF6B26378EB
:105230000B2B4AD8DFE803F0064949494949104990
:1052400049493940D8F8002000231370D8F80020CD
:10525000537002233B603AE0BBF1220F20D04FF0A5
:10526000000934E00132D2B21A4B4FF4357101FB20
:10527000053393F86C32934214D9B52303FB05230D
:105280008A33144901EB83035B68002BEAD0197E53
:10529000B142E7D11A69C8F800205B693B6016E0AB
:1052A0000022E1E74FF0000911E0D8F800300022B9
:1052B0001A7001233B600AE05FFA8AF23146284601
:1052C000FFF756FF00233B6001E04FF0000948461E
:1052D000BDE8F88F802F00202DE9F84380460C466A
:1052E00016461D468988CFB2FFF720FC814658B18B
:1052F0006378012B0BD0032B1ED09BBB326813703D
:105300003268537002232B604846BDE8F8836388F7
:105310001BB100232B609946F6E7144804F036FED3
:105320003946134804F032FE124804F02FFE394685
:10533000404600F06DFFE7E7638823B14FF00009B6
:1053400000232B60E0E7094804F020FE39460A48B4
:1053500004F01CFE074804F019FE3946404600F0F0
:105360001BFFEDE74FF00009CEE700BF5800010832
:1053700024010108340001083C01010810B50C7833
:1053800004F00304012C07D0022C0AD074B9FFF7F3
:1053900067FD70B100200BE0FFF738FF60B100201F
:1053A00006E0FFF799FF50B1002001E04FF0FF3019
:1053B00010BD4FF0FF30FBE74FF0FF30F8E74FF044
:1053C000FF30F5E738B50D460C7804F06004202C6A
:1053D0001ED0402C30D0002C42D1FFF7CFFF002848
:1053E00001DB01203DE06B78062B03D16B88B3F520
:1053F000C06F37D01C4804F0C9FD1C4804F028FEDB
:105400001B4804F0C3FD2846FFF79CFD002028E060
:10541000FFF79AFB002801DB012022E0124804F08C
:10542000B5FD144804F014FE114804F0AFFD284601
:10543000FFF788FD002014E0FFF7A0FD002801DB46
:1054400001200EE0084804F0A1FD0B4804F000FE26
:10545000074804F09BFD2846FFF774FD002000E09C
:10546000002038BD0020FCE7580001085001010869
:105470003400010868010108800101084FF4357308
:10548000194903FB00116AB310B5044694468A68B3
:1054900062448A60CB68A3EB0C03CB60EBB94FF49A
:1054A000357004FB00F000F128030F4A13448B60B1
:1054B00000F110030830134402442046FFF782FF36
:1054C00030B100231A468021204600F0E7FE08E0B4
:1054D0008021204600F060FE03E00021204600F01D
:1054E000ADFF10BD704700BF802F002070B582B0A7
:1054F0000446002100F0E6FC164E4FF4357303FB22
:105500000466002586F8285207238DF8003005230D
:105510008DF801304023ADF804308DF8035080231E
:105520008DF802308DF806506946204600F0E0FC08
:105530008DF802506946204600F0DAFC2A46012127
:105540002046FFF759FBD6F8D03201212046984774
:1055500002B070BD802F002030B583B004460A46EB
:105560004FF4357300FB03F343481918156852686C
:10557000C5504A60CB88B3F5007F06D94FF4357229
:1055800004FB02F28256002A4FDA4FF4357C0CFB02
:1055900004FC0CF128023848024460448260C36075
:1055A000036100250575019223B1334D15F90C00F7
:1055B000002848DA4FF4357304FB03F310332E4A06
:1055C000134401AA2046FFF7FDFE002841D02A4BD4
:1055D0004FF4357202FB0433DA8819698A4228BF16
:1055E0000A46DA60B2F5007F38D8234B4FF43571A4
:1055F00001FB043398680199884201D0FAF7FAFD5B
:105600001D4D4FF4357303FB0455EB68AA688021E8
:10561000204600F043FEEA882B699A4217D913F01E
:105620003F0F14D101222A7511E0144804F0AEFC9A
:10563000134804F00DFD134804F0A8FC8021204617
:1056400000F0AAFD03E00021204600F0F7FE03B0C1
:1056500030BD8021204600F09FFDF8E7074804F0A8
:1056600095FC074804F0F4FC064804F08FFC802108
:10567000204600F091FDEAE7802F00205800010845
:10568000980101083400010810B501F07F0303EB15
:10569000430C4FF4357300FB03F303EB8C03034C13
:1056A0002344D3F8783203B1984710BD802F0020EF
:1056B00010B501F07F0303EB430C4FF4357300FB8F
:1056C00003F303EB8C03034C2344D3F8A83203B158
:1056D000984710BD802F002038B50D464FF4357225
:1056E0000B4C02FB00440021204604F001FDA561A3
:1056F000002384F86C32802284F87022054AC4F8B2
:10570000782284F8A032044BC4F8A83238BD00BF18
:10571000802F0020ED5000087D540008034B4FF40B
:10572000357202FB00331962704700BF802F0020E2
:10573000034B4FF4357202FB00335962704700BFD0
:10574000802F002010B40B4C4FF4357202FB004246
:1057500092F86C320B764FF0B50C0CFB00308A30AF
:1057600004EB80046160013382F86C325DF8044B15
:10577000704700BF802F002010B591F800C091F94C
:105780000030002B16DB0CF07F03164C03EB4302BA
:105790004FF4357E0EFB00F000EB8202224482F8CB
:1057A000A0C24A6803EB430300EB83000444C4F83F
:1057B000A82210BD0CF07F030A4C03EB43024FF408
:1057C000357E0EFB00F000EB8202224482F870C2AC
:1057D0004A6803EB430300EB83000444C4F87822D7
:1057E000E7E700BF802F002070B548B1124804F0F1
:1057F000CDFB124804F02CFC114804F0C7FBFEE777
:105800000446104B03EBC00359600F4D4FF4357342
:1058100003FB0055C5F8D02200F00CFA0646002222
:105820000B212046FFF7E8F9D5F8D0320B212046AE
:105830009847304670BD00BF58000108B401010808
:10584000340001089C960020802F002082B00023A5
:105850000193019B01330193104A934216D8104BD8
:105860005B681A69002AF4DA002201921A6942F090
:1058700001021A61019A0132019208498A4209D84B
:105880001A6912F0010FF5D1002001E04FF0FF304E
:1058900002B070474FF0FF30FAE700BF400D030041
:1058A0009C96002008B5044B5A68D36843F0400327
:1058B000D360FFF7CBFF08BD9C96002082B0002389
:1058C00001930A4B596810230B61019B013301932B
:1058D000074A934205D80B6913F0100FF5D1002049
:1058E00001E04FF0FF3002B0704700BF9C960020EF
:1058F000400D030082B00023019380010A4B5968D8
:1059000040F020000861019B01330193074A934254
:1059100005D80B6913F0200FF5D1002001E04FF0FE
:10592000FF3002B0704700BF9C960020400D03007E
:1059300003290FD009212B4B5B68DA6842F007027C
:10594000DA60DA6822F47052DA60DA6842EA8122B8
:10595000DA607047244B0344244A93422FD9244BE6
:105960000344244A93422CD9A0F57403A3F51053A1
:10597000214A934227D9A0F18373A3F5E7431F4A35
:10598000934222D31E4B03441E4A93421FD91E4BFF
:1059900003441E4A93421CD31D4B03441D4A9342A9
:1059A00019D3A0F1B773A3F558531B4A934214D3EC
:1059B0001A4B03441A4A934211D20721BBE70F2125
:1059C000B9E70E21B7E70D21B5E70C21B3E70B21AD
:1059D000B1E70A21AFE70921ADE70821ABE70621CE
:1059E000A9E700BF9C960020405327FFFF340C001E
:1059F000401E1BFF3F420F007F4F120020D61300B6
:105A000060B6E5FE5FE3160000D3CEFE40771B00D4
:105A1000C05BB3FEC091210020753800E05459FEF0
:105A2000E09C4100094B5B6803F500639B6803F051
:105A30000603022B04D0062B04D02BB9002070479C
:105A400003207047032070470F2070479C9600206A
:105A50000B4B5B680022C3F8102BD3F8102B42F4D9
:105A60000022C3F8102BD3F8102B42F01802C3F811
:105A7000102BD3F8102B42F0C042C3F8102B704704
:105A80009C960020094B5A68D2F81018D2F8343886
:105A900000F0070C23FA0CF3DB01DBB20B4302EB43
:105AA0004012D2F808091840704700BF9C960020A9
:105AB00070B50E46164B5A68546A054678B944EAE2
:105AC00001439362134804F061FA234632462946A3
:105AD000114804F05BFA114804F058FA70BD936A5B
:105AE00004EB1344002308E003F1400002EB8000C4
:105AF000416804EB11440133DBB2681E8342F3D3E7
:105B000044EA064305F13F0002EB80025360D9E707
