:020000040800F2
:100000000000022055340008613200086332000805
:1000100065320008673200086932000800000000FD
:100020000000000000000000000000006B3200082B
:100030006D320008000000006F32000871320008C5
:10004000A5340008A5340008A5340008A53400082C
:10005000A5340008A5340008A5340008A53400081C
:10006000A5340008A5340008A5340008A53400080C
:10007000A5340008A5340008A5340008A5340008FC
:10008000A5340008A5340008A5340008A5340008EC
:10009000A5340008A5340008A5340008A5340008DC
:1000A000A5340008A5340008A5340008A5340008CC
:1000B000A5340008A5340008A5340008A5340008BC
:1000C000A5340008A5340008A5340008A5340008AC
:1000D000A534000879320008A5340008A5340008CA
:1000E000A5340008A5340008A5340008A53400088C
:1000F000A5340008A5340008A5340008A53400087C
:10010000A5340008A5340008A5340008A53400086B
:10011000A5340008A5340008A5340008A53400085B
:10012000A5340008A5340008A5340008A53400084B
:10013000A5340008A5340008A5340008A53400083B
:10014000A5340008A5340008A53400088932000849
:10015000A5340008A5340008A5340008A53400081B
:10016000A5340008A5340008A5340008A53400080B
:10017000A5340008A5340008A534000800000000DC
:08018000A5340008A5340008B5
:1001C00053B94AB9002908BF00281CBF4FF0FF31BE
:1001D0004FF0FF3000F00CB8ADF1080C6DE904CE23
:1001E00004F07AFADDF804E0DDE9022304B0704798
:1001F000704700BF844641EA000313F003036DD14A
:10020000403A41D351F8043B40F8043B51F8043BD9
:1002100040F8043B51F8043B40F8043B51F8043BE0
:1002200040F8043B51F8043B40F8043B51F8043BD0
:1002300040F8043B51F8043B40F8043B51F8043BC0
:1002400040F8043B51F8043B40F8043B51F8043BB0
:1002500040F8043B51F8043B40F8043B51F8043BA0
:1002600040F8043B51F8043B40F8043B51F8043B90
:1002700040F8043B51F8043B40F8043B51F8043B80
:1002800040F8043B403ABDD2303211D351F8043B20
:1002900040F8043B51F8043B40F8043B51F8043B60
:1002A00040F8043B51F8043B40F8043B103AEDD2CF
:1002B0000C3205D351F8043B40F8043B043AF9D220
:1002C000043208D0D2071CBF11F8013B00F8013BF3
:1002D00001D30B8803806046704700BF082A13D300
:1002E0008B078DD010F003038AD0C3F10403D21A18
:1002F000DB071CBF11F8013B00F8013B80D331F84C
:10030000023B20F8023B7BE7043AD9D3013A11F8CB
:10031000013B00F8013BF9D20B7803704B78437036
:100320008B7883706046704700000000000000007A
:1003300000000000000000000000000000000000BD
:1003400030B490F800F020F007016FF0000C10F0CE
:10035000070491F820F040F048804FF000046FF05F
:100360000700D1E9002391F840F000F1080082FA7B
:100370004CF2A4FA8CF283FA4CF3A2FA8CF34BBB46
:10038000D1E9022382FA4CF200F10800A4FA8CF2BF
:1003900083FA4CF3A2FA8CF3E3B9D1E9042382FA8D
:1003A0004CF200F10800A4FA8CF283FA4CF3A2FAA2
:1003B0008CF37BB9D1E9062301F1200182FA4CF2DA
:1003C00000F10800A4FA8CF283FA4CF3A2FA8CF341
:1003D000002BC6D0002A04BF04301A4612BAB2FA63
:1003E00082F200EBD20030BC7047D1E9002304F068
:1003F0000305C4F100004FEAC50514F0040F91F89D
:1004000040F00CFA05F562EA05021CBF63EA050339
:1004100062464FF00004AAE7000000000000000060
:1004200001F0FF01102A2BDB10F0070F08D010F8A5
:10043000013B013A8B422DD010F0070F42B3F6D1A9
:10044000F0B441EA012141EA014122F007047FF0C2
:1004500000070023F0E80256083C85EA010586EA19
:10046000010685FA47F5A3FA87F586FA47F6A5FA55
:1004700087F68EB9EED1F0BC01F0FF0102F0070261
:1004800032B110F8013B013A83EA010313B1F8D10C
:100490000020704701387047002D06BF35460338ED
:1004A000073815F0010F07D1013015F4807F02BF26
:1004B000013015F4C03F0130F0BC0138704700BF77
:1004C00081F0004102E000BF83F0004330B54FEA05
:1004D00041044FEA430594EA050F08BF90EA020F72
:1004E0001FBF54EA000C55EA020C7FEA645C7FEA05
:1004F000655C00F0E2804FEA5454D4EB5555B8BF28
:100500006D420CDD2C4480EA020281EA030382EA98
:10051000000083EA010180EA020281EA0303362D2A
:1005200088BF30BD11F0004F4FEA01314FF4801CFD
:100530004CEA113102D0404261EB410113F0004F0F
:100540004FEA03334CEA133302D0524263EB4303C6
:1005500094EA050F00F0A780A4F10104D5F1200E64
:100560000DDB02FA0EFC22FA05F2801841F10001BF
:1005700003FA0EF2801843FA05F359410EE0A5F193
:1005800020050EF1200E012A03FA0EFC28BF4CF0C4
:10059000020C43FA05F3C01851EBE37101F000457A
:1005A00007D54FF0000EDCF1000C7EEB00006EEB87
:1005B0000101B1F5801F1BD3B1F5001F0CD3490811
:1005C0005FEA30004FEA3C0C04F101044FEA445268
:1005D00012F5800F80F09A80BCF1004F08BF5FEAEF
:1005E000500C50F1000041EB045141EA050130BDCF
:1005F0005FEA4C0C404141EB0101013C28BFB1F5E1
:10060000801FE9D291F0000F04BF01460020B1FA2B
:1006100081F308BF2033A3F10B03B3F120020CDAFE
:100620000C3208DD02F1140CC2F10C0201FA0CF0DC
:1006300021FA02F10CE002F11402D8BFC2F1200C41
:1006400001FA02F120FA0CFCDCBF41EA0C019040F7
:10065000E41AA2BF01EB0451294330BD6FEA040440
:100660001F3C1CDA0C340EDC04F11404C4F120022B
:1006700020FA04F001FA02F340EA030021FA04F33D
:1006800045EA030130BDC4F10C04C4F1200220FA94
:1006900002F001FA04F340EA0300294630BD21FAD2
:1006A00004F0294630BD94F0000F83F4801306BF98
:1006B00081F480110134013D4EE77FEA645C18BF8C
:1006C0007FEA655C29D094EA050F08BF90EA020F23
:1006D00005D054EA000C04BF1946104630BD91EA1B
:1006E000030F1EBF0021002030BD5FEA545C05D11E
:1006F0004000494128BF41F0004130BD14F580045D
:100700003CBF01F5801130BD01F0004545F0FE41D0
:1007100041F470014FF0000030BD7FEA645C1ABF05
:10072000194610467FEA655C1CBF0B46024650EA3C
:10073000013406BF52EA033591EA030F41F4002168
:1007400030BD00BF90F0000F04BF0021704730B5EE
:100750004FF4806404F132044FF000054FF00001C3
:1007600050E700BF90F0000F04BF0021704730B584
:100770004FF4806404F1320410F0004548BF404259
:100780004FF000013EE700BF42004FEAE2014FEAAE
:1007900031014FEA02701FBF12F07F4393F07F4F89
:1007A00081F06051704732F07F4208BF704793F08C
:1007B0007F4F04BF41F40021704730B54FF460749F
:1007C00001F0004521F000411CE700BF50EA0102A2
:1007D00008BF704730B54FF000050AE050EA01024B
:1007E00008BF704730B511F0004502D5404261EBBB
:1007F00041014FF4806404F132045FEA915C3FF4FC
:10080000D8AE4FF003025FEADC0C18BF03325FEA98
:10081000DC0C18BF033202EBDC02C2F1200300FA49
:1008200003FC20FA02F001FA03FE40EA0E0021FA6E
:1008300002F11444BDE600BF70B54FF0FF0C4CF45C
:10084000E06C1CEA11541DBF1CEA135594EA0C0F0E
:1008500095EA0C0F00F0DEF82C4481EA030621EA49
:100860004C5123EA4C5350EA013518BF52EA033584
:1008700041F4801143F4801338D0A0FB02CE4FF036
:100880000005E1FB02E506F00042E0FB03E54FF066
:100890000006E1FB03569CF0000F18BF4EF0010E5E
:1008A000A4F1FF04B6F5007F64F5407404D25FEA5A
:1008B0004E0E6D4146EB060642EAC62141EA55510D
:1008C0004FEAC52040EA5E504FEACE2EB4F1FD0C4F
:1008D00088BFBCF5E06F1ED8BEF1004F08BF5FEACD
:1008E000500E50F1000041EB045170BD06F000467F
:1008F00046EA010140EA020081EA0301B4EB5C042C
:10090000C2BFD4EB0C0541EA045170BD41F4801123
:100910004FF0000E013C00F3AB8014F1360FDEBF48
:10092000002001F0004170BDC4F10004203C35DA24
:100930000C341BDC04F11404C4F1200500FA05F3A7
:1009400020FA04F001FA05F240EA020001F0004248
:1009500021F0004110EBD37021FA04F642EB0601BE
:100960005EEA430E08BF20EAD37070BDC4F10C04E8
:10097000C4F1200500FA04F320FA05F001FA04F2AC
:1009800040EA020001F0004110EBD37041F1000198
:100990005EEA430E08BF20EAD37070BDC4F12005A3
:1009A00000FA05F24EEA020E20FA04F301FA05F20B
:1009B00043EA020321FA04F001F0004121FA04F2B3
:1009C00020EA020000EBD3705EEA430E08BF20EA83
:1009D000D37070BD94F0000F0FD101F000464000BD
:1009E00041EB010111F4801F08BF013CF7D041EA3F
:1009F000060195F0000F18BF704703F00046520043
:100A000043EB030313F4801F08BF013DF7D043EA13
:100A10000603704794EA0C0F0CEA135518BF95EAC9
:100A20000C0F0CD050EA410618BF52EA4306D1D150
:100A300081EA030101F000414FF0000070BD50EA6F
:100A4000410606BF1046194652EA430619D094EAF9
:100A50000C0F02D150EA013613D195EA0C0F05D1E3
:100A600052EA03361CBF104619460AD181EA030137
:100A700001F0004141F0FE4141F470014FF00000EF
:100A800070BD41F0FE4141F4780170BD70B54FF08A
:100A9000FF0C4CF4E06C1CEA11541DBF1CEA13550A
:100AA00094EA0C0F95EA0C0F00F0A7F8A4EB0504EC
:100AB00081EA030E52EA03354FEA013100F08880E3
:100AC0004FEA03334FF0805545EA131343EA1263AC
:100AD0004FEA022245EA111545EA10654FEA002661
:100AE0000EF000419D4208BF964244F1FD0404F51A
:100AF000407402D25B084FEA3202B61A65EB030576
:100B00005B084FEA32024FF480104FF4002CB6EB32
:100B1000020E75EB030E22BFB61A754640EA0C00B2
:100B20005B084FEA3202B6EB020E75EB030E22BFF2
:100B3000B61A754640EA5C005B084FEA3202B6EB33
:100B4000020E75EB030E22BFB61A754640EA9C00F2
:100B50005B084FEA3202B6EB020E75EB030E22BFC2
:100B6000B61A754640EADC0055EA060E18D04FEA80
:100B7000051545EA16754FEA06164FEAC30343EA20
:100B800052734FEAC2025FEA1C1CC0D111F4801FED
:100B90000BD141EA00014FF000004FF0004CB6E7E6
:100BA00011F4801F04BF01430020B4F1FD0C88BF85
:100BB000BCF5E06F3FF6AFAEB5EB030C04BFB6EB90
:100BC000020C5FEA500C50F1000041EB045170BD83
:100BD0000EF0004E4EEA113114EB5C04C2BFD4EBB0
:100BE0000C0541EA045170BD41F480114FF0000E34
:100BF000013C90E645EA060E8DE60CEA135594EAB0
:100C00000C0F08BF95EA0C0F3FF43BAF94EA0C0FB2
:100C10000AD150EA01347FF434AF95EA0C0F7FF427
:100C200025AF104619462CE795EA0C0F06D152EA7B
:100C300003353FF4FDAE1046194622E750EA41065F
:100C400018BF52EA43067FF4C5AE50EA41047FF470
:100C50000DAF52EA43057FF4EBAE12E74FF0FF3CD5
:100C600006E000BF4FF0010C02E000BF4FF0010CA6
:100C70004DF804CD4FEA410C7FEA6C5C4FEA430C1F
:100C800018BF7FEA6C5C1BD001B050EA410C0CBF6E
:100C900052EA430C91EA030F02BF90EA020F0020D0
:100CA000704710F1000F91EA030F58BF994208BF37
:100CB00090422CBFD8176FEAE37040F001007047F4
:100CC0004FEA410C7FEA6C5C02D150EA013C07D14B
:100CD0004FEA430C7FEA6C5CD6D152EA033CD3D096
:100CE0005DF8040B704700BF8446104662468C4690
:100CF0001946634600E000BF01B5FFF7B7FF0028C3
:100D000048BF10F1000F01BD4DF808EDFFF7F4FFEB
:100D10000CBF012000205DF808FB00BF4DF808ED76
:100D2000FFF7EAFF34BF012000205DF808FB00BF99
:100D30004DF808EDFFF7E0FF94BF012000205DF8BB
:100D400008FB00BF4DF808EDFFF7CEFF94BF012070
:100D500000205DF808FB00BF4DF808EDFFF7C4FF69
:100D600034BF012000205DF808FB00BF4FEA410CB2
:100D70007FEA6C5C02D150EA013C0AD14FEA430C95
:100D80007FEA6C5C02D152EA033C02D14FF00000D2
:100D900070474FF0010070474FEA410212F5001210
:100DA00015D211D56FF47873B3EB625212D94FEAB2
:100DB000C12343F0004343EA505311F0004F23FA9C
:100DC00002F018BF404270474FF00000704750EAF1
:100DD000013005D111F0004008BF6FF000407047AE
:100DE0004FF00000704700BF0348044B834202D01D
:100DF000034B03B118477047140700201407002065
:100E0000000000000548064B1B1AD90F01EBA30197
:100E1000491002D0034B03B1184770471407002054
:100E2000140700200000000010B5064C237843B9D9
:100E3000FFF7DAFF044B13B10448AFF3008001233E
:100E4000237010BDA01A0020000000005CAA00085A
:100E500008B5054B1BB105490548AFF30080BDE857
:100E60000840FFF7CFBF00BF00000000A41A002019
:100E70005CAA00080846034B0B6000234B608B60A4
:100E8000CB607047B10E0008704700236FF07F0100
:100E900011706FF07B0151701E219170D370082189
:100EA000917153711371704770477047704700001C
:100EB0002DE9F04182B005460C46174698468E88CB
:100EC000F6B291F801C0ACF1200CBCF1030F37D899
:100ED000DFE80CF0021F1031CA8839686846FFF756
:100EE00089F96A4631462846FFF7CEFF002002B056
:100EF000BDE8F0814A88C2F3400402F001023146A5
:100F0000FFF7D2FF224631462846FFF7CEFF0020EA
:100F1000EDE76A463146FFF7B8FF3B680098186076
:100F2000BDF804109DF8062099809A710723C8F82F
:100F300000300020DBE73146FFF7B8FF0020D6E79E
:100F4000064803F017FE6178054803F013FE0548D4
:100F500003F010FE4FF0FF30C9E700BF78AA000889
:100F600088AA0008B0AA0008054B4FF4357202FBAE
:100F7000003393F82802003818BF0120704700BFE3
:100F80002007002070B50C7804F00304012C26D053
:100F9000022C29D14FF0000E2DE00134E4B2244D93
:100FA0004FF4357C0CFB005C9CF86C52A54218D9C0
:100FB0004FF0B50C0CFB004C0CF18A0C1C4D05EBF2
:100FC0008C056D68002DE8D02E68002EE5D095F8D0
:100FD00018C08D88EDB2AC45DFD1B04727E00024C2
:100FE000DDE74FF0FF3022E04FF0FF301FE00EF161
:100FF000010E5FFA8EFE0E4C4FF4357505FB004C6A
:101000009CF86C42744510D94FF0B50C0CFB00EC09
:101010000CF18A0C064C04EB8C046468002CE6D0BE
:101020006468002CE3D0A04701E04FF0FF3070BDB2
:10103000200700202DE9F04105460F461646002402
:1010400008E02BB1DB681BB1324639462846984789
:101050000134E4B2124B4FF4357202FB053393F8BE
:101060006C32A34219D9B52303FB05438A330C4ADA
:1010700002EB83035B68002EE3D0002BE8D0D3F8AB
:101080000C80B8F1000FE3D0B2781B7E9A42DFD11A
:10109000324639462846C047DAE7BDE8F08100BF4E
:1010A0002007002010B58B7891F90220002A25DB5B
:1010B000B1F804C003F07F03CCF30A0C204C03EB1F
:1010C00043034FF4357200FB02F202EB8303234427
:1010D000A3F8A2C2B1F804C08B7803F07F03CCF36D
:1010E000C12C03EB430302EB8302144484F8A1C236
:1010F00001F0D8F9B0FA80F0400910BDB1F804C091
:1011000003F07F03CCF30A0C0D4C03EB43034FF4C5
:10111000357200FB02F202EB83032344A3F872C290
:10112000B1F804C08B7803F07F03CCF3C12C03EB40
:10113000430302EB8302144484F871C2D8E700BF72
:10114000200700202DE9F84F824688469346194B28
:101150004FF4357202FB00339C6900252E46284669
:10116000FF27B94608E094F8039023781C442378BD
:101170001D44AE4200D8DEB92378CBB16378042B8E
:10118000F1D0052B0BD0022BEFD16779B845ECD10C
:10119000A678E37846EA032600250120E5E74745DF
:1011A000E3D1D945E1D121465046FFF77BFFDCE78B
:1011B000BDE8F88F2007002070B50C0ACDB2032CD3
:1011C0000CD00F2C1FD0032C5DD830494FF435764E
:1011D00006FB001189694FF0000E27E0EE2DF0D1DB
:1011E0002A494FF4357404FB0011C969002946D01F
:1011F00009681160254A04FB0022D269126812783E
:101200001A6001262DE021494FF4357404FB0011CA
:10121000496A002935D0096811601C4A04FB002284
:10122000526A52681A6001261BE00144087840B1F6
:1012300091F801C0A445F8D175450AD00EF1010E10
:10124000F3E700267EB1022C05D0072C03D01860EE
:1012500006E00126F6E78878CC7840EA042018609A
:101260001160304670BD0A4803F084FC2A462146CE
:10127000084803F07FFC084803F07CFCF1E70026F7
:10128000EFE70026EDE70026EBE700BF2007002090
:10129000B8AA0008C8AA0008B0AA00082DE9F041C1
:1012A00006461D464F8891F801C0BCF1090F61D870
:1012B000DFE80CF0050E600E602B326038441168D8
:1012C00000230B701268537002232B60012452E03C
:1012D000012F03D000232B6001244CE0BCF1030F4D
:1012E00009D0264B4FF4357202FB0033D3F8D032CD
:1012F0000A219847EEE7214B4FF4357202FB003389
:10130000D3F8D03209219847E4E7F9B201F0B4F8F4
:1013100000232B6001242EE02B463946FFF74CFFBB
:10132000044628E04FF4357300FB03F303F50A731A
:1013300012490B44136001242C601CE0FFB2002210
:101340003946FFF7FFFE044610B900232B6012E078
:101350000A4B4FF4357202FB063888F828720022D7
:1013600007213046FFF766FED8F8D0320721304615
:101370009847EAE700242046BDE8F08120070020D6
:1013800010B582B00446094803F0F4FBA388E28854
:1013900001920093638862782178054803F0EAFBA4
:1013A000044803F0E7FB02B010BD00BFFCAA000830
:1013B0000CAB0008B0AA00082DE9F84305460E461C
:1013C00017469846544B4FF4357202FB0033DB69E5
:1013D000002B4AD049781A79914201D0002470E05C
:1013E000B288042A0DD0052A22D04C4803F0C2FB53
:1013F0004B4803F021FC4B4803F0BCFB4FF0FF339C
:1014000086E09B683B60444B4FF4357202FB00332F
:10141000DB699A681378517803EB0123917803EB29
:101420000143D27803EB0263C8F8003000236FE079
:10143000DB68728853F822303B60374B4FF43572CB
:1014400002FB0033DB69DB68728853F822201378D3
:10145000517803EB0123917803EB0143D27803EB3E
:101460000263C8F80030002352E02B4B4FF4357272
:1014700002FB00331B6A002B46D049789A799142CF
:1014800001D000241DE0B288072A0CD11B683B6004
:10149000214B4FF4357202FB00331B6A9B88C8F85E
:1014A0000030002334E01D4803F064FB1C4803F0C7
:1014B000C3FB1C4803F05EFB4FF0FF3328E0013410
:1014C000E4B2154B4FF4357202FB053393F86C32DE
:1014D000A3421BD94FF0B50C0CFB054C0CF18A0C48
:1014E0000D4B03EB8C035B68002BE8D0D3F808901E
:1014F000B9F1000FE3D043463A4631462846C84783
:1015000003460028DBD103E00024DAE74FF0FF3385
:101510001846BDE8F88300BF20070020B8AA0008DD
:101520006CAB0008B0AA000808B594461A494FF4FD
:10153000357303FB00118A6862448A60CB68A3EBB1
:101540000C03CB60D3B9144B4FF4357202FB00335C
:101550001B7DBBB9104B4FF4357202FB0033DB88A7
:101560007BB1134600FB03F30B4AD356002B08DA7A
:1015700000231A46194601F03BFA02E0802101F0EF
:1015800067F908BD044B02FB003300221A751346AD
:10159000802101F05DF9F4E72007002008B5897883
:1015A00001F02EF8B0FA80F0400908BD2DE9F04FA7
:1015B00083B0814688469346224B4FF4357202FB36
:1015C00000339C6900252E460095FF27BA460195F9
:1015D0000BE094F803A0A778B84515D023781C44F5
:1015E00023781D44AE4200D816BB237803B363783A
:1015F000042BEED0052B0BD0022BEFD1A678E3788D
:1016000046EA03260025E9E7D345E7D10194E5E75B
:101610004745E3D1DA4505D021464846FFF7BEFFEE
:101620000090DBE721464846FFF73CFD0090D5E7F8
:10163000019A08214846FFF7FDFC009803B0BDE879
:10164000F08F00BF200700202DE9F84F05460C461B
:1016500090461F46B1F802A08E88FFF785FC8146B0
:10166000002852D04FEA1A2BF6B263780B2B4AD8D7
:10167000DFE803F0064949494949104949493940D9
:10168000D8F8002000231370D8F8002053700223EC
:101690003B603AE0BBF1220F20D04FF0000934E06C
:1016A0000132D2B21A4B4FF4357101FB053393F876
:1016B0006C32934214D9B52303FB05238A331449B2
:1016C00001EB83035B68002BEAD0197EB142E7D1BE
:1016D0001A69C8F800205B693B6016E00022E1E768
:1016E0004FF0000911E0D8F8003000221A700123F1
:1016F0003B600AE05FFA8AF231462846FFF756FF60
:1017000000233B6001E04FF000094846BDE8F88F38
:10171000200700202DE9F84380460C4616461D465A
:101720008988CFB2FFF720FC814658B16378012B3E
:101730000BD0032B1ED09BBB3268137032685370E2
:1017400002232B604846BDE8F88363881BB1002361
:101750002B609946F6E7144803F00CFA3946134813
:1017600003F008FA124803F005FA3946404601F042
:1017700029F8E7E7638823B14FF0000900232B60C5
:10178000E0E7094803F0F6F939460A4803F0F2F9B0
:10179000074803F0EFF93946404600F0D7FFEDE780
:1017A0004FF00009CEE700BFB8AA000884AB0008DC
:1017B000B0AA00089CAB000810B50C7804F0030434
:1017C000012C07D0022C0AD074B9FFF767FD70B165
:1017D00000200BE0FFF738FF60B1002006E0FFF7C4
:1017E00099FF50B1002001E04FF0FF3010BD4FF0E5
:1017F000FF30FBE74FF0FF30F8E74FF0FF30F5E741
:1018000038B50D460C7804F06004202C1ED0402C16
:1018100030D0002C42D1FFF7CFFF002801DB0120A0
:101820003DE06B78062B03D16B88B3F5C06F37D0E2
:101830001C4803F09FF91C4803F0FEF91B4803F015
:1018400099F92846FFF79CFD002028E0FFF79AFB56
:10185000002801DB012022E0124803F08BF9144834
:1018600003F0EAF9114803F085F92846FFF788FDEF
:10187000002014E0FFF7A0FD002801DB01200EE0AE
:10188000084803F077F90B4803F0D6F9074803F04E
:1018900071F92846FFF774FD002000E0002038BDF4
:1018A0000020FCE7B8AA0008B0AB0008B0AA000806
:1018B000C8AB0008E0AB00084FF43573194903FBCF
:1018C00000116AB310B5044694468A6862448A607F
:1018D000CB68A3EB0C03CB60EBB94FF4357004FB82
:1018E00000F000F128030F4A13448B6000F110034D
:1018F0000830134402442046FFF782FF30B1002332
:101900001A468021204600F0A3FF08E080212046EF
:1019100000F01CFF03E00021204601F069F810BD33
:10192000704700BF2007002070B582B00446002138
:1019300000F0A2FD164E4FF4357303FB046600253C
:1019400086F8285207238DF8003005238DF80130E2
:101950004023ADF804308DF8035080238DF8023019
:101960008DF806506946204600F09CFD8DF8025027
:101970006946204600F096FD2A4601212046FFF7E1
:1019800059FBD6F8D03201212046984702B070BDED
:101990002007002030B583B004460A464FF4357363
:1019A00000FB03F34348191815685268C5504A6094
:1019B000CB88B3F5007F06D94FF4357204FB02F2F1
:1019C0008256002A4FDA4FF4357C0CFB04FC0CF1F4
:1019D00028023848024460448260C36003610025E5
:1019E0000575019223B1334D15F90C00002848DA32
:1019F0004FF4357304FB03F310332E4A134401AA4A
:101A00002046FFF7FDFE002841D02A4B4FF43572E7
:101A100002FB0433DA8819698A4228BF0A46DA6071
:101A2000B2F5007F38D8234B4FF4357101FB0433F6
:101A300098680199884201D0FEF7DCFB1D4D4FF4F8
:101A4000357303FB0455EB68AA688021204600F03B
:101A5000FFFEEA882B699A4217D913F03F0F14D181
:101A600001222A7511E0144803F084F8134803F0AA
:101A7000E3F8134803F07EF88021204600F066FE6C
:101A800003E00021204600F0B3FF03B030BD802109
:101A9000204600F05BFEF8E7074803F06BF80748C4
:101AA00003F0CAF8064803F065F88021204600F0EC
:101AB0004DFEEAE720070020B8AA0008F8AB0008AE
:101AC000B0AA000810B501F07F0303EB430C4FF4FC
:101AD000357300FB03F303EB8C03034C2344D3F86F
:101AE000783203B1984710BD2007002010B501F0EF
:101AF0007F0303EB430C4FF4357300FB03F303EB5D
:101B00008C03034C2344D3F8A83203B1984710BD8B
:101B10002007002038B50D464FF435720B4C02FB00
:101B200000440021204603F0D7F8A561002384F883
:101B30006C32802284F87022054AC4F8782284F836
:101B4000A032044BC4F8A83238BD00BF20070020E3
:101B500029150008B9180008034B4FF4357202FB31
:101B600000331962704700BF20070020034B4FF479
:101B7000357202FB00335962704700BF2007002016
:101B800010B40A4C4FF4357202FB004292F86C32EA
:101B90000B764FF0B50C0CFB00308A3004EB800460
:101BA0006160013382F86C3210BC7047200700205E
:101BB00010B591F800C091F90030002B16DB0CF045
:101BC0007F03164C03EB43024FF4357E0EFB00F00F
:101BD00000EB8202224482F8A0C24A6803EB43036E
:101BE00000EB83000444C4F8A82210BD0CF07F036E
:101BF0000A4C03EB43024FF4357E0EFB00F000EB82
:101C00008202224482F870C24A6803EB430300EB6D
:101C100083000444C4F87822E7E700BF20070020CF
:101C200011F0800F0ED101F07F0101EB41014FF463
:101C3000357303FB00F000EB81000A4B0344B3F85B
:101C4000A202704701F07F0101EB41014FF43573AF
:101C500003FB00F000EB8100024B0344B3F8720277
:101C6000704700BF2007002070B548B1124802F04D
:101C700081FF124802F0E0FF114802F07BFFFEE70F
:101C80000446104B03EBC00359600F4D4FF43573FE
:101C900003FB0055C5F8D02200F0A6FA0646002244
:101CA0000B212046FFF7C6F9D5F8D0320B2120468C
:101CB0009847304670BD00BFB8AA000814AC0008B1
:101CC000B0AA0008BC1A00202007002070B5044606
:101CD00015461146084802F04DFF084E2B46324685
:101CE0008121204600F0B4FD4FF40063324601210B
:101CF000204600F07DFE70BD24AC0008F4110020E9
:101D0000072900D0704708B5044B00221A704FF421
:101D10000063034A012100F06BFE08BD181B002080
:101D2000F411002070B505460E46144611460B48C6
:101D300002F020FF31462846FFF772FFB4FBF0F3B4
:101D400000FB134303B91CB9054B00221A7070BD88
:101D50001A468121284600F07BFDF8E738AC0008E0
:101D6000181B002038B504460D461A49FFF7D2FE6D
:101D700019492046FFF7FAFE18492046FFF7ECFE06
:101D800017492046FFF7FCFE16492046FFF710FFD3
:101D900015492046FFF70CFF14492046FFF76AF863
:101DA00001462046FFF7ECFE11492046FFF762F896
:101DB00001462046FFF7E4FE0E492046FFF7F8FEF5
:101DC0000D492046FFF7F4FE0C4A29462046FFF74E
:101DD0004BFF38BDE4AF00080000002008000020E1
:101DE000FC1A00202800002020000020E01A00201B
:101DF000C41A00201800002010000020011D000857
:101E000082B000230193019B01330193104A934256
:101E100016D8104B5B681A69002AF4DA0022019286
:101E20001A6942F001021A61019A013201920849CD
:101E30008A4209D81A6912F0010FF5D1002001E099
:101E40004FF0FF3002B070474FF0FF30FAE700BFAD
:101E5000400D0300BC1A002008B5044B5A68D36833
:101E600043F04003D360FFF7CBFF08BDBC1A00204E
:101E700082B0002301930A4B596810230B61019B28
:101E800001330193074A934205D80B6913F0100FF1
:101E9000F5D1002001E04FF0FF3002B0704700BFE5
:101EA000BC1A0020400D030082B000230193800182
:101EB0000A4B596840F020000861019B01330193EF
:101EC000074A934205D80B6913F0200FF5D1002083
:101ED00001E04FF0FF3002B0704700BFBC1A002095
:101EE000400D030003290FD009212B4B5B68DA68F2
:101EF00042F00702DA60DA6822F47052DA60DA68D7
:101F000042EA8122DA607047244B0344244A934218
:101F10002FD9244B0344244A93422CD9A0F57403AF
:101F2000A3F51053214A934227D9A0F18373A3F557
:101F3000E7431F4A934222D31E4B03441E4A934257
:101F40001FD91E4B03441E4A93421CD31D4B03440E
:101F50001D4A934219D3A0F1B773A3F558531B4AF6
:101F6000934214D31A4B03441A4A934211D20721C5
:101F7000BBE70F21B9E70E21B7E70D21B5E70C212B
:101F8000B3E70B21B1E70A21AFE70921ADE708214B
:101F9000ABE70621A9E700BFBC1A0020405327FF8A
:101FA000FF340C00401E1BFF3F420F007F4F12000A
:101FB00020D6130060B6E5FE5FE3160000D3CEFE28
:101FC00040771B00C05BB3FEC09121002075380034
:101FD000E05459FEE09C4100094B5B6803F5006347
:101FE0009B6803F00603022B04D0062B04D02BB908
:101FF0000020704703207047032070470F20704770
:10200000BC1A00200B4B5B680022C3F8102BD3F8DE
:10201000102B42F40022C3F8102BD3F8102B42F0FF
:102020001802C3F8102BD3F8102B42F0C042C3F8AB
:10203000102B7047BC1A0020094B5A68D2F81018B0
:10204000D2F8343800F0070C23FA0CF3DB01DBB2D2
:102050000B4302EB4012D2F808091840704700BF4A
:10206000BC1A002070B50E46164B5A68546A0546D5
:1020700078B944EA01439362134802F07BFD23469A
:1020800032462946114802F075FD114802F072FDF2
:1020900070BD936A04EB1344002308E003F1400091
:1020A00002EB8000416804EB11440133DBB2681E8F
:1020B0008342F3D344EA064305F13F0002EB80027A
:1020C0005360D9E7BC1A0020FCAA00084CAC0008F9
:1020D000B0AA000800B502F1030E4FEA9E0E4FF0C1
:1020E000000C0AE0074B5B6803EB003303F58053F9
:1020F00051F8042B1A600CF1010CF445F2D35DF891
:1021000004FB00BFBC1A00202DE9F04104462B4B14
:10211000421C110103EB0212595852688A1A03EB50
:1021200000131F89974200D317460337BF0813E0F7
:10213000224D05EB0418B2B2D8F80C102046FFF778
:10214000C9FFD8F80C303344C8F80C30631C05EBD9
:1021500003156B6833446B60194B586800EB4413EC
:1021600003F510639B699BB2BB4212D3134A631CF5
:102170001D0102EB031359685359994209D243B127
:102180005B1A0E4A02EB041216899E42D0D31E46F9
:10219000CEE70A4A631C190102EB031352585B682D
:1021A0009A4209D804F00F040122A240D0F8343832
:1021B00023EA0203C0F83438BDE8F081001A002099
:1021C000BC1A002003318908002207E0054B5B6838
:1021D00003F580531B6840F8043B01328A42F5D373
:1021E000704700BFBC1A00202DE9F047A022002153
:1021F0008F4802F071FD00F06BFF8E4F7A68936C90
:10220000C3F30129966CC6F38116936CC3F3C10A1C
:10221000936CC3F3832808F10108874D284602F028
:10222000A9FC864802F008FD854C204602F0A2FC7D
:10223000284602F09FFC7B68D96B824802F09AFC2A
:10224000204602F097FC284602F094FC7B68196C4B
:102250007D4802F08FFC204602F08CFC284602F0FC
:1022600089FC7B68596C794802F084FC204602F0B6
:1022700081FC284602F07EFC7B68996C744802F071
:1022800079FC204602F076FC284602F073FC7B685D
:10229000D96C704802F06EFC204602F06BFC2846B8
:1022A00002F068FC7B68196D6B4802F063FC204605
:1022B00002F060FC284602F05DFC53463246494677
:1022C000664802F057FC204602F054FC284602F013
:1022D00051FC7B68DA6C0423120C4146604802F022
:1022E00049FC204602F046FC284602F043FC5D48CB
:1022F00002F0A2FC204602F03DFCB8F1030F09D821
:10230000594802F037FC594802F096FC204602F08A
:1023100031FCFEE7474D6B68D3F8042842F0020217
:10232000C3F804286C68A36823F00103A360204667
:1023300000F078FEA063FFF78FFD6868C36823F0A4
:10234000C043C360C36843F08043C360002307E019
:1023500003F1400200EB8202002151600133DBB245
:102360000E2BF5D90023C0F8003E324B5A68D2F844
:10237000003823F00303C2F80038002E3BD12D4B68
:102380005A68D2F8003843F00303C2F80038294CE9
:1023900063680020C3F81008C3F81408C3F81C08C9
:1023A00098616FF080425A61314A9A619A6942F0AD
:1023B00010029A614FF480725A621021FFF752FEA8
:1023C00010210120FFF74EFE10210220FFF74AFEE8
:1023D00010210320FFF746FE6368DB6CB3F1A07F9A
:1023E00012D2214802F0C6FB224802F025FC144814
:1023F00002F0C0FBFEE70F4B5A68D2F8003843F0FA
:102400000103C2F80038C2E71020FFF74DFDFFF7C7
:102410002FFD084B5B689A6842F001029A60D3F87E
:10242000042822F00202C3F80428BDE8F08700BFA8
:10243000001A0020BC1A0020FCAA00086CAC00089E
:10244000B0AA000894AC0008A0AC0008B0AC00082A
:10245000C0AC0008D0AC0008E0AC0008F0AC00084C
:1024600024AD000880AD0008B8AA0008A4AD00089B
:1024700000303C00D8AD0008094A5068D0F8003858
:1024800023F4FE63C0F800385268D2F8003809011E
:1024900001F4FE610B43C2F800380020704700BF12
:1024A000BC1A002010B50C468B7813F07C0F39D184
:1024B00003F07F0013F0800F41D18A88C2F30A0233
:1024C000494B03EB0013A3F84820CA7802F003023B
:1024D00083F84A20454B5B68D3F81C1800F1100EB6
:1024E000012202FA0EF26FF30F020A43C3F81C280E
:1024F00003EB4013D3F8002B12F4004F71D1D3F843
:10250000002BA188C1F30A01E078800400F4402088
:1025100001430A4342F0805242F40042C3F8002BC8
:10252000002047E0324802F025FBA178314802F054
:1025300021FB314802F01EFB4FF0FF303AE000284B
:1025400039D12A4B5B689A6A120CA388C3F30A0339
:10255000B3EB820F38DC244A02EB00121381E378DC
:1025600003F003039372214B5A68D2F81C1801231D
:1025700083409BB20B43C2F81C3802EB4012D2F8E6
:10258000003913F4004F12D1D2F80039A188C1F3F9
:102590000A01E478A40404F44024214341EA805170
:1025A0000B4343F0805343F40043C2F80039FFF774
:1025B0007BFC002010BD0D4B5B6800F13F0203EB7C
:1025C00082035A68120CC0E7094802F0D3FAA178D6
:1025D0000A4802F0CFFA084802F0CCFA6FF0010086
:1025E000E8E70020E6E700BF001A0020BC1A002040
:1025F000B8AA000804AE0008B0AA00081CAE000883
:1026000030B482B001F07F030022019211F0800FFC
:102610004DD14D4A50685A0100EB4313D3F8000BDB
:10262000002819DB484B5C68D4F83C0801F007052A
:102630000121A94020EA0140C4F83C08D4F81C0854
:1026400020EA0141C4F81C1822440023C2F8003BD0
:10265000002002B030BC7047D3F8000B40F000609F
:10266000C3F8000B384B5B681344D3F8000B40F001
:102670008040C3F8000B00230193019B01330193B9
:102680004CF25030834208D82F4B5B68134403F55B
:1026900030639B6813F0020FEFD02B4B5B68134441
:1026A000D3F8080B40F00200C3F8080BBAE7264A3B
:1026B00050685A0100EB4313D3F80009002817DBD8
:1026C000214B5D68D5F83C4801F0070101238B40A0
:1026D0009BB224EA0304C5F83C48D5F81C1821EA4B
:1026E0000303C5F81C382A440023C2F80039AFE7B9
:1026F000D3F8000940F00060C3F80009124B5B6892
:102700001344D3F8000940F08040C3F800090023C7
:102710000193019B013301934CF25030834208D85E
:10272000094B5B68134403F510639B6813F0020FB9
:10273000EFD0054B5B681344D3F8080940F0020062
:10274000C3F80809BCE700BFBC1A002001F07F03F2
:1027500011F0800F1AD11A4A51685A0101EB431146
:10276000D1F8000B002806DB2BB1D1F8003B23F099
:102770008043C1F8003B124B5B681344D3F8002B35
:1027800042F40012C3F8002B002070470C4A516835
:102790005A0101EB4311D1F80009002806DB2BB1E7
:1027A000D1F8003923F08043C1F80039044B5B684D
:1027B0001344D3F8002942F40012C3F80029E3E7D8
:1027C000BC1A002001F07F0311F0800F1FD11E4AB8
:1027D0005268580102EB4312D2F8001B21F4001199
:1027E000C2F8001B194A02EB031393F84A30023B6C
:1027F000DBB2012B01D900207047134B5B681844F2
:10280000D0F8003B43F08053C0F8003BF3E70E4A9A
:102810005268580102EB4312D2F8001921F400115A
:10282000C2F80019094A02EB03139B7A023BDBB2A0
:10283000012BE0D8044B5B681844D0F8003943F012
:102840008053C0F80039D6E7BC1A0020001A0020D7
:10285000F0B501F07F001546002A61D050B1614A01
:10286000526802EB4012D2F80029C2F30A02002A91
:1028700000F0AF8015F0030F40F0AE805A4C04EB2F
:102880000012D560421C150104EB021263510024B2
:102890005460544A55684FEA401C05EB401E0EF543
:1028A000106214696FF3DC44146114696FF312044D
:1028B0001461002B39D0002843D14B4C04EB001499
:1028C00024899C4200D22346441C2401464E3351A5
:1028D000146944F4002414611469C3F312063443E8
:1028E0001461414A02EB0012927A012A3DD03D4A1E
:1028F00052689444DCF8002942F00442CCF80029E4
:10290000002B6CD0374B5B68D3F8342801F00F01F3
:10291000012000FA01F10A43C3F8342800200FE037
:10292000002B9BD04FF0FF300AE0136943F40023E3
:102930001361DEF8003943F00443CEF8003900207B
:10294000F0BD294C04EB00142689F418013CB4FBBB
:10295000F6F41669254F07EAC44434431461146938
:10296000C3F3120634431461BBE7D5F8082812F408
:10297000807F1ED1DEF8002922F08052CEF8002997
:10298000184A52686244D2F8000940F00050C2F878
:102990000009144A52686244D2F8100920F0C0407D
:1029A000C2F81009D2F8100940F00050C2F810091E
:1029B0009DE7DEF8002922F00052CEF80029094AEE
:1029C00052686244D2F8000940F08050C2F8000911
:1029D000DFE76FF00200B3E76FF00300B0E700201D
:1029E000AEE700BFBC1A0020001A00200000F81F4C
:1029F00070B501F07F011446002A54D051B1564AF7
:102A0000526802EB4112D2F8002BC2F30A02002AEC
:102A100000F09C8014F0030F40F09B804F4800EBC7
:102A20000112D4644A1D140100EB0212035100206C
:102A30005060494A54684FEA411C04EB411E0EF5B0
:102A4000306210696FF3DC40106110696FF312009F
:102A500010616BB300293FD1404800EB0110B0F882
:102A60004800984200D318464B1D1B013B4DE850CF
:102A7000136943F4002313611369C0F31200034385
:102A80001361364B03EB011393F84A30012B38D016
:102A9000314B5B686344D3F8002B42F00442C3F827
:102AA000002B002070BD002BA8D04FF0FF30F9E7BD
:102AB000136943F4002313611369284800EB0111E3
:102AC000B1F848100B431361DEF8003B43F00443B8
:102AD000CEF8003B0020E5E7204800EB0110B0F8FD
:102AE0004850E8180138B0FBF5F015691C4E06EAAD
:102AF000C040284310611069C3F3120303431361FC
:102B0000BFE7D4F8083813F4807F0FD1DEF8003B1C
:102B100023F08053CEF8003B0F4B5B686344D3F83F
:102B2000002B42F00052C3F8002BB1E7DEF8003B67
:102B300023F00053CEF8003B074B5B686344D3F8A7
:102B4000002B42F08052C3F8002BA1E76FF0020087
:102B5000A8E76FF00300A5E7BC1A0020001A0020C8
:102B60000000F81F2DE9F843B54B5B685C699A6972
:102B700014405D6915F0010540F04582002C00F01D
:102B8000428214F0100F14D09A6922F010029A6158
:102B90001E6A06F00F0206F4F013B3F5802F16D06C
:102BA000B3F5402F22D0A64B5A68936943F0100327
:102BB000936114F4002F73D0A14B5B68D3F81868AD
:102BC00003F50063DB691E40360C2F462AE0C6F38E
:102BD0000A16002EE7D09B4F07EB02173146F86C20
:102BE000FFF7F0FAFB6C3344FB64DCE7C6F30A1131
:102BF0009448FFF7E7FAD6E71B69C3F31203D21A2A
:102C000090497B1D4FEA031C01EB03135A6000201F
:102C100041F80C000146FEF769FF18F0080F3AD1A1
:102C200076080137002E3BD016F0010FF8D0844B08
:102C30005B68FAB203EB4212D2F8081BD3F81428EF
:102C400001EA020803EB471303F530639A689A60C0
:102C500018F0010FE1D04FB97A1D120179498A5855
:102C6000002AC9D10846FFF7CDF9D6E7DFF8D4C16D
:102C70007A1D4FEA021E0CEB02115CF80E201B6954
:102C8000C3F31203D21A4A6000204CF80E00F9B2C6
:102C9000FEF72CFFC1E76B490020FEF77BFEBFE784
:102CA00014F4802F64D0664B5B68D3F8186803F582
:102CB0000063DB691E40B6B21DE04846FFF7A2F98B
:102CC00014E0DFF880C16A1C4FEA021E0CEB02110F
:102CD0005CF80E201B69C3F31203D21A4A6000206D
:102CE0004CF80E0048F08001FEF7ECFE17F0800F64
:102CF0003AD176080135002E3AD016F0010FF8D0FF
:102D00005FFA85F84046FFF797F907464C4B5B683A
:102D100003EB451303F510639A689A6010F0010FF6
:102D2000E4D0002DCDD1DFF81C916A1C4FEA021CC3
:102D300009EB021159F80C201B69C3F31203D21AD4
:102D40004A60002049F80C008021FEF7BBFEB9F86C
:102D500006301BB199F90020002AAEDA002BC5D14C
:102D60003848FFF74FF9C1E74046FFF7CDF9C0E714
:102D700014F4805F0ED114F4005F40F0808014F4EE
:102D8000001F00F0D6802E4B5B68D3F81C18090C8E
:102D900001229AE02A4B5B685A6942F480525A61D8
:102DA000D3F8042822F00102C3F804281020FFF70A
:102DB0007BF8FFF75DF800231DE02148426802EB35
:102DC00043124FF00061C2F80019426802EB43124F
:102DD000C2F8001B1A4A526802EB43120020C2F8E4
:102DE00010094FF6FF31C2F80819C2F8100BC2F8EB
:102DF000081B0133DBB2032B26D8002BDDD0104A91
:102E000051685A0101EB4311D1F8000900280DDB8C
:102E10000020C1F800090A4949680A44D2F8001B99
:102E2000002908DB0021C2F8001BD3E74FF09040D7
:102E3000C1F80009EFE74FF09041C2F8001BC9E765
:102E4000BC1A0020001A0020734B5B68D3F81C28C2
:102E500042F00112C3F81C280922C3F814280122E9
:102E6000C3F810286D4DA0220021284601F034FF40
:102E70000020FEF759FD2846FFF7C4F87BE7664DB2
:102E80006A68536943F400535361654B1E68FFF74A
:102E9000A3F801463046FFF725F86B68D3F80428FD
:102EA00042F48072C3F8042869E7D0F8003B23F0AD
:102EB0008053C0F8003B584B5B681D44D5F8003B7D
:102EC00043F00053C5F8003B0132032A2BD8CB4313
:102ED000D34013F0010FF7D1504B03EB021393F8DB
:102EE0004A30012BF0D14C4B5B68550103EB42108B
:102EF000D0F8006B16F4004FE6D003F500639B6832
:102F000013F4807FD1D0D0F8003B43F08053C0F859
:102F1000003B414B5B682B44D3F8000B20F0005082
:102F2000C3F8000BD0E73C4B5A68536943F40013D5
:102F3000536114F4801F49D0374B5B68D3F81C18D9
:102F4000090C01220FE0D0F8003923F08053C0F8BB
:102F50000039314B5B681D44D5F8003943F000530C
:102F6000C5F800390132032A2AD8CB43D34013F0E5
:102F7000010FF7D1294B03EB02139B7A012BF1D1FF
:102F8000254B5B68550103EB4210D0F8006916F43D
:102F9000004FE7D003F500639B6813F4807FD2D025
:102FA000D0F8003943F08053C0F800391A4B5B6801
:102FB0002B44D3F8000920F00050C3F80009D1E7F2
:102FC000154B5A68536943F48013536114F0080F8A
:102FD00005D0114B5A68536943F00803536114F448
:102FE000006F05D00C4B5A68536943F4006353617A
:102FF000002C0ADB14F0040F05D0074B5B685968FE
:103000005A680A435A60BDE8F883034B5A6853690B
:1030100043F000435361EDE7BC1A0020001A002082
:10302000300000204FF404107047000030B58BB022
:103030000024059406940794089409940094224B64
:103040001A6B42F010021A631A6B02F0100200921F
:10305000009A01941A6B42F004021A631A6B02F090
:1030600004020192019A02941A6B42F080021A63E0
:103070001A6B02F080020292029A03941A6B42F0D9
:1030800001021A631A6B02F001020392039A04947C
:103090001A6B42F002021A631B6B03F002030493E3
:1030A000049B0A4D01220421284600F037FC04232A
:1030B0000593012306930793089405A9284600F079
:1030C00033FB0BB030BD00BF00380240001002409F
:1030D00030B589B0002403940494059406940794B1
:1030E0000194174D2B6B43F001032B632B6B03F003
:1030F00001030193019B4FF4C053039302230493F4
:10310000032306930A23079303A90E4800F00CFB40
:103110006B6B43F080036B6302946B6C43F48043EE
:103120006B646B6C03F480430293029B224621463E
:10313000432000F073FA432000F080FA09B030BD5C
:10314000003802400000024072B6FEE700B595B0BC
:103150003022002108A801F0BFFD0023039304934F
:103160000593069307930193204A116C41F0805117
:103170001164126C02F080520192019A02931C4B6E
:103180001A6842F480421A601B6803F48043029379
:10319000029B012308934FF48033099302230E937B
:1031A0004FF480020F9204221092A82211921293DF
:1031B0000723139308A800F0C1FB98B90F230393CA
:1031C00002230493002305934FF4A05306934FF476
:1031D00080530793052103A800F01AFE20B915B00B
:1031E0005DF804FBFFF7B0FFFFF7AEFF00380240C9
:1031F0000070004008B500F07DF9FFF7A7FFFFF76A
:1032000015FF00F0A7F84FF0A0410020FEF7AAFD3F
:103210000421044800F088FB4FF4FA7000F096F99E
:10322000F6E700BF0010024082B0002100910B4B76
:103230005A6C42F480425A645A6C02F48042009202
:10324000009A01911A6C42F080521A641B6C03F0D0
:1032500080530193019B02B0704700BF00380240C9
:10326000FEE7FEE7FEE7FEE7FEE7704770477047C0
:1032700008B500F059F908BD08B5024801F0EAF8B0
:1032800008BD00BF201B002008B50020FFF76AFC26
:1032900008BD0120704708B501F0C4FD1623036086
:1032A0004FF0FF3008BD08B54FF0FF31FFF7F3FFD7
:1032B000FEE770B50C461646002506E0AFF3008029
:1032C000214601F8010B01350C46B542F6DB3046CC
:1032D00070BD70B50C461646002504E014F8010BCD
:1032E00000F0A8F80135B542F8DB304670BD4FF06C
:1032F000FF3070474FF400534B60002070470120AF
:10330000704700207047000010B503460C4A0D4975
:103310000D48006840B10C4800680344521A9342BB
:1033200006D8094A136010BD0748084C0460F2E74C
:1033300001F078FD0C2303604FF0FF30F3E700BF8E
:1033400000000220000800001C1B0020801E00203E
:103350007047000008B50A480A4B03604FF4E13398
:10336000436000238360C36003610C224261836178
:10337000C36100F04CFF00B908BDFFF7E5FEFBE7B5
:10338000201B002000100140F0B589B000230393FA
:103390000493059306930793026803F1804303F5B2
:1033A00088339A4201D009B0F0BD0024009403F59F
:1033B00094335A6C42F010025A645A6C02F01002B4
:1033C0000092009A01941A6B42F001021A631A6B80
:1033D00002F001020192019A02941A6B42F0020279
:1033E0001A631B6B03F002030293029B4FF40073FA
:1033F000039302270497032606960725079503A93A
:103400000A4800F091F980230393049705940696E7
:10341000079503A9064800F087F922462146252092
:1034200000F0FCF8252000F009F9BCE7000002409C
:103430000004024000B583B001904FF6FF730122F3
:1034400001A9034800F013FF019803B05DF804FBE5
:10345000201B0020DFF834D0FFF77AFF0C480D491D
:103460000D4A002302E0D458C4500433C4188C42DF
:10347000F9D30A4A0A4C002301E013600432A24245
:10348000FBD301F0D5FCFFF7B5FE7047000002202A
:103490000000002014070020F8B30008A01A002044
:1034A000801E0020FEE7000010B504460E4B1A787F
:1034B0004FF47A73B3FBF2F30C4A1068B0FBF3F0ED
:1034C00000F0C0F868B90F2C01D901200AE00022F1
:1034D00021464FF0FF3000F0A1F8054B1C600020A2
:1034E00000E0012010BD00BF3400002030000020AB
:1034F0003800002008B50B4B1A6842F400721A60BD
:103500001A6842F480621A601A6842F480721A6083
:10351000032000F071F80F20FFF7C6FFFFF784FECD
:10352000002008BD003C0240034A1168034B1B7891
:103530000B441360704700BF681B0020340000205C
:10354000014B1868704700BF681B002038B504465F
:10355000FFF7F6FF0546B4F1FF3F02D0044B1B789E
:103560001C44FFF7EDFF401BA042FAD338BD00BF5B
:1035700034000020002807DB00F01F02400901236F
:103580009340024A42F82030704700BF00E100E05B
:10359000002808DB0901C9B200F1604000F5614074
:1035A00080F80013704700F00F000901C9B2014B09
:1035B0001954704714ED00E000B500F00700C0F1A9
:1035C000070CBCF1040F28BF4FF0040C031D062BA1
:1035D0000FD9C31E4FF0FF3E0EFA0CF021EA000196
:1035E00099400EFA03FE22EA0E0241EA02005DF85B
:1035F00004FB0023EEE70000074AD36823F4E063EE
:103600001B041B0C000200F4E060034343F0BF63A3
:1036100043F40033D360704700ED00E010B504467A
:10362000054BD868C0F30220FFF7C6FF01462046CD
:10363000FFF7AEFF10BD00BF00ED00E008B5FFF7DB
:1036400099FF08BD0138B0F1807F0BD24FF0E02325
:103650005861054AF02182F8231000209861072262
:103660001A6170470120704700ED00E070B5044614
:10367000866DFFF765FF94F83530DBB2022B06D07C
:1036800080236365002384F83430012070BD054633
:103690002268136823F0160313602268536923F02D
:1036A00080035361236CE3B12268136823F008039D
:1036B00013602268136823F00103136023681B68FA
:1036C00013F0010F11D0FFF73BFF431B052BF5D97A
:1036D00020236365032084F83500002384F8343008
:1036E000D4E7A36C002BDFD1E3E7E26D3F239340E7
:1036F000B360012384F83530002084F83400C5E736
:1037000090F83530DBB2022B03D0802343650120D3
:103710007047052380F835300268136823F00103F1
:10372000136000207047000000230F2B00F2EC8094
:1037300030B583B068E085684FEA430E032404FA8D
:103740000EF425EA0405CC6804FA0EF42C438460D8
:10375000446824EA02044A68C2F300129A402243F1
:1037600042605FE0DC08083450F8242003F00705CD
:10377000AD004FF00F0E0EFA05FE22EA0E0E0A699A
:10378000AA4042EA0E0240F824205FE0072200E04F
:10379000002202FA0EF22A4302345C4D45F824203E
:1037A0005B4A94686FEA0C0224EA0C05D1F804E045
:1037B0001EF4801F01D04CEA0405554CA560E46856
:1037C00002EA0405D1F804E01EF4001F01D04CEA1F
:1037D00004054F4CE560646802EA0405D1F804E092
:1037E0001EF4003F01D04CEA0405494C6560246892
:1037F00022404D6815F4803F01D04CEA0402444C4D
:10380000226001330F2B7DD801229A400C6804EA14
:10381000020C32EA0404F4D14C6804F00304013CC5
:10382000012C88D94A6802F00302032A09D0C4682F
:103830005D000322AA4024EA02048A68AA402243C7
:10384000C2604A6802F00302022A8BD004684FEA81
:10385000430E032202FA0EF224EA02044A6802F03E
:10386000030202FA0EF2224302604A6812F4403F59
:10387000C7D000220192274A546C44F48044546417
:10388000526C02F480420192019A9C08A51C1F4AC6
:1038900052F8255003F0030E4FEA8E0E0F2202FA63
:1038A0000EF225EA02051C4A90423FF471AF02F580
:1038B000806290421AD002F58062904218D002F5E0
:1038C0008062904216D002F58062904214D002F5D8
:1038D0008062904212D002F58062904210D002F5D0
:1038E000806290423FF452AF082252E7012250E733
:1038F00002224EE703224CE704224AE7052248E76A
:10390000062246E703B030BD704700BF00380140D3
:10391000003C014000380240000002400AB18161D1
:103920007047090481617047436901EA030221EA93
:10393000030141EA0241816170470000002800F064
:10394000E08170B582B00446036813F0010F3BD0EC
:103950009F4B9B6803F00C03042B2CD09C4B9B6863
:1039600003F00C03082B21D06368B3F5803F4FD0E0
:10397000B3F5A02F52D0964B1A6822F480321A6009
:103980001A6822F480221A606368002B50D0FFF777
:10399000D7FD05468E4B1B6813F4003F14D1FFF78B
:1039A000CFFD401B6428F5D90320B1E1884B5B684B
:1039B00013F4800FD8D0864B1B6813F4003F03D05C
:1039C0006368002B00F09F81236813F0020F54D02E
:1039D0007F4B9B6813F00C0F3ED07D4B9B6803F030
:1039E0000C03082B33D0E368002B68D0794B0122FD
:1039F0001A60FFF7A5FD0546754B1B6813F0020F13
:103A000054D1FFF79DFD401B0228F5D903207FE12B
:103A10006F4A136843F480331360B5E76C4B1A6840
:103A200042F480221A601A6842F480321A60ABE7CE
:103A3000FFF786FD0546664B1B6813F4003FC3D0B5
:103A4000FFF77EFD401B6428F5D9032060E1604B41
:103A50005B6813F4800FC6D15D4B1B6813F0020F37
:103A600003D0E368012B40F05081594A136823F0DA
:103A7000F803216943EAC1031360236813F0080FB8
:103A800042D063696BB3534B0122C3F8802EFFF71A
:103A900057FD05464E4B5B6F13F0020F34D1FFF715
:103AA0004FFD401B0228F5D9032031E1484A136835
:103AB00023F0F803216943EAC1031360DDE7454BB6
:103AC00000221A60FFF73CFD0546414B1B6813F0CE
:103AD000020FD2D0FFF734FD401B0228F5D9032096
:103AE00016E13C4B0022C3F8802EFFF729FD054666
:103AF000374B5B6F13F0020F06D0FFF721FD401B21
:103B00000228F5D9032003E1236813F0040F77D0CE
:103B10002F4B1B6C13F0805F33D1002301932C4B90
:103B20001A6C42F080521A641B6C03F080530193AC
:103B3000019B0125284B1B6813F4807F23D0A368C9
:103B4000012B34D0052B38D0214B1A6F22F0010203
:103B50001A671A6F22F004021A67A368002B3DD07F
:103B6000FFF7EEFC06461A4B1B6F13F0020F46D10F
:103B7000FFF7E6FC801B41F288339842F3D903201B
:103B8000C6E00025D6E7144A136843F48073136037
:103B9000FFF7D6FC0646104B1B6813F4807FCED18E
:103BA000FFF7CEFC801B0228F5D90320B0E0084ABD
:103BB000136F43F001031367CFE7054B1A6F42F011
:103BC00004021A671A6F42F001021A67C5E700BFC4
:103BD000003802400000474200700040FFF7B0FC90
:103BE0000646524B1B6F13F0020F08D0FFF7A8FCDC
:103BF000801B41F288339842F3D9032088E0EDB965
:103C0000A369002B00F08380484A926802F00C02FE
:103C1000082A51D0022B17D0454B00221A66FFF715
:103C20008FFC0446414B1B6813F0007F42D0FFF726
:103C300087FC001B0228F5D9032069E03B4A136C7E
:103C400023F080531364DBE7394B00221A66FFF739
:103C500077FC0546354B1B6813F0007F06D0FFF755
:103C60006FFC401B0228F5D9032051E0E369226A6A
:103C70001343626A43EA8213A26A5208013A43EA92
:103C80000243E26A43EA0263284A5360284B012256
:103C90001A66FFF755FC0446244B1B6813F0007F9F
:103CA00006D1FFF74DFC001B0228F5D903202FE0B9
:103CB00000202DE000202BE0012B2BD01B4B5B685C
:103CC00003F48001E269914226D103F03F02216AA8
:103CD0008A4223D1616A47F6C0721A40B2EB811F53
:103CE0001ED103F44031A26A5208013AB1EB024FEF
:103CF00018D103F07063E26AB3EB026F14D10020B5
:103D000006E001207047012002E0012000E00020D1
:103D100002B070BD0120FBE70120F9E70120F7E7C1
:103D20000120F5E70120F3E70120F1E70038024028
:103D30000000474208B5334B9B6803F00C03042B8B
:103D40005BD0082B5BD12F4B5A6802F03F025B68B7
:103D500013F4800F2CD02B4B5868C0F388104FEA17
:103D6000401CBCEB000C6EEB0E0E4FEA8E1343EAC8
:103D70009C634FEA8C11B1EB0C0163EB0E03DB008B
:103D800043EA5173C90011EB000C43F100035902DF
:103D900000234FEA4C2041EADC51FCF711FA194BA1
:103DA0005B68C3F3014301335B00B0FBF3F008BD74
:103DB000144B5868C0F388104FEA401CBCEB000C51
:103DC0006EEB0E0E4FEA8E1343EA9C634FEA8C11A2
:103DD000B1EB0C0163EB0E03DB0043EA5173C90046
:103DE00011EB000C43F10003990200234FEA8C20F1
:103DF00041EA9C51FCF7E4F9D1E70348D7E70348CF
:103E0000D5E700BF0038024000127A000024F40019
:103E1000002800F09B8070B50D4604464F4B1B6890
:103E200003F007038B4208D2CBB24C4A13701368DD
:103E300003F007038B4240F08B80236813F0020FDE
:103E400017D013F0040F04D0454A936843F4E053AD
:103E50009360236813F0080F04D0414A936843F439
:103E6000604393603E4A936823F0F003A1680B43DC
:103E70009360236813F0010F32D06368012B21D0C7
:103E80009A1E012A25D9364A126812F0020F61D013
:103E900033498A6822F0030213438B60FFF750FB1B
:103EA00006462F4B9B6803F00C036268B3EB820F4E
:103EB00016D0FFF745FB801B41F288339842F0D9BA
:103EC000032042E0264A126812F4003FE0D10120AC
:103ED0003BE0234A126812F0007FD9D1012034E080
:103EE0001E4B1B6803F00703AB4207D9EAB21B4B1A
:103EF0001A701B6803F00703AB422DD1236813F03F
:103F0000040F06D0164A936823F4E053E1680B438C
:103F10009360236813F0080F07D0114A936823F4C5
:103F20006043216943EAC1039360FFF703FF0C4B31
:103F30009B68C3F303130B4AD35CD8400A4B186049
:103F40000A4B1868FFF7B0FA002070BD01207047D7
:103F50000120FAE70120F8E70120F6E7003C0240E3
:103F60000038024090B100083000002038000020E6
:103F7000014B1868704700BF3000002008B5FFF7FC
:103F8000F7FF044B9B68C3F38223034AD35CD840FA
:103F900008BD00BF0038024088B1000808B5FFF72F
:103FA000E7FF044B9B68C3F34233034AD35CD8401A
:103FB00008BD00BF0038024088B10008026802F165
:103FC0000C0353E8003F23F490730C3242E80031B5
:103FD0000029F3D1026802F1140353E8003F23F0F3
:103FE0000103143242E800310029F3D1036B012BA5
:103FF00005D0202380F84230002303637047026815
:1040000002F10C0353E8003F23F010030C3242E8A6
:1040100000310029F3D1ECE790F84130DBB2212BDD
:1040200001D0022070478368B3F5805F17D0036A20
:104030005A1C02621A7803685A60C38C9BB2013B17
:104040009BB2C3844BB90268D36823F08003D3606A
:104050000268D36843F04003D360002070470369CF
:10406000002BE4D1036A1B880268C3F30803536082
:10407000036A02330362E0E710B50446026813697D
:1040800023F44053C1680B431361836802691A43E8
:1040900043691A43C3691A430168CB6823F4164382
:1040A00023F00C031343CB600268536923F440737D
:1040B00081690B4353610368314A934206D002F58C
:1040C0008062934202D0FFF759FF01E0FFF766FFDD
:1040D000E369B3F5004F29D00021031849411B18AB
:1040E00041F10001C90041EA5371DB00181863680F
:1040F0004FEA83024FEA937341F10001FCF760F845
:10410000204AA2FB00314909642303FB11031B0170
:104110003233A2FB03235B0903F0F00202EB01122E
:1041200003F00F03216813448B6010BD00230218B5
:1041300043EB0301121841F10001C90041EA527139
:10414000D200101841F10001626892185B41FCF73F
:1041500037F80C4AA2FB00314909642303FB110321
:10416000DB003233A2FB03235B095A0002F4F8722E
:1041700002EB011203F00703216813448B60D4E7BC
:10418000001001401F85EB512DE9F04383B0054637
:104190000E4617469946DDF828802B681C6836EADB
:1041A00004040CBF01240024BC4228D1B8F1FF3F15
:1041B000F3D0FFF7C5F9A0EB0900404523D8B8F1CB
:1041C000000F22D02B68DA6812F0040FE5D0802EA1
:1041D000E3D0402EE1D01A6812F0080FDDD00024A1
:1041E00001941A6801925B680193019B2846FFF7CE
:1041F000E5FE08236B6485F84040012000E00020C4
:1042000003B0BDE8F0830320FAE70320F8E760B3CA
:1042100010B5044690F8413013B3242384F841309C
:104220002268D36823F40053D3602046FFF724FFAD
:104230002268136923F4904313612268536923F0C1
:104240002A0353612268D36843F40053D3600020EB
:104250006064202384F8413084F84230606310BDEC
:1042600080F84030FFF790F8D7E7012070472DE93C
:10427000F04182B01E4690F84130DBB2202B56D17F
:1042800004460D469046002955D00AB901204FE05A
:1042900000234364212380F84130FFF751F907469A
:1042A000A4F82480A4F82680A368B3F5805F02D028
:1042B0004FF0000814E023692BB34FF000080FE023
:1042C000202384F84130032032E038F8023B226892
:1042D000C3F308035360E28C92B2013A92B2E284D3
:1042E000E38C9BB293B100963B460022802120468E
:1042F000FFF74AFF0028E3D1002DE6D015F8012B87
:1043000023685A60E7E7A8460025E9E700963B46A0
:10431000002240212046FFF737FF18B9202384F8F8
:10432000413005E0202384F84130032000E00220E2
:1043300002B0BDE8F0810120FAE7704708B50168D6
:10434000CA6822F04002CA60202280F84120FFF7AC
:10435000F4FF002008BD7047704708B5806B00234C
:10436000C385C384FFF7F8FF08BD704790F842305B
:10437000DBB2222B69D18368B3F5805F4FD0826AAC
:10438000B3F5805F04D0002B56D10369002B53D1C5
:1043900003685B681370836A01338362C38D9BB2C9
:1043A000013B9BB2C385002B51D100B583B002689D
:1043B000D36823F02003D3600268D36823F48073AA
:1043C000D3600268536923F001035361202380F80E
:1043D000423000234363036B012B33D1002303637B
:1043E000026802F10C0353E8003F23F010030C3283
:1043F00042E800310029F3D103681A6812F0100F67
:1044000006D0002201921A6801925B680193019B19
:10441000818DFFF7AAFF002003B05DF804FB02695D
:10442000002AACD1826A03685B68C3F30803138077
:10443000836A02338362B1E703685B6803F07F033A
:104440001370A8E7FFF787FFE5E702207047002019
:104450007047000010B582B0044602681368D06847
:10446000516913F00F0F09D113F0200F0CD010F089
:10447000200F09D02046FFF779FF16E011F0010167
:1044800015D110F4907F12D1216B012979D013F04E
:10449000800F03D010F0800F40F0148113F0400F14
:1044A00003D010F0400F40F0118102B010BD13F0A6
:1044B000010F06D010F4807F03D0626C42F001023D
:1044C000626413F0040F04D019B1626C42F002026E
:1044D000626413F0020F04D019B1626C42F004025E
:1044E000626413F0080F07D010F0200F00D119B14B
:1044F000626C42F008026264626C002AD5D013F04C
:10450000200F02D010F0200F29D123685B6903F03F
:104510004003626C12F0080F00D163B32046FFF72E
:104520004DFD23685B6913F0400F20D0226802F133
:10453000140353E8003F23F04003143242E80031F3
:104540000029F3D1E36B73B1624A1A65E06BFFF7A0
:10455000D7F80028A9D0E06B036D9847A5E720465F
:10456000FFF704FFD1E72046FFF7F6FE9DE7204660
:10457000FFF7F2FE99E72046FFF7EEFE00236364A3
:1045800093E713F0100F82D010F0100F3FF47FAFBD
:10459000002301931368019353680193019B5369AE
:1045A00013F0400F52D0E26B13685B689BB2002B94
:1045B0003FF47BAFA18D99427FF677AFE385D36956
:1045C000B3F5807F37D0226802F10C0353E8003F37
:1045D00023F480730C3242E800310029F3D12268C1
:1045E00002F1140353E8003F23F00103143242E8C0
:1045F00000310029F3D1226802F1140353E8003F8F
:1046000023F04003143242E800310029F3D1202383
:1046100084F8423000232363226802F10C0353E83C
:10462000003F23F010030C3242E800310029F3D19F
:10463000E06BFFF71BF802236363A18DE38D9BB250
:10464000C91A89B22046FFF790FE2EE7A18DE38DAF
:104650009BB2C91A89B2E38D9BB2002B3FF425AF00
:1046600000293FF422AF226802F10C0353E8003F17
:1046700023F490730C3242E800300028F3D1226812
:1046800002F1140353E8003F23F00103143242E81F
:1046900000300028F3D1202384F842300023236324
:1046A000226802F10C0353E8003F23F010030C32A0
:1046B00042E800300028F3D1022363632046FFF76D
:1046C00054FEF2E62046FFF7A7FCEEE62046FFF791
:1046D00035FEEAE65B4300082DE9F047089D0E46EB
:1046E00004460F46002B4AD194468C45B2FA82F21A
:1046F00060D942B1C2F12003974020FA03F30CFACB
:1047000002FC1F4394404FEA1C4E1FFA8CF6B7FB85
:10471000FEF1230C0EFB117743EA074301FB06F081
:1047200098420AD91CEB030301F1FF3780F0158191
:10473000984240F21281023963441B1AA4B2B3FBBF
:10474000FEF00EFB103344EA034400FB06F6A642DB
:104750000AD91CEB040400F1FF3380F00081A6426B
:1047600040F2FD806444023840EA0140A41B00216D
:104770001DB1D4400023C5E90043BDE8F0878B425A
:1047800005D90DB1C5E9000100210846F5E7B3FAE6
:1047900083F1002946D1B34202D3824200F2F58070
:1047A000841A66EB030201201746002DE5D0C5E907
:1047B0000047E2E7002A40F09380A1EB0C034FEAA8
:1047C0001C471FFA8CFE0121B3FBF7F607FB1630DE
:1047D000230C43EA00430EFB06F0984208D91CEB79
:1047E000030306F1FF3802D2984200F2D080464619
:1047F0001B1AA4B2B3FBF7F007FB103344EA0344DF
:104800000EFB00FEA64508D91CEB040400F1FF33A3
:1048100002D2A64500F2B6801846A4EB0E0440EA88
:104820000640A5E7C1F120078B4022FA07FC4CEABD
:10483000030C06FA01FE20FA07F426FA07F344EA0D
:104840000E0400FA01F84FEA1C404FEA1449B3FB8A
:10485000F0FE1FFA8CF600FB1E3349EA03430EFB01
:1048600006F9994502FA01F20BD91CEB03030EF18C
:10487000FF3A80F08580994540F28280AEF1020EC9
:104880006344A3EB0909A4B2B9FBF0F300FB13994D
:1048900044EA094403FB06F6A64208D91CEB0404CB
:1048A00003F1FF3068D2A64266D9023B644443EA72
:1048B0000E40A41BA0FB02E6B4427346B14652D39D
:1048C0004FD05DB1B8EB030264EB090404FA07F7BB
:1048D00022FA01F31F43CC40C5E9007400214CE7E4
:1048E000C2F1200120FA01F30CFA02FC26FA01F1D0
:1048F000964033434FEA1C471FFA8CFEB1FBF7F09A
:1049000007FB1016190C41EA064100FB0EF68E4219
:1049100004FA02F408D91CEB010100F1FF382DD292
:104920008E422BD902386144891B9BB2B1FBF7F64A
:1049300007FB161143EA014306FB0EF1994208D921
:104940001CEB030306F1FF3814D2994212D9023E40
:1049500063445B1A46EA004136E73946EDE61846FD
:1049600002E7F045ADD2BEEB020366EB0C06013860
:10497000B146A6E74646ECE7034698E74046D3E74C
:10498000D6467EE76444023847E708460DE7023E14
:1049900063442DE7024A0349034800F0C9B800BF49
:1049A0003C000020D9730008500000200C4B4168E7
:1049B000994210B5044601D002F00EFDA168094BE2
:1049C000994202D0204602F007FDE168064B994269
:1049D00004D02046BDE8104002F0FEBC10BD00BF70
:1049E0006C1B0020D41B00203C1C00202DE9F84348
:1049F000314A324C3249DFF8CC90DFF8CC80334F6B
:104A00001160002504232946082204F15C00C4E952
:104A100003352F4EA560C4E90055C4E90555656608
:104A200000F05AF904F15800C4E90749C4E90987BC
:104A3000E66200F025FA2946264B6367082204F156
:104A4000C400C4E91A55C4E91E552567C4F8CC5002
:104A5000C4F8805000F040F904F1680304F1C0008C
:104A6000C4F88430C4E92298C4E9247600F008FA36
:104A7000194BC4F8DC30294604F596700822C4E9C5
:104A80003455C4E93855C4F8D850C4F83451C4F882
:104A9000E85000F021F904F1D003C4E93D87C4F8DF
:104AA000F09004F59470C4F8FC60C4F8EC30BDE8F4
:104AB000F84300F0E5B900BFA41C00206C1B0020E7
:104AC00095490008494C00086D4C0008AD4C0008A1
:104AD000D14C0008090001001200020010B5044684
:104AE0000A4800F0D1F9636B23B9094B094A1B68E6
:104AF000626323B1BDE81040044800F0C7B9FFF776
:104B000075FFBDE81040014800F0C0B9B41C00209A
:104B1000A41C0020AD490008014800F0B5B900BF51
:104B2000B41C0020014800F0B1B900BFB41C002043
:104B30002DE9F8430746884616464FF00009D6E9A6
:104B40000154013D10D4A389012B08D9B4F90E30CA
:104B500001332146384602D0C04749EA0009013DE9
:104B60006B1C04F16804EED13668002EE7D148468C
:104B7000BDE8F8830FB400B5074983B004AB0868FB
:104B800053F8042B8168019300F0A8FD03B05DF891
:104B900004EB04B0704700BF4800002070B5054624
:104BA00088B008460C46FBF7CBFB224E6A6B05909B
:104BB00001214318CDE9066104A80221049403935E
:104BC000AC68019002916AB3636EB4F90C20D90706
:104BD00001D496051FD5900405D442F4005223F465
:104BE0000053A2816366990420D401AA2146284675
:104BF00002F010FD636EC8B90A25DA0702D4A38952
:104C00009B0502D5284608B070BDA06D00F03EF9A6
:104C1000284608B070BDA06D00F036F9B4F90C203C
:104C2000636ED8E72846FFF759FFCDE74FF0FF3511
:104C3000E3E700BF7CAD0008024B01461868FFF7B0
:104C4000ADBF00BF4800002010B50C46B1F90E10F2
:104C500000F0BCF8002803DB236D0344236510BD7E
:104C6000A38923F48053A38110BD00BF2DE9F04137
:104C70000C46B1F90C101F46CB05054616460BD461
:104C800021F48051A1813B46B4F90E1032462846EA
:104C9000BDE8F04100F0B0B8B4F90E1002230022D4
:104CA00000F07EF8B4F90C10EAE700BF10B50C462E
:104CB000B1F90E1000F074F8B4F90C30421C0EBFBC
:104CC00023F4805343F480532065A38110BD00BFBB
:104CD000B1F90E1000F052B8830730B547D0541E1A
:104CE000002A3ED0CAB2034601E0013C39D303F8A2
:104CF000012B9D07F9D1032C2CD9CDB205EB05254D
:104D00000F2C05EB054535D9A4F1100222F00F0C4C
:104D100003F1100EE6444FEA121C1A46C2E9005590
:104D2000C2E9025510327245F8D10CF1010214F0BB
:104D30000C0F03EB021204F00F0C13D0ACF10403C0
:104D400023F003030433134442F8045B9342FBD182
:104D50000CF003042CB1C9B21C4403F8011BA3429C
:104D6000FBD130BD64461346002CF4D1F9E703466D
:104D70001446C0E71A46A446E0E700BF38B5074D21
:104D80000022044608462A60FEF7B1FA431C00D010
:104D900038BD2B68002BFBD0236038BDA81C002039
:104DA00038B50C46084D8446114620461A46002365
:104DB0002B606446FEF7A5FA431C00D038BD2B6873
:104DC000002BFBD0236038BDA81C002038B50C4652
:104DD000084D8446114620461A4600232B6064463F
:104DE000FEF767FA431C00D038BD2B68002BFBD0C0
:104DF000236038BDA81C002038B50C46084D8446F9
:104E0000114620461A4600232B606446FEF761FADD
:104E1000431C00D038BD2B68002BFBD0236038BD6D
:104E2000A81C0020014B1868704700BF48000020F4
:104E300070B50F4B0F4DAB42A3EB050607D0B61074
:104E4000002455F8043B01349847A642F9D805F0F0
:104E500005FE094D094B5E1BAB424FEAA60606D084
:104E6000002455F8043B01349847A642F9D870BD98
:104E7000ECB30008ECB30008ECB30008F4B300088E
:104E8000704700BF704700BF704700BF704700BF4A
:104E9000024B13B1024800F005B870470000000053
:104EA000717B0008002301461A46184602F0B8BE7E
:104EB0002DE9F84306460820894602F06DFEDFF82A
:104EC0009C800546304600F0FDFBD8F808305F684E
:104ED00027F00307A7F11104A4EB09042C44B4FB49
:104EE000F5F4013C05FB04F4A54208DC0021304642
:104EF00002F02CFED8F808303B44984205D03046EA
:104F000000F0E6FB0020BDE8F8836142304602F085
:104F10001DFE01300FD0124AD8F808303F1B47F071
:104F200001075F60136830461B1B136000F0D0FB65
:104F30000120BDE8F8830021304602F007FED8F8D2
:104F40000820831A0F2BDADD43F001035360054B71
:104F500003491B68C01A0860D1E700BFA001002008
:104F6000BC1C00209401002000297CD0F8B50C4620
:104F7000064600F0A7FB54F8043C764FA4F1080560
:104F800023F001016818D7F808C04268844522F070
:104F9000030200F08380DB07426000EB020C33D495
:104FA00054F8084CDCF804302D1B2144AC6807F1A0
:104FB000080C644503F0010364D0D5F80CE0C4F894
:104FC0000CE0CEF80840002B00F0818041F0010396
:104FD0006B600160B1F5007F22D27868CB080122B6
:104FE000490901338A40024357F833107A6007EBCE
:104FF000C302083AC5E9021247F83350CD60304683
:10500000BDE8F84000F064BBDCF80430DB072BD5CA
:1050100041F00103B1F5007F44F8043C0160DCD3AA
:10502000B1F5206F4FEA512353D28B0903F13900B8
:1050300003F13802C300F818FB580838984203D12E
:1050400061E09B68984204D05A6822F003028A42C9
:10505000F7D8D868C5E902308560DD603046BDE824
:10506000F84000F035BB7047114407F1080C836825
:1050700063453FD0C268DA60936041F001036B6022
:105080006950A7E7002B5FD10A44D0E90213CB6037
:10509000996042F001036B60AA50B0E70A44D90757
:1050A00007D454F8083CED1A1A44D5E90213CB6032
:1050B000996042F001036B60274BBD601B6893420F
:1050C0009DD8264B30461968FFF7F2FE97E711444A
:1050D000CDE7142B08D9542B1DD80B0B03F16F000F
:1050E00003F16E02C300A6E703F15C0003F15B026B
:1050F000C300A0E741F00103C7E90455C5E902CCAC
:105100006B6069507BE779689210012404FA02F21F
:105110000A437A609EE7B3F5AA7F06D8CB0B03F16A
:10512000780003F17702C30085E740F254529342BE
:1051300006D88B0C03F17D0003F17C02C3007AE7F3
:105140004FF47E737E2276E741F001036B600160CD
:1051500055E700BFA001002098010020EC1C0020B2
:105160002DE9F04F01F10B05162D83B0064623D82B
:10517000102900F2AF8000F0A5FA102518230220B4
:10518000B74F3B44A3F108025C68944200F01F81D2
:105190006368E268A16823F00303CA6023443046D1
:1051A00091605A6842F001025A6000F091FA0834A6
:1051B000204603B0BDE8F08F35F0070500F18A8086
:1051C000A94200F2878000F07DFAB5F5FC7FC0F0BF
:1051D0006E816B0A00F08280042B00F21E81AB0905
:1051E00003F1390003F1380EC3009D4F3B44A3F196
:1051F000080C5C68A44507D10DE0002AE16880F244
:10520000E0808C4507D00C46636823F003035A1BEB
:105210000F2AF2DD7046DFF84C823C69444500F00D
:10522000BD80636823F0030CACEB05030F2B00F388
:105230004281002BC7E9048880F22D81BCF5007FF4
:10524000D7F804E080F0C9804FEADC0101314FEA71
:105250005C1C012303FA0CF357F83120A2604EEADC
:10526000030E07EBC103083BE360C7F804E047F80F
:105270003140D46083104FF0010C0CFA03FCF4456C
:1052800032D81CEA0E0F08D120F003004FEA4C0C74
:105290001CEA0E0F00F10400F8D007EBC00AD64656
:1052A0008146DEF80C300BE0596821F003014A1BFF
:1052B0000F2A1C46DB6800F3BC80002A80F2DE80E7
:1052C0009E45F1D109F1010919F0030F0EF1080E05
:1052D000E7D119E10C233360002469E74FF4007330
:1052E00040204FF03F0E80E7BC68636823F003095D
:1052F000A94503D3A9EB05030F2B52DC5A4B1B68BE
:10530000082003F1100804EB0903009302F044FCA9
:10531000564A13680133A844834605D008F1FF3884
:105320008044434203EA08084146304602F00EFC3E
:10533000B0F1FF3F4D4A824600F0D88004EB0903EC
:10534000834200F2D1804A4B186840440BF1FF3190
:105350001860844640F0FB801AEA010F40F0F780A5
:10536000D7F808A0C84448F00102CAF80420414B0D
:105370001968814238BF18603F4B1968814238BFB5
:105380001860544622F00308A845A8EB050301D392
:105390000F2B06DC304600F09BF99DE7D7F804E0C0
:1053A00068E7621943F0010345F001056560304686
:1053B000BA60536000F08CF90834204603B0BDE8B1
:1053C000F08FA2682344D16030468A60E9E6DC6849
:1053D000A3427FF4DDAE02301DE7BCF5206F4FEA3B
:1053E0005C227AD3142A00F2128102F15C03DB0002
:1053F0005B32F918FB580839994203D1ECE09B68FD
:10540000994204D05A6822F003026245F7D8D9685D
:10541000C4E902318C60DC602CE7142B69D9542B71
:1054200000F2FE802B0B03F16F0003F16E0EC30040
:10543000DBE6D4F808C03046661945F00105656022
:10544000CCF80C30C3F808C042F00103C7E9046689
:10545000C6E902887360625000F03AF90834A7E6A2
:10546000A0010020A8010020EC1C002094010020D5
:10547000BC1C0020E81C0020E41C00202144304615
:105480004A6842F001024A6054F8082FD3609A60DB
:1054900000F01EF98CE6A4443046DCF8043043F0FA
:1054A0000103CCF8043000F013F9083480E6E80872
:1054B00005F1080364E6621943F0010145F00105B6
:1054C00065603046C7E90422C2E90288516044F8A9
:1054D0000C3000F0FDF808346AE64FEA9C1202F145
:1054E0003903DB00383284E7BC4228D0BC686268EC
:1054F00048E703F15C0003F15B0EC30075E65AF860
:105500000839534540F0DA8010F0030F00F1FF3006
:10551000F5D17B6823EA0C037B604FEA4C0C9C4579
:105520003FF6E2AEBCF1000F04D1DDE64FEA4C0CD1
:1055300009F104091CEA030FF8D04846ADE6604BB8
:10554000186808EB000C0BF1FF31C3F800C01068BD
:1055500001306FD004EB0902AAEB020262441A6028
:105560001AF00702CDE9002340D0C2F108029244AC
:10557000D04408EA01005A44121A02EA010B5946C3
:10558000304602F0E3FA421C019B6FD0A0EB0A0008
:1055900000EB0B081868C7F808A048F0010258444F
:1055A000BC42CAF8042018603FF4E1AEB9F10F0F15
:1055B00043D96168A9F10C0222F0070201F0010150
:1055C000114361604FF0050CA1180F2AC1E901CC0D
:1055D00054D8DAF80420CAE692104FF0010C0CFA05
:1055E00002F24EEA020EC7F804E011E70AEB0802E5
:1055F0000A40ABEB020202EA010B5946304602F0C8
:10560000A5FA431C019BC1D1DDF800B0C2E7542AC2
:1056100017D84FEA1C3202F16F03DB006E32E8E666
:10562000B3F5AA7F17D8EB0B03F1780003F1770EDF
:10563000C300DAE5C2F800A092E70123CAF80430FB
:10564000A8E6B2F5AA7F24D84FEADC3202F178034B
:10565000DB007732CDE640F25452934224D8AB0CB3
:1056600003F17D0003F17C0EC300BEE5009A083A09
:105670009044A8EB0A084FF0000B8BE7304604F18A
:1056800008010093FFF770FC009BD7F808A018688A
:105690009FE740F254539A420CD84FEA9C4202F1E1
:1056A0007D03DB007C32A4E64FF47E737F204FF055
:1056B0007E0E9AE54FF47E737E229AE67B682CE795
:1056C000BC1C00200148FFF7DFBB00BFAC1C002062
:1056D0000148FFF7DBBB00BFAC1C00202DE9F04FF9
:1056E000DDB0164609911C4683460F9302F02AFA54
:1056F000036818931846FAF723FE08221790002132
:105700002CA8FFF7E9FABBF1000F04D0DBF8343026
:10571000002B01F07380099A536EB2F90C20D80760
:1057200002D4910540F17786970406D4099942F492
:10573000005223F400538A814B669D0401F14A8490
:10574000099AB2F90C30190740F1CC801269002A8D
:1057500000F0C88003F01A020A2A00F0D280002369
:1057600033AA0024CDE93133CDE91B3312931993C9
:1057700020931D930B930023CDE9143430921446EB
:10578000B246914BD3F8E45002F0D6F92CAA034666
:10579000009228A952465846A847002800F0D08019
:1057A000C0F2C680289A252A034601D09A44E8E729
:1057B000BAEB0607054640F0C78000231A464FF0B3
:1057C000FF318DF897300C930AF1010A9AF80030F6
:1057D0000A9108920AF1010AA3F120025A2A00F262
:1057E000F580DFE812F03603F300F3002F03F30037
:1057F000F300F3006A00F300F30075026403F300A2
:1058000080024803F30041035B005B005B005B0028
:105810005B005B005B005B005B00F300F300F300E8
:10582000F300F300F300F3006D01F3000102EA025C
:105830006D016D016D01F300F300F300F300E3026D
:10584000F300F3008702F300F300F3001E02F300FD
:10585000BD02F300F300EC06F300F300F300F300E5
:10586000F300F300F300F3006D01F30001025002B6
:105870006D016D016D01D0025002FA01F3000403C5
:10588000F300200312070E03FA01F3001E027C004E
:10589000E806F300F3001507F3007C00A3F13002E3
:1058A00000211AF8013B01EB810102EB4101A3F158
:1058B0003002092AF5D90C918EE7584602F042F9D8
:1058C00043681D931846FAF73BFD2090054658465D
:1058D00002F038F983681B93002D40F006869AF891
:1058E000003077E7099D5846294602F00FF8002856
:1058F00041F0B284B5F90C3003F01A020A2A7FF4A1
:105900002EAF0999B1F90E20002AFFF628AF4A6E92
:10591000D50702D4980541F12C81099923463246D6
:10592000584601F009FD0B900B985DB0BDE8F08F73
:10593000082200212CA8FFF7CFF901239A4420E781
:10594000BAEB0607054610D0329B3B443293319B9D
:105950000133072BC4E90067319310DC08340B9B3B
:105960003B440B93002D7FF428AF329B002B41F07A
:10597000E980099B0022B3F90C30319218E00999B3
:1059800030AA584601F018FD78B933ACE7E7099919
:1059900030AA584601F010FD002800F086800E9BCA
:1059A0001BB10E995846FFF7DFFA099BB3F90C308B
:1059B000099A526ED00740F106815A0601F114830C
:1059C0000B985DB0BDE8F08FA80500201093002B68
:1059D000CBD000228DF80C310123CDE90D328DF8AA
:1059E000972006930A9216921392119243AE089B47
:1059F00013F0020302D00699023106910899329DF4
:105A000011F0840805D10C9906980F1A002F00F3A5
:105A10009E806AB101226260319A013201350DF136
:105A20009701072A32953192216000F3CE83083422
:105A30006BB1319B26AA013302352260072B4FF050
:105A4000020232953193626000F3B4830834B8F1F6
:105A5000800F00F0C8820A9B0D9A9F1A002F00F356
:105A60000383089BDF0500F128820D9B63601D44C2
:105A7000319B26600133072B3295319300F3388335
:105A80000834089B5E0705D50C9B069A9E1A002ECB
:105A900000F3A883DDE90B3206998A42ACBF9B185C
:105AA0005B180B93002D7FF472AF002331930E9B94
:105AB0001BB10E995846FFF757FA33AC56465FE6CE
:105AC00010930F9B073323F00703F3E802780F933B
:105AD00028F000431F931E97DDE91E01AF4B4FF0E6
:105AE000FF32CDE91478FBF741F9002840F00D852D
:105AF000DDE91E01A94B4FF0FF32FBF719F9002831
:105B000040F003850022002338464146FBF706F9A2
