:020000040800F2
:1000000000000220552700089121000893210008D4
:1000100095210008972100089921000800000000A0
:10002000000000000000000000000000318C00080B
:100030009B21000800000000D18C0008358D0008CD
:10004000A5270008A5270008A5270008A527000860
:10005000A5270008A5270008A5270008A527000850
:10006000A5270008A5270008A5270008A527000840
:100070009D210008A5270008AD210008A52700083C
:10008000A5270008A5270008A5270008A527000820
:10009000A5270008A5270008A5270008A527000810
:1000A000A5270008BD210008A5270008A5270008EE
:1000B000A5270008A5270008A5270008A5270008F0
:1000C000A5270008A5270008A5270008A5270008E0
:1000D000A5270008CD210008A5270008DD2100087C
:1000E000A5270008A5270008A5270008A5270008C0
:1000F000A5270008A5270008A5270008A5270008B0
:10010000A527000865220008A5270008A5270008E4
:10011000A5270008A5270008A5270008A52700088F
:10012000A5270008A5270008A527000875220008B4
:10013000A5270008A5270008A5270008A52700086F
:10014000A5270008A5270008A52700088522000884
:1001500091220008A1220008A5270008A527000871
:10016000A5270008A5270008A5270008A52700083F
:10017000A5270008A5270008A52700080000000003
:08018000A5270008A5270008CF
:1001C00053B94AB9002908BF00281CBF4FF0FF31BE
:1001D0004FF0FF3000F00CB8ADF1080C6DE904CE23
:1001E0003EF02AFADDF804E0DDE9022304B07047AE
:1001F000704700BF00000000000000000000000089
:1002000002780B78012A28BF9A4240F0D8806DE925
:10021000044540EA0104CDE902676FF0000C4FEAA3
:1002200044721AB380EA010414F0070F6BD100F096
:10023000070420F0070004F0030521F007014FEA4E
:10024000C505F0E8042314F0040FF1E804670CFA84
:1002500005F462EA040266EA04060BD063EA0403CA
:10026000624667EA0407664604E000BFF0E804233C
:10027000F1E8046782FA4CF582EA0604A4FA8CF4E9
:100280006CBB83FA4CF583EA0705A5FA8CF595B9A2
:1002900050E9022351E9026782FA4CF582EA06042A
:1002A000A4FA8CF483FA4CF583EA0705A5FA8CF5D9
:1002B0002543DBD09CB92DBAB5FA85F424F00704A8
:1002C00027FA04F1DDE9026723FA04F303F0FF00E3
:1002D00001F0FF01FDE80445A0EB0100704724BADE
:1002E000B4FA84F424F0070426FA04F1DDE9026785
:1002F00022FA04F202F0FF0001F0FF01FDE80445DC
:10030000A0EB0100704714F0030F3CD110F0030480
:1003100028D150F8082B51F8083B82FA4CF582EAB4
:100320000305A5FA8CF55DB950F8042C51F8043C8E
:1003300082FA4CF582EA0305A5FA8CF5002DE8D087
:100340002DBAB5FA85F424F0070423FA04F122FA51
:1003500004F202F0FF0001F0FF01FDE80445A0EB0C
:10036000010070474FEAC40420F0030050F8082B46
:1003700021F0030151F8083B0CFA04F462EA04028C
:1003800063EA0403C9E710F003041DD0A1EB0401E4
:1003900020F00300E40750F8042B06D012D28B782B
:1003A0005FFAA2F4E41A06D12BB1CB785FFAB2F46B
:1003B000E41A00D133B920465DF8104B7047A2EB28
:1003C0000300704701F1040150F8042BCC0721F021
:1003D000030151F8043B48D824D222F07F4482FA2A
:1003E0004CF594EA1325A5FA8CF50AD165B951F8B4
:1003F000043B84EA0204B4EB036F0ED150F8042BE3
:10040000EBE74FEA132355E035F07F454DD10878EF
:10041000FDE80445C0F1000070474FEA126203F0A6
:10042000FF0347E002EA1C4482FA4CF594EA1345C4
:10043000A5FA8CF50AD165B951F8043B84EA0204A7
:10044000B4EB034F0CD150F8042BEBE74FEA134306
:1004500030E015EA1C4528D10B884FEA124229E00A
:100460004FEA124203EA1C4324E002F0FF0482FA3E
:100470004CF594EA1365A5FA8CF50AD165B951F8E3
:10048000043B84EA0204B4EB032F09D150F8042B97
:10049000EBE74FEA13630DE015F0FF0F05D10B6892
:1004A0004FEA122223F07F4304E04FF00000FDE802
:1004B0000445704712BA1BBA82FA4CF482EA03046C
:1004C000A4FA8CF5B5FA85F402FA04F203FA04F3FF
:1004D0004FEA1260FDE80445A0EB1360704700BFCF
:1004E000844641EA000313F003036DD1403A41D33F
:1004F00051F8043B40F8043B51F8043B40F8043BFE
:1005000051F8043B40F8043B51F8043B40F8043BED
:1005100051F8043B40F8043B51F8043B40F8043BDD
:1005200051F8043B40F8043B51F8043B40F8043BCD
:1005300051F8043B40F8043B51F8043B40F8043BBD
:1005400051F8043B40F8043B51F8043B40F8043BAD
:1005500051F8043B40F8043B51F8043B40F8043B9D
:1005600051F8043B40F8043B51F8043B40F8043B8D
:10057000403ABDD2303211D351F8043B40F8043B2D
:1005800051F8043B40F8043B51F8043B40F8043B6D
:1005900051F8043B40F8043B103AEDD20C3205D33D
:1005A00051F8043B40F8043B043AF9D2043208D035
:1005B000D2071CBF11F8013B00F8013B01D30B88A7
:1005C00003806046704700BF082A13D38B078DD085
:1005D00010F003038AD0C3F10403D21ADB071CBF57
:1005E00011F8013B00F8013B80D331F8023B20F8C1
:1005F000023B7BE7043AD9D3013A11F8013B00F8FA
:10060000013BF9D20B7803704B7843708B78837081
:10061000604670470000000000000000000000007D
:1006200000000000000000000000000000000000CA
:1006300000000000000000000000000000000000BA
:1006400030B490F800F020F007016FF0000C10F0CB
:10065000070491F820F040F048804FF000046FF05C
:100660000700D1E9002391F840F000F1080082FA78
:100670004CF2A4FA8CF283FA4CF3A2FA8CF34BBB43
:10068000D1E9022382FA4CF200F10800A4FA8CF2BC
:1006900083FA4CF3A2FA8CF3E3B9D1E9042382FA8A
:1006A0004CF200F10800A4FA8CF283FA4CF3A2FA9F
:1006B0008CF37BB9D1E9062301F1200182FA4CF2D7
:1006C00000F10800A4FA8CF283FA4CF3A2FA8CF33E
:1006D000002BC6D0002A04BF04301A4612BAB2FA60
:1006E00082F200EBD20030BC7047D1E9002304F065
:1006F0000305C4F100004FEAC50514F0040F91F89A
:1007000040F00CFA05F562EA05021CBF63EA050336
:1007100062464FF00004AAE700000000000000005D
:1007200001F0FF01102A2BDB10F0070F08D010F8A2
:10073000013B013A8B422DD010F0070F42B3F6D1A6
:10074000F0B441EA012141EA014122F007047FF0BF
:1007500000070023F0E80256083C85EA010586EA16
:10076000010685FA47F5A3FA87F586FA47F6A5FA52
:1007700087F68EB9EED1F0BC01F0FF0102F007025E
:1007800032B110F8013B013A83EA010313B1F8D109
:100790000020704701387047002D06BF35460338EA
:1007A000073815F0010F07D1013015F4807F02BF23
:1007B000013015F4C03F0130F0BC0138704700BF74
:1007C00081F0004102E000BF83F0004330B54FEA02
:1007D00041044FEA430594EA050F08BF90EA020F6F
:1007E0001FBF54EA000C55EA020C7FEA645C7FEA02
:1007F000655C00F0E2804FEA5454D4EB5555B8BF25
:100800006D420CDD2C4480EA020281EA030382EA95
:10081000000083EA010180EA020281EA0303362D27
:1008200088BF30BD11F0004F4FEA01314FF4801CFA
:100830004CEA113102D0404261EB410113F0004F0C
:100840004FEA03334CEA133302D0524263EB4303C3
:1008500094EA050F00F0A780A4F10104D5F1200E61
:100860000DDB02FA0EFC22FA05F2801841F10001BC
:1008700003FA0EF2801843FA05F359410EE0A5F190
:1008800020050EF1200E012A03FA0EFC28BF4CF0C1
:10089000020C43FA05F3C01851EBE37101F0004577
:1008A00007D54FF0000EDCF1000C7EEB00006EEB84
:1008B0000101B1F5801F1BD3B1F5001F0CD349080E
:1008C0005FEA30004FEA3C0C04F101044FEA445265
:1008D00012F5800F80F09A80BCF1004F08BF5FEAEC
:1008E000500C50F1000041EB045141EA050130BDCC
:1008F0005FEA4C0C404141EB0101013C28BFB1F5DE
:10090000801FE9D291F0000F04BF01460020B1FA28
:1009100081F308BF2033A3F10B03B3F120020CDAFB
:100920000C3208DD02F1140CC2F10C0201FA0CF0D9
:1009300021FA02F10CE002F11402D8BFC2F1200C3E
:1009400001FA02F120FA0CFCDCBF41EA0C019040F4
:10095000E41AA2BF01EB0451294330BD6FEA04043D
:100960001F3C1CDA0C340EDC04F11404C4F1200228
:1009700020FA04F001FA02F340EA030021FA04F33A
:1009800045EA030130BDC4F10C04C4F1200220FA91
:1009900002F001FA04F340EA0300294630BD21FACF
:1009A00004F0294630BD94F0000F83F4801306BF95
:1009B00081F480110134013D4EE77FEA645C18BF89
:1009C0007FEA655C29D094EA050F08BF90EA020F20
:1009D00005D054EA000C04BF1946104630BD91EA18
:1009E000030F1EBF0021002030BD5FEA545C05D11B
:1009F0004000494128BF41F0004130BD14F580045A
:100A00003CBF01F5801130BD01F0004545F0FE41CD
:100A100041F470014FF0000030BD7FEA645C1ABF02
:100A2000194610467FEA655C1CBF0B46024650EA39
:100A3000013406BF52EA033591EA030F41F4002165
:100A400030BD00BF90F0000F04BF0021704730B5EB
:100A50004FF4806404F132044FF000054FF00001C0
:100A600050E700BF90F0000F04BF0021704730B581
:100A70004FF4806404F1320410F0004548BF404256
:100A80004FF000013EE700BF42004FEAE2014FEAAB
:100A900031014FEA02701FBF12F07F4393F07F4F86
:100AA00081F06051704732F07F4208BF704793F089
:100AB0007F4F04BF41F40021704730B54FF460749C
:100AC00001F0004521F000411CE700BF50EA01029F
:100AD00008BF704730B54FF000050AE050EA010248
:100AE00008BF704730B511F0004502D5404261EBB8
:100AF00041014FF4806404F132045FEA915C3FF4F9
:100B0000D8AE4FF003025FEADC0C18BF03325FEA95
:100B1000DC0C18BF033202EBDC02C2F1200300FA46
:100B200003FC20FA02F001FA03FE40EA0E0021FA6B
:100B300002F11444BDE600BF70B54FF0FF0C4CF459
:100B4000E06C1CEA11541DBF1CEA135594EA0C0F0B
:100B500095EA0C0F00F0DEF82C4481EA030621EA46
:100B60004C5123EA4C5350EA013518BF52EA033581
:100B700041F4801143F4801338D0A0FB02CE4FF033
:100B80000005E1FB02E506F00042E0FB03E54FF063
:100B90000006E1FB03569CF0000F18BF4EF0010E5B
:100BA000A4F1FF04B6F5007F64F5407404D25FEA57
:100BB0004E0E6D4146EB060642EAC62141EA55510A
:100BC0004FEAC52040EA5E504FEACE2EB4F1FD0C4C
:100BD00088BFBCF5E06F1ED8BEF1004F08BF5FEACA
:100BE000500E50F1000041EB045170BD06F000467C
:100BF00046EA010140EA020081EA0301B4EB5C0429
:100C0000C2BFD4EB0C0541EA045170BD41F4801120
:100C10004FF0000E013C00F3AB8014F1360FDEBF45
:100C2000002001F0004170BDC4F10004203C35DA21
:100C30000C341BDC04F11404C4F1200500FA05F3A4
:100C400020FA04F001FA05F240EA020001F0004245
:100C500021F0004110EBD37021FA04F642EB0601BB
:100C60005EEA430E08BF20EAD37070BDC4F10C04E5
:100C7000C4F1200500FA04F320FA05F001FA04F2A9
:100C800040EA020001F0004110EBD37041F1000195
:100C90005EEA430E08BF20EAD37070BDC4F12005A0
:100CA00000FA05F24EEA020E20FA04F301FA05F208
:100CB00043EA020321FA04F001F0004121FA04F2B0
:100CC00020EA020000EBD3705EEA430E08BF20EA80
:100CD000D37070BD94F0000F0FD101F000464000BA
:100CE00041EB010111F4801F08BF013CF7D041EA3C
:100CF000060195F0000F18BF704703F00046520040
:100D000043EB030313F4801F08BF013DF7D043EA10
:100D10000603704794EA0C0F0CEA135518BF95EAC6
:100D20000C0F0CD050EA410618BF52EA4306D1D14D
:100D300081EA030101F000414FF0000070BD50EA6C
:100D4000410606BF1046194652EA430619D094EAF6
:100D50000C0F02D150EA013613D195EA0C0F05D1E0
:100D600052EA03361CBF104619460AD181EA030134
:100D700001F0004141F0FE4141F470014FF00000EC
:100D800070BD41F0FE4141F4780170BD70B54FF087
:100D9000FF0C4CF4E06C1CEA11541DBF1CEA135507
:100DA00094EA0C0F95EA0C0F00F0A7F8A4EB0504E9
:100DB00081EA030E52EA03354FEA013100F08880E0
:100DC0004FEA03334FF0805545EA131343EA1263A9
:100DD0004FEA022245EA111545EA10654FEA00265E
:100DE0000EF000419D4208BF964244F1FD0404F517
:100DF000407402D25B084FEA3202B61A65EB030573
:100E00005B084FEA32024FF480104FF4002CB6EB2F
:100E1000020E75EB030E22BFB61A754640EA0C00AF
:100E20005B084FEA3202B6EB020E75EB030E22BFEF
:100E3000B61A754640EA5C005B084FEA3202B6EB30
:100E4000020E75EB030E22BFB61A754640EA9C00EF
:100E50005B084FEA3202B6EB020E75EB030E22BFBF
:100E6000B61A754640EADC0055EA060E18D04FEA7D
:100E7000051545EA16754FEA06164FEAC30343EA1D
:100E800052734FEAC2025FEA1C1CC0D111F4801FEA
:100E90000BD141EA00014FF000004FF0004CB6E7E3
:100EA00011F4801F04BF01430020B4F1FD0C88BF82
:100EB000BCF5E06F3FF6AFAEB5EB030C04BFB6EB8D
:100EC000020C5FEA500C50F1000041EB045170BD80
:100ED0000EF0004E4EEA113114EB5C04C2BFD4EBAD
:100EE0000C0541EA045170BD41F480114FF0000E31
:100EF000013C90E645EA060E8DE60CEA135594EAAD
:100F00000C0F08BF95EA0C0F3FF43BAF94EA0C0FAF
:100F10000AD150EA01347FF434AF95EA0C0F7FF424
:100F200025AF104619462CE795EA0C0F06D152EA78
:100F300003353FF4FDAE1046194622E750EA41065C
:100F400018BF52EA43067FF4C5AE50EA41047FF46D
:100F50000DAF52EA43057FF4EBAE12E74FF0FF3CD2
:100F600006E000BF4FF0010C02E000BF4FF0010CA3
:100F70004DF804CD4FEA410C7FEA6C5C4FEA430C1C
:100F800018BF7FEA6C5C1BD001B050EA410C0CBF6B
:100F900052EA430C91EA030F02BF90EA020F0020CD
:100FA000704710F1000F91EA030F58BF994208BF34
:100FB00090422CBFD8176FEAE37040F001007047F1
:100FC0004FEA410C7FEA6C5C02D150EA013C07D148
:100FD0004FEA430C7FEA6C5CD6D152EA033CD3D093
:100FE0005DF8040B704700BF8446104662468C468D
:100FF0001946634600E000BF01B5FFF7B7FF0028C0
:1010000048BF10F1000F01BD4DF808EDFFF7F4FFE8
:101010000CBF012000205DF808FB00BF4DF808ED73
:10102000FFF7EAFF34BF012000205DF808FB00BF96
:101030004DF808EDFFF7E0FF94BF012000205DF8B8
:1010400008FB00BF4DF808EDFFF7CEFF94BF01206D
:1010500000205DF808FB00BF4DF808EDFFF7C4FF66
:1010600034BF012000205DF808FB00BF4FEA410CAF
:101070007FEA6C5C02D150EA013C0AD14FEA430C92
:101080007FEA6C5C02D152EA033C02D14FF00000CF
:1010900070474FF0010070474FEA410212F500120D
:1010A00015D211D56FF47873B3EB625212D94FEAAF
:1010B000C12343F0004343EA505311F0004F23FA99
:1010C00002F018BF404270474FF00000704750EAEE
:1010D000013005D111F0004008BF6FF000407047AB
:1010E0004FF00000704700BF0348044B834202D01A
:1010F000034B03B118477047980A0020980A002054
:10110000000000000548064B1B1AD90F01EBA30194
:10111000491002D0034B03B118477047980A0020CA
:10112000980A00200000000010B5064C237843B94F
:10113000FFF7DAFF044B13B10448AFF3008001233B
:10114000237010BD60360020000000006C6E0408A3
:1011500008B5054B1BB105490548AFF30080BDE854
:101160000840FFF7CFBF00BF00000000643600203A
:101170006C6E040800230B4A13800B4A13800B4A41
:1011800013800B4A138001220A490A700A490B8016
:101190000A490B800A490B800A490B800A4B1A70D6
:1011A000704700BFF6360020F4360020F2360020EB
:1011B000F0360020EE360020EC360020EA36002023
:1011C000E8360020E6360020E436002008B51C4B47
:1011D0001B889BB29B011B4AD35C072B1DD0184A6E
:1011E00013889BB201339BB2138013889BB2082BE8
:1011F00017D0154A13889BB201339BB21380124B50
:101200001B889BB2114A128892B29B1A9BB2082B80
:101210000BD10F4B01221A7008BD0E4B01221A7020
:10122000EDE7134600221A80E3E7054B1A8892B2D5
:101230004023044901EB821201210AF0BFFFEBE7D2
:10124000F6360020A0200020F2360020F0360020E4
:10125000EE36002021C60020012912D010B5044628
:1012600007290DD10B4B00221A7040230A4A012195
:101270000AF0A4FF4023094A022120460AF09EFFFB
:1012800010BD0023064A1370064A1370064A1370F5
:10129000704700BFD0360020A0200020A0220020F0
:1012A000264700202547002024470020164B1A8897
:1012B00092B2164B1B889BB29A4203D1144B012267
:1012C0001A70704710B5134C228892B223889BB2D3
:1012D000114931F81330114901EB821281210AF0D2
:1012E0009DFE23889BB201339BB2238023889BB24F
:1012F000082B06D0054A13889BB201339BB213809A
:1013000010BD00222280F5E7E8360020E6360020F6
:10131000E4360020EA360020D4360020A01E00204B
:1013200038B504460A4D0B49284609F007FA284605
:1013300009F0FDF93F2803D8074B01221A7038BD88
:101340004023044A022120460AF038FFF7E700BF95
:1013500004370020A02200202647002070B582B06C
:10136000054614461146144809F031FA14F03F0FAF
:1013700000D144B9104809F0D6F958B90F4B0122F1
:101380001A7002B070BD00231A46822128460AF066
:1013900045FEF6E701A9084809F001FA0146019E59
:1013A000074C32462046FFF79BF8334622468221FF
:1013B00028460AF033FEE4E71437002025470020D2
:1013C0002437002038B504460D464FF48052224998
:1013D000224809F08BF94FF480622149214809F035
:1013E00085F90EF08DF9FFF7C5FE1F4920460AF07A
:1013F00033F81E4920460AF05BF81D4920460AF0E2
:101400004DF81C4920460AF05DF81B4920460AF0B9
:1014100073F81A4920460AF06FF81949204609F076
:10142000DBF9014620460AF04DF81649204609F03E
:10143000D3F9014620460AF045F8134920460AF040
:101440005BF8124920460AF057F8114A294620460F
:101450000AF08AF838BD00BF980A0020143700202F
:10146000A01A002004370020486F04080000002064
:1014700008000020B43600202800002020000020B2
:10148000983600207C360020180000201000002034
:101490005912000838B573E04C4A12889A014C4939
:1014A0008A5C7E2A08D19A0149497F2088540133F9
:1014B000082BF1D10023EFE7464C23889BB2464D21
:1014C0002A8892B2454901EB8211414800EB831012
:1014D0000CF007FC2B889BB2414A22F813002388AA
:1014E0009BB201339BB2238023889BB2082B53D03D
:1014F0003C4A13889BB201339BB213803A4B1B7852
:1015000043B13A4B1B889BB2128892B29B1A9BB292
:10151000082B44D1304A13889BB201339BB213800D
:1015200013889BB2082B48D0314A13889BB20133F1
:101530009BB213802F4B1B7813B3128892B22E4BA1
:101540001B889BB29A421BD02C4B1A8892B2511C1A
:1015500089B219801B889BB2082B32D026490B8890
:101560009BB201339BB20B800020224B18701C4BA6
:1015700033F81230194901EB821281210AF04EFD35
:101580001A4B1A8892B2174B1B889BB29A421CD0F6
:10159000104B1B889BB281E700222280A8E7002025
:1015A000114B1870094B1A8892B24023084901EB7D
:1015B000821201210AF002FEACE7134600221A80D3
:1015C000B2E70E4B00211980C8E738BDF63600207F
:1015D000A0200020F4360020EC360020A01E0020C1
:1015E000D4360020F0360020EE360020F2360020FF
:1015F000E8360020E4360020E6360020EA360020F7
:10160000064B106818609188927999809A71044B02
:1016100001221A70034B00221A707047FC3600201A
:10162000F9360020F8360020034B186810609988BE
:101630009B79918093717047FC36002070470000C1
:1016400010B582B0019001460A4C204609F0BFF85F
:10165000204609F068F820B9074B01221A7002B041
:1016600010BD01A9204609F09AF8BDF80410FFF753
:10167000E5FFF4E7043700202447002070B582B06E
:101680002C4B1B7873B92C4B1B784BB12B4B1B7815
:10169000B3B92B4B1B786BBB2A4B1B78002B3AD171
:1016A00002B070BD234B00221A70274800F0EEFFF5
:1016B0000123224A1370224A13701F4A1370E2E773
:1016C000224809F030F80028E3D000241B4B1C709E
:1016D00001A91E4809F063F80146019E1C4D3246DF
:1016E0002846FEF7FDFE33462A46822120460AF0B0
:1016F00095FCCEE7174809F016F80028CCD0104B1F
:1017000000221A7001A9134809F049F8BDF8041025
:1017100001F002F8C0E70F4809F009F83F28BFD9E7
:101720000020084B187040230B4A02210AF046FDA6
:10173000B6E700BFF9360020F83600202547002024
:101740002447002026470020FC36002014370020C4
:101750002437002004370020A022002010B582B0DA
:10176000002400941E4B1A6B42F400121A631A6B89
:1017700002F400120092009A01941A6B42F4800263
:101780001A631B6B03F480030193019B2246022121
:101790000C2001F02DFC0C2001F03AFC2246022125
:1017A0000E2001F025FC0E2001F032FC224607211C
:1017B0003B2001F01DFC3B2001F02AFC22460221C7
:1017C000442001F015FC442001F022FC22460721B0
:1017D000452001F00DFC452001F01AFC02B010BDBF
:1017E0000038024008B50D4B1B78DBB2012B00D04E
:1017F00008BD0B480EF07EFA0028F9D1084B1B6893
:10180000084A1268934202D0064A1360F0E7054B7B
:1018100000221A600EF0ACFAEAE700BF2C4D00205F
:1018200040470020304D002008B5FFF733FEFFF79A
:1018300025FF08F0F5FB064BA3FB00235B094FF4E3
:10184000967202FB1303002BEFD1FFF7CBFFECE7FF
:10185000B5814E1B08B54FF40051044801F043FF19
:101860004FF4FA6007F027F8F5E700BF00080240E0
:1018700038B503220021012007F0A8FD1B4C206091
:101880003CF0BCFE23681BB119483DF053FC09E055
:1018900018483DF04FFC38BD17483DF04BFC012087
:1018A00007F009F84FF0FF31104B186807F0E5FF1B
:1018B00012483DF03FFC124D294612483DF0D8FB3E
:1018C000114C214611483DF0D3FB642006F0F3FF94
:1018D00028463CF021FC20463CF068FCB0F1FF3F7C
:1018E000DAD00B483DF026FCD9E700BF284D002098
:1018F0002871040844710408B87104086071040870
:10190000C80200207C710408C801002098710408F6
:10191000CC71040808B50B4B1B78DBB2012B00D04F
:1019200008BD094909480DF0F5FF0028F8D0064B1D
:101930001B6803F4E0630649194304480EF028F8D5
:10194000EEE700BF2C4D0020444700200CED00E0E6
:101950000400FA05034B0360034B0B608023136004
:10196000704700BF804B00207C49002010B59CB020
:101970004FF0A0410020FFF725FDA82000F0B6F9A8
:10198000244C0DF1540CA646BEE80F00ACE80F0045
:101990009EE807008CE80700002115A806F058FF14
:1019A0001D4B18600DF1380C04F11C0EBEE80F0041
:1019B000ACE80F009EE807008CE8070000210EA8A5
:1019C00006F046FF154B18600DF11C0C04F1380EA3
:1019D000BEE80F00ACE80F009EE807008CE80700A7
:1019E000002107A806F034FF0D4B1860EE4604F105
:1019F000540CBCE80F00AEE80F009CE807008EE82E
:101A000007000021684606F023FF064B18601CB053
:101A100010BD00BF886E0408244D0020204D00201A
:101A20001C4D0020184D002008B50122064907482A
:101A300006F0A2F820B1014605483DF019FB08BDAB
:101A400004483DF077FBFAE7E071040848470020BE
:101A5000E4710408F871040830B585B000230193DF
:101A60000293ADF80C30184B9B7D184A917D8B4248
:101A700011D11422164917483DF066FDE8B9134DFF
:101A8000114C28686968AA68EB680FC428696969FD
:101A900003C405B030BD01220F4B186833F092FA31
:101AA0000A4B9B7D0D4A0A2101A83DF04BFB01A981
:101AB0000B4B186836F052FFDBE70549094B1868F5
:101AC00036F04CFFDBE700BF284700207CBE01203A
:101AD0007EBE01202A4700207CC900200C72040829
:101AE00078C9002074C9002008B500F05DFE00F040
:101AF00075FE15F0C5F911F041FE11F09FFE084B7F
:101B00001B6800209847FFF78FFF11F0E7FD30F0CA
:101B100055FBFFF7A1FF012006F0CDFEF7E700BF60
:101B2000D8AD04082DE9F0438DB000240794089443
:101B300009940A940B940194494B1A6B42F01002D9
:101B40001A631A6B02F010020192019A02941A6B46
:101B500042F004021A631A6B02F004020292029A23
:101B600003941A6B42F080021A631A6B02F080022F
:101B70000392039A04941A6B42F001021A631A6BDF
:101B800002F001020492049A05941A6B42F00202D8
:101B90001A631A6B02F002020592059A06941A6BF8
:101BA00042F008021A631B6B03F008030693069BBE
:101BB000DFF8B89001220421484601F08EFDDFF8DD
:101BC000B08001224FF40051404601F086FD254FC0
:101BD00001224FF44071384601F07FFD22464FF458
:101BE0008061384601F079FD1F4E012220213046E8
:101BF00001F073FD042307930125089509950A94C4
:101C000007A9484601F06CFC4FF400530793089570
:101C100009950A9407A9404601F062FC4FF4E0637D
:101C20000793089509940A9407A9384601F058FCCF
:101C300020230793089509940A9407A9304601F0D8
:101C40004FFC4FF4807307934FF488130893099463
:101C500007A9304601F044FC0DB0BDE8F08300BF99
:101C60000038024000000240000402400010024020
:101C70000008024030B589B0002403940494059410
:101C8000069407940194174D2B6B43F001032B63CB
:101C90002B6B03F001030193019B4FF4C05303939B
:101CA00002230493032306930A23079303A90E48F0
:101CB00001F016FC6B6B43F080036B6302946B6C5A
:101CC00043F480436B646B6C03F480430293029B88
:101CD00022462146432001F08BF9432001F098F978
:101CE00009B030BD0038024000000240014B1860CE
:101CF000704700BF344D002010B44FF0E02254690B
:101D00000C4B1B6800FB03FC9369002104E0E01A04
:101D100002441144614509D21A464FF0E0239B6901
:101D20009A42FAD0F3D9D21A1144F3E75DF8044B82
:101D3000704700BF344D002008B50268034B9A423B
:101D400000D008BD01F0DAF8FBE700BF0000014059
:101D500072B6FEE700B595B03022002108A83DF02C
:101D600039FB002303930493059306930793019390
:101D7000204A116C41F080511164126C02F08052C3
:101D80000192019A02931C4B1A6842F480421A6035
:101D90001B6803F480430293029B012308934FF4D2
:101DA0008033099302230E934FF480020F92042292
:101DB0001092A822119212930723139308A801F0FE
:101DC0009BFC98B90F2303930223049300230593EC
:101DD0004FF4A05306934FF480530793052103A8B3
:101DE00001F0F4FE20B915B05DF804FBFFF7B0FF79
:101DF000FFF7AEFF003802400070004008B501F068
:101E000063F8FFF7A7FFFFF78DFEFFF7A7FC00F0D1
:101E10003DFB00F055FB00F0D5F800F0F5FA00F0BE
:101E200009F804F0D5FC04F023FDFFF79FFD06F050
:101E3000F7FCFEE7054B064A1A6000225A609A60DA
:101E4000DA601A615A6102229A617047F84D0020E7
:101E5000002C01402DE9F04389B000230393049343
:101E600005930693079302684F4B9A4202D009B03C
:101E7000BDE8F08304460025009503F586335A6CCF
:101E800042F400625A645A6C02F400620092009AB2
:101E900001951A6B42F004021A631A6B02F00402F5
:101EA0000192019A02951A6B42F008021A631B6BA9
:101EB00003F008030293029B4FF4F85303934FF08F
:101EC0000209CDF81090032606964FF00C08CDF8C5
:101ED0001C800DEB0801354801F002FB0427039735
:101EE000CDF8109005950696CDF81C800DEB0801F5
:101EF0002F4801F0F5FA2F482F4B03604FF0006395
:101F000043608560C5604FF4806303614FF4805384
:101F100043614FF4804383612023C36105624762BC
:101F200086624FF40003C3624FF40013036301F0B1
:101F3000EFF8002831D11F4B23649C631F48204BCE
:101F400003604FF000634360402383600023C3605D
:101F50004FF4806202614FF4805242614FF480423C
:101F600082612022C26103620423436203238362ED
:101F70004FF40003C3624FF40013036301F0C8F889
:101F800070B90E4BE3639C6300220521312001F000
:101F90002FF8312001F03CF869E7FFF7D9FECAE7D6
:101FA000FFF7D6FEEDE700BF002C0140000802401D
:101FB000000C0240984D002058640240384D00202B
:101FC000A064024008B50E480E4B03604FF48273C4
:101FD000436000238360C360036143614FF4007278
:101FE00082610822C2610362436283620A23C36280
:101FF00002F02CFE00B908BDFFF7AAFEFBE700BF08
:10200000DC4E00200030014030B589B0002303933E
:1020100004930593069307930268224B9A4201D0DA
:1020200009B030BD04460025019503F584335A6C90
:1020300042F480525A645A6C02F480520192019A1E
:1020400002951A6B42F001021A631B6B03F0010345
:102050000293029BE023039302230493032306933A
:102060000523079303A9104801F03AFA0F48104BD3
:1020700003604FF0C063436040238360C5604FF44A
:102080008063036145618561C5610562456201F058
:102090003FF818B9054BA3649C63C1E7FFF758FEEE
:1020A000F8E700BF00300140000002407C4E0020F5
:1020B0008864024000B583B0002200920D4B596C39
:1020C00041F480415964596C01F4804100910099B8
:1020D0000192196C41F0805119641B6C03F080531C
:1020E0000193019B0F216FF0010000F081FF03B00D
:1020F0005DF804FB0038024030B589B00546002485
:1021000001941E4B5A6C42F001025A645B6C03F05E
:1021100001030193019B02A903A801F02DFE01F028
:102120001BFE4300164AA2FB03239B0C013B1548F0
:10213000154A026040F2E732C26043600461846085
:10214000846103F0A1F8044610B1204609B030BD07
:102150000C4802F035FF04460028F6D1192000F0A3
:1021600057FF0F2D01D90124EFE70022294619203E
:1021700000F03EFF054B1D60E7E700BF003802405E
:1021800083DE1B43344F0020000001404400002048
:10219000FEE7FEE7FEE7FEE7FEE7704708B5024808
:1021A00001F0AEF808BD00BF2C58002008B5024869
:1021B00001F0A6F808BD00BFCC57002008B50248C2
:1021C00002F046FF08BD00BF344F002008B50248AA
:1021D00003F07CFD08BD00BFD458002030B583B0AB
:1021E0001B4C204603F072FD23681A6812F0100F92
:1021F0000DD1174C204603F069FD0023019323689D
:102200001A6801925B680193019B03B030BD002204
:1022100000921A6800925B680093009B204603F0CE
:102220001DFC0C4B1A685368C3F500630A490B6028
:1022300052680A4DC2F500622946094808F07EFA44
:102240004FF400622946204603F030FFD1E700BF7B
:102250008C5800202C5800207C4F0020804F0020FC
:102260001437002008B5024802F05CFB08BD00BF2F
:10227000F84D002008B5024801F042F808BD00BF43
:10228000984D002008B500200AF052F808BD000063
:1022900008B5024801F034F808BD00BF7C4E0020AC
:1022A00008B5024801F02CF808BD00BF384D0020E9
:1022B0000120704708B53DF0B1FC162303604FF0D4
:1022C000FF3008BD08B54FF0FF31FFF7F3FFFEE721
:1022D00070B50C461646002506E0AFF30080214697
:1022E00001F8010B01350C46B542F6DB304670BDF6
:1022F00070B50C461646002504E014F8010B00F0FA
:10230000B5F90135B542F8DB304670BD4FF0FF300E
:1023100070474FF400534B60002070470120704716
:102320000020704710B503460C4A0D490D4800685F
:1023300040B10C4800680344521A934206D8094A37
:10234000136010BD0748084C0460F2E73DF066FCDE
:102350000C2303604FF0FF30F3E700BF00000220C2
:102360000008000080570020A8C10120034AD2F8CD
:10237000883043F47003C2F88830704700ED00E005
:102380000268094B9A4200D0704782B00023019343
:10239000064B1A6C42F002021A641B6C03F0020333
:1023A0000193019B02B070470004004000380240D6
:1023B00000B587B000230193029303930493059320
:1023C00002680E4B9A4202D007B05DF804FB00236E
:1023D00000930B4B1A6B42F004021A631B6B03F061
:1023E00004030093009B802301930223029305932F
:1023F00001A9044801F074F8E6E700BF00040040BA
:10240000003802400008024000B58BB0002308935A
:1024100009930193029303930493059306930793FF
:102420001848194A026040F2E73242608360C26095
:102430000361836102F054FFD0B90023089309932C
:1024400008A9104803F0B0F8A8B96023019300234D
:1024500002930393059304220DEB0201094802F055
:10246000A3FF58B90748FFF7A3FF0BB05DF804FBC3
:10247000FFF76EFCE1E7FFF76BFCE6E7FFF768FCB0
:10248000F0E700BF845700200004004008B50A4868
:102490000A4B03604FF4E133436000238360C36061
:1024A00003610C2242618361C36103F0FEF900B94C
:1024B00008BDFFF74DFCFBE7D45800200010014099
:1024C00008B51048104B03604FF4E133436000231C
:1024D0008360C36003610C2242618361C36103F0C6
:1024E000E4F958B907480268D36843F01003D36091
:1024F0004FF40062054903F0D9FD08BDFFF728FC41
:10250000F0E700BF8C580020004800402059002010
:1025100030B58BB000230593069307930893099376
:1025200003684A4A934205D00446494A93422CD054
:102530000BB030BD00240194464B5A6C42F010029F
:102540005A645A6C02F010020192019A02941A6BBA
:1025500042F002021A631B6B03F002030293029B18
:10256000C0230593022506950323089307230993A7
:1025700005A9394800F0B4FF22462946252000F07D
:1025800037FD252000F044FDD2E700250395314BAF
:102590001A6C42F480221A641A6C02F480220392AC
:1025A000039A04951A6B42F002021A631B6B03F044
:1025B00002030493049B4FF44063059302230693A4
:1025C000032308930723099305A9234800F088FFF4
:1025D0002248234B03604FF0006343608560C56071
:1025E0004FF48063036145618561C56105624562A1
:1025F00000F08EFD18BB194BE3639C6319481A4B1E
:1026000003604FF000634360402383600023C36096
:102610004FF48062026143618361C361036243627C
:1026200000F076FD70B90F4BA3639C63002202217A
:10263000272000F0DDFC272000F0EAFC78E7FFF718
:1026400087FBD8E7FFF784FBEDE700BF00100140F0
:102650000048004000380240000402402C5800208E
:1026600028600240CC5700205860024000B583B07B
:1026700001904FF6FF73012201A9034803F045F9C9
:10268000019803B05DF804FBD458002008B51F4B37
:102690001F4A1A6002685A604379012B1FD0022B2F
:1026A00022D01A4B00221A618279184B9A60037962
:1026B000012B1ED0022B20D0144B0022DA601348CD
:1026C00000238361C3610C23436103F0EEF8C8B9B2
:1026D0004FF400620F490D4803F0E8FC08BD0B4BB6
:1026E0004FF4C0621A61DFE7084B4FF480621A6151
:1026F000DAE7064B0022DA60E1E7044B4FF40052C0
:10270000DA60DCE7FFF724FBE2E700BF8C5800202B
:10271000004800402059002010B50C460A460146EA
:10272000024803F059F9024B1C6010BD8C58002080
:102730002061002008B50268044B9A4200D008BD11
:10274000034B1868FEF77CFFF9E700BF0048004024
:1027500020610020DFF834D0FFF708FE0C480D4957
:102760000D4A002302E0D458C4500433C4188C42EC
:10277000F9D30A4A0A4C002301E013600432A24252
:10278000FBD33DF051FAFFF739FB70470000022000
:1027900000000020980A002010ED09086036002093
:1027A000A8C10120FEE7000008B501224FF48061B6
:1027B000034800F092FF034800F0FFF908BD00BF96
:1027C000000002403400002008B5024615210248EE
:1027D00000F080F908BD00BF3400002010B50A4C9D
:1027E00000224FF48061204600F077FF0A2000F0BD
:1027F00097FB01224FF48061204600F06EFF6420B9
:1028000000F08EFB10BD00BF0000024000B585B097
:1028100003AB00930423032215210F4800F087F92E
:102820009DF80C301B0203F470639DF80D201343D8
:10283000C3F1F00309490B609DF80E301B0203F44D
:1028400070639DF80F200F321343C3F58C734B60F8
:1028500005B05DF804FB00BF3400002024610020B7
:1028600008B50220FFF7B0FF08BD00B587B0002310
:102870000193029303930493059303890193012326
:1028800003930223049301A9006800F029FE07B016
:102890005DF804FB00B587B0002301930293039316
:1028A0000493059303890193112302930223049354
:1028B00001A9006800F014FE07B05DF804FB29B11F
:1028C0000268936901890B43936170470389026829
:1028D0001B049361704729B14268936941890B4396
:1028E00093617047438942681B049361704708B540
:1028F0000189006800F0EAFE012800D0002008BD30
:1029000010B504460121FFF7DAFF0220FFF7F4F9C2
:1029100001212046FFF7DFFF0120FFF7EDF900213D
:102920002046FFF7CCFF0120FFF7E6F90021204603
:10293000FFF7D1FF0120FFF7DFF910BD10B5044606
:102940000021FFF7C8FF0220FFF7D6F9002120463B
:10295000FFF7B5FF0120FFF7CFF901212046FFF770
:10296000BAFF0120FFF7C8F901212046FFF7A7FFB2
:102970000120FFF7C1F910BD70B50546FFF775FFDF
:1029800001212846FFF7A7FF05242846FFF7AFFFE0
:10299000064678B1013CA4B20120FFF7ADF9002C46
:1029A000F3D12846FFF776FF2846FFF7C7FF012639
:1029B000304670BD2846FFF76DFF00212846FFF71F
:1029C0008AFF0220FFF798F9F2E710B504460021CC
:1029D000FFF775FF0120FFF78FF901212046FFF770
:1029E0007AFF0120FFF788F900212046FFF773FFE7
:1029F0000120FFF781F910BD10B504460121FFF752
:102A00005EFF0120FFF778F901212046FFF763FF01
:102A10000120FFF771F900212046FFF75CFF02203B
:102A2000FFF76AF910BD70B506460C4608221BE098
:102A300000213046FFF74FFF0220FFF75DF904F059
:102A400080013046FFF73BFF0120FFF755F9640096
:102A5000E4B20120FFF750F901213046FFF73BFFB8
:102A60000120FFF749F92A46531EDDB2002ADFD1C3
:102A700000213046FFF72FFF0220FFF73DF970BD20
:102A800070B50646FFF7F1FE0024082215E0640049
:102A9000E4B200213046FFF71EFF0220FFF72CF9B9
:102AA00001213046FFF717FF0120FFF725F93046D7
:102AB000FFF71DFF0443E4B22A46531EDDB2002A8D
:102AC000E5D100213046FFF706FF3046FFF7E2FE72
:102AD000204670BD70B504460D461646FFF710FF40
:102AE0006D00EDB229462046FFF79DFF2046FFF717
:102AF00043FF31462046FFF796FF2046FFF73CFF95
:102B00002046FFF7FDFE691CC9B22046FFF78BFF88
:102B10002046FFF731FF2046FFF7B2FF054620466B
:102B2000FFF76AFF2046FFF709FF284670BD2DE931
:102B3000F84305460C4691461E46089FFFF7E0FE07
:102B40006400E4B221462846FFF76DFF2846FFF7F0
:102B500013FFA0B9804649462846FFF764FF284680
:102B6000FFF70AFF2846FFF7CBFE611CC9B22846D3
:102B7000FFF759FF2846FFF7FFFE444607E02846C7
:102B8000FFF7DCFE4FF0010814E00134E4B2B44278
:102B90000AD22846FFF774FF3855731E9C42F4DAB8
:102BA0002846FFF712FFF0E72846FFF725FF2846E3
:102BB000FFF7C4FE4046BDE8F88310B586B0044672
:102BC00000230193029303930493059303890193D4
:102BD0000123029303930223049301A9006800F0E8
:102BE0007FFC6389019301A9606800F079FC06B05D
:102BF00010BD10B5141AA3EB010C0CF1010C04FB71
:102C00000CC400F067F8610089B2029800F00EF879
:102C100010BD0000034B834200D07047024B0122DD
:102C20001A70FAE7DC4E00202C61002038B504460B
:102C30000D46002220210A4800F04FFD094B0022DA
:102C40001A702A462146084802F060F8054B1B78A6
:102C5000002BFBD001222021014800F03EFD38BDB1
:102C6000000402402C610020DC4E002000B583B03F
:102C70008DF8070001210DF10700FFF7D7FF03B022
:102C80005DF804FB00B583B0030A8DF804308DF8BD
:102C90000500022101A8FFF7C9FF03B05DF804FB9E
:102CA00010B582B08DF80700094C00224FF48071F6
:102CB000204600F012FD01210DF10700FFF7B6FFDD
:102CC00001224FF48071204600F007FD02B010BDD4
:102CD00000000240F8B507460D4616461C462A205D
:102CE000FFF7DEFF3846FFF7CDFF3046FFF7CAFF9C
:102CF0002B20FFF7D5FF05F1140080B2FFF7C2FFCC
:102D000004F1140080B2FFF7BDFF2C20FFF7C8FFCD
:102D1000F8BD0000014B9863704700BF00040040FD
:102D200010B5674C00224FF40071204600F0D5FC2E
:102D3000642000F0F5F801224FF40071204600F005
:102D4000CCFC642000F0ECF804215E4802F0AAFB01
:102D50005020FFF7DFFF642000F0E2F81120FFF7BA
:102D60009FFF782000F0DCF83620FFF799FFC020A5
:102D7000FFF77CFF3A20FFF793FF0520FFF776FF70
:102D8000B220FFF78DFF0C20FFF770FF0C20FFF73C
:102D90006DFF0020FFF76AFF3320FFF767FF332046
:102DA000FFF764FFB720FFF77BFF3520FFF75EFFDB
:102DB000BB20FFF775FF3220FFF758FFC220FFF757
:102DC0006FFF0120FFF752FFC320FFF769FF1520B7
:102DD000FFF74CFFC420FFF763FF2020FFF746FFFB
:102DE000C620FFF75DFF0F20FFF740FFD020FFF761
:102DF00057FFA420FFF73AFFA120FFF737FFE0209D
:102E0000FFF74EFFD020FFF731FF0820FFF72EFF1E
:102E10000E20FFF72BFF0920FFF728FF0920FFF7FF
:102E200025FF0520FFF722FF3120FFF71FFF33208A
:102E3000FFF71CFF4820FFF719FF1720FFF716FFC9
:102E40001420FFF713FF1520FFF710FF3120FFF7C5
:102E50000DFF3420FFF70AFFE120FFF721FFD0200C
:102E6000FFF704FF0820FFF701FF0E20FFF7FEFE2B
:102E70000920FFF7FBFE0920FFF7F8FE1520FFF7FA
:102E8000F5FE3120FFF7F2FE3320FFF7EFFE48207A
:102E9000FFF7ECFE1720FFF7E9FE1420FFF7E6FE30
:102EA0001520FFF7E3FE3120FFF7E0FE3420FFF7A7
:102EB000DDFE2120FFF7F4FE2920FFF7F1FE10BD13
:102EC000000002408457002008B50B4B1A6842F4FA
:102ED00000721A601A6842F480621A601A6842F43A
:102EE00080721A60032000F071F80F20FFF704F9D8
:102EF000FFF7E0F8002008BD003C0240034A1168DB
:102F0000034B1B780B441360704700BF30610020F7
:102F100040000020014B1868704700BF306100205E
:102F200038B50446FFF7F6FF0546B4F1FF3F02D07F
:102F3000044B1B781C44FFF7EDFF401BA042FAD363
:102F400038BD00BF40000020002807DB00F01F0252
:102F5000400901239340024A42F82030704700BFE5
:102F600000E100E0002808DB0901C9B200F160407F
:102F700000F5614080F80013704700F00F00090170
:102F8000C9B2014B1954704714ED00E000B500F0D0
:102F90000700C0F1070CBCF1040F28BF4FF0040C70
:102FA000031D062B0FD9C31E4FF0FF3E0EFA0CF087
:102FB00021EA000199400EFA03FE22EA0E0241EADC
:102FC00002005DF804FB0023EEE70000074AD36827
:102FD00023F4E0631B041B0C000200F4E0600343D5
:102FE00043F0BF6343F40033D360704700ED00E06B
:102FF00010B50446054BD868C0F30220FFF7C6FFA2
:1030000001462046FFF7AEFF10BD00BF00ED00E017
:1030100008B5FFF799FF08BD30B405682C6824F4A3
:1030200080242C60046863608368402B05D00368AB
:1030300099600368DA6030BC704703689A6003687F
:10304000D960F8E710B40368D9B210390A4AA2FB74
:1030500001421209094CA25CC2655F2907D96FF3CE
:10306000090304338365806D5DF8044B70476FF38B
:1030700009038365F7E700BFABAAAAAAD0AD04088D
:10308000836A826992B9012B0AD0022B02D00BB15C
:1030900000207047C36A13F0807F28D1002070475A
:1030A000C36AB3F1C07F24D000207047B2F5005F3F
:1030B00009D0022B25D9032B25D1C36A13F0807FB9
:1030C00023D100207047032B03D8DFE803F014045A
:1030D000140A00207047C36A13F0807F0DD10020CE
:1030E0007047C36AB3F1C07F09D000207047012048
:1030F0007047012070470120704701207047012070
:103100007047012070470020704701207047000081
:1031100070B50446FFF7FEFE002C5BD00546022387
:1031200084F83530002384F834302268136823F0A3
:103130000103136023681A6812F0010F0AD0FFF729
:10314000E9FE431B052BF5D920236365032084F892
:10315000350070BD1A68204911406268A0680243BA
:10316000E06802432069024360690243A0690243A8
:10317000E0690243206A02430A43616A04291ED0BF
:103180001A602668756925F00705636A1D43042BDC
:1031900007D1A36A1D43E36A1BB12046FFF770FF06
:1031A00090B975612046FFF74DFFE26D3F239340D4
:1031B000836000206065012384F83530C9E7E16A47
:1031C000206B01430A43DBE740236365012084F859
:1031D0003500BEE70120BCE73F8010F038B504465B
:1031E000856D90F8340001282BD0012084F834003C
:1031F00094F83500C0B2012804D0002384F834309C
:10320000022038BD022084F8350000206065204689
:10321000FFF702FFE26D3F239340AB602268136823
:1032200043F016031360236C23B12268136843F044
:10323000080313602268136843F001031360002041
:10324000DFE70220DDE770B50446866DFFF762FE1A
:1032500094F83530DBB2022B06D08023636500235F
:1032600084F83430012070BD05462268136823F0CD
:10327000160313602268536923F080035361236CA3
:10328000E3B12268136823F008031360226813680F
:1032900023F00103136023681B6813F0010F11D0A2
:1032A000FFF738FE431B052BF5D920236365032068
:1032B00084F83500002384F83430D4E7A36C002B65
:1032C000DFD1E3E7E26D3F239340B360012384F84D
:1032D0003530002084F83400C5E790F83530DBB293
:1032E000022B03D08023436501207047052380F81B
:1032F00035300268136823F0010313600020704723
:10330000F0B583B0044600230193724B1D68724BE5
:10331000A3FB0535AD0A876D3E68C26D0823934057
:10332000334210D003681A6812F0040F0BD01A68E9
:1033300022F004021A60C26D08239340BB60436D03
:1033400043F001034365E26D01239340334209D00A
:103350002268526912F0800F04D0BB60636D43F0A5
:1033600002036365E26D04239340334209D022686F
:10337000126812F0020F04D0BB60636D43F00403C7
:103380006365E26D10239340334224D022681268B3
:1033900012F0080F1FD0BB6023681A6812F4802F48
:1033A0000DD01B6813F4002F04D1236C9BB1204671
:1033B000984710E0A36C73B1204698470BE01A6859
:1033C00012F4807F03D11A6822F008021A60236C7D
:1033D0000BB120469847E26D20239340334255D0ED
:1033E0002268126812F0100F50D0BB6094F835308C
:1033F000DBB2052B0ED023681A6812F4802F33D06D
:103400001B6813F4002F2AD1636C002B3ED020469A
:1034100098473BE02268136823F016031360226884
:10342000536923F080035361236CA3B122681368AE
:1034300023F008031360E26D3F239340BB60012338
:1034400084F83530002384F83430236D002B3FD0CE
:10345000204698473CE0A36C002BE7D1EBE7E36BF9
:10346000A3B12046984711E01A6812F4807F09D171
:103470001A6822F010021A60012384F83530002304
:1034800084F83430E36B0BB120469847636DFBB191
:10349000636D13F0010F17D0052384F835302268CF
:1034A000136823F001031360019B01330193AB42C6
:1034B00004D823681B6813F0010FF5D1012384F8A9
:1034C0003530002384F83430E36C0BB12046984744
:1034D00003B0F0BD30000020B5814E1B406D704739
:1034E00000230F2B00F2E98070B582B065E085689B
:1034F0004FEA430E032404FA0EF425EA0405CC68CF
:1035000004FA0EF42C438460446824EA02044A68F6
:10351000C2F300129A40224342605CE0DC080834A7
:1035200050F8242003F00705AD004FF00F0E0EFAFF
:1035300005FE22EA0E0E0A69AA4042EA0E0240F88F
:1035400024205CE0072200E0002202FA0EF22A4367
:1035500002345A4D45F82420594A94686FEA0C0207
:1035600024EA0C054E6816F4801F01D04CEA0405CD
:10357000534CA560E46802EA04054E6816F4001F87
:1035800001D04CEA04054E4CE560646802EA04058B
:103590004E6816F4003F01D04CEA0405484C6560C3
:1035A000246822404D6815F4803F01D04CEA0402A3
:1035B000434C226001330F2B7DD801229A400C68C6
:1035C00004EA020C32EA0404F4D14C6804F0030467
:1035D000013C012C8BD94A6802F00302032A09D06E
:1035E000C4685D000322AA4024EA02048A68AA4053
:1035F0002243C2604A6802F00302022A8ED00468A5
:103600004FEA430E032202FA0EF224EA02044A6849
:1036100002F0030202FA0EF2224302604A6812F438
:10362000403FC7D000220192264A546C44F48044A3
:103630005464526C02F480420192019A9C08A51CC9
:103640001E4A52F8255003F0030E4FEA8E0E0F2249
:1036500002FA0EF225EA02051B4A90423FF474AFCB
:1036600002F5806290421AD002F58062904218D032
:1036700002F58062904216D002F58062904214D02A
:1036800002F58062904212D002F58062904210D022
:1036900002F5806290423FF455AF082255E70122BF
:1036A00053E7022251E703224FE704224DE70522A8
:1036B0004BE7062249E702B070BD70470038014071
:1036C000003C0140003802400000024003691942FA
:1036D00001D001207047002070470AB18161704716
:1036E000090481617047436901EA030221EA030189
:1036F00041EA024181617047002800F0E08170B525
:1037000082B00446036813F0010F3BD09F4B9B68C7
:1037100003F00C03042B2CD09C4B9B6803F00C0390
:10372000082B21D06368B3F5803F4FD0B3F5A02FAD
:1037300052D0964B1A6822F480321A601A6822F42A
:1037400080221A606368002B50D0FFF7E3FB054628
:103750008E4B1B6813F4003F14D1FFF7DBFB401BBB
:103760006428F5D90320B1E1884B5B6813F4800F1E
:10377000D8D0864B1B6813F4003F03D06368002B3E
:1037800000F09F81236813F0020F54D07F4B9B6899
:1037900013F00C0F3ED07D4B9B6803F00C03082BFD
:1037A00033D0E368002B68D0794B01221A60FFF711
:1037B000B1FB0546754B1B6813F0020F54D1FFF7A0
:1037C000A9FB401B0228F5D903207FE16F4A13684B
:1037D00043F480331360B5E76C4B1A6842F48022DF
:1037E0001A601A6842F480321A60ABE7FFF792FB66
:1037F0000546664B1B6813F4003FC3D0FFF78AFBF6
:10380000401B6428F5D9032060E1604B5B6813F42A
:10381000800FC6D15D4B1B6813F0020F03D0E36825
:10382000012B40F05081594A136823F0F8032169B5
:1038300043EAC1031360236813F0080F42D06369A1
:103840006BB3534B0122C3F8802EFFF763FB054691
:103850004E4B5B6F13F0020F34D1FFF75BFB401B45
:103860000228F5D9032031E1484A136823F0F80310
:10387000216943EAC1031360DDE7454B00221A606A
:10388000FFF748FB0546414B1B6813F0020FD2D0EF
:10389000FFF740FB401B0228F5D9032016E13C4B03
:1038A0000022C3F8802EFFF735FB0546374B5B6FD0
:1038B00013F0020F06D0FFF72DFB401B0228F5D9AD
:1038C000032003E1236813F0040F77D02F4B1B6C08
:1038D00013F0805F33D1002301932C4B1A6C42F01C
:1038E00080521A641B6C03F080530193019B0125E5
:1038F000284B1B6813F4807F23D0A368012B34D09E
:10390000052B38D0214B1A6F22F001021A671A6F6B
:1039100022F004021A67A368002B3DD0FFF7FAFAE1
:1039200006461A4B1B6F13F0020F46D1FFF7F2FA4F
:10393000801B41F288339842F3D90320C6E000256A
:10394000D6E7144A136843F480731360FFF7E2FA72
:103950000646104B1B6813F4807FCED1FFF7DAFACE
:10396000801B0228F5D90320B0E0084A136F43F00A
:1039700001031367CFE7054B1A6F42F004021A6781
:103980001A6F42F001021A67C5E700BF0038024013
:103990000000474200700040FFF7BCFA0646524B59
:1039A0001B6F13F0020F08D0FFF7B4FA801B41F22F
:1039B00088339842F3D9032088E0EDB9A369002B3E
:1039C00000F08380484A926802F00C02082A51D025
:1039D000022B17D0454B00221A66FFF79BFA0446CC
:1039E000414B1B6813F0007F42D0FFF793FA001B96
:1039F0000228F5D9032069E03B4A136C23F0805379
:103A00001364DBE7394B00221A66FFF783FA054699
:103A1000354B1B6813F0007F06D0FFF77BFA401B85
:103A20000228F5D9032051E0E369226A1343626A50
:103A300043EA8213A26A5208013A43EA0243E26A65
:103A400043EA0263284A5360284B01221A66FFF7B3
:103A500061FA0446244B1B6813F0007F06D1FFF780
:103A600059FA001B0228F5D903202FE000202DE091
:103A700000202BE0012B2BD01B4B5B6803F4800153
:103A8000E269914226D103F03F02216A8A4223D1A2
:103A9000616A47F6C0721A40B2EB811F1ED103F46F
:103AA0004031A26A5208013AB1EB024F18D103F03B
:103AB0007063E26AB3EB026F14D1002006E00120CC
:103AC0007047012002E0012000E0002002B070BD3C
:103AD0000120FBE70120F9E70120F7E70120F5E7E6
:103AE0000120F3E70120F1E70038024000004742DF
:103AF00008B5334B9B6803F00C03042B5BD0082BF9
:103B00005BD12F4B5A6802F03F025B6813F4800FC1
:103B10002CD02B4B5868C0F388104FEA401CBCEBEC
:103B2000000C6EEB0E0E4FEA8E1343EA9C634FEAD5
:103B30008C11B1EB0C0163EB0E03DB0043EA517314
:103B4000C90011EB000C43F10003590200234FEAB6
:103B50004C2041EADC51FCF733FB194B5B68C3F3A3
:103B6000014301335B00B0FBF3F008BD144B586810
:103B7000C0F388104FEA401CBCEB000C6EEB0E0E3D
:103B80004FEA8E1343EA9C634FEA8C11B1EB0C01B0
:103B900063EB0E03DB0043EA5173C90011EB000C29
:103BA00043F10003990200234FEA8C2041EA9C5123
:103BB000FCF706FBD1E70348D7E70348D5E700BF8A
:103BC0000038024000127A000024F400002800F0BF
:103BD0009B8070B50D4604464F4B1B6803F00703EE
:103BE0008B4208D2CBB24C4A1370136803F0070320
:103BF0008B4240F08B80236813F0020F17D013F034
:103C0000040F04D0454A936843F4E053936023685B
:103C100013F0080F04D0414A936843F46043936063
:103C20003E4A936823F0F003A1680B439360236836
:103C300013F0010F32D06368012B21D09A1E012AA4
:103C400025D9364A126812F0020F61D033498A68CA
:103C500022F0030213438B60FFF75CF906462F4BFB
:103C60009B6803F00C036268B3EB820F16D0FFF77A
:103C700051F9801B41F288339842F0D9032042E089
:103C8000264A126812F4003FE0D101203BE0234AAB
:103C9000126812F0007FD9D1012034E01E4B1B685E
:103CA00003F00703AB4207D9EAB21B4B1A701B683B
:103CB00003F00703AB422DD1236813F0040F06D0A5
:103CC000164A936823F4E053E1680B43936023683A
:103CD00013F0080F07D0114A936823F46043216959
:103CE00043EAC1039360FFF703FF0C4B9B68C3F3E8
:103CF00003130B4AD35CD8400A4B18600A4B186870
:103D0000FEF7FAF9002070BD012070470120FAE7A4
:103D10000120F8E70120F6E7003C024000380240AD
:103D2000C0AD04083000002044000020014B18689A
:103D3000704700BF3000002008B5FFF7F7FF044BC5
:103D40009B68C3F38223034AD35CD84008BD00BFFD
:103D500000380240B8AD040808B5FFF7E7FF044B90
:103D60009B68C3F34233034AD35CD84008BD00BF0D
:103D700000380240B8AD04080F2303600B4B9A686B
:103D800002F0030242609A6802F0F00282609A68D0
:103D900002F4E052C2609B68DB0803F4E053036165
:103DA000034B1B6803F007030B60704700380240A9
:103DB000003C0240836B1A68D36B43F48073D36377
:103DC0007047000070B582B004460023019300687C
:103DD00002F0EDF9054610B1284602B070BD20682A
:103DE00002F0DEFC38B90123A364A36C012B0BD0D5
:103DF0002E46284614E00023A364206802F0D7F979
:103E00000028F2D00546E7E70021206802F036FBE3
:103E10000028EDD04FF08055DEE7019B0133019380
:103E2000019A4FF6FE739A4213D896B90021206882
:103E300002F024FBE0B91249206802F0FDFB0646BF
:103E4000C0B90021206802F09DF9C30FE5D01E46DD
:103E5000E3E7019A4FF6FE739A420ED810F08043C2
:103E600002D001236364B7E7002262641D46B3E712
:103E70000546B1E74FF08055AEE74FF08075ABE7F0
:103E8000000010C1F8B5846AC66AA6B9F8BD3868E2
:103E900002F055F92070C0F307236370C0F30743A5
:103EA000A370000EE0700434043E0135072DEED9F6
:103EB000BC62FE62EAE707460025F7E7F0B583B08B
:103EC000046A466ADEB903B0F0BD237801936278D4
:103ED00043EA02230193A27843EA02430193E27882
:103EE00043EA026301930434043E01A9386802F0F6
:103EF00029F90135072DE8D93C627E62E3E70746E0
:103F00000025F7E7F0B589B004460F46FFF702F841
:103F100006460023009301930821206802F004FA6A
:103F2000054610B1284609B0F0BD216D090420688E
:103F300002F0A4FA05460028F4D14FF0FF330293B3
:103F4000082303933023049302230593002306934D
:103F50000123079302A9206802F017F9206802F0F4
:103F6000BDFA054658B1DDE702F0E9F84DF8250045
:103F70000135FEF7CFFF831BB3F1FF3F43D020682D
:103F8000436B13F02A0F07D1436B13F4001FEBD1DF
:103F9000436B13F4005FECD1436B13F0080F29D18E
:103FA000436B13F4007F25D1436B13F0020F24D130
:103FB000456B15F0200523D140F23A538363019AF3
:103FC000130203F47F0343EA0263110A01F47F4101
:103FD0000B4343EA12633B60009A130203F47F032E
:103FE00043EA0263110A01F47F410B4343EA12637F
:103FF0007B6097E70825856394E70225856391E751
:10400000202585638EE74FF000458BE710B582B021
:104010000446002100910191006802F0B3F810F00D
:10402000007F13D169462046FFF76CFF80B9019BE2
:1040300013F4802F0ED0216D0904206802F01EFABF
:1040400030B90221206802F031FA01E04FF400603B
:1040500002B010BD4FF08060FAE710B582B00446A0
:10406000002100910191006802F08CF810F0007FAF
:1040700013D169462046FFF745FF80B9019B13F431
:10408000803F0ED0216D0904206802F0F7F930B9A5
:104090000021206802F00AFA01E04FF4006002B04B
:1040A00010BD4FF08060FAE770B581B104460E464E
:1040B000016D0904006802F029FA054608B1284696
:1040C00070BD0021206802F05DF83060F7E74FF026
:1040D0000065F4E72DE9F04387B0044691B1164638
:1040E0001F460A4690F83450EDB2012D7FD10023CF
:1040F0008363F019E36D98420AD9A36B43F0007310
:10410000A36375E0836B43F00063836301256FE075
:10411000032384F8343023680021D9622068C36BFC
:1041200043F44A7343F00203C363236C3348D863F8
:10413000236C3348D864236C1965236C9960206C18
:1041400001680B6823F0C003806803430B6021689B
:104150004FEA47294FEA99038031206CFFF73EF878
:10416000804668BB274B0122C3F88C25636C9342C1
:1041700000D076024FF0FF330093CDF804909023E7
:1041800002930223039300230493012305936946BA
:10419000206801F0FAFF012F22D9822323633146E0
:1041A000206802F0F1F838B32368174A9A63A36BCA
:1041B0000343A363012384F834300023236317E00F
:1041C0002268D36B23F49573D36323680E4A9A63F2
:1041D000A36B43F08043A363012384F8343007E0EA
:1041E000812323633146206802F0B6F8DBE702251D
:1041F000284607B0BDE8F0834546F9E74B43000881
:104200003548000800802542FF054000F0B587B022
:10421000044600293BD01E460F4690F83450EDB2BC
:10422000012D40F08480002383639319C16D8B427C
:1042300033D8032380F8343003680021D962006842
:10424000C36B43F4067343F00203C363E36B3A4862
:10425000D863E36B3948D864E36B1965636C012B51
:1042600000D05202012E1DD9A023236311462068DD
:1042700002F0BAF8E8B12368314A9A63A36B0343AA
:10428000A363012384F834300023236350E0836B5D
:1042900043F00063836301254AE0836B43F00073BE
:1042A000836345E0902323631146206802F084F87D
:1042B000E0E7244B0122C3F88C25E36B40229A608F
:1042C000E16B0A68136823F0C00389680B4313602D
:1042D00022687602B30880323946E06BFEF77EFF33
:1042E000074698B12268D36B23F4067323F00203C8
:1042F000D3632368124A9A63A36B43F08043A3639A
:10430000012384F834300023236311E04FF0FF339E
:1043100000930196902302930023039304930123B7
:1043200005936946206801F030FF3D4600E0022514
:10433000284607B0F0BD00BFB53D0008354800086D
:10434000FF05400000802542704710B5846B236B49
:10435000822B11D02268D36A23F00803D36223682A
:1043600040F23A529A63012384F8343000232363E5
:10437000204602F070FA10BD206802F04DF80346A6
:104380000028E7D0A26B1343A3632046FFF7DCFFAE
:10439000E0E700000346426E920F0A70426EC2F3DD
:1043A00083624A7090F8672002F003028A7090F8E6
:1043B0006620CA7090F865200A7190F864204A71EE
:1043C000826E120DCA80B0F86A2002F00F020A72E3
:1043D000826EC2F3C0324A72826EC2F380328A7237
:1043E000826EC2F34032CA72826EC2F300320A7326
:1043F00000224A73426C002A40F08680806E40F6AC
:10440000FC7202EA8002D86E42EA90720A61DA6EA9
:10441000C2F3C2620A7593F86F2002F007024A7570
:10442000DA6EC2F342528A75DA6EC2F38242CA75FC
:10443000DA6EC2F3C2320A760A6901325A65087E20
:1044400000F00700023082405A6591F808C00CF075
:104450000F0C012000FA0CF09865400A00FB02F2F4
:10446000DA654FF400721A66DA6EC2F380324A7669
:10447000DA6EC2F3C6128A76DA6E02F07F02CA766C
:104480001A6FD20F0A771A6FC2F341724A771A6F06
:10449000C2F382628A771A6FC2F38352CA771A6FA5
:1044A000C2F3405281F82020002081F82100B3F8A7
:1044B000722002F0010281F822201A6FC2F3C0328A
:1044C00081F823201A6FC2F3803281F824201A6FFA
:1044D000C2F3403281F825201A6FC2F3003281F80E
:1044E00026201A6FC2F3812281F827201A6FC2F3A7
:1044F000012281F828201B6FC3F3460381F829307D
:10450000012381F82A307047012A11D1826E1204EA
:1045100002F47C12B0F86E0002430A610A690132AB
:1045200092025A65DA654FF400729A651A669BE743
:10453000026805499163826B42F0805282630120D8
:1045400083F83400704700BFFF05400070B590B09D
:1045500004460123ADF81230006801F0FCFD00288C
:104560006CD0636C032B45D1636C032B5DD1636C02
:10457000032B1DD0BDF8121021650904206802F03C
:1045800020F8054600285BD10021206801F0FAFDE3
:1045900060660421206801F0F5FDA066082120680E
:1045A00001F0F0FDE0660C21206801F0EBFD2067D2
:1045B0000421206801F0E6FD000DE06405A9204615
:1045C000FFF7E8FE00283ED1226D12040023206888
:1045D00001F03CFF054698BB234653F8106B93E867
:1045E00007008DE80700043494E80E00304601F01F
:1045F0008DFD25E0206801F0CFFF054600BB0021BE
:10460000206801F0BFFD60670421206801F0BAFD59
:10461000A0670821206801F0B5FDE0670C21206843
:1046200001F0B0FDC4F880009EE70DF11201206892
:1046300002F06CF80546002899D001E04FF0806543
:10464000284610B070BD4FF08055F9E770B58AB0BC
:104650000446002304930593069307930893762357
:1046600009930AAB13E907008DE8070004AB0ECBF2
:10467000206801F04BFD18B1012528460AB070BD35
:1046800005461A4E0023C6F8A030206801F05FFDF1
:104690000123C6F8A0300220FEF742FC2046FFF7B7
:1046A00091FB30B1012584F83450A36B0343A3631D
:1046B000E3E72046FFF74AFF30B1012584F8345084
:1046C000A36B0343A363D8E74FF40071206801F0A4
:1046D0002BFE0028D1D0236805499963A36B0343BF
:1046E000A363012584F83450C7E700BF008025424A
:1046F000FF054000A8B110B5044690F8343063B10E
:10470000032384F834302046FFF7A0FF58B9A06394
:104710002063012384F8343010BD0377FDF79AFB42
:10472000EEE7012070470120F6E7436C0B60836CD5
:104730004B60C36C8B60036DCB60436D0B61836D0D
:104740004B61C36D8B61036ECB610020704700002D
:1047500030B58BB004460D46032380F83430436CEB
:10476000032B1CD0B1F5805F08D0B1F5006F0AD0E3
:1047700079B1836B43F00063836314E0836B43F090
:10478000805383630FE0FFF741FCA36B0343A363F4
:1047900009E0FFF762FCA36B0343A36303E0836BB1
:1047A00043F080538363A36BC3B12368174A9A63B2
:1047B000012584F834504FF40071206801F0B4FDF5
:1047C00030B1236811499963A36B0343A3630125A7
:1047D000012384F8343028460BB030BD636804935D
:1047E000A3680593E3680693079563690893A36933
:1047F00009930AAB13E907008DE8070004AB0ECB61
:10480000206801F083FC0025D5E700BFFF054000CC
:1048100010B582B004460023019301A9FFF744FCC0
:1048200010B1A36B0343A3630198C0F3432002B00C
:1048300010BD000010B5846BFEF750FE02280AD0B0
:10484000236C5B6DE26B526D012B05D0012A03D006
:104850002046FFF779FD10BD23680F4A9A6322684E
:10486000D36B23F49D73D363A36B43F08043A363A3
:104870002046FFF7CDFF0538012805D9012384F82C
:10488000343000232363E3E7206801F0C5FDA36B08
:104890000343A363F2E700BFFF05400010B5846B3C
:1048A000236840F23A529A632046FFF7B1FF012392
:1048B00084F83430002323630538012805D9A36B1D
:1048C00053B9204601F0BFFF10BD206801F0A4FDE0
:1048D000A36B0343A363F2E72046FFF735FDF3E73D
:1048E00010B5846B236840F23A529A632046FFF772
:1048F0008FFF012384F83430002323630538012817
:1049000005D9A36B53B9204601F09DFF10BD206867
:1049100001F082FDA36B0343A363F2E72046FFF798
:1049200013FDF3E738B50446056B03685A6B12F4C0
:10493000004F02D015F0080F28D15A6B12F4807F77
:104940005AD04FF480729A632268D36B23F44343A6
:1049500023F03A03D3632268D36A23F00103D362BE
:1049600015F0080F26D015F0220F12D1236840F25F
:104970003A529A63012384F834300023236315F0FC
:10498000030F13D0204601F066FF01E0FFF77AFA2B
:1049900038BD206801F040FD03460028E6D0A26B38
:1049A0001343A3632046FFF7CFFCDFE7204601F067
:1049B0004EFFEDE715F0800FEAD015F0200F0ED175
:1049C00015F0030FE4D12268D36A23F00803D36201
:1049D000012384F83430204601F039FFD8E72068FD
:1049E00001F01AFD03460028EAD0A26B1343A3632B
:1049F0002046FFF7A9FCE3E75A6B12F4804F02D080
:104A000015F0080F55D1596B40F23A221142BFD030
:104A10005A6B12F0020F03D0A26B42F00202A263A3
:104A20005A6B12F0080F03D0A26B42F00802A26387
:104A30005A6B12F0200F03D0A26B42F02002A26347
:104A40005A6B12F0100F03D0A26B42F01002A26357
:104A50005A6B12F4007F03D0A26B42F00802A263EB
:104A600040F23A729A632268D36B23F44E7323F0B8
:104A70000203D363206801F0CFFCA36B0343A3635D
:104A800015F0080F19D115F0800F81D015F0300FF7
:104A90001CD115F0030F26D0236C184A1A65206C20
:104AA000FEF71BFC00283FF473AF206CFFF718FFE4
:104AB0006EE72046FFF702FA6AE7012384F83430F4
:104AC000002323632046FFF73FFC61E7E36B0C4ABA
:104AD0001A65E06BFEF701FC00283FF459AFE06B6C
:104AE000FFF7DCFE54E70023A363012284F834209F
:104AF0002363204601F0A7FE4AE700BFE148000813
:104B00009D4800082DE9F04782B0054688461746C3
:104B10001E46FEF7FFF90A9B1B1A03EB0609FEF778
:104B2000F9F98246284B1B68C3F3CB3309FB03F327
:104B300001932B689C6838EA04040CBF012300230E
:104B4000BB423DD0B6F1FF3FF3D0FEF7E3F9A0EB57
:104B50000A00484507D2019A02B14A46019B013B2F
:104B600001939146E5E72A68536823F0E003536018
:104B70006B68B3F5827F0BD0AB6AB3F5005F14D0DE
:104B8000012385F85130002385F85030032018E0C8
:104B9000AB68B3F5004F02D0B3F5806FECD12A6853
:104BA000136823F040031360E6E72A68136823F4D0
:104BB000005313602A68136843F400531360DFE75F
:104BC000002002B0BDE8F0873000002070B584B04E
:104BD00004460D46164600920B4601220221FFF7BD
:104BE00091FFD0B9174B1B68174AA2FB03235B0D3B
:104BF0004FF47A7202FB03F303936368B3F5827F89
:104C000011D0039B3BB1039B013B039323689B683B
:104C100013F0800FF5D104B070BD636D43F0200335
:104C200063650320F7E700962B460022802120468B
:104C3000FFF768FF0028EED0636D43F02003636543
:104C40000320E8E730000020819F5E1600285AD03C
:104C500010B50446436A33B94368B3F5827F05D083
:104C60000023C36102E00023036143610023A362C8
:104C700094F85130002B40D0022384F85130226840
:104C8000136823F040031360636803F48273A2681F
:104C900002F404421343E26802F4006213432269FF
:104CA00002F002021343626902F001021343A26997
:104CB00002F400721343E26902F038021343226ADD
:104CC00002F080021343A26A02F4005221681343E7
:104CD0000B60638B03F00403626A02F01002216828
:104CE00013434B602268D36923F40063D36100202F
:104CF0006065012384F8513010BD84F8503020469F
:104D0000FDF782F9B8E701207047000038B590F848
:104D10005150EDB2012D5DD1044600295BD0002A2F
:104D200059D090F85030012B57D0012380F85030E3
:104D3000032380F851300023436501638286C286D5
:104D40008363436403648387C3878368B3F5004F39
:104D50002DD0A36C224A1A64A36C224ADA63A36C96
:104D6000214ADA64A36C00221A652268E38E9BB2A2
:104D70000C32216BA06CFEF731FA014610BB2368A0
:104D80001A6812F0400F03D11A6842F040021A600C
:104D9000002384F850302268536843F020035360A6
:104DA0002268536843F0020353600D4613E0026823
:104DB000136823F0400313600268136843F48043D0
:104DC0001360C6E7636D43F010036365002384F846
:104DD000503000E00225284638BD0225FBE700BF21
:104DE000EF4D00081D4E0008FB4D0008704708B548
:104DF000806BFFF7FBFF08BD704708B5806B02684A
:104E0000536823F003035360436D43F0100343657D
:104E1000012380F85130FFF7EFFF08BD30B583B0B4
:104E20000546846BFEF776F82B681B6813F4807FC9
:104E300023D1024621684B6823F020034B60216890
:104E40004B6823F002034B6064212046FFF7BEFE4F
:104E500018B1636D43F020036365A36833B9019310
:104E60002368DA6801929B680193019B0023E38623
:104E7000012384F85130636D23B92046FDF7CAFE43
:104E800003B030BD2046FFF7B7FFF9E730B4036A3F
:104E9000026A22F0010202624268846924F0730C03
:104EA0000C6844EA0C0423F0020C8B6843EA0C0300
:104EB000114DA84203D005F58065A84205D123F025
:104EC0000803CD682B4323F004030B4DA84203D005
:104ED00005F58065A84207D122F440724D6945EA84
:104EE000020C8A6942EA0C02426084614A684263A9
:104EF000036230BC704700BF0000014030B4036A59
:104F0000026A22F4807202624268C46924F0730C5F
:104F10000C6844EA0C0523F400738C6843EA04230C
:104F2000114CA04203D004F58064A04206D123F4C2
:104F30000063CC6843EA042323F480630A4CA04254
:104F400003D004F58064A04207D122F440524C699A
:104F500042EA04128C6942EA04124260C5614A685E
:104F6000C263036230BC70470000014030B4036A82
:104F7000026A22F4805202624468C26922F4E64264
:104F80000D6842EA052223F400538D6843EA053395
:104F9000094DA84203D005F58065A84204D124F448
:104FA00080444D6944EA85144460C2614A680264E1
:104FB000036230BC704700BF000001407047000032
:104FC00090F83D30DBB2012B37D1022380F83D3021
:104FD0000268D36843F00103D3600368194A93421F
:104FE00020D0B3F1804F1DD0A2F57C42934219D05E
:104FF00002F58062934215D002F58062934211D08F
:1050000002F5784293420DD002F57052934209D0D6
:10501000A2F59432934205D01A6842F001021A6058
:10502000002070479A6802F00702062A07D01A6823
:1050300042F001021A6000207047012070470020F2
:10504000704700BF000001407047704770477047CD
:1050500070B504460368DE681D6915F0020F10D0B4
:1050600016F0020F0DD06FF002021A6101230377D0
:1050700003689B6913F0030F5ED0FFF7E6FF002380
:10508000237715F0040F12D016F0040F0FD0236809
:105090006FF004021A610223237723689B6913F4DB
:1050A000407F4FD02046FFF7D0FF0023237715F035
:1050B000080F12D016F0080F0FD023686FF0080207
:1050C0001A61042323772368DB6913F0030F40D0B0
:1050D0002046FFF7BAFF0023237715F0100F12D0F8
:1050E00016F0100F0FD023686FF010021A6108231A
:1050F00023772368DB6913F4407F31D02046FFF724
:10510000A4FF0023237715F0010F02D016F0010F42
:105110002DD115F0800F02D016F0800F2FD115F091
:10512000400F02D016F0400F31D115F0200F02D001
:1051300016F0200F33D170BDFFF786FF2046FFF732
:1051400085FF9CE72046FFF77FFF2046FFF77EFFA5
:10515000ABE72046FFF778FF2046FFF777FFBAE777
:105160002046FFF771FF2046FFF770FFC9E723686D
:105170006FF001021A612046FCF7DEFDC9E72368E3
:105180006FF080021A61204600F055FAC7E72368E5
:105190006FF040021A612046FFF759FFC5E7236808
:1051A0006FF020021A61204600F044FAC3E70000C5
:1051B0000368344A904212D0B0F1804F0FD0A2F56C
:1051C0007C4290420BD002F58062904207D002F5FB
:1051D0008062904203D002F57842904203D123F0DE
:1051E00070034A681343274A90422AD0B0F1804F97
:1051F00027D0A2F57C42904223D002F580629042F3
:105200001FD002F5806290421BD002F57842904296
:1052100017D002F57052904213D002F5806290428E
:105220000FD002F5806290420BD0A2F598329042E6
:1052300007D002F58062904203D002F5806290426E
:1052400003D123F44073CA68134323F080034A69EF
:10525000134303608B68C3620B688362094B9842F7
:1052600003D003F58063984201D10B6903630123E6
:105270004361036913F0010F03D0036923F00103B5
:10528000036170470000014040B310B5044690F838
:105290003D30F3B1022384F83D30214651F8040B30
:1052A000FFF786FF012384F8463084F83E3084F807
:1052B0003F3084F8403084F8413084F8423084F83C
:1052C000433084F8443084F8453084F83D30002081
:1052D00010BD80F83C30FFF771FEDBE7012070471E
:1052E00040B310B5044690F83D30F3B1022384F882
:1052F0003D30214651F8040BFFF75AFF012384F893
:10530000463084F83E3084F83F3084F8403084F8EA
:10531000413084F8423084F8433084F8443084F8D3
:10532000453084F83D30002010BD80F83C30FDF75A
:1053300027F8DBE70120704730B4036A026A22F0E5
:10534000100202624468826922F4E6420D6842EA71
:10535000052223F020038D6843EA0513114DA8426E
:1053600003D005F58065A84206D123F08003CD68FF
:1053700043EA051323F040030A4DA84203D005F584
:105380008065A84207D124F440644D6944EA85044D
:105390008D6944EA8504446082614A6882630362DD
:1053A00030BC70470000014038B590F83C30012B0C
:1053B00066D004460D46012380F83C300C2A5AD8AA
:1053C000DFE802F0075959591B59595930595959B1
:1053D00044000068FFF75AFD2268936943F0080310
:1053E00093612268936923F00403936122689369AF
:1053F00029690B43936100203EE00068FFF79CFFA2
:105400002268936943F4006393612268936923F4EB
:105410008063936122689369296943EA0123936158
:10542000002029E00068FFF769FD2268D36943F096
:105430000803D3612268D36923F00403D36122688F
:10544000D36929690B43D361002015E00068FFF799
:105450008DFD2268D36943F40063D3612268D36968
:1054600023F48063D3612268D369296943EA012365
:10547000D361002000E00120002384F83C3038BDD7
:105480000220FCE701F01F014FF0010C0CFA01FCB7
:10549000036A23EA0C030362036A8A40134303622C
:1054A0007047000010B504460846002942D194F820
:1054B0003E30DBB2013B18BF0123002B6ED1002828
:1054C00051D1022384F83E30012201462068FFF7C3
:1054D000D9FF2368334A934203D002F58062934296
:1054E00003D15A6C42F400425A6423682D4A934215
:1054F00049D0B3F1804F46D0A2F57C42934242D0CE
:1055000002F5806293423ED002F5806293423AD027
:1055100002F57842934236D002F57052934232D06F
:10552000A2F5943293422ED01A6842F001021A601A
:10553000002032E0042908D008290DD094F8413029
:10554000DBB2013B18BF0123B7E794F83F30DBB271
:10555000013B18BF0123B0E794F84030DBB2013BB8
:1055600018BF0123A9E7042805D0082807D0022383
:1055700084F84130A8E7022384F83F30A4E70223EF
:1055800084F84030A0E79A6802F00702062A07D0A4
:105590001A6842F001021A60002010BD0120FCE7E9
:1055A0000020FAE70000014090F83C20012A3DD09D
:1055B00010B40346012280F83C20022280F83D20EE
:1055C00002685068946820F0700C086840EA0C008B
:1055D00050601A68164882421AD0B2F1804F17D034
:1055E000A0F57C40824213D000F5806082420FD04B
:1055F00000F5806082420BD000F57840824207D0EF
:1056000000F57050824203D0A0F59430824204D15C
:1056100024F08004496821439160012283F83D20F1
:10562000002083F83C005DF8044B7047022070476F
:105630000000014070477047026802F10C0353E814
:10564000003F23F0C0030C3242E800310029F3D1BF
:10565000202380F841307047026802F10C0353E8C0
:10566000003F23F490730C3242E800310029F3D15B
:10567000026802F1140353E8003F23F001031432DF
:1056800042E800310029F3D1036B012B05D0202320
:1056900080F84230002303637047026802F10C0374
:1056A00053E8003F23F010030C3242E80031002998
:1056B000F3D1ECE790F84130DBB2212B01D002208E
:1056C00070478368B3F5805F17D0036A5A1C026283
:1056D0001A7803685A60C38C9BB2013B9BB2C384A7
:1056E0004BB90268D36823F08003D3600268D368A3
:1056F00043F04003D360002070470369002BE4D1DE
:10570000036A1B880268C3F308035360036A023309
:105710000362E0E710B504460268136923F44053BE
:10572000C1680B431361836802691A4343691A43D2
:10573000C3691A430168CB6823F4164323F00C03B2
:105740001343CB600268536923F4407381690B43B0
:1057500053610368314A934206D002F58062934256
:1057600002D0FEF7E9FA01E0FEF7F6FAE369B3F5D5
:10577000004F29D00021031849411B1841F10001B5
:10578000C90041EA5371DB00181863684FEA8302CD
:105790004FEA937341F10001FAF712FD204AA2FB90
:1057A00000314909642303FB11031B013233A2FBBF
:1057B00003235B0903F0F00202EB011203F00F0375
:1057C000216813448B6010BD0023021843EB0301D2
:1057D000121841F10001C90041EA5271D2001018BB
:1057E00041F10001626892185B41FAF7E9FC0C4A4A
:1057F000A2FB00314909642303FB1103DB003233B0
:10580000A2FB03235B095A0002F4F87202EB0112B7
:1058100003F00703216813448B60D4E700100140B4
:105820001F85EB512DE9F04383B005460E46174620
:105830009946DDF828802B681C6836EA04040CBF02
:1058400001240024BC4228D1B8F1FF3FF3D0FDF77A
:1058500061FBA0EB0900404523D8B8F1000F22D02E
:105860002B68DA6812F0040FE5D0802EE3D0402ECA
:10587000E1D01A6812F0080FDDD0002401941A68F4
:1058800001925B680193019B2846FFF7E5FE082320
:105890006B6485F84040012000E0002003B0BDE8C3
:1058A000F0830320FAE70320F8E760B310B504465D
:1058B00090F8413013B3242384F841302268D36830
:1058C00023F40053D3602046FFF724FF22681369B6
:1058D00023F4904313612268536923F02A03536130
:1058E0002268D36843F40053D3600020606420230F
:1058F00084F8413084F84230606310BD80F8403055
:10590000FCF706FED7E7012070472DE9F04182B091
:105910001E4690F84130DBB2202B56D104460D468E
:105920009046002955D00AB901204FE00023436476
:10593000212380F84130FDF7EDFA0746A4F82480D2
:10594000A4F82680A368B3F5805F02D04FF000086A
:1059500014E023692BB34FF000080FE0202384F8F4
:105960004130032032E038F8023B2268C3F30803D9
:105970005360E28C92B2013A92B2E284E38C9BB221
:1059800093B100963B46002280212046FFF74AFF54
:105990000028E3D1002DE6D015F8012B23685A60CA
:1059A000E7E7A8460025E9E700963B4600224021AC
:1059B0002046FFF737FF18B9202384F8413005E06F
:1059C000202384F84130032000E0022002B0BDE82B
:1059D000F0810120FAE7000038B5134690F8412025
:1059E000D2B2202A2FD1044600292ED00BB9012093
:1059F00038BD01628384C38400224264212084F87C
:105A00004100A06B124DC563A06B124D0564A06BE5
:105A1000114DC564A06B026522680432A06BFDF7CE
:105A2000DDFB23686FF040021A60226802F1140364
:105A300053E8003F43F08003143242E8003100296C
:105A4000F3D10020D4E70220D2E70120D0E700BF45
:105A5000035B00086B5B00087B5B000810B5044625
:105A6000226802F10C0353E8003F23F490730C32D8
:105A700042E800310029F3D1226802F1140353E80F
:105A8000003F23F00103143242E800310029F3D132
:105A9000236B012B1FD023685B6913F0400F13D0D9
:105AA000226802F1140353E8003F23F0400314324C
:105AB00042E800310029F3D1E36B2BB100221A65D3
:105AC000E06BFDF7C0FB98B90020E085202384F847
:105AD0004230206310BD226802F10C0353E8003FFE
:105AE00023F010030C3242E800310029F3D1D2E751
:105AF000E06BFDF7F3FC2028E6D11023636403205C
:105B0000E8E708B50346806B1B681B6813F4807FC9
