:020000040800F2
:1000000000000220AD2C00087D2500087F25000897
:1000100081250008832500088525000800000000D0
:1000200000000000000000000000000091930008A4
:10003000872500080000000031940008959400080E
:10004000FD2C0008FD2C0008FD2C0008FD2C0008EC
:10005000FD2C0008FD2C0008FD2C0008FD2C0008DC
:10006000FD2C0008FD2C0008FD2C0008FD2C0008CC
:1000700089250008FD2C000899250008FD2C0008A2
:10008000A9250008FD2C0008FD2C0008FD2C000807
:10009000FD2C0008FD2C0008FD2C0008FD2C00089C
:1000A000FD2C0008B9250008FD2C0008FD2C0008D7
:1000B000FD2C0008FD2C0008FD2C0008FD2C00087C
:1000C000FD2C0008FD2C0008FD2C0008FD2C00086C
:1000D000FD2C0008C9250008FD2C0008D9250008C2
:1000E000FD2C0008FD2C0008FD2C0008FD2C00084C
:1000F000FD2C0008FD2C0008FD2C0008FD2C00083C
:10010000FD2C000861260008FD2C0008FD2C0008CD
:10011000FD2C0008FD2C0008FD2C0008FD2C00081B
:10012000FD2C0008FD2C0008FD2C0008712600089D
:10013000FD2C0008FD2C0008FD2C0008FD2C0008FB
:10014000FD2C0008FD2C0008FD2C0008812600086D
:100150008D2600089D260008FD2C0008FD2C0008B7
:10016000FD2C0008FD2C0008FD2C0008FD2C0008CB
:10017000FD2C0008FD2C0008FD2C000800000000EC
:08018000FD2C0008FD2C000815
:1001C00053B94AB9002908BF00281CBF4FF0FF31BE
:1001D0004FF0FF3000F00CB8ADF1080C6DE904CE23
:1001E0003EF002FFDDF804E0DDE9022304B07047D1
:1001F000704700BF00000000000000000000000089
:1002000002780B78012A28BF9A4240F0D8806DE925
:10021000044540EA0104CDE902676FF0000C4FEAA3
:1002200044721AB380EA010414F0070F6BD100F096
:10023000070420F0070004F0030521F007014FEA4E
:10024000C505F0E8042314F0040FF1E804670CFA84
:1002500005F462EA040266EA04060BD063EA0403CA
:10026000624667EA0407664604E000BFF0E804233C
:10027000F1E8046782FA4CF582EA0604A4FA8CF4E9
:100280006CBB83FA4CF583EA0705A5FA8CF595B9A2
:1002900050E9022351E9026782FA4CF582EA06042A
:1002A000A4FA8CF483FA4CF583EA0705A5FA8CF5D9
:1002B0002543DBD09CB92DBAB5FA85F424F00704A8
:1002C00027FA04F1DDE9026723FA04F303F0FF00E3
:1002D00001F0FF01FDE80445A0EB0100704724BADE
:1002E000B4FA84F424F0070426FA04F1DDE9026785
:1002F00022FA04F202F0FF0001F0FF01FDE80445DC
:10030000A0EB0100704714F0030F3CD110F0030480
:1003100028D150F8082B51F8083B82FA4CF582EAB4
:100320000305A5FA8CF55DB950F8042C51F8043C8E
:1003300082FA4CF582EA0305A5FA8CF5002DE8D087
:100340002DBAB5FA85F424F0070423FA04F122FA51
:1003500004F202F0FF0001F0FF01FDE80445A0EB0C
:10036000010070474FEAC40420F0030050F8082B46
:1003700021F0030151F8083B0CFA04F462EA04028C
:1003800063EA0403C9E710F003041DD0A1EB0401E4
:1003900020F00300E40750F8042B06D012D28B782B
:1003A0005FFAA2F4E41A06D12BB1CB785FFAB2F46B
:1003B000E41A00D133B920465DF8104B7047A2EB28
:1003C0000300704701F1040150F8042BCC0721F021
:1003D000030151F8043B48D824D222F07F4482FA2A
:1003E0004CF594EA1325A5FA8CF50AD165B951F8B4
:1003F000043B84EA0204B4EB036F0ED150F8042BE3
:10040000EBE74FEA132355E035F07F454DD10878EF
:10041000FDE80445C0F1000070474FEA126203F0A6
:10042000FF0347E002EA1C4482FA4CF594EA1345C4
:10043000A5FA8CF50AD165B951F8043B84EA0204A7
:10044000B4EB034F0CD150F8042BEBE74FEA134306
:1004500030E015EA1C4528D10B884FEA124229E00A
:100460004FEA124203EA1C4324E002F0FF0482FA3E
:100470004CF594EA1365A5FA8CF50AD165B951F8E3
:10048000043B84EA0204B4EB032F09D150F8042B97
:10049000EBE74FEA13630DE015F0FF0F05D10B6892
:1004A0004FEA122223F07F4304E04FF00000FDE802
:1004B0000445704712BA1BBA82FA4CF482EA03046C
:1004C000A4FA8CF5B5FA85F402FA04F203FA04F3FF
:1004D0004FEA1260FDE80445A0EB1360704700BFCF
:1004E000844641EA000313F003036DD1403A41D33F
:1004F00051F8043B40F8043B51F8043B40F8043BFE
:1005000051F8043B40F8043B51F8043B40F8043BED
:1005100051F8043B40F8043B51F8043B40F8043BDD
:1005200051F8043B40F8043B51F8043B40F8043BCD
:1005300051F8043B40F8043B51F8043B40F8043BBD
:1005400051F8043B40F8043B51F8043B40F8043BAD
:1005500051F8043B40F8043B51F8043B40F8043B9D
:1005600051F8043B40F8043B51F8043B40F8043B8D
:10057000403ABDD2303211D351F8043B40F8043B2D
:1005800051F8043B40F8043B51F8043B40F8043B6D
:1005900051F8043B40F8043B103AEDD20C3205D33D
:1005A00051F8043B40F8043B043AF9D2043208D035
:1005B000D2071CBF11F8013B00F8013B01D30B88A7
:1005C00003806046704700BF082A13D38B078DD085
:1005D00010F003038AD0C3F10403D21ADB071CBF57
:1005E00011F8013B00F8013B80D331F8023B20F8C1
:1005F000023B7BE7043AD9D3013A11F8013B00F8FA
:10060000013BF9D20B7803704B7843708B78837081
:10061000604670470000000000000000000000007D
:1006200000000000000000000000000000000000CA
:1006300000000000000000000000000000000000BA
:1006400030B490F800F020F007016FF0000C10F0CB
:10065000070491F820F040F048804FF000046FF05C
:100660000700D1E9002391F840F000F1080082FA78
:100670004CF2A4FA8CF283FA4CF3A2FA8CF34BBB43
:10068000D1E9022382FA4CF200F10800A4FA8CF2BC
:1006900083FA4CF3A2FA8CF3E3B9D1E9042382FA8A
:1006A0004CF200F10800A4FA8CF283FA4CF3A2FA9F
:1006B0008CF37BB9D1E9062301F1200182FA4CF2D7
:1006C00000F10800A4FA8CF283FA4CF3A2FA8CF33E
:1006D000002BC6D0002A04BF04301A4612BAB2FA60
:1006E00082F200EBD20030BC7047D1E9002304F065
:1006F0000305C4F100004FEAC50514F0040F91F89A
:1007000040F00CFA05F562EA05021CBF63EA050336
:1007100062464FF00004AAE700000000000000005D
:1007200001F0FF01102A2BDB10F0070F08D010F8A2
:10073000013B013A8B422DD010F0070F42B3F6D1A6
:10074000F0B441EA012141EA014122F007047FF0BF
:1007500000070023F0E80256083C85EA010586EA16
:10076000010685FA47F5A3FA87F586FA47F6A5FA52
:1007700087F68EB9EED1F0BC01F0FF0102F007025E
:1007800032B110F8013B013A83EA010313B1F8D109
:100790000020704701387047002D06BF35460338EA
:1007A000073815F0010F07D1013015F4807F02BF23
:1007B000013015F4C03F0130F0BC0138704700BF74
:1007C00081F0004102E000BF83F0004330B54FEA02
:1007D00041044FEA430594EA050F08BF90EA020F6F
:1007E0001FBF54EA000C55EA020C7FEA645C7FEA02
:1007F000655C00F0E2804FEA5454D4EB5555B8BF25
:100800006D420CDD2C4480EA020281EA030382EA95
:10081000000083EA010180EA020281EA0303362D27
:1008200088BF30BD11F0004F4FEA01314FF4801CFA
:100830004CEA113102D0404261EB410113F0004F0C
:100840004FEA03334CEA133302D0524263EB4303C3
:1008500094EA050F00F0A780A4F10104D5F1200E61
:100860000DDB02FA0EFC22FA05F2801841F10001BC
:1008700003FA0EF2801843FA05F359410EE0A5F190
:1008800020050EF1200E012A03FA0EFC28BF4CF0C1
:10089000020C43FA05F3C01851EBE37101F0004577
:1008A00007D54FF0000EDCF1000C7EEB00006EEB84
:1008B0000101B1F5801F1BD3B1F5001F0CD349080E
:1008C0005FEA30004FEA3C0C04F101044FEA445265
:1008D00012F5800F80F09A80BCF1004F08BF5FEAEC
:1008E000500C50F1000041EB045141EA050130BDCC
:1008F0005FEA4C0C404141EB0101013C28BFB1F5DE
:10090000801FE9D291F0000F04BF01460020B1FA28
:1009100081F308BF2033A3F10B03B3F120020CDAFB
:100920000C3208DD02F1140CC2F10C0201FA0CF0D9
:1009300021FA02F10CE002F11402D8BFC2F1200C3E
:1009400001FA02F120FA0CFCDCBF41EA0C019040F4
:10095000E41AA2BF01EB0451294330BD6FEA04043D
:100960001F3C1CDA0C340EDC04F11404C4F1200228
:1009700020FA04F001FA02F340EA030021FA04F33A
:1009800045EA030130BDC4F10C04C4F1200220FA91
:1009900002F001FA04F340EA0300294630BD21FACF
:1009A00004F0294630BD94F0000F83F4801306BF95
:1009B00081F480110134013D4EE77FEA645C18BF89
:1009C0007FEA655C29D094EA050F08BF90EA020F20
:1009D00005D054EA000C04BF1946104630BD91EA18
:1009E000030F1EBF0021002030BD5FEA545C05D11B
:1009F0004000494128BF41F0004130BD14F580045A
:100A00003CBF01F5801130BD01F0004545F0FE41CD
:100A100041F470014FF0000030BD7FEA645C1ABF02
:100A2000194610467FEA655C1CBF0B46024650EA39
:100A3000013406BF52EA033591EA030F41F4002165
:100A400030BD00BF90F0000F04BF0021704730B5EB
:100A50004FF4806404F132044FF000054FF00001C0
:100A600050E700BF90F0000F04BF0021704730B581
:100A70004FF4806404F1320410F0004548BF404256
:100A80004FF000013EE700BF42004FEAE2014FEAAB
:100A900031014FEA02701FBF12F07F4393F07F4F86
:100AA00081F06051704732F07F4208BF704793F089
:100AB0007F4F04BF41F40021704730B54FF460749C
:100AC00001F0004521F000411CE700BF50EA01029F
:100AD00008BF704730B54FF000050AE050EA010248
:100AE00008BF704730B511F0004502D5404261EBB8
:100AF00041014FF4806404F132045FEA915C3FF4F9
:100B0000D8AE4FF003025FEADC0C18BF03325FEA95
:100B1000DC0C18BF033202EBDC02C2F1200300FA46
:100B200003FC20FA02F001FA03FE40EA0E0021FA6B
:100B300002F11444BDE600BF70B54FF0FF0C4CF459
:100B4000E06C1CEA11541DBF1CEA135594EA0C0F0B
:100B500095EA0C0F00F0DEF82C4481EA030621EA46
:100B60004C5123EA4C5350EA013518BF52EA033581
:100B700041F4801143F4801338D0A0FB02CE4FF033
:100B80000005E1FB02E506F00042E0FB03E54FF063
:100B90000006E1FB03569CF0000F18BF4EF0010E5B
:100BA000A4F1FF04B6F5007F64F5407404D25FEA57
:100BB0004E0E6D4146EB060642EAC62141EA55510A
:100BC0004FEAC52040EA5E504FEACE2EB4F1FD0C4C
:100BD00088BFBCF5E06F1ED8BEF1004F08BF5FEACA
:100BE000500E50F1000041EB045170BD06F000467C
:100BF00046EA010140EA020081EA0301B4EB5C0429
:100C0000C2BFD4EB0C0541EA045170BD41F4801120
:100C10004FF0000E013C00F3AB8014F1360FDEBF45
:100C2000002001F0004170BDC4F10004203C35DA21
:100C30000C341BDC04F11404C4F1200500FA05F3A4
:100C400020FA04F001FA05F240EA020001F0004245
:100C500021F0004110EBD37021FA04F642EB0601BB
:100C60005EEA430E08BF20EAD37070BDC4F10C04E5
:100C7000C4F1200500FA04F320FA05F001FA04F2A9
:100C800040EA020001F0004110EBD37041F1000195
:100C90005EEA430E08BF20EAD37070BDC4F12005A0
:100CA00000FA05F24EEA020E20FA04F301FA05F208
:100CB00043EA020321FA04F001F0004121FA04F2B0
:100CC00020EA020000EBD3705EEA430E08BF20EA80
:100CD000D37070BD94F0000F0FD101F000464000BA
:100CE00041EB010111F4801F08BF013CF7D041EA3C
:100CF000060195F0000F18BF704703F00046520040
:100D000043EB030313F4801F08BF013DF7D043EA10
:100D10000603704794EA0C0F0CEA135518BF95EAC6
:100D20000C0F0CD050EA410618BF52EA4306D1D14D
:100D300081EA030101F000414FF0000070BD50EA6C
:100D4000410606BF1046194652EA430619D094EAF6
:100D50000C0F02D150EA013613D195EA0C0F05D1E0
:100D600052EA03361CBF104619460AD181EA030134
:100D700001F0004141F0FE4141F470014FF00000EC
:100D800070BD41F0FE4141F4780170BD70B54FF087
:100D9000FF0C4CF4E06C1CEA11541DBF1CEA135507
:100DA00094EA0C0F95EA0C0F00F0A7F8A4EB0504E9
:100DB00081EA030E52EA03354FEA013100F08880E0
:100DC0004FEA03334FF0805545EA131343EA1263A9
:100DD0004FEA022245EA111545EA10654FEA00265E
:100DE0000EF000419D4208BF964244F1FD0404F517
:100DF000407402D25B084FEA3202B61A65EB030573
:100E00005B084FEA32024FF480104FF4002CB6EB2F
:100E1000020E75EB030E22BFB61A754640EA0C00AF
:100E20005B084FEA3202B6EB020E75EB030E22BFEF
:100E3000B61A754640EA5C005B084FEA3202B6EB30
:100E4000020E75EB030E22BFB61A754640EA9C00EF
:100E50005B084FEA3202B6EB020E75EB030E22BFBF
:100E6000B61A754640EADC0055EA060E18D04FEA7D
:100E7000051545EA16754FEA06164FEAC30343EA1D
:100E800052734FEAC2025FEA1C1CC0D111F4801FEA
:100E90000BD141EA00014FF000004FF0004CB6E7E3
:100EA00011F4801F04BF01430020B4F1FD0C88BF82
:100EB000BCF5E06F3FF6AFAEB5EB030C04BFB6EB8D
:100EC000020C5FEA500C50F1000041EB045170BD80
:100ED0000EF0004E4EEA113114EB5C04C2BFD4EBAD
:100EE0000C0541EA045170BD41F480114FF0000E31
:100EF000013C90E645EA060E8DE60CEA135594EAAD
:100F00000C0F08BF95EA0C0F3FF43BAF94EA0C0FAF
:100F10000AD150EA01347FF434AF95EA0C0F7FF424
:100F200025AF104619462CE795EA0C0F06D152EA78
:100F300003353FF4FDAE1046194622E750EA41065C
:100F400018BF52EA43067FF4C5AE50EA41047FF46D
:100F50000DAF52EA43057FF4EBAE12E74FF0FF3CD2
:100F600006E000BF4FF0010C02E000BF4FF0010CA3
:100F70004DF804CD4FEA410C7FEA6C5C4FEA430C1C
:100F800018BF7FEA6C5C1BD001B050EA410C0CBF6B
:100F900052EA430C91EA030F02BF90EA020F0020CD
:100FA000704710F1000F91EA030F58BF994208BF34
:100FB00090422CBFD8176FEAE37040F001007047F1
:100FC0004FEA410C7FEA6C5C02D150EA013C07D148
:100FD0004FEA430C7FEA6C5CD6D152EA033CD3D093
:100FE0005DF8040B704700BF8446104662468C468D
:100FF0001946634600E000BF01B5FFF7B7FF0028C0
:1010000048BF10F1000F01BD4DF808EDFFF7F4FFE8
:101010000CBF012000205DF808FB00BF4DF808ED73
:10102000FFF7EAFF34BF012000205DF808FB00BF96
:101030004DF808EDFFF7E0FF94BF012000205DF8B8
:1010400008FB00BF4DF808EDFFF7CEFF94BF01206D
:1010500000205DF808FB00BF4DF808EDFFF7C4FF66
:1010600034BF012000205DF808FB00BF4FEA410CAF
:101070007FEA6C5C02D150EA013C0AD14FEA430C92
:101080007FEA6C5C02D152EA033C02D14FF00000CF
:1010900070474FF0010070474FEA410212F500120D
:1010A00015D211D56FF47873B3EB625212D94FEAAF
:1010B000C12343F0004343EA505311F0004F23FA99
:1010C00002F018BF404270474FF00000704750EAEE
:1010D000013005D111F0004008BF6FF000407047AB
:1010E0004FF00000704700BF0348044B834202D01A
:1010F000034B03B118477047C00A0020C00A002004
:10110000000000000548064B1B1AD90F01EBA30194
:10111000491002D0034B03B118477047C00A0020A2
:10112000C00A00200000000010B5064C237843B927
:10113000FFF7DAFF044B13B10448AFF3008001233B
:10114000237010BD80360020000000007C79040868
:1011500008B5054B1BB105490548AFF30080BDE854
:101160000840FFF7CFBF00BF00000000843600201A
:101170007C79040800B583B00023009301930C48E8
:101180000C4B036002F0F4F958B9042300930022D9
:1011900001926946064802F02BFA28B903B05DF8BF
:1011A00004FB00F0C5FFF0E700F0C2FFF6E700BF68
:1011B000FC3600200074004030B589B00023039352
:1011C00004930593069307930268244B9A4201D037
:1011D00009B030BD04460025019503F5E2331A6CD1
:1011E00042F000521A641A6C02F000520192019A05
:1011F00002951A6B42F001021A631B6B03F00103A4
:101200000293029B102303930323049303A914481E
:1012100002F084FC1348144B03604FF0606343609A
:1012200040238360C5604FF4806303614FF48053B3
:1012300043614FF4804383614FF48073C3614FF483
:1012400080330362456202F081FA18B9054BA3604E
:101250009C63BDE700F06CFFF8E700BF007400403E
:10126000000002409C3600208860024000230B4AA8
:1012700013800B4A13800B4A13800B4A1380012200
:101280000A490A700A490B800A490B800A490B80F7
:101290000A490B800A4B1A70704700BF8A3700203A
:1012A00088370020863700208437002082370020CE
:1012B000803700207E3700207C3700207A370020DE
:1012C0007837002008B51C4B1B889BB29B011B4A3A
:1012D000D35C072B1DD0184A13889BB201339BB2F5
:1012E000138013889BB2082B17D0154A13889BB222
:1012F00001339BB21380124B1B889BB2114A128898
:1013000092B29B1A9BB2082B0BD10F4B01221A7081
:1013100008BD0E4B01221A70EDE7134600221A8019
:10132000E3E7054B1A8892B24023044901EB82128D
:1013300001210BF0F1FAEBE78A370020C0200020F2
:1013400086370020843700208237002071DC00209F
:10135000012912D010B5044607290DD10B4B0022EC
:101360001A7040230A4A01210BF0D6FA4023094A99
:10137000022120460BF0D0FA10BD0023064A13705C
:10138000064A1370064A1370704700BF6437002086
:10139000C0200020C0220020BA470020B94700200A
:1013A000B8470020164B1A8892B2164B1B889BB286
:1013B0009A4203D1144B01221A70704710B5134C96
:1013C000228892B223889BB2114931F81330114917
:1013D00001EB821281210BF0CFF923889BB20133FC
:1013E0009BB2238023889BB2082B06D0054A138822
:1013F0009BB201339BB2138010BD00222280F5E71F
:101400007C3700207A370020783700207E37002094
:1014100068370020C01E002038B504460A4D0B492D
:10142000284609F039FD284609F02FFD3F2803D84A
:10143000074B01221A7038BD4023044A022120467E
:101440000BF06AFAF7E700BF98370020C0220020AF
:10145000BA47002070B582B00546144611461448BC
:1014600009F063FD14F03F0F00D144B9104809F0B2
:1014700008FD58B90F4B01221A7002B070BD00234D
:101480001A46822128460BF077F9F6E701A90848A9
:1014900009F033FD0146019E074C32462046FFF716
:1014A0001FF833462246822128460BF065F9E4E70F
:1014B000A8370020B9470020B837002038B50446C7
:1014C0000D464FF480522249224809F0BDFC4FF4EA
:1014D00080622149214809F0B7FC0EF0CDFCFFF7EE
:1014E000C5FE1F4920460AF065FB1E4920460AF04A
:1014F0008DFB1D4920460AF07FFB1C4920460AF05F
:101500008FFB1B4920460AF0A5FB1A4920460AF02A
:10151000A1FB1949204609F00DFD014620460AF0BD
:101520007FFB1649204609F005FD014620460AF0DA
:1015300077FB134920460AF08DFB124920460AF03A
:1015400089FB114A294620460AF0BCFB38BD00BF82
:10155000C00A0020A8370020C01A002098370020B9
:10156000747A04080000002008000020483700209A
:1015700028000020200000202C37002010370020F9
:1015800018000020100000205113000838B573E047
:101590004C4A12889A014C498A5C7E2A08D19A01E9
:1015A00049497F2088540133082BF1D10023EFE70C
:1015B000464C23889BB2464D2A8892B2454901EB9E
:1015C0008211414800EB83100CF039FF2B889BB24D
:1015D000414A22F8130023889BB201339BB2238037
:1015E00023889BB2082B53D03C4A13889BB201330B
:1015F0009BB213803A4B1B7843B13A4B1B889BB28A
:10160000128892B29B1A9BB2082B44D1304A13889D
:101610009BB201339BB2138013889BB2082B48D036
:10162000314A13889BB201339BB213802F4B1B7836
:1016300013B3128892B22E4B1B889BB29A421BD0D6
:101640002C4B1A8892B2511C89B219801B889BB20C
:10165000082B32D026490B889BB201339BB20B80FA
:101660000020224B18701C4B33F81230194901EB43
:10167000821281210BF080F81A4B1A8892B2174B14
:101680001B889BB29A421CD0104B1B889BB281E7EF
:1016900000222280A8E70020114B1870094B1A88FD
:1016A00092B24023084901EB821201210BF034F978
:1016B000ACE7134600221A80B2E70E4B00211980D6
:1016C000C8E738BD8A370020C020002088370020B6
:1016D00080370020C01E002068370020843700209B
:1016E00082370020863700207C37002078370020A2
:1016F0007A3700207E370020064B106818609188EA
:10170000927999809A71044B01221A70034B00223E
:101710001A707047903700208D3700208C370020DA
:10172000034B1868106099889B799180937170477A
:10173000903700207047000010B582B0019001463C
:101740000A4C204609F0F1FB204609F09AFB20B92B
:10175000074B01221A7002B010BD01A9204609F002
:10176000CCFBBDF80410FFF7E5FFF4E79837002045
:10177000B847002070B582B02C4B1B7873B92C4B46
:101780001B784BB12B4B1B78B3B92B4B1B786BBB26
:101790002A4B1B78002B3AD102B070BD234B00229C
:1017A0001A70274801F01EFA0123224A1370224AB8
:1017B00013701F4A1370E2E7224809F062FB002809
:1017C000E3D000241B4B1C7001A91E4809F095FBB7
:1017D0000146019E1C4D32462846FEF781FE3346E7
:1017E0002A46822120460AF0C7FFCEE7174809F0B3
:1017F00048FB0028CCD0104B00221A7001A91348D6
:1018000009F07BFBBDF8041001F032FAC0E70F4885
:1018100009F03BFB3F28BFD90020084B187040233C
:101820000B4A02210BF078F8B6E700BF8D37002095
:101830008C370020B9470020B8470020BA47002065
:1018400090370020A8370020B837002098370020B4
:10185000C022002010B582B000240094224B1A6BE5
:1018600042F400121A631A6B02F400120092009AFA
:1018700001941A6B42F480021A631B6B03F4800319
:101880000193019B224602210C2001F05DFE0C20F9
:1018900001F06AFE224602210E2001F055FE0E20C4
:1018A00001F062FE22460221102001F04DFE1020C0
:1018B00001F05AFE224607213B2001F045FE3B2065
:1018C00001F052FE22460221442001F03DFE442058
:1018D00001F04AFE22460721452001F035FE452051
:1018E00001F042FE02B010BD0038024008B50D4BB9
:1018F0001B78DBB2012B00D008BD0B480EF0B6FD03
:101900000028F9D1084B1B68084A1268934202D09C
:10191000064A1360F0E7054B00221A600EF0E4FD62
:10192000EAE700BFA84D0020BC470020AC4D0020D6
:1019300008B5FFF72BFEFFF71DFF08F01FFF064B52
:10194000A3FB00235B094FF4967202FB1303002BE9
:10195000EFD1FFF7CBFFECE7B5814E1B08B50421B3
:10196000034802F0DEF94FF47A7007F058FBF6E70F
:101970000008024008B5012007F051FBFBE700001A
:1019800038B503220021012008F0CEF81B4C20605E
:101990003DF00CFB23681BB119483EF051F909E0FA
:1019A00018483EF04DF938BD17483EF049F901207E
:1019B00007F035FB4FF0FF31104B186808F00BFBB8
:1019C00012483EF03DF9124D294612483EF0D6F835
:1019D000114C214611483EF0D1F8642007F01FFB5E
:1019E00028463DF071F820463DF0B8F8B0F1FF3FD1
:1019F000DAD00B483EF024F9D9E700BFA44D00200F
:101A0000547C0408707C0408E47C04088C7C040882
:101A1000EC020020A87C0408EC010020C47C04082F
:101A2000F87C040808B50B4B1B78DBB2012B00D007
:101A300008BD094909480EF029FB0028F8D0064BDB
:101A40001B6803F4E0630649194304480EF05CFB8D
:101A5000EEE700BFA84D0020C04700200CED00E0DD
:101A60000400FA05034B0360034B0B6080231360F3
:101A7000704700BFF84B0020F849002010B5A4B013
:101A80004FF0A0410020FFF719FDA82000F01EFB39
:101A90002D4C0DF1740CA646BEE80F00ACE80F000B
:101AA0009EE807008CE8070000211DA807F084FAD3
:101AB000264B18600DF1580C04F11C0EBEE80F0007
:101AC000ACE80F009EE807008CE80700002116A88C
:101AD00007F072FA1E4B18600DF13C0C04F1380E41
:101AE000BEE80F00ACE80F009EE807008CE8070096
:101AF00000210FA807F060FA164B18600DF1200CBA
:101B000004F1540EBEE80F00ACE80F009EE8070099
:101B10008CE80700002108A807F04EFA0E4B186069
:101B20000DF1040E04F1700CBCE80F00AEE80F00DC
:101B30009CE807008EE80700002101A807F03CFAA6
:101B4000064B186024B010BD98790408A04D002001
:101B50009C4D0020984D0020944D0020904D002079
:101B600008B501220649074806F0BAFB20B1014634
:101B700005483EF003F808BD04483EF061F8FAE776
:101B80000C7D0408C4470020107D0408247D04084F
:101B900008B501F0B5F801F0CDF815F00FFE12F020
:101BA0008BFA12F0E9FA104B1B6800209847FFF7F8
:101BB000D7FF12F031FA04E000F0D6F8012007F068
:101BC0002EFA30F0C1FF3CF027F80378032B04D045
:101BD000052B05D0022BF1D1EEE700F043F9EDE73C
:101BE00000F0C4F9EAE700BFC8B904082DE9F043E2
:101BF0008DB000240794089409940A940B940094DF
:101C0000534B1A6B42F010021A631A6B02F0100267
:101C10000092009A01941A6B42F004021A631A6B44
:101C200002F004020192019A02941A6B42F020021F
:101C30001A631A6B02F020020292029A03941A6B42
:101C400042F080021A631A6B02F080020392039A38
:101C500004941A6B42F001021A631A6B02F001023B
:101C60000492049A05941A6B42F002021A631A6BEA
:101C700002F002020592059A06941A6B42F00802DD
:101C80001A631B6B03F008030693069BDFF8D090E2
:101C900001220421484602F03EF8DFF8C880012204
:101CA0004FF40051404602F036F82A4F01224FF41B
:101CB0004071384602F02FF822464FF480613846D2
:101CC00002F029F8244E01222021304602F023F8A8
:101CD000042307930125089509950A9407A9484606
:101CE00001F01CFF4FF400530793089509950A94DF
:101CF00007A9404601F012FF4FF4007307934FF419
:101D00008818CDF82080099407A9144801F006FF2F
:101D10004FF4E0630793089509940A9407A938469D
:101D200001F0FCFE20230793089509940A9407A963
:101D3000304601F0F3FE4FF480730793CDF8208016
:101D4000099407A9304601F0E9FE0DB0BDE8F08323
:101D5000003802400000024000040240001402402B
:101D6000001002400008024030B585B00023019306
:101D70000293ADF80C302B4B1B78012B1CD02A4B57
:101D80001B78012B27D0294B9B7D294A917D8B42C3
:101D900030D11422274928483EF05CF900283BD175
:101DA000234D224C28686968AA68EB680FC428692B
:101DB000696903C405B030BD204B186836F0C4FD16
:101DC0001F49FEF71DFA0028D9D11E491B4B186880
:101DD00037F08CFAD3E71C4B186836F0B5FD1B4979
:101DE000FEF70EFA0028CED11949174B186837F0C4
:101DF0007DFAC8E70122174B186833F0A9FD0C4B98
:101E00009B7D154A0A2101A83DF022FF01A9134B31
:101E1000186837F06BFABCE70649114B186837F0C1
:101E200065FABDE7C9DD0020C8DD0020B84D0020FF
:101E3000C4D40120C6D40120BA4D0020D0DF002038
:101E4000707D0408EC020020C8DF00207C7D0408BF
:101E5000EC010020C4DF00208C7D0408C0DF0020DE
:101E6000BCDF002030B585B0002301930293ADF8AC
:101E70000C302A4B1B8883B1294A12886AB1294A3F
:101E8000128893420BD1284B1A88254B1B889A4203
:101E900023D1264B1B78002B38D005B030BD02F083
:101EA00069FA234C63680133B0FBF3F01B4D2B88B8
:101EB0000133B0FBF3F31F4A0A2101A83DF0C8FE2D
:101EC00001A91D4B186837F011FA2B88154A1380A9
:101ED0002268013BD362E360D5E7642202FB03F38F
:101EE0000E4A128893FBF2F3144A0A2101A83DF02E
:101EF000AFFE01A9124B186837F0F8F9084B1B88A0
:101F0000094A13800A4A12685363C2E7002108484D
:101F100003F036FE054B01221A70BEE7E44D0020A7
:101F2000E24D0020B44D0020B24D0020B14D002004
:101F300044580020947D0408C0DE00209C7D0408E5
:101F4000B4DE002084B08DE80F009DF84830B42B3B
:101F500000D9B423044A82FB03235B100533009AA3
:101F6000536304B0704700BF398EE33830B591B089
:101F70002E4B1B882E4A1288934205D12D4B1B787D
:101F8000002B36D011B030BD2B4CDBB20E93EC469B
:101F900004F1100EBEE80F00ACE80F00BEE80F0021
:101FA000ACE80F00BEE80F00ACE80F009EE80300AD
:101FB0008CE8030094E80F00FFF7C4FF1B4C1F4D93
:101FC00023881F4A0A2128463DF042FE29461D4B20
:101FD000186837F08BF9238801931B4B00931B4B38
:101FE0007D221B4904202FF0DDF82288104B1A8037
:101FF000C4E7114C0E93EC4604F1100EBEE80F003E
:10200000ACE80F00BEE80F00ACE80F00BEE80F0020
:10201000ACE80F009EE803008CE8030094E80F0092
:10202000FFF790FF034B01221A70ABE7E04D002051
:10203000DE4D0020B04D002044580020D44D00203B
:1020400074B704084CDE0020F47D040898B9040835
:10205000A47D040830B589B0002403940494059449
:10206000069407940194174D2B6B43F001032B63E7
:102070002B6B03F001030193019B4FF4C0530393B7
:1020800002230493032306930A23079303A90E480C
:1020900001F044FD6B6B43F080036B6302946B6C47
:1020A00043F480436B646B6C03F480430293029BA4
:1020B00022462146432001F047FA432001F054FA1A
:1020C00009B030BD0038024000000240014B1860EA
:1020D000704700BFE84D002010B44FF0E022546973
:1020E0000C4B1B6800FB03FC9369002104E0E01A21
:1020F00002441144614509D21A464FF0E0239B691E
:102100009A42FAD0F3D9D21A1144F3E75DF8044B9E
:10211000704700BFE84D002008B50268034B9A42A3
:1021200000D008BD01F096F9FBE700BF00000140B8
:1021300072B6FEE700B595B03022002108A83DF048
:10214000CFFE002303930493059306930793019313
:10215000204A116C41F080511164126C02F08052DF
:102160000192019A02931C4B1A6842F480421A6051
:102170001B6803F480430293029B012308934FF4EE
:102180008033099302230E934FF480020F920422AE
:102190001092A822119212930723139308A801F01A
:1021A000C9FD98B90F2303930223049300230593D9
:1021B0004FF4A05306934FF480530793052103A8CF
:1021C00002F022F820B915B05DF804FBFFF7B0FF6C
:1021D000FFF7AEFF003802400070004008B501F084
:1021E0001FF9FFF7A7FFFFF701FDFFF733FB00F033
:1021F000F9FB00F011FC00F0DBF800F073FB00F0DD
:102200000FF804F099FE00F0AFFBFEF7B3FF00F00B
:10221000B5FA04F0E1FEFFF731FC06F0B5FEFEE78B
:10222000054B064A1A6000225A609A60DA601A6109
:102230005A6102229A617047AC4E0020002C014086
:102240002DE9F04389B0002303930493059306938B
:10225000079302684F4B9A4202D009B0BDE8F08361
:1022600004460025009503F586335A6C42F400625B
:102270005A645A6C02F400620092009A01951A6B3B
:1022800042F004021A631A6B02F004020192019AEE
:1022900002951A6B42F008021A631B6B03F00803E5
:1022A0000293029B4FF4F85303934FF00209CDF8C9
:1022B0001090032606964FF00C08CDF81C800DEB0D
:1022C0000801354801F02AFC04270397CDF8109047
:1022D00005950696CDF81C800DEB08012F4801F0FE
:1022E0001DFC2F482F4B03604FF000634360856057
:1022F000C5604FF4806303614FF4805343614FF432
:10230000804383612023C3610562476286624FF484
:102310000003C3624FF40013036301F017FA0028AF
:1023200031D11F4B23649C631F48204B03604FF047
:1023300000634360402383600023C3604FF48062E6
:1023400002614FF4805242614FF480428261202248
:10235000C261036204234362032383624FF40003D8
:10236000C3624FF40013036301F0F0F970B90E4B30
:10237000E3639C6300220521312001F0E5F8312060
:1023800001F0F2F869E7FFF7D3FECAE7FFF7D0FEE6
:10239000EDE700BF002C014000080240000C0240A5
:1023A0004C4E002058640240EC4D0020A0640240D6
:1023B00008B50E480E4B03604FF482734360002350
:1023C0008360C360036143614FF40072826108223D
:1023D000C2610362436283620A23C36202F054FF54
:1023E00000B908BDFFF7A4FEFBE700BF904F002037
:1023F0000030014030B589B0002303930493059366
:10240000069307930268224B9A4201D009B030BD6F
:1024100004460025019503F584335A6C42F480523A
:102420005A645A6C02F480520192019A02951A6B16
:1024300042F001021A631B6B03F001030293029B3B
:10244000E0230393022304930323069305230793B6
:1024500003A9104801F062FB0F48104B03604FF0D6
:10246000C063436040238360C5604FF480630361B1
:1024700045618561C5610562456201F067F918B97A
:10248000054BA3649C63C1E7FFF752FEF8E700BF6A
:102490000030014000000240304F002088640240BC
:1024A00000B583B0002200920D4B596C41F480417D
:1024B0005964596C01F48041009100990192196CA2
:1024C00041F0805119641B6C03F080530193019B10
:1024D0000F216FF0010001F037F803B05DF804FB45
:1024E0000038024030B589B00546002401941E4BE7
:1024F0005A6C42F001025A645B6C03F001030193D1
:10250000019B02A903A801F055FF01F043FF43001E
:10251000164AA2FB03239B0C013B1548154A026097
:1025200040F2E732C260436004618460846103F07A
:1025300019FA044610B1204609B030BD0C4803F02A
:10254000ADF804460028F6D1192001F00DF80F2D42
:1025500001D90124EFE700222946192000F0F4FFF9
:10256000054B1D60E7E700BF0038024083DE1B43D8
:10257000E84F00200000014044000020FEE7FEE795
:10258000FEE7FEE7FEE7704708B5024801F0D6F91E
:1025900008BD00BF7C59002008B5024801F0CEF903
:1025A00008BD00BF1C59002008B5024801F0C6F95B
:1025B00008BD00BF9C36002008B5024803F0B6F8FD
:1025C00008BD00BFE84F002008B5024803F032FF05
:1025D00008BD00BF245A002030B583B01B4C2046F4
:1025E00003F028FF23681A6812F0100F0DD1174C62
:1025F000204603F01FFF0023019323681A6801920D
:102600005B680193019B03B030BD002200921A6801
:1026100000925B680093009B204603F0D3FD0C4BB7
:102620001A685368C3F500630A490B6052680A4D83
:10263000C2F500622946094808F02EFC4FF40062FA
:102640002946204604F0E6F8D1E700BFDC59002017
:102650007C5900203050002040500020A837002036
:1026600008B5024802F07CFC08BD00BFAC4E00205B
:1026700008B5024801F062F908BD00BF4C4E0020C9
:1026800008B500200AF002FA08BD000008B50248AB
:1026900001F054F908BD00BF304F002008B50248D2
:1026A00001F04CF908BD00BFEC4D0020012070473F
:1026B00008B53EF039F8162303604FF0FF3008BD2F
:1026C00008B54FF0FF31FFF7F3FFFEE770B50C469A
:1026D0001646002506E0AFF30080214601F8010B05
:1026E00001350C46B542F6DB304670BD70B50C4680
:1026F0001646002504E014F8010B00F063FA0135DA
:10270000B542F8DB304670BD4FF0FF3070474FF4F4
:1027100000534B6000207047012070470020704735
:1027200010B503460C4A0D490D48006840B10C48ED
:1027300000680344521A934206D8094A136010BD38
:102740000748084C0460F2E73DF0EEFF0C230360FD
:102750004FF0FF30F3E700BF000002200008000048
:1027600040580020F0D70120034AD2F8883043F4C3
:102770007003C2F88830704700ED00E000B583B008
:102780000023009301930F480F4A026053224260D6
:1027900083606322C260836103F0E4F858B92023A8
:1027A0000093002301936946064803F0B1FA28B963
:1027B00003B05DF804FBFFF7BBFCF0E7FFF7B8FCE4
:1027C000F6E700BF8C5800200010004082B003687C
:1027D000104A934204D0104A93420ED002B0704780
:1027E000002300930D4B1A6C42F002021A641B6C1A
:1027F00003F002030093009BF0E700230193074BD3
:102800005A6C42F480325A645B6C03F48033019357
:10281000019BE3E700040040004001400038024013
:102820000268094B9A4200D0704782B0002301939E
:10283000064B1A6C42F010021A641B6C03F0100372
:102840000193019B02B07047001000400038024025
:1028500000B589B00023039304930593069307936F
:1028600003681B4A934205D01A4A934218D009B014
:102870005DF804FB00230193174B1A6B42F004022E
:102880001A631B6B03F004030193019B80230393E2
:1028900002230493079303A9104801F03FF9E6E7E8
:1028A000002302930C4B1A6B42F010021A631B6B4D
:1028B00003F010030293029B60230393022304930B
:1028C0000323079303A9064801F028F9CFE700BFC7
:1028D000000400400040014000380240000802406F
:1028E0000010024000B58BB00023089309930193B8
:1028F0000293039304930593069307931848194A88
:10290000026040F2E73242608360C260036183612B
:1029100003F054F8D0B900230893099308A910488C
:1029200003F0F6F9A8B960230193002302930393FF
:10293000059304220DEB0201094803F0A3F858B9EE
:102940000748FFF785FF0BB05DF804FBFFF7F0FBCE
:10295000E1E7FFF7EDFBE6E7FFF7EAFBF0E700BF93
:10296000D45800200004004000B589B00023019332
:102970000293039304930593069307931748184A09
:10298000026044F29F1242608360C722C26003610A
:10299000836103F013F8C0B96023019332230293DB
:1029A00000220392059201A90C4803F06BF878B954
:1029B00004220DEB0201094803F064F858B90748F6
:1029C000FFF746FF09B05DF804FBFFF7B1FBE3E753
:1029D000FFF7AEFBECE7FFF7ABFBF0E74458002056
:1029E0000040014008B50A480A4B03604FF4E13348
:1029F000436000238360C36003610C2242618361F2
:102A0000C36103F006FB00B908BDFFF791FBFBE7CC
:102A1000245A00200010014008B51048104B0360F4
:102A20004FF4E133436000238360C36003610C22F1
:102A300042618361C36103F0ECFA58B90748026848
:102A4000D36843F01003D3604FF40062054903F0EC
:102A5000E1FE08BDFFF76CFBF0E700BFDC5900208A
:102A600000480040805A002030B58BB00023059309
:102A7000069307930893099303684A4A934205D043
:102A80000446494A93422CD00BB030BD0024019437
:102A9000464B5A6C42F010025A645A6C02F0100213
:102AA0000192019A02941A6B42F002021A631B6BA4
:102AB00003F002030293029BC023059302250695AF
:102AC000032308930723099305A9394801F026F841
:102AD00022462946252000F037FD252000F044FD40
:102AE000D2E700250395314B1A6C42F480221A6418
:102AF0001A6C02F480220392039A04951A6B42F036
:102B000002021A631B6B03F002030493049B4FF44D
:102B10004063059302230693032308930723099335
:102B200005A9234800F0FAFF2248234B03604FF029
:102B3000006343608560C5604FF480630361456155
:102B40008561C5610562456200F000FE18BB194B46
:102B5000E3639C6319481A4B03604FF000634360C2
:102B6000402383600023C3604FF4806202614361AD
:102B70008361C3610362436200F0E8FD70B90F4BEB
:102B8000A3639C6300220221272000F0DDFC2720A4
:102B900000F0EAFC78E7FFF7CBFAD8E7FFF7C8FACE
:102BA000EDE700BF0010014000480040003802403F
:102BB000000402407C590020286002401C5900207B
:102BC0005860024000B583B001904FF6FF730122B8
:102BD00001A9034803F04DFA019803B05DF804FB26
:102BE000245A002008B51F4B1F4A1A6002685A6019
:102BF0004379012B1FD0022B22D01A4B00221A61DD
:102C00008279184B9A600379012B1ED0022B20D0B9
:102C1000144B0022DA60134800238361C3610C2344
:102C2000436103F0F6F9C8B94FF400620F490D484B
:102C300003F0F0FD08BD0B4B4FF4C0621A61DFE7F3
:102C4000084B4FF480621A61DAE7064B0022DA6023
:102C5000E1E7044B4FF40052DA60DCE7FFF768FA73
:102C6000E2E700BFDC59002000480040805A002005
:102C700010B50C460A460146024803F061FA024BC1
:102C80001C6010BDDC5900208062002008B502687D
:102C9000044B9A4200D008BD034B1868FEF74CFD68
:102CA000F9E700BF0048004080620020DFF834D020
:102CB000FFF75AFD0C480D490D4A002302E0D45895
:102CC000C4500433C4188C42F9D30A4A0A4C002376
:102CD00001E013600432A242FBD33DF02BFDFFF76D
:102CE0007DFA70470000022000000020C00A00208A
:102CF00004F9090880360020F0D70120FEE7000023
:102D000008B501224FF48061034801F004F803483C
:102D100000F0FFF908BD00BF0000024034000020B1
:102D200008B502461521024800F080F908BD00BF31
:102D30003400002010B50A4C00224FF48061204678
:102D400000F0E9FF0A2000F097FB01224FF48061B8
:102D5000204600F0E0FF642000F08EFB10BD00BFB5
:102D60000000024000B585B003AB009304230322AA
:102D700015210F4800F087F99DF80C301B0203F471
:102D800070639DF80D201343C3F1F00309490B60F4
:102D90009DF80E301B0203F470639DF80F200F3274
:102DA0001343C3F58C734B6005B05DF804FB00BFA3
:102DB000340000208462002008B50220FFF7B0FF35
:102DC00008BD00B587B000230193029303930493D9
:102DD000059303890193012303930223049301A91B
:102DE000006800F09BFE07B05DF804FB00B587B0FB
:102DF00000230193029303930493059303890193A2
:102E0000112302930223049301A9006800F086FEB7
:102E100007B05DF804FB29B10268936901890B438F
:102E200093617047038902681B049361704729B15D
:102E30004268936941890B439361704743894268B3
:102E40001B049361704708B50189006800F05CFFBE
:102E5000012800D0002008BD10B504460121FFF76D
:102E6000DAFF0220FFF738F901212046FFF7DFFFE4
:102E70000120FFF731F900212046FFF7CCFF0120A8
:102E8000FFF72AF900212046FFF7D1FF0120FFF7C5
:102E900023F910BD10B504460021FFF7C8FF02203A
:102EA000FFF71AF900212046FFF7B5FF0120FFF7D1
:102EB00013F901212046FFF7BAFF0120FFF70CF9B3
:102EC00001212046FFF7A7FF0120FFF705F910BDFC
:102ED00070B50546FFF775FF01212846FFF7A7FFEC
:102EE00005242846FFF7AFFF064678B1013CA4B29F
:102EF0000120FFF7F1F8002CF3D12846FFF776FF09
:102F00002846FFF7C7FF0126304670BD2846FFF769
:102F10006DFF00212846FFF78AFF0220FFF7DCF84B
:102F2000F2E710B504460021FFF775FF0120FFF717
:102F3000D3F801212046FFF77AFF0120FFF7CCF8F4
:102F400000212046FFF773FF0120FFF7C5F810BDF1
:102F500010B504460121FFF75EFF0120FFF7BCF822
:102F600001212046FFF763FF0120FFF7B5F800219C
:102F70002046FFF75CFF0220FFF7AEF810BD70B5EA
:102F800006460C4608221BE000213046FFF74FFFA3
:102F90000220FFF7A1F804F080013046FFF73BFF65
:102FA0000120FFF799F86400E4B20120FFF794F8DC
:102FB00001213046FFF73BFF0120FFF78DF82A463D
:102FC000531EDDB2002ADFD100213046FFF72FFF6C
:102FD0000220FFF781F870BD70B50646FFF7F1FEDD
:102FE0000024082215E06400E4B200213046FFF717
:102FF0001EFF0220FFF770F801213046FFF717FF90
:103000000120FFF769F83046FFF71DFF0443E4B2E3
:103010002A46531EDDB2002AE5D100213046FFF7D3
:1030200006FF3046FFF7E2FE204670BD70B504464D
:103030000D461646FFF710FF6D00EDB229462046FB
:10304000FFF79DFF2046FFF743FF31462046FFF77D
:1030500096FF2046FFF73CFF2046FFF7FDFE691C68
:10306000C9B22046FFF78BFF2046FFF731FF20460D
:10307000FFF7B2FF05462046FFF76AFF2046FFF73D
:1030800009FF284670BD2DE9F84305460C469146D8
:103090001E46089FFFF7E0FE6400E4B22146284682
:1030A000FFF76DFF2846FFF713FFA0B9804649469A
:1030B0002846FFF764FF2846FFF70AFF2846FFF778
:1030C000CBFE611CC9B22846FFF759FF2846FFF71F
:1030D000FFFE444607E02846FFF7DCFE4FF00108FC
:1030E00014E00134E4B2B4420AD22846FFF774FF78
:1030F0003855731E9C42F4DA2846FFF712FFF0E7BA
:103100002846FFF725FF2846FFF7C4FE4046BDE8E6
:10311000F88310B586B0044600230193029303930D
:1031200004930593038901930123029303930223DC
:10313000049301A9006800F0F1FC6389019301A9DF
:10314000606800F0EBFC06B010BD10B5141AA3EBDC
:10315000010C0CF1010C04FB0CC400F067F86100D9
:1031600089B2029800F00EF810BD0000034B8342B4
:1031700000D07047024B01221A70FAE7904F0020EE
:103180008C62002038B504460D46002220210A48F2
:1031900000F0C1FD094B00221A702A46214608485A
:1031A00002F0D2F8054B1B78002BFBD00122202126
:1031B000014800F0B0FD38BD000402408C620020E0
:1031C000904F002000B583B08DF8070001210DF16C
:1031D0000700FFF7D7FF03B05DF804FB00B583B02D
:1031E000030A8DF804308DF80500022101A8FFF7CD
:1031F000C9FF03B05DF804FB10B582B08DF807007D
:10320000094C00224FF48071204600F084FD01211A
:103210000DF10700FFF7B6FF01224FF48071204641
:1032200000F079FD02B010BD00000240F8B507467D
:103230000D4616461C462A20FFF7DEFF3846FFF7EC
:10324000CDFF3046FFF7CAFF2B20FFF7D5FF05F172
:10325000140080B2FFF7C2FF04F1140080B2FFF740
:10326000BDFF2C20FFF7C8FFF8BD0000014B98639D
:10327000704700BF0004004010B5674C00224FF4B7
:103280000071204600F047FD642000F0F5F80122AF
:103290004FF40071204600F03EFD642000F0ECF891
:1032A00004215E4802F06CFC5020FFF7DFFF642031
:1032B00000F0E2F81120FFF79FFF782000F0DCF823
:1032C0003620FFF799FFC020FFF77CFF3A20FFF779
:1032D00093FF0520FFF776FFB220FFF78DFF0C204C
:1032E000FFF770FF0C20FFF76DFF0020FFF76AFF6C
:1032F0003320FFF767FF3320FFF764FFB720FFF7A6
:103300007BFF3520FFF75EFFBB20FFF775FF322004
:10331000FFF758FFC220FFF76FFF0120FFF752FFB2
:10332000C320FFF769FF1520FFF74CFFC420FFF70C
:1033300063FF2020FFF746FFC620FFF75DFF0F2049
:10334000FFF740FFD020FFF757FFA420FFF73AFF19
:10335000A120FFF737FFE020FFF74EFFD020FFF757
:1033600031FF0820FFF72EFF0E20FFF72BFF09206B
:10337000FFF728FF0920FFF725FF0520FFF722FFB1
:103380003120FFF71FFF3320FFF71CFF4820FFF716
:1033900019FF1720FFF716FF1420FFF713FF152062
:1033A000FFF710FF3120FFF70DFF3420FFF70AFF72
:1033B000E120FFF721FFD020FFF704FF0820FFF7EF
:1033C00001FF0E20FFF7FEFE0920FFF7FBFE09209C
:1033D000FFF7F8FE1520FFF7F5FE3120FFF7F2FEAC
:1033E0003320FFF7EFFE4820FFF7ECFE1720FFF732
:1033F000E9FE1420FFF7E6FE1520FFF7E3FE31207B
:10340000FFF7E0FE3420FFF7DDFE2120FFF7F4FE9A
:103410002920FFF7F1FE10BD00000240D458002023
:1034200008B50B4B1A6842F400721A601A6842F42D
:1034300080621A601A6842F480721A60032000F0F9
:1034400071F80F20FFF74EF8FFF72AF8002008BDAB
:10345000003C0240034A1168034B1B780B44136085
:10346000704700BF9062002040000020014B1868A8
:10347000704700BF9062002038B50446FFF7F6FFA2
:103480000546B4F1FF3F02D0044B1B781C44FFF704
:10349000EDFF401BA042FAD338BD00BF4000002022
:1034A000002807DB00F01F02400901239340024A75
:1034B00042F82030704700BF00E100E0002808DB40
:1034C0000901C9B200F1604000F5614080F80013C5
:1034D000704700F00F000901C9B2014B1954704741
:1034E00014ED00E000B500F00700C0F1070CBCF1DE
:1034F000040F28BF4FF0040C031D062B0FD9C31E69
:103500004FF0FF3E0EFA0CF021EA000199400EFA4E
:1035100003FE22EA0E0241EA02005DF804FB0023EA
:10352000EEE70000074AD36823F4E0631B041B0C9A
:10353000000200F4E060034343F0BF6343F4003350
:10354000D360704700ED00E010B50446054BD86825
:10355000C0F30220FFF7C6FF01462046FFF7AEFF8B
:1035600010BD00BF00ED00E008B5FFF799FF08BDF2
:1035700070B110B50446037933B1022323710020E2
:1035800020610123237110BD4371FDF715FEF4E79F
:103590000120704750B310B504460068036801F07D
:1035A000100C4FF4805202FA0CF223EA020303607B
:1035B00020680368012202FA0CF223EA0203036086
:1035C00059B9A06800F05DF92268136823F400532C
:1035D000136001232371002010BDE06800F051F951
:1035E0002268136823F000531360F2E7012070474C
:1035F00048B3844649B34379012B28D010B54FF026
:10360000010E80F805E0022303710468206802F0CF
:10361000100240F6FE73934020EA03000B684968ED
:103620000B43934003432360DCF800000368C02190
:1036300001FA02F223EA020303608CF804E000209E
:103640008CF8050010BD0120704701207047022052
:10365000704730B405682C6824F480242C6004681A
:1036600063608368402B05D0036899600368DA6063
:1036700030BC704703689A600368D960F8E70000BF
:1036800010B40368D9B210390A4AA2FB01421209E8
:10369000094CA25CC2655F2907D96FF309030433A3
:1036A0008365806D5DF8044B70476FF30903836594
:1036B000F7E700BFABAAAAAAC0B90408836A826967
:1036C00092B9012B0AD0022B02D00BB10020704717
:1036D000C36A13F0807F28D100207047C36AB3F11A
:1036E000C07F24D000207047B2F5005F09D0022BC4
:1036F00025D9032B25D1C36A13F0807F23D1002065
:103700007047032B03D8DFE803F01404140A0020E9
:103710007047C36A13F0807F0DD100207047C36AE1
:10372000B3F1C07F09D0002070470120704701200D
:103730007047012070470120704701207047012029
:1037400070470020704701207047000070B50446A4
:10375000FFF78CFE002C5BD00546022384F8353041
:10376000002384F834302268136823F001031360C7
:1037700023681A6812F0010F0AD0FFF777FE431B87
:10378000052BF5D920236365032084F8350070BD2F
:103790001A68204911406268A0680243E068024349
:1037A0002069024360690243A0690243E069024361
:1037B000206A02430A43616A04291ED01A602668FF
:1037C000756925F00705636A1D43042B07D1A36AB9
:1037D0001D43E36A1BB12046FFF770FF90B9756186
:1037E0002046FFF74DFFE26D3F23934083600020AA
:1037F0006065012384F83530C9E7E16A206B014335
:103800000A43DBE740236365012084F83500BEE707
:103810000120BCE73F8010F038B50446856D90F874
:10382000340001282BD0012084F8340094F83500AE
:10383000C0B2012804D0002384F83430022038BDFF
:10384000022084F83500002060652046FFF701FF64
:10385000E26D3F239340AB602268136843F0160388
:103860001360236C23B12268136843F008031360CC
:103870002268136843F0010313600020DFE7022091
:10388000DDE770B50446866DFFF7F0FD94F835303E
:10389000DBB2022B06D080236365002384F834302A
:1038A000012070BD05462268136823F016031360DB
:1038B0002268536923F080035361236CE3B12268CB
:1038C000136823F0080313602268136823F00103D0
:1038D000136023681B6813F0010F11D0FFF7C6FDBA
:1038E000431B052BF5D920236365032084F835009D
:1038F000002384F83430D4E7A36C002BDFD1E3E756
:10390000E26D3F239340B360012384F835300020FB
:1039100084F83400C5E790F83530DBB2022B03D0D1
:103920008023436501207047052380F83530026805
:10393000136823F00103136000207047F0B583B0D3
:10394000044600230193724B1D68724BA3FB05359F
:10395000AD0A876D3E68C26D08239340334210D094
:1039600003681A6812F0040F0BD01A6822F00402E0
:103970001A60C26D08239340BB60436D43F001039E
:103980004365E26D01239340334209D022685269B6
:1039900012F0800F04D0BB60636D43F002036365D7
:1039A000E26D04239340334209D02268126812F07A
:1039B000020F04D0BB60636D43F004036365E26DE6
:1039C00010239340334224D02268126812F0080F6B
:1039D0001FD0BB6023681A6812F4802F0DD01B68BB
:1039E00013F4002F04D1236C9BB12046984710E0BC
:1039F000A36C73B1204698470BE01A6812F4807FDD
:103A000003D11A6822F008021A60236C0BB1204619
:103A10009847E26D20239340334255D022681268C4
:103A200012F0100F50D0BB6094F83530DBB2052B8C
:103A30000ED023681A6812F4802F33D01B6813F459
:103A4000002F2AD1636C002B3ED0204698473BE0E4
:103A50002268136823F0160313602268536923F069
:103A600080035361236CA3B12268136823F0080319
:103A70001360E26D3F239340BB60012384F835302F
:103A8000002384F83430236D002B3FD02046984724
:103A90003CE0A36C002BE7D1EBE7E36BA3B120463E
:103AA000984711E01A6812F4807F09D11A6822F051
:103AB00010021A60012384F83530002384F8343072
:103AC000E36B0BB120469847636DFBB1636D13F058
:103AD000010F17D0052384F835302268136823F0CE
:103AE00001031360019B01330193AB4204D82368A7
:103AF0001B6813F0010FF5D1012384F83530002342
:103B000084F83430E36C0BB12046984703B0F0BD25
:103B100030000020B5814E1B406D704700230F2BF5
:103B200000F2E98070B582B065E085684FEA430E27
:103B3000032404FA0EF425EA0405CC6804FA0EF412
:103B40002C438460446824EA02044A68C2F30012E9
:103B50009A40224342605CE0DC08083450F824209C
:103B600003F00705AD004FF00F0E0EFA05FE22EA36
:103B70000E0E0A69AA4042EA0E0240F824205CE0D8
:103B8000072200E0002202FA0EF22A4302345A4DC4
:103B900045F82420594A94686FEA0C0224EA0C057F
:103BA0004E6816F4801F01D04CEA0405534CA56002
:103BB000E46802EA04054E6816F4001F01D04CEADE
:103BC00004054E4CE560646802EA04054E6816F48C
:103BD000003F01D04CEA0405484C6560246822404F
:103BE0004D6815F4803F01D04CEA0402434C22603A
:103BF00001330F2B7DD801229A400C6804EA020C95
:103C000032EA0404F4D14C6804F00304013C012CB2
:103C10008BD94A6802F00302032A09D0C4685D0008
:103C20000322AA4024EA02048A68AA402243C2600E
:103C30004A6802F00302022A8ED004684FEA430E5B
:103C4000032202FA0EF224EA02044A6802F0030296
:103C500002FA0EF2224302604A6812F4403FC7D0D3
:103C600000220192264A546C44F480445464526CFD
:103C700002F480420192019A9C08A51C1E4A52F847
:103C8000255003F0030E4FEA8E0E0F2202FA0EF2B9
:103C900025EA02051B4A90423FF474AF02F58062A8
:103CA00090421AD002F58062904218D002F58062EC
:103CB000904216D002F58062904214D002F58062E4
:103CC000904212D002F58062904210D002F58062DC
:103CD00090423FF455AF082255E7012253E70222F4
:103CE00051E703224FE704224DE705224BE7062266
:103CF00049E702B070BD704700380140003C014008
:103D000000380240000002400369194201D001203E
:103D10007047002070470AB18161704709048161D2
:103D20007047436901EA030221EA030141EA0241C3
:103D300081617047002800F0E08170B582B00446D0
:103D4000036813F0010F3BD09F4B9B6803F00C03FB
:103D5000042B2CD09C4B9B6803F00C03082B21D028
:103D60006368B3F5803F4FD0B3F5A02F52D0964B88
:103D70001A6822F480321A601A6822F480221A60CB
:103D80006368002B50D0FFF771FB05468E4B1B6814
:103D900013F4003F14D1FFF769FB401B6428F5D9E9
:103DA0000320B1E1884B5B6813F4800FD8D0864BB9
:103DB0001B6813F4003F03D06368002B00F09F8161
:103DC000236813F0020F54D07F4B9B6813F00C0F45
:103DD0003ED07D4B9B6803F00C03082B33D0E36887
:103DE000002B68D0794B01221A60FFF73FFB054694
:103DF000754B1B6813F0020F54D1FFF737FB401BC4
:103E00000228F5D903207FE16F4A136843F4803319
:103E10001360B5E76C4B1A6842F480221A601A6886
:103E200042F480321A60ABE7FFF720FB0546664B91
:103E30001B6813F4003FC3D0FFF718FB401B642836
:103E4000F5D9032060E1604B5B6813F4800FC6D1A5
:103E50005D4B1B6813F0020F03D0E368012B40F0A9
:103E60005081594A136823F0F803216943EAC103DA
:103E70001360236813F0080F42D063696BB3534B90
:103E80000122C3F8802EFFF7F1FA05464E4B5B6F17
:103E900013F0020F34D1FFF7E9FA401B0228F5D9DD
:103EA000032031E1484A136823F0F803216943EA0B
:103EB000C1031360DDE7454B00221A60FFF7D6FA15
:103EC0000546414B1B6813F0020FD2D0FFF7CEFA24
:103ED000401B0228F5D9032016E13C4B0022C3F811
:103EE000802EFFF7C3FA0546374B5B6F13F0020FC6
:103EF00006D0FFF7BBFA401B0228F5D9032003E1E7
:103F0000236813F0040F77D02F4B1B6C13F0805FE6
:103F100033D1002301932C4B1A6C42F080521A6467
:103F20001B6C03F080530193019B0125284B1B68F8
:103F300013F4807F23D0A368012B34D0052B38D015
:103F4000214B1A6F22F001021A671A6F22F0040245
:103F50001A67A368002B3DD0FFF788FA06461A4B74
:103F60001B6F13F0020F46D1FFF780FA801B41F25E
:103F700088339842F3D90320C6E00025D6E7144AD7
:103F8000136843F480731360FFF770FA0646104B12
:103F90001B6813F4807FCED1FFF768FA801B0228DC
:103FA000F5D90320B0E0084A136F43F0010313670B
:103FB000CFE7054B1A6F42F004021A671A6F42F0FE
:103FC00001021A67C5E700BF0038024000004742FF
:103FD00000700040FFF74AFA0646524B1B6F13F081
:103FE000020F08D0FFF742FA801B41F28833984253
:103FF000F3D9032088E0EDB9A369002B00F083809A
:10400000484A926802F00C02082A51D0022B17D0BD
:10401000454B00221A66FFF729FA0446414B1B68FC
:1040200013F0007F42D0FFF721FA001B0228F5D9D8
:10403000032069E03B4A136C23F080531364DBE7F1
:10404000394B00221A66FFF711FA0546354B1B68FB
:1040500013F0007F06D0FFF709FA401B0228F5D9BC
:10406000032051E0E369226A1343626A43EA821340
:10407000A26A5208013A43EA0243E26A43EA02634F
:10408000284A5360284B01221A66FFF7EFF90446CD
:10409000244B1B6813F0007F06D1FFF7E7F9001BE4
:1040A0000228F5D903202FE000202DE000202BE08E
:1040B000012B2BD01B4B5B6803F48001E26991421A
:1040C00026D103F03F02216A8A4223D1616A47F672
:1040D000C0721A40B2EB811F1ED103F44031A26AB4
:1040E0005208013AB1EB024F18D103F07063E26A53
:1040F000B3EB026F14D1002006E0012070470120CD
:1041000002E0012000E0002002B070BD0120FBE7CA
:104110000120F9E70120F7E70120F5E70120F3E7A7
:104120000120F1E7003802400000474208B5334B58
:104130009B6803F00C03042B5BD0082B5BD12F4B47
:104140005A6802F03F025B6813F4800F2CD02B4BAF
:104150005868C0F388104FEA401CBCEB000C6EEBB3
:104160000E0E4FEA8E1343EA9C634FEA8C11B1EBBB
:104170000C0163EB0E03DB0043EA5173C90011EB42
:10418000000C43F10003590200234FEA4C2041EA9E
:10419000DC51FCF715F8194B5B68C3F3014301339D
:1041A0005B00B0FBF3F008BD144B5868C0F38810F7
:1041B0004FEA401CBCEB000C6EEB0E0E4FEA8E1368
:1041C00043EA9C634FEA8C11B1EB0C0163EB0E03E5
:1041D000DB0043EA5173C90011EB000C43F100030B
:1041E000990200234FEA8C2041EA9C51FBF7E8FF3B
:1041F000D1E70348D7E70348D5E700BF00380240BE
:1042000000127A000024F400002800F09B8070B5B2
:104210000D4604464F4B1B6803F007038B4208D240
:10422000CBB24C4A1370136803F007038B4240F083
:104230008B80236813F0020F17D013F0040F04D003
:10424000454A936843F4E0539360236813F0080FE2
:1042500004D0414A936843F4604393603E4A9368B4
:1042600023F0F003A1680B439360236813F0010F60
:1042700032D06368012B21D09A1E012A25D9364AF3
:10428000126812F0020F61D033498A6822F00302EB
:1042900013438B60FFF7EAF806462F4B9B6803F049
:1042A0000C036268B3EB820F16D0FFF7DFF8801BB8
:1042B00041F288339842F0D9032042E0264A12683E
:1042C00012F4003FE0D101203BE0234A126812F0D3
:1042D000007FD9D1012034E01E4B1B6803F0070397
:1042E000AB4207D9EAB21B4B1A701B6803F00703F5
:1042F000AB422DD1236813F0040F06D0164A936801
:1043000023F4E053E1680B439360236813F0080F34
:1043100007D0114A936823F46043216943EAC1033B
:104320009360FFF703FF0C4B9B68C3F303130B4A27
:10433000D35CD8400A4B18600A4B1868FEF7D2F8D5
:10434000002070BD012070470120FAE70120F8E746
:104350000120F6E7003C024000380240B0B90408F2
:104360003000002044000020014B1868704700BF57
:104370003000002008B5FFF7F7FF044B9B68C3F33C
:104380008223034AD35CD84008BD00BF00380240F6
:10439000A8B9040808B5FFF7E7FF044B9B68C3F30F
:1043A0004233034AD35CD84008BD00BF0038024006
:1043B000A8B904080F2303600B4B9A6802F00302AC
:1043C00042609A6802F0F00282609A6802F4E05259
:1043D000C2609B68DB0803F4E0530361034B1B6876
:1043E00003F007030B60704700380240003C0240B6
:1043F000836B1A68D36B43F48073D36370470000F8
:1044000070B582B0044600230193006802F083FA7D
:10441000054610B1284602B070BD206802F074FD58
:1044200038B90123A364A36C012B0BD02E46284678
:1044300014E00023A364206802F06DFA0028F2D093
:104440000546E7E70021206802F0CCFB0028EDD00C
:104450004FF08055DEE7019B01330193019A4FF63F
:10446000FE739A4213D896B90021206802F0BAFB75
:10447000E0B91249206802F093FC0646C0B9002159
:10448000206802F033FAC30FE5D01E46E3E7019A35
:104490004FF6FE739A420ED810F0804302D00123EB
:1044A0006364B7E7002262641D46B3E70546B1E7DF
:1044B0004FF08055AEE74FF08075ABE7000010C1BC
:1044C000F8B5846AC66AA6B9F8BD386802F0EBF997
:1044D0002070C0F307236370C0F30743A370000E7E
:1044E000E0700434043E0135072DEED9BC62FE6253
:1044F000EAE707460025F7E7F0B583B0046A466AA5
:10450000DEB903B0F0BD23780193627843EA022359
:104510000193A27843EA02430193E27843EA0263FB
:1045200001930434043E01A9386802F0BFF9013553
:10453000072DE8D93C627E62E3E707460025F7E7EE
:10454000F0B589B004460F46FEF790FF06460023FB
:10455000009301930821206802F09AFA054610B1F1
:10456000284609B0F0BD216D0904206802F03AFB2D
:1045700005460028F4D14FF0FF330293082303933C
:10458000302304930223059300230693012307930A
:1045900002A9206802F0ADF9206802F053FB05463D
:1045A00058B1DDE702F07FF94DF825000135FEF73F
:1045B0005DFF831BB3F1FF3F43D02068436B13F0D3
:1045C0002A0F07D1436B13F4001FEBD1436B13F495
:1045D000005FECD1436B13F0080F29D1436B13F448
:1045E000007F25D1436B13F0020F24D1456B15F0EA
:1045F000200523D140F23A538363019A130203F456
:104600007F0343EA0263110A01F47F410B4343EA4B
:1046100012633B60009A130203F47F0343EA0263D0
:10462000110A01F47F410B4343EA12637B6097E771
:104630000825856394E70225856391E72025856336
:104640008EE74FF000458BE710B582B0044600219D
:1046500000910191006802F049F910F0007F13D138
:1046600069462046FFF76CFF80B9019B13F4802F49
:104670000ED0216D0904206802F0B4FA30B902218D
:10468000206802F0C7FA01E04FF4006002B010BDEC
:104690004FF08060FAE710B582B004460021009127
:1046A0000191006802F022F910F0007F13D16946F1
:1046B0002046FFF745FF80B9019B13F4803F0ED0E1
:1046C000216D0904206802F08DFA30B900212068BC
:1046D00002F0A0FA01E04FF4006002B010BD4FF00C
:1046E0008060FAE770B581B104460E46016D090499
:1046F000006802F0BFFA054608B1284670BD0021E7
:10470000206802F0F3F83060F7E74FF00065F4E757
:104710002DE9F04387B0044691B116461F460A467C
:1047200090F83450EDB2012D7FD100238363F0194E
:10473000E36D98420AD9A36B43F00073A36375E05D
:10474000836B43F00063836301256FE0032384F8E8
:10475000343023680021D9622068C36B43F44A7364
:1047600043F00203C363236C3348D863236C33489C
:10477000D864236C1965236C9960206C01680B6800
:1047800023F0C003806803430B6021684FEA472988
:104790004FEA99038031206CFFF73EF8804668BBF2
:1047A000274B0122C3F88C25636C934200D076021C
:1047B0004FF0FF330093CDF804909023029302232F
:1047C000039300230493012305936946206802F0B4
:1047D00090F8012F22D9822323633146206802F00A
:1047E00087F938B32368174A9A63A36B0343A3631B
:1047F000012384F834300023236317E02268D36B4D
:1048000023F49573D36323680E4A9A63A36B43F032
:104810008043A363012384F8343007E081232363BA
:104820003146206802F04CF9DBE70225284607B044
:10483000BDE8F0834546F9E787490008714E000856
:1048400000802542FF054000F0B587B004460029EE
:104850003BD01E460F4690F83450EDB2012D40F08B
:104860008480002383639319C16D8B4233D8032363
:1048700080F8343003680021D9620068C36B43F4C8
:10488000067343F00203C363E36B3A48D863E36BF8
:104890003948D864E36B1965636C012B00D0520270
:1048A000012E1DD9A02323631146206802F050F980
:1048B000E8B12368314A9A63A36B0343A3630123DE
:1048C00084F834300023236350E0836B43F00063AB
:1048D000836301254AE0836B43F00073836345E003
:1048E000902323631146206802F01AF9E0E7244B75
:1048F0000122C3F88C25E36B40229A60E16B0A68C1
:10490000136823F0C00389680B43136022687602A2
:10491000B30880323946E06BFEF77EFF074698B158
:104920002268D36B23F4067323F00203D363236856
:10493000124A9A63A36B43F08043A363012384F874
:1049400034300023236311E04FF0FF3300930196CE
:104950009023029300230393049301230593694654
:10496000206801F0C6FF3D4600E00225284607B05A
:10497000F0BD00BFF1430008714E0008FF05400084
:1049800000802542704710B5846B236B822B11D0B9
:104990002268D36A23F00803D362236840F23A52B4
:1049A0009A63012384F8343000232363204602F005
:1049B00006FB10BD206802F0E3F803460028E7D0AC
:1049C000A26B1343A3632046FFF7DCFFE0E7000080
:1049D0000346426E920F0A70426EC2F383624A70BF
:1049E00090F8672002F003028A7090F86620CA707F
:1049F00090F865200A7190F864204A71826E120D59
:104A0000CA80B0F86A2002F00F020A72826EC2F306
:104A1000C0324A72826EC2F380328A72826EC2F3F0
:104A20004032CA72826EC2F300320A7300224A73A5
:104A3000426C002A40F08680806E40F6FC7202EAEA
:104A40008002D86E42EA90720A61DA6EC2F3C262E4
:104A50000A7593F86F2002F007024A75DA6EC2F306
:104A600042528A75DA6EC2F38242CA75DA6EC2F3B6
:104A7000C2320A760A6901325A65087E00F00700E0
:104A8000023082405A6591F808C00CF00F0C0120EA
:104A900000FA0CF09865400A00FB02F2DA654FF468
:104AA00000721A66DA6EC2F380324A76DA6EC2F3A8
:104AB000C6128A76DA6E02F07F02CA761A6FD20FB9
:104AC0000A771A6FC2F341724A771A6FC2F3826291
:104AD0008A771A6FC2F38352CA771A6FC2F34052B1
:104AE00081F82020002081F82100B3F8722002F024
:104AF000010281F822201A6FC2F3C03281F823200C
:104B00001A6FC2F3803281F824201A6FC2F3403248
:104B100081F825201A6FC2F3003281F826201A6F1F
:104B2000C2F3812281F827201A6FC2F3012281F893
:104B300028201B6FC3F3460381F82930012381F835
:104B40002A307047012A11D1826E120402F47C12BD
:104B5000B0F86E0002430A610A69013292025A6596
:104B6000DA654FF400729A651A669BE70268054998
:104B70009163826B42F080528263012083F834009B
:104B8000704700BFFF05400070B590B00446012398
:104B9000ADF81230006801F092FE00286CD0636C12
:104BA000032B45D1636C032B5DD1636C032B1DD0AC
:104BB000BDF8121021650904206802F0B6F8054618
:104BC00000285BD10021206801F090FE606604217E
:104BD000206801F08BFEA0660821206801F086FEA7
:104BE000E0660C21206801F081FE20670421206826
:104BF00001F07CFE000DE06405A92046FFF7E8FE09
:104C000000283ED1226D12040023206801F0D2FF5B
:104C1000054698BB234653F8106B93E807008DE8D0
:104C20000700043494E80E00304601F023FE25E02E
:104C3000206802F065F8054600BB0021206801F0FD
:104C400055FE60670421206801F050FEA06708212E
:104C5000206801F04BFEE0670C21206801F046FE61
:104C6000C4F880009EE70DF11201206802F002F9FD
:104C70000546002899D001E04FF08065284610B025
:104C800070BD4FF08055F9E770B58AB00446002337
:104C900004930593069307930893762309930AAB2D
:104CA00013E907008DE8070004AB0ECB206801F084
:104CB000E1FD18B1012528460AB070BD05461A4E1F
:104CC0000023C6F8A030206801F0F5FD0123C6F8E6
:104CD000A0300220FEF7D0FB2046FFF791FB30B159
:104CE000012584F83450A36B0343A363E3E7204614
:104CF000FFF74AFF30B1012584F83450A36B03431A
:104D0000A363D8E74FF40071206801F0C1FE0028CA
:104D1000D1D0236805499963A36B0343A36301259D
:104D200084F83450C7E700BF00802542FF054000EB
:104D3000A8B110B5044690F8343063B1032384F869
:104D400034302046FFF7A0FF58B9A0632063012349
:104D500084F8343010BD0377FDF772FAEEE70120D6
:104D600070470120F6E7436C0B60836C4B60C36CAB
:104D70008B60036DCB60436D0B61836D4B61C36DC5
:104D80008B61036ECB6100207047000030B58BB0A3
:104D900004460D46032380F83430436C032B1CD0AB
:104DA000B1F5805F08D0B1F5006F0AD079B1836B9F
:104DB00043F00063836314E0836B43F080538363A9
:104DC0000FE0FFF741FCA36B0343A36309E0FFF788
:104DD00062FCA36B0343A36303E0836B43F0805344
:104DE0008363A36BC3B12368174A9A63012584F8D0
:104DF00034504FF40071206801F04AFE30B123684E
:104E000011499963A36B0343A3630125012384F82C
:104E1000343028460BB030BD63680493A368059313
:104E2000E3680693079563690893A36909930AAB3E
:104E300013E907008DE8070004AB0ECB206801F0F2
:104E400019FD0025D5E700BFFF05400010B582B071
:104E500004460023019301A9FFF744FC10B1A36BA2
:104E60000343A3630198C0F3432002B010BD0000C8
:104E700010B5846BFEF750FE02280AD0236C5B6DE0
:104E8000E26B526D012B05D0012A03D02046FFF7BB
:104E900079FD10BD23680F4A9A632268D36B23F40F
:104EA0009D73D363A36B43F08043A3632046FFF756
:104EB000CDFF0538012805D9012384F834300023BB
:104EC0002363E3E7206801F05BFEA36B0343A36366
:104ED000F2E700BFFF05400010B5846B236840F285
:104EE0003A529A632046FFF7B1FF012384F8343029
:104EF000002323630538012805D9A36B53B9204645
:104F000002F055F810BD206801F03AFEA36B034390
:104F1000A363F2E72046FFF735FDF3E710B5846B96
:104F2000236840F23A529A632046FFF78FFF01232D
:104F300084F83430002323630538012805D9A36B96
:104F400053B9204602F033F810BD206801F018FE76
:104F5000A36B0343A363F2E72046FFF713FDF3E7D8
:104F600038B50446056B03685A6B12F4004F02D043
:104F700015F0080F28D15A6B12F4807F5AD04FF4E5
:104F800080729A632268D36B23F4434323F03A037D
:104F9000D3632268D36A23F00103D36215F0080FAC
:104FA00026D015F0220F12D1236840F23A529A63AC
:104FB000012384F834300023236315F0030F13D04A
:104FC000204601F0FCFF01E0FFF77AFA38BD2068C7
:104FD00001F0D6FD03460028E6D0A26B1343A3637D
:104FE0002046FFF7CFFCDFE7204601F0E4FFEDE7C6
:104FF00015F0800FEAD015F0200F0ED115F0030F39
:10500000E4D12268D36A23F00803D362012384F831
:105010003430204601F0CFFFD8E7206801F0B0FD22
:1050200003460028EAD0A26B1343A3632046FFF790
:10503000A9FCE3E75A6B12F4804F02D015F0080F79
:1050400055D1596B40F23A221142BFD05A6B12F03F
:10505000020F03D0A26B42F00202A2635A6B12F05D
:10506000080F03D0A26B42F00802A2635A6B12F041
:10507000200F03D0A26B42F02002A2635A6B12F001
:10508000100F03D0A26B42F01002A2635A6B12F40D
:10509000007F03D0A26B42F00802A26340F23A7292
:1050A0009A632268D36B23F44E7323F00203D36315
:1050B000206801F065FDA36B0343A36315F0080F9F
:1050C00019D115F0800F81D015F0300F1CD115F0DB
:1050D000030F26D0236C184A1A65206CFEF71BFCC0
:1050E00000283FF473AF206CFFF718FF6EE72046EF
:1050F000FFF702FA6AE7012384F8343000232363C0
:105100002046FFF73FFC61E7E36B0C4A1A65E06B52
:10511000FEF701FC00283FF459AFE06BFFF7DCFE1F
:1051200054E70023A363012284F83420236320463C
:1051300001F03DFF4AE700BF1D4F0008D94E0008AF
:105140002DE9F04782B00546884617461E46FEF711
:105150008DF90A9B1B1A03EB0609FEF787F98246B5
:10516000284B1B68C3F3CB3309FB03F301932B6874
:105170009C6838EA04040CBF01230023BB423DD0E5
:10518000B6F1FF3FF3D0FEF771F9A0EB0A004845F6
:1051900007D2019A02B14A46019B013B0193914615
:1051A000E5E72A68536823F0E00353606B68B3F5C2
:1051B000827F0BD0AB6AB3F5005F14D0012385F872
:1051C0005130002385F85030032018E0AB68B3F568
:1051D000004F02D0B3F5806FECD12A68136823F03A
:1051E00040031360E6E72A68136823F40053136052
:1051F0002A68136843F400531360DFE7002002B00D
:10520000BDE8F0873000002070B584B004460D463C
:10521000164600920B4601220221FFF791FFD0B9FA
:10522000174B1B68174AA2FB03235B0D4FF47A72DE
:1052300002FB03F303936368B3F5827F11D0039BF2
:105240003BB1039B013B039323689B6813F0800FE2
:10525000F5D104B070BD636D43F020036365032096
:10526000F7E700962B46002280212046FFF768FFD3
:105270000028EED0636D43F0200363650320E8E768
:1052800030000020819F5E1600285AD010B50446D9
:10529000436A33B94368B3F5827F05D00023C36105
:1052A00002E00023036143610023A36294F85130BC
:1052B000002B40D0022384F851302268136823F079
:1052C00040031360636803F48273A26802F404422B
:1052D0001343E26802F400621343226902F00202FF
:1052E0001343626902F001021343A26902F40072DF
:1052F0001343E26902F038021343226A02F080028B
:105300001343A26A02F40052216813430B60638BBB
:1053100003F00403626A02F01002216813434B6039
:105320002268D36923F40063D36100206065012300
:1053300084F8513010BD84F850302046FDF75AF8FB
:10534000B8E701207047000038B590F85150EDB231
:10535000012D5DD1044600295BD0002A59D090F878
:105360005030012B57D0012380F85030032380F8B0
:1053700051300023436501638286C28683634364A0
:1053800003648387C3878368B3F5004F2DD0A36C74
:10539000224A1A64A36C224ADA63A36C214ADA64B3
:1053A000A36C00221A652268E38E9BB20C32216B3B
:1053B000A06CFEF731FA014610BB23681A6812F0A0
:1053C000400F03D11A6842F040021A60002384F8AB
:1053D00050302268536843F02003536022685368BA
:1053E00043F0020353600D4613E00268136823F094
:1053F000400313600268136843F480431360C6E7F8
:10540000636D43F010036365002384F8503000E0BF
:105410000225284638BD0225FBE700BF2B540008B3
:105420005954000837540008704708B5806BFFF7DF
:10543000FBFF08BD704708B5806B0268536823F016
:1054400003035360436D43F010034365012380F869
:105450005130FFF7EFFF08BD30B583B00546846BD0
:10546000FEF704F82B681B6813F4807F23D10246F3
:1054700021684B6823F020034B6021684B6823F0C0
:1054800002034B6064212046FFF7BEFE18B1636D36
:1054900043F020036365A36833B901932368DA6896
:1054A00001929B680193019B0023E386012384F80A
:1054B0005130636D23B92046FDF758FE03B030BD6F
:1054C0002046FFF7B7FFF9E730B4036A026A22F01B
:1054D000010202624268846924F0730C0C6844EA99
:1054E0000C0423F0020C8B6843EA0C03114DA84214
:1054F00003D005F58065A84205D123F00803CD68E7
:105500002B4323F004030B4DA84203D005F580651F
:10551000A84207D122F440724D6945EA020C8A691B
:1055200042EA0C02426084614A684263036230BC12
:10553000704700BF0000014030B4036A026A22F4E1
:10554000807202624268C46924F0730C0C6844EAF9
:105550000C0523F400738C6843EA0423114CA04229
:1055600003D004F58064A04206D123F40063CC6824
:1055700043EA042323F480630A4CA04203D004F5D9
:105580008064A04207D122F440524C6942EA0412DE
:105590008C6942EA04124260C5614A68C2630362D0
:1055A00030BC70470000014030B4036A026A22F444
:1055B000805202624468C26922F4E6420D6842EAFF
:1055C000052223F400538D6843EA0533094DA842B0
:1055D00003D005F58065A84204D124F480444D69C8
:1055E00044EA85144460C2614A680264036230BCC4
:1055F000704700BF0000014090F83D30DBB2012B46
:1056000032D1022380F83D300368194A934220D0FA
:10561000B3F1804F1DD0A2F57C42934219D002F520
:105620008062934215D002F58062934211D002F558
:10563000784293420DD002F57052934209D0A2F500
:105640009432934205D01A6842F001021A60002099
:1056500070479A6802F00702062A07D01A6842F0DB
:1056600001021A6000207047012070470020704737
:10567000000001400368196A41F21112114208D179
:10568000196A40F24442114203D11A6822F0010221
:105690001A60012380F83D300020704790F83D30BB
:1056A000DBB2012B37D1022380F83D300268D3688A
:1056B00043F00103D3600368194A934220D0B3F149
:1056C000804F1DD0A2F57C42934219D002F5806232
:1056D000934215D002F58062934211D002F57842D0
:1056E00093420DD002F57052934209D0A2F5943244
:1056F000934205D01A6842F001021A6000207047F8
:105700009A6802F00702062A07D01A6842F00102DE
:105710001A6000207047012070470020704700BFCA
:1057200000000140704770477047704770B50446ED
:105730000368DE681D6915F0020F10D016F0020F25
:105740000DD06FF002021A610123037703689B6991
:1057500013F0030F5ED0FFF7E6FF0023237715F069
:10576000040F12D016F0040F0FD023686FF004025C
:105770001A610223237723689B6913F4407F4FD07B
:105780002046FFF7D0FF0023237715F0080F12D033
:1057900016F0080F0FD023686FF008021A61042377
:1057A00023772368DB6913F0030F40D02046FFF70F
:1057B000BAFF0023237715F0100F12D016F0100F48
:1057C0000FD023686FF010021A6108232377236833
:1057D000DB6913F4407F31D02046FFF7A4FF00239C
:1057E000237715F0010F02D016F0010F2DD115F01F
:1057F000800F02D016F0800F2FD115F0400F02D08D
:1058000016F0400F31D115F0200F02D016F0200F06
:1058100033D170BDFFF786FF2046FFF785FF9CE779
:105820002046FFF77FFF2046FFF77EFFABE72046CD
:10583000FFF778FF2046FFF777FFBAE72046FFF72C
:1058400071FF2046FFF770FFC9E723686FF0010280
:105850001A612046FCF760FCC9E723686FF08002FC
:105860001A61204600F09BFAC7E723686FF04002F8
:105870001A612046FFF759FFC5E723686FF0200241
:105880001A61204600F08AFAC3E700000368344A30
:10589000904212D0B0F1804F0FD0A2F57C429042DE
:1058A0000BD002F58062904207D002F580629042F0
:1058B00003D002F57842904203D123F070034A6886
:1058C0001343274A90422AD0B0F1804F27D0A2F547
:1058D0007C42904223D002F5806290421FD002F5B4
:1058E000806290421BD002F57842904217D002F5B8
:1058F0007052904213D002F5806290420FD002F5B0
:10590000806290420BD0A2F59832904207D002F507
:105910008062904203D002F58062904203D123F46A
:105920004073CA68134323F080034A69134303603A
:105930008B68C3620B688362094B984203D003F5FE
:105940008063984201D10B690363012343610369BA
:1059500013F0010F03D0036923F0010303617047C3
:105960000000014040B310B5044690F83D30F3B15B
:10597000022384F83D30214651F8040BFFF786FFDF
:10598000012384F8463084F83E3084F83F3084F8B0
:10599000403084F8413084F8423084F8433084F851
:1059A000443084F8453084F83D30002010BD80F844
:1059B0003C30FCF735FFDBE70120704740B310B502
:1059C000044690F83D30F3B1022384F83D3021467F
:1059D00051F8040BFFF75AFF012384F8463084F88E
:1059E0003E3084F83F3084F8403084F8413084F809
:1059F000423084F8433084F8443084F8453084F8E9
:105A00003D30002010BD80F83C30FCF7DFFEDBE7C6
:105A10000120704730B4036A026A22F01002026269
:105A20004468826922F4E6420D6842EA052223F0C6
:105A300020038D6843EA0513114DA84203D005F5F4
:105A40008065A84206D123F08003CD6843EA0513A0
:105A500023F040030A4DA84203D005F58065A84213
:105A600007D124F440644D6944EA85048D6944EA11
:105A70008504446082614A688263036230BC704777
:105A80000000014038B590F83C30012B66D0044648
:105A90000D46012380F83C300C2A5AD8DFE802F08A
:105AA000075959591B5959593059595944000068D7
:105AB000FFF70AFD2268936943F0080393612268A7
:105AC000936923F0040393612268936929690B4366
:105AD000936100203EE00068FFF79CFF2268936915
:105AE00043F4006393612268936923F480639361B4
:105AF00022689369296943EA01239361002029E020
:105B00000068FFF719FD2268D36943F00803D361E9
